2025-05-21 10:27:55,415 [INFO] ===== FIX ENGINE INITIALISED FOR SYMBOL passive_liquidity_provider =====
2025-05-21 10:27:55,420 [INFO] OUT: 8=FIX.4.4|9=177|35=D|49=MY_COMPANY|56=EXCHANGE|34=1|11=passive_liquidity_provider-1747819675.420077|55=PHIA.AS|54=1|44=21.30866900|38=9|52=20250521-09:27:55.420|6007=passive_liquidity_provider|10=243|
2025-05-21 10:27:55,420 [INFO] IN: 8=FIX.4.4|9=177|35=D|49=MY_COMPANY|56=EXCHANGE|34=1|11=passive_liquidity_provider-1747819675.420077|55=PHIA.AS|54=1|44=21.30866900|38=9|52=20250521-09:27:55.420|6007=passive_liquidity_provider|10=243|
2025-05-21 10:28:41,461 [INFO] OUT: 8=FIX.4.4|9=179|35=D|49=MY_COMPANY|56=EXCHANGE|34=1|11=passive_liquidity_provider-1747819721.4617689|55=ASML.AS|54=1|44=659.34000000|38=7|52=20250521-09:28:41.461|6007=passive_liquidity_provider|10=100|
2025-05-21 10:29:29,062 [INFO] OUT: 8=FIX.4.4|9=178|35=D|49=MY_COMPANY|56=EXCHANGE|34=1|11=passive_liquidity_provider-1747819769.062699|55=ASML.AS|54=1|44=659.34000000|38=8|52=20250521-09:29:29.062|6007=passive_liquidity_provider|10=059|
2025-05-21 10:29:29,062 [INFO] IN: 8=FIX.4.4|9=178|35=D|49=MY_COMPANY|56=EXCHANGE|34=1|11=passive_liquidity_provider-1747819769.062699|55=ASML.AS|54=1|44=659.34000000|38=8|52=20250521-09:29:29.062|6007=passive_liquidity_provider|10=059|
2025-05-21 10:29:29,063 [INFO] OUT: 8=FIX.4.4|9=293|35=8|49=EXCHANGE|56=MY_COMPANY|34=2|11=fdef245e-0e03-40fe-a498-6ef7f24ab4d8|37=fdef245e-0e03-40fe-a498-6ef7f24ab4d8|17=b4a59f2f-4505-4968-a4f1-8b5fb4212d75|39=2|150=F|55=ASML.AS|54=1|38=8|32=8|31=659.34000000|151=0|14=8|44=659.34000000|6007=passive_liquidity_provider|52=20250521-09:29:29.063|10=167|
2025-05-21 10:29:29,063 [INFO] OUT: 8=FIX.4.4|9=293|35=8|49=EXCHANGE|56=MY_COMPANY|34=3|11=98838d9c-b1af-4f40-82d3-ba8a1291935d|37=98838d9c-b1af-4f40-82d3-ba8a1291935d|17=291da5e4-9c86-497c-b7d9-435fde428670|39=2|150=F|55=ASML.AS|54=2|38=6|32=6|31=659.34000000|151=0|14=6|44=659.34000000|6007=passive_liquidity_provider|52=20250521-09:29:29.063|10=059|
2025-05-21 10:29:29,065 [INFO] ===== FIX ENGINE INITIALISED FOR SYMBOL passive_liquidity_provider =====
2025-05-21 10:29:29,070 [INFO] OUT: 8=FIX.4.4|9=177|35=D|49=MY_COMPANY|56=EXCHANGE|34=1|11=passive_liquidity_provider-1747819769.070567|55=PHIA.AS|54=1|44=21.30866900|38=4|52=20250521-09:29:29.070|6007=passive_liquidity_provider|10=251|
2025-05-21 10:29:29,070 [INFO] IN: 8=FIX.4.4|9=177|35=D|49=MY_COMPANY|56=EXCHANGE|34=1|11=passive_liquidity_provider-1747819769.070567|55=PHIA.AS|54=1|44=21.30866900|38=4|52=20250521-09:29:29.070|6007=passive_liquidity_provider|10=251|
2025-05-21 10:29:29,071 [INFO] OUT: 8=FIX.4.4|9=291|35=8|49=EXCHANGE|56=MY_COMPANY|34=2|11=93ad5d6c-ebb7-4dd6-b2eb-1b09998bb0a9|37=93ad5d6c-ebb7-4dd6-b2eb-1b09998bb0a9|17=212b53de-e4e9-4727-9cca-05781e65e49d|39=2|150=F|55=PHIA.AS|54=1|38=4|32=4|31=21.30866900|151=0|14=4|44=21.30866900|6007=passive_liquidity_provider|52=20250521-09:29:29.071|10=201|
2025-05-21 10:29:29,071 [INFO] OUT: 8=FIX.4.4|9=291|35=8|49=EXCHANGE|56=MY_COMPANY|34=3|11=d590b1f0-f0b3-48f5-a9a6-cfc73d47f6cf|37=d590b1f0-f0b3-48f5-a9a6-cfc73d47f6cf|17=cd401a39-11d9-444e-a7b4-6ff9e89a7a31|39=2|150=F|55=PHIA.AS|54=2|38=9|32=9|31=21.30866900|151=0|14=9|44=21.30866900|6007=passive_liquidity_provider|52=20250521-09:29:29.071|10=169|
2025-05-21 10:29:29,077 [INFO] ===== FIX ENGINE INITIALISED FOR SYMBOL passive_liquidity_provider =====
2025-05-21 10:29:29,079 [INFO] OUT: 8=FIX.4.4|9=177|35=D|49=MY_COMPANY|56=EXCHANGE|34=1|11=passive_liquidity_provider-1747819769.079328|55=INGA.AS|54=1|44=19.13084900|38=6|52=20250521-09:29:29.079|6007=passive_liquidity_provider|10=007|
2025-05-21 10:29:29,079 [INFO] IN: 8=FIX.4.4|9=177|35=D|49=MY_COMPANY|56=EXCHANGE|34=1|11=passive_liquidity_provider-1747819769.079328|55=INGA.AS|54=1|44=19.13084900|38=6|52=20250521-09:29:29.079|6007=passive_liquidity_provider|10=007|
2025-05-21 10:29:29,079 [INFO] OUT: 8=FIX.4.4|9=291|35=8|49=EXCHANGE|56=MY_COMPANY|34=2|11=ac2ee469-a0ab-4781-8a45-4916f4924d2e|37=ac2ee469-a0ab-4781-8a45-4916f4924d2e|17=d782fa70-d037-47d8-8321-d35690114a4b|39=2|150=F|55=INGA.AS|54=1|38=6|32=6|31=19.13084900|151=0|14=6|44=19.13084900|6007=passive_liquidity_provider|52=20250521-09:29:29.079|10=086|
2025-05-21 10:29:29,080 [INFO] OUT: 8=FIX.4.4|9=291|35=8|49=EXCHANGE|56=MY_COMPANY|34=3|11=212f2141-3fea-4a32-8ef0-87aced6b1e6d|37=212f2141-3fea-4a32-8ef0-87aced6b1e6d|17=bf7456fc-e7fe-4fdc-8d87-b6e14e0f2a46|39=2|150=F|55=INGA.AS|54=2|38=1|32=1|31=19.13084900|151=0|14=1|44=19.13084900|6007=passive_liquidity_provider|52=20250521-09:29:29.080|10=211|
2025-05-21 10:29:29,085 [INFO] ===== FIX ENGINE INITIALISED FOR SYMBOL passive_liquidity_provider =====
2025-05-21 10:29:29,087 [INFO] OUT: 8=FIX.4.4|9=176|35=D|49=MY_COMPANY|56=EXCHANGE|34=1|11=passive_liquidity_provider-1747819769.0876532|55=AD.AS|54=1|44=37.83212800|38=5|52=20250521-09:29:29.087|6007=passive_liquidity_provider|10=155|
2025-05-21 10:29:29,087 [INFO] IN: 8=FIX.4.4|9=176|35=D|49=MY_COMPANY|56=EXCHANGE|34=1|11=passive_liquidity_provider-1747819769.0876532|55=AD.AS|54=1|44=37.83212800|38=5|52=20250521-09:29:29.087|6007=passive_liquidity_provider|10=155|
2025-05-21 10:29:29,087 [INFO] OUT: 8=FIX.4.4|9=289|35=8|49=EXCHANGE|56=MY_COMPANY|34=2|11=fd4e9944-9efc-4973-b937-7dab7e02e9cb|37=fd4e9944-9efc-4973-b937-7dab7e02e9cb|17=4818b923-69cc-4a74-9a11-8c128f33e1ae|39=2|150=F|55=AD.AS|54=1|38=5|32=5|31=37.83212800|151=0|14=5|44=37.83212800|6007=passive_liquidity_provider|52=20250521-09:29:29.087|10=119|
2025-05-21 10:29:29,087 [INFO] OUT: 8=FIX.4.4|9=289|35=8|49=EXCHANGE|56=MY_COMPANY|34=3|11=17966c63-dd32-4610-be5c-e45c4c40ec36|37=17966c63-dd32-4610-be5c-e45c4c40ec36|17=a216deee-4a5a-4394-8bd9-4cb82d0c3c8b|39=2|150=F|55=AD.AS|54=2|38=9|32=9|31=37.83212800|151=0|14=9|44=37.83212800|6007=passive_liquidity_provider|52=20250521-09:29:29.087|10=010|
2025-05-21 10:29:29,090 [INFO] ===== FIX ENGINE INITIALISED FOR SYMBOL passive_liquidity_provider =====
2025-05-21 10:29:29,091 [INFO] OUT: 8=FIX.4.4|9=176|35=D|49=MY_COMPANY|56=EXCHANGE|34=1|11=passive_liquidity_provider-1747819769.091872|55=OR.PA|54=1|44=380.66893701|38=8|52=20250521-09:29:29.091|6007=passive_liquidity_provider|10=191|
2025-05-21 10:29:29,091 [INFO] IN: 8=FIX.4.4|9=176|35=D|49=MY_COMPANY|56=EXCHANGE|34=1|11=passive_liquidity_provider-1747819769.091872|55=OR.PA|54=1|44=380.66893701|38=8|52=20250521-09:29:29.091|6007=passive_liquidity_provider|10=191|
2025-05-21 10:29:29,092 [INFO] OUT: 8=FIX.4.4|9=291|35=8|49=EXCHANGE|56=MY_COMPANY|34=2|11=e9709e58-8744-42ab-bc50-09209ecec4a5|37=e9709e58-8744-42ab-bc50-09209ecec4a5|17=80b90e71-c189-4ad7-b08a-0a2a4dbbd1f8|39=2|150=F|55=OR.PA|54=1|38=8|32=8|31=380.66893701|151=0|14=8|44=380.66893701|6007=passive_liquidity_provider|52=20250521-09:29:29.092|10=113|
2025-05-21 10:29:29,092 [INFO] OUT: 8=FIX.4.4|9=291|35=8|49=EXCHANGE|56=MY_COMPANY|34=3|11=8298a46a-64af-4856-85ad-220dbf0824d8|37=8298a46a-64af-4856-85ad-220dbf0824d8|17=bb48e979-ee36-4cba-a216-a0071031ba3c|39=2|150=F|55=OR.PA|54=2|38=4|32=4|31=380.66893701|151=0|14=4|44=380.66893701|6007=passive_liquidity_provider|52=20250521-09:29:29.092|10=213|
2025-05-21 10:29:29,093 [INFO] ===== FIX ENGINE INITIALISED FOR SYMBOL passive_liquidity_provider =====
2025-05-21 10:29:29,094 [INFO] OUT: 8=FIX.4.4|9=177|35=D|49=MY_COMPANY|56=EXCHANGE|34=1|11=passive_liquidity_provider-1747819769.0942981|55=SAN.PA|54=1|44=93.42647600|38=8|52=20250521-09:29:29.094|6007=passive_liquidity_provider|10=000|
2025-05-21 10:29:29,094 [INFO] IN: 8=FIX.4.4|9=177|35=D|49=MY_COMPANY|56=EXCHANGE|34=1|11=passive_liquidity_provider-1747819769.0942981|55=SAN.PA|54=1|44=93.42647600|38=8|52=20250521-09:29:29.094|6007=passive_liquidity_provider|10=000|
2025-05-21 10:29:29,094 [INFO] OUT: 8=FIX.4.4|9=290|35=8|49=EXCHANGE|56=MY_COMPANY|34=2|11=f8bd473a-0a73-4c18-b6d8-d2de860bf60f|37=f8bd473a-0a73-4c18-b6d8-d2de860bf60f|17=f7ff531a-032c-49e6-acb4-813ffca9c6ff|39=2|150=F|55=SAN.PA|54=1|38=8|32=8|31=93.42647600|151=0|14=8|44=93.42647600|6007=passive_liquidity_provider|52=20250521-09:29:29.094|10=201|
2025-05-21 10:29:29,094 [INFO] OUT: 8=FIX.4.4|9=290|35=8|49=EXCHANGE|56=MY_COMPANY|34=3|11=3f9ff944-8a25-4ee4-98c2-658c17027475|37=3f9ff944-8a25-4ee4-98c2-658c17027475|17=39df8882-f3bd-42dc-8059-b5741cecdad3|39=2|150=F|55=SAN.PA|54=2|38=9|32=9|31=93.42647600|151=0|14=9|44=93.42647600|6007=passive_liquidity_provider|52=20250521-09:29:29.094|10=105|
2025-05-21 10:29:34,106 [INFO] OUT: 8=FIX.4.4|9=178|35=D|49=MY_COMPANY|56=EXCHANGE|34=4|11=passive_liquidity_provider-1747819774.106514|55=ASML.AS|54=1|44=659.34000000|38=2|52=20250521-09:29:34.106|6007=passive_liquidity_provider|10=032|
2025-05-21 10:29:34,107 [INFO] IN: 8=FIX.4.4|9=178|35=D|49=MY_COMPANY|56=EXCHANGE|34=4|11=passive_liquidity_provider-1747819774.106514|55=ASML.AS|54=1|44=659.34000000|38=2|52=20250521-09:29:34.106|6007=passive_liquidity_provider|10=032|
2025-05-21 10:29:34,107 [INFO] OUT: 8=FIX.4.4|9=293|35=8|49=EXCHANGE|56=MY_COMPANY|34=5|11=c57f63e5-3277-4edf-930e-f42927670b1c|37=c57f63e5-3277-4edf-930e-f42927670b1c|17=b16400f3-6eea-42e0-9009-8c6bdfaa836c|39=2|150=F|55=ASML.AS|54=1|38=2|32=2|31=659.34000000|151=0|14=2|44=659.34000000|6007=passive_liquidity_provider|52=20250521-09:29:34.107|10=064|
2025-05-21 10:29:34,108 [INFO] OUT: 8=FIX.4.4|9=293|35=8|49=EXCHANGE|56=MY_COMPANY|34=6|11=cfaf82e9-842b-4f2c-9f80-ec06eee4178d|37=cfaf82e9-842b-4f2c-9f80-ec06eee4178d|17=2cac81af-0bcb-4f64-a78e-e29b820b5c84|39=2|150=F|55=ASML.AS|54=2|38=4|32=4|31=659.34000000|151=0|14=4|44=659.34000000|6007=passive_liquidity_provider|52=20250521-09:29:34.108|10=147|
2025-05-21 10:29:34,115 [INFO] OUT: 8=FIX.4.4|9=177|35=D|49=MY_COMPANY|56=EXCHANGE|34=4|11=passive_liquidity_provider-1747819774.115672|55=PHIA.AS|54=1|44=21.30866900|38=8|52=20250521-09:29:34.115|6007=passive_liquidity_provider|10=247|
2025-05-21 10:29:34,116 [INFO] IN: 8=FIX.4.4|9=177|35=D|49=MY_COMPANY|56=EXCHANGE|34=4|11=passive_liquidity_provider-1747819774.115672|55=PHIA.AS|54=1|44=21.30866900|38=8|52=20250521-09:29:34.115|6007=passive_liquidity_provider|10=247|
2025-05-21 10:29:34,116 [INFO] OUT: 8=FIX.4.4|9=291|35=8|49=EXCHANGE|56=MY_COMPANY|34=5|11=1ce3c817-17cb-42a1-b3d1-8e7036baff8f|37=1ce3c817-17cb-42a1-b3d1-8e7036baff8f|17=9309e514-953c-4bcd-a622-322b3e9bd86e|39=2|150=F|55=PHIA.AS|54=1|38=8|32=8|31=21.30866900|151=0|14=8|44=21.30866900|6007=passive_liquidity_provider|52=20250521-09:29:34.116|10=241|
2025-05-21 10:29:34,116 [INFO] OUT: 8=FIX.4.4|9=291|35=8|49=EXCHANGE|56=MY_COMPANY|34=6|11=c7092ff5-dc04-40ea-a700-28e35d04a807|37=c7092ff5-dc04-40ea-a700-28e35d04a807|17=e6989609-2e60-4b9b-88bc-bc16be35cd9e|39=2|150=F|55=PHIA.AS|54=2|38=7|32=7|31=21.30866900|151=0|14=7|44=21.30866900|6007=passive_liquidity_provider|52=20250521-09:29:34.116|10=056|
2025-05-21 10:29:34,124 [INFO] OUT: 8=FIX.4.4|9=178|35=D|49=MY_COMPANY|56=EXCHANGE|34=4|11=passive_liquidity_provider-1747819774.1239018|55=INGA.AS|54=1|44=19.13084900|38=2|52=20250521-09:29:34.124|6007=passive_liquidity_provider|10=033|
2025-05-21 10:29:34,124 [INFO] IN: 8=FIX.4.4|9=178|35=D|49=MY_COMPANY|56=EXCHANGE|34=4|11=passive_liquidity_provider-1747819774.1239018|55=INGA.AS|54=1|44=19.13084900|38=2|52=20250521-09:29:34.124|6007=passive_liquidity_provider|10=033|
2025-05-21 10:29:34,126 [INFO] OUT: 8=FIX.4.4|9=291|35=8|49=EXCHANGE|56=MY_COMPANY|34=5|11=a52065d1-8074-4542-92f6-b65b5cebd9bb|37=a52065d1-8074-4542-92f6-b65b5cebd9bb|17=ff516451-19e0-40e2-824f-a95fe0d2858d|39=2|150=F|55=INGA.AS|54=1|38=2|32=2|31=19.13084900|151=0|14=2|44=19.13084900|6007=passive_liquidity_provider|52=20250521-09:29:34.126|10=163|
2025-05-21 10:29:34,127 [INFO] OUT: 8=FIX.4.4|9=291|35=8|49=EXCHANGE|56=MY_COMPANY|34=6|11=6a50b743-c995-487b-9bcb-3ca3ff63f523|37=6a50b743-c995-487b-9bcb-3ca3ff63f523|17=77b59c7c-969b-423e-a4f7-ef52f08b54a8|39=2|150=F|55=INGA.AS|54=2|38=8|32=8|31=19.13084900|151=0|14=8|44=19.13084900|6007=passive_liquidity_provider|52=20250521-09:29:34.127|10=156|
2025-05-21 10:29:34,131 [INFO] OUT: 8=FIX.4.4|9=175|35=D|49=MY_COMPANY|56=EXCHANGE|34=4|11=passive_liquidity_provider-1747819774.131389|55=AD.AS|54=1|44=37.83212800|38=6|52=20250521-09:29:34.131|6007=passive_liquidity_provider|10=086|
2025-05-21 10:29:34,131 [INFO] IN: 8=FIX.4.4|9=175|35=D|49=MY_COMPANY|56=EXCHANGE|34=4|11=passive_liquidity_provider-1747819774.131389|55=AD.AS|54=1|44=37.83212800|38=6|52=20250521-09:29:34.131|6007=passive_liquidity_provider|10=086|
2025-05-21 10:29:34,132 [INFO] OUT: 8=FIX.4.4|9=289|35=8|49=EXCHANGE|56=MY_COMPANY|34=5|11=7a969746-2d02-460b-aa41-94b9c7709f07|37=7a969746-2d02-460b-aa41-94b9c7709f07|17=14484711-b434-4610-8247-d3b262759487|39=2|150=F|55=AD.AS|54=1|38=6|32=6|31=37.83212800|151=0|14=6|44=37.83212800|6007=passive_liquidity_provider|52=20250521-09:29:34.132|10=186|
2025-05-21 10:29:34,132 [INFO] OUT: 8=FIX.4.4|9=289|35=8|49=EXCHANGE|56=MY_COMPANY|34=6|11=647dd88c-77ab-4328-9616-3b37df96db28|37=647dd88c-77ab-4328-9616-3b37df96db28|17=ba4c0015-136e-4303-bcfa-e514f544b7b8|39=2|150=F|55=AD.AS|54=2|38=5|32=5|31=37.83212800|151=0|14=5|44=37.83212800|6007=passive_liquidity_provider|52=20250521-09:29:34.132|10=047|
2025-05-21 10:29:34,137 [INFO] OUT: 8=FIX.4.4|9=291|35=8|49=EXCHANGE|56=MY_COMPANY|34=4|11=8e6537c1-593c-476a-a1f6-fd1914f69af0|37=8e6537c1-593c-476a-a1f6-fd1914f69af0|17=3d13104f-f0fc-42be-8f89-e1831addba46|39=2|150=F|55=OR.PA|54=1|38=3|32=3|31=380.66893701|151=0|14=3|44=380.66893701|6007=passive_liquidity_provider|52=20250521-09:29:34.137|10=116|
2025-05-21 10:29:34,138 [INFO] OUT: 8=FIX.4.4|9=291|35=8|49=EXCHANGE|56=MY_COMPANY|34=5|11=29b012d3-c44a-4693-84b0-2a991b224d80|37=29b012d3-c44a-4693-84b0-2a991b224d80|17=c3a2df09-ca9f-4e24-b09c-58a146cef3dc|39=2|150=F|55=OR.PA|54=2|38=5|32=5|31=380.66893701|151=0|14=5|44=380.66893701|6007=passive_liquidity_provider|52=20250521-09:29:34.137|10=136|
2025-05-21 10:29:34,141 [INFO] OUT: 8=FIX.4.4|9=176|35=D|49=MY_COMPANY|56=EXCHANGE|34=4|11=passive_liquidity_provider-1747819774.141014|55=SAN.PA|54=1|44=93.42647600|38=8|52=20250521-09:29:34.141|6007=passive_liquidity_provider|10=173|
2025-05-21 10:29:34,141 [INFO] IN: 8=FIX.4.4|9=176|35=D|49=MY_COMPANY|56=EXCHANGE|34=4|11=passive_liquidity_provider-1747819774.141014|55=SAN.PA|54=1|44=93.42647600|38=8|52=20250521-09:29:34.141|6007=passive_liquidity_provider|10=173|
2025-05-21 10:29:34,141 [INFO] OUT: 8=FIX.4.4|9=290|35=8|49=EXCHANGE|56=MY_COMPANY|34=5|11=29c964b2-88d8-4f0f-ae38-1c2ce39bedc4|37=29c964b2-88d8-4f0f-ae38-1c2ce39bedc4|17=43ab63f5-5e40-420f-8e94-cb89274bc9e5|39=2|150=F|55=SAN.PA|54=1|38=8|32=8|31=93.42647600|151=0|14=8|44=93.42647600|6007=passive_liquidity_provider|52=20250521-09:29:34.141|10=237|
2025-05-21 10:29:34,141 [INFO] OUT: 8=FIX.4.4|9=290|35=8|49=EXCHANGE|56=MY_COMPANY|34=6|11=05af4b02-265d-441f-aa23-59903f24e32b|37=05af4b02-265d-441f-aa23-59903f24e32b|17=afad208e-2f81-4427-a3bf-670aacf9ec08|39=2|150=F|55=SAN.PA|54=2|38=4|32=4|31=93.42647600|151=0|14=4|44=93.42647600|6007=passive_liquidity_provider|52=20250521-09:29:34.141|10=206|
2025-05-21 10:29:39,157 [INFO] OUT: 8=FIX.4.4|9=307|35=8|49=EXCHANGE|56=MY_COMPANY|34=7|11=passive_liquidity_provider-1747819769.070567|37=passive_liquidity_provider-1747819769.070567|17=aeb0cbbf-a6c0-426a-ab5b-339586cd1da0|39=2|150=F|55=PHIA.AS|54=2|38=2|32=2|31=21.30866900|151=0|14=2|44=21.30866900|6007=passive_liquidity_provider|52=20250521-09:29:39.157|10=182|
2025-05-21 10:29:39,160 [INFO] OUT: 8=FIX.4.4|9=178|35=D|49=MY_COMPANY|56=EXCHANGE|34=8|11=passive_liquidity_provider-1747819779.159934|55=PHIA.AS|54=1|44=21.30866900|38=10|52=20250521-09:29:39.160|6007=passive_liquidity_provider|10=056|
2025-05-21 10:29:39,160 [INFO] IN: 8=FIX.4.4|9=178|35=D|49=MY_COMPANY|56=EXCHANGE|34=8|11=passive_liquidity_provider-1747819779.159934|55=PHIA.AS|54=1|44=21.30866900|38=10|52=20250521-09:29:39.160|6007=passive_liquidity_provider|10=056|
2025-05-21 10:29:39,161 [INFO] OUT: 8=FIX.4.4|9=307|35=8|49=EXCHANGE|56=MY_COMPANY|34=9|11=passive_liquidity_provider-1747819769.070567|37=passive_liquidity_provider-1747819769.070567|17=4bc81ef3-f1e2-4f23-b407-ef884821c8f0|39=2|150=F|55=PHIA.AS|54=1|38=2|32=2|31=21.30866900|151=0|14=2|44=21.30866900|6007=passive_liquidity_provider|52=20250521-09:29:39.161|10=226|
2025-05-21 10:29:39,162 [INFO] OUT: 8=FIX.4.4|9=292|35=8|49=EXCHANGE|56=MY_COMPANY|34=10|11=9995cdc3-cc9e-4ba0-bee0-3e46a8d59e66|37=9995cdc3-cc9e-4ba0-bee0-3e46a8d59e66|17=240e174a-fee7-4ec1-8dac-87de65ddabf5|39=2|150=F|55=PHIA.AS|54=1|38=2|32=2|31=21.30866900|151=0|14=2|44=21.30866900|6007=passive_liquidity_provider|52=20250521-09:29:39.162|10=200|
2025-05-21 10:29:39,163 [INFO] OUT: 8=FIX.4.4|9=292|35=8|49=EXCHANGE|56=MY_COMPANY|34=11|11=9995cdc3-cc9e-4ba0-bee0-3e46a8d59e66|37=9995cdc3-cc9e-4ba0-bee0-3e46a8d59e66|17=65e54829-d63c-406d-95f9-964ad9a62a1c|39=2|150=F|55=PHIA.AS|54=1|38=4|32=4|31=21.30866900|151=0|14=4|44=21.30866900|6007=passive_liquidity_provider|52=20250521-09:29:39.163|10=145|
2025-05-21 10:29:39,163 [INFO] OUT: 8=FIX.4.4|9=308|35=8|49=EXCHANGE|56=MY_COMPANY|34=12|11=passive_liquidity_provider-1747819774.115672|37=passive_liquidity_provider-1747819774.115672|17=c2a09d8c-5578-483e-805d-f0dd86149a68|39=2|150=F|55=PHIA.AS|54=1|38=4|32=4|31=21.30866900|151=0|14=4|44=21.30866900|6007=passive_liquidity_provider|52=20250521-09:29:39.163|10=183|
2025-05-21 10:29:39,164 [INFO] OUT: 8=FIX.4.4|9=292|35=8|49=EXCHANGE|56=MY_COMPANY|34=13|11=9995cdc3-cc9e-4ba0-bee0-3e46a8d59e66|37=9995cdc3-cc9e-4ba0-bee0-3e46a8d59e66|17=15a4f66d-ea4e-4e9d-b1cb-ad8469e918a2|39=2|150=F|55=PHIA.AS|54=1|38=4|32=4|31=21.30866900|151=0|14=4|44=21.30866900|6007=passive_liquidity_provider|52=20250521-09:29:39.164|10=118|
2025-05-21 10:29:39,164 [INFO] OUT: 8=FIX.4.4|9=308|35=8|49=EXCHANGE|56=MY_COMPANY|34=14|11=passive_liquidity_provider-1747819774.115672|37=passive_liquidity_provider-1747819774.115672|17=fad95301-801f-439f-b895-23c6ba6ef575|39=2|150=F|55=PHIA.AS|54=2|38=4|32=4|31=21.30866900|151=0|14=4|44=21.30866900|6007=passive_liquidity_provider|52=20250521-09:29:39.164|10=227|
2025-05-21 10:29:39,165 [INFO] OUT: 8=FIX.4.4|9=292|35=8|49=EXCHANGE|56=MY_COMPANY|34=15|11=163ed9e7-77a1-4c9d-b8fd-de4cbb0fd418|37=163ed9e7-77a1-4c9d-b8fd-de4cbb0fd418|17=7d536fe7-66a0-4128-8e6b-4109f30fdaca|39=2|150=F|55=PHIA.AS|54=2|38=4|32=4|31=21.30866900|151=0|14=4|44=21.30866900|6007=passive_liquidity_provider|52=20250521-09:29:39.165|10=054|
2025-05-21 10:29:39,166 [INFO] OUT: 8=FIX.4.4|9=292|35=8|49=EXCHANGE|56=MY_COMPANY|34=16|11=163ed9e7-77a1-4c9d-b8fd-de4cbb0fd418|37=163ed9e7-77a1-4c9d-b8fd-de4cbb0fd418|17=0224b4a4-000e-4d39-8603-edb758017bee|39=2|150=F|55=PHIA.AS|54=2|38=5|32=5|31=21.30866900|151=0|14=5|44=21.30866900|6007=passive_liquidity_provider|52=20250521-09:29:39.166|10=201|
2025-05-21 10:29:39,167 [INFO] OUT: 8=FIX.4.4|9=308|35=8|49=EXCHANGE|56=MY_COMPANY|34=17|11=passive_liquidity_provider-1747819779.159934|37=passive_liquidity_provider-1747819779.159934|17=b9c8b4c6-58ae-4c83-bdd4-d3a57e008021|39=2|150=F|55=PHIA.AS|54=2|38=1|32=1|31=21.30866900|151=0|14=1|44=21.30866900|6007=passive_liquidity_provider|52=20250521-09:29:39.167|10=075|
2025-05-21 10:29:39,168 [INFO] OUT: 8=FIX.4.4|9=292|35=8|49=EXCHANGE|56=MY_COMPANY|34=18|11=163ed9e7-77a1-4c9d-b8fd-de4cbb0fd418|37=163ed9e7-77a1-4c9d-b8fd-de4cbb0fd418|17=52046d3e-9828-4e4a-9f0a-0c3ba03cc9f4|39=2|150=F|55=PHIA.AS|54=2|38=1|32=1|31=21.30866900|151=0|14=1|44=21.30866900|6007=passive_liquidity_provider|52=20250521-09:29:39.168|10=044|
2025-05-21 10:29:39,170 [INFO] OUT: 8=FIX.4.4|9=308|35=8|49=EXCHANGE|56=MY_COMPANY|34=19|11=passive_liquidity_provider-1747819779.159934|37=passive_liquidity_provider-1747819779.159934|17=dbb042e9-62f7-4e15-a4c8-a7dd0304fc3c|39=2|150=F|55=PHIA.AS|54=1|38=9|32=9|31=21.30866900|151=0|14=9|44=21.30866900|6007=passive_liquidity_provider|52=20250521-09:29:39.170|10=136|
2025-05-21 10:29:39,180 [INFO] OUT: 8=FIX.4.4|9=178|35=D|49=MY_COMPANY|56=EXCHANGE|34=7|11=passive_liquidity_provider-1747819779.1808388|55=INGA.AS|54=1|44=19.13084900|38=2|52=20250521-09:29:39.180|6007=passive_liquidity_provider|10=060|
2025-05-21 10:29:39,181 [INFO] IN: 8=FIX.4.4|9=178|35=D|49=MY_COMPANY|56=EXCHANGE|34=7|11=passive_liquidity_provider-1747819779.1808388|55=INGA.AS|54=1|44=19.13084900|38=2|52=20250521-09:29:39.180|6007=passive_liquidity_provider|10=060|
2025-05-21 10:29:39,181 [INFO] OUT: 8=FIX.4.4|9=291|35=8|49=EXCHANGE|56=MY_COMPANY|34=8|11=e31bb65f-7983-4f1e-8a51-adce9bdb1c14|37=e31bb65f-7983-4f1e-8a51-adce9bdb1c14|17=340eec6c-1a82-432e-8345-d80d000ecbeb|39=2|150=F|55=INGA.AS|54=1|38=2|32=2|31=19.13084900|151=0|14=2|44=19.13084900|6007=passive_liquidity_provider|52=20250521-09:29:39.181|10=157|
2025-05-21 10:29:39,181 [INFO] OUT: 8=FIX.4.4|9=291|35=8|49=EXCHANGE|56=MY_COMPANY|34=9|11=dc364eb6-fe32-4d18-9218-6a79b6b99465|37=dc364eb6-fe32-4d18-9218-6a79b6b99465|17=1ecb54dd-894f-498d-81a4-0d877d5ea83d|39=2|150=F|55=INGA.AS|54=2|38=1|32=1|31=19.13084900|151=0|14=1|44=19.13084900|6007=passive_liquidity_provider|52=20250521-09:29:39.181|10=024|
2025-05-21 10:29:39,185 [INFO] OUT: 8=FIX.4.4|9=307|35=8|49=EXCHANGE|56=MY_COMPANY|34=7|11=passive_liquidity_provider-1747819769.0876532|37=passive_liquidity_provider-1747819769.0876532|17=a0e65187-cbf2-4f0b-bba0-8e722a95e1ed|39=2|150=F|55=AD.AS|54=2|38=2|32=2|31=37.83212800|151=0|14=2|44=37.83212800|6007=passive_liquidity_provider|52=20250521-09:29:39.185|10=052|
2025-05-21 10:29:39,186 [INFO] OUT: 8=FIX.4.4|9=175|35=D|49=MY_COMPANY|56=EXCHANGE|34=8|11=passive_liquidity_provider-1747819779.186253|55=AD.AS|54=1|44=37.83212800|38=2|52=20250521-09:29:39.186|6007=passive_liquidity_provider|10=106|
2025-05-21 10:29:39,186 [INFO] IN: 8=FIX.4.4|9=175|35=D|49=MY_COMPANY|56=EXCHANGE|34=8|11=passive_liquidity_provider-1747819779.186253|55=AD.AS|54=1|44=37.83212800|38=2|52=20250521-09:29:39.186|6007=passive_liquidity_provider|10=106|
2025-05-21 10:29:39,186 [INFO] OUT: 8=FIX.4.4|9=307|35=8|49=EXCHANGE|56=MY_COMPANY|34=9|11=passive_liquidity_provider-1747819769.0876532|37=passive_liquidity_provider-1747819769.0876532|17=ae8ec98f-0cf9-4d5d-b501-94a0177b05d4|39=2|150=F|55=AD.AS|54=1|38=2|32=2|31=37.83212800|151=0|14=2|44=37.83212800|6007=passive_liquidity_provider|52=20250521-09:29:39.186|10=229|
2025-05-21 10:29:39,187 [INFO] OUT: 8=FIX.4.4|9=290|35=8|49=EXCHANGE|56=MY_COMPANY|34=10|11=a6b710cc-b142-4609-9d0b-8597e9d6467f|37=a6b710cc-b142-4609-9d0b-8597e9d6467f|17=72498f1d-1899-46ed-be1e-e85966b57cb0|39=2|150=F|55=AD.AS|54=1|38=2|32=2|31=37.83212800|151=0|14=2|44=37.83212800|6007=passive_liquidity_provider|52=20250521-09:29:39.187|10=063|
2025-05-21 10:29:39,187 [INFO] OUT: 8=FIX.4.4|9=308|35=8|49=EXCHANGE|56=MY_COMPANY|34=11|11=passive_liquidity_provider-1747819769.0876532|37=passive_liquidity_provider-1747819769.0876532|17=96eee807-d84f-4ee1-ab10-aaedbb05cc4f|39=2|150=F|55=AD.AS|54=2|38=1|32=1|31=37.83212800|151=0|14=1|44=37.83212800|6007=passive_liquidity_provider|52=20250521-09:29:39.187|10=244|
2025-05-21 10:29:39,187 [INFO] OUT: 8=FIX.4.4|9=290|35=8|49=EXCHANGE|56=MY_COMPANY|34=12|11=2f5fd1cc-f2ba-4e41-8e41-896e80557377|37=2f5fd1cc-f2ba-4e41-8e41-896e80557377|17=d3ce7f98-d6a3-47c8-aa34-ca8db4bd56b0|39=2|150=F|55=AD.AS|54=2|38=1|32=1|31=37.83212800|151=0|14=1|44=37.83212800|6007=passive_liquidity_provider|52=20250521-09:29:39.187|10=118|
2025-05-21 10:29:39,187 [INFO] OUT: 8=FIX.4.4|9=290|35=8|49=EXCHANGE|56=MY_COMPANY|34=13|11=2f5fd1cc-f2ba-4e41-8e41-896e80557377|37=2f5fd1cc-f2ba-4e41-8e41-896e80557377|17=cbebf7d9-7eb2-4c18-894c-9b2d8f9f6ca5|39=2|150=F|55=AD.AS|54=2|38=1|32=1|31=37.83212800|151=0|14=1|44=37.83212800|6007=passive_liquidity_provider|52=20250521-09:29:39.187|10=143|
2025-05-21 10:29:39,188 [INFO] OUT: 8=FIX.4.4|9=306|35=8|49=EXCHANGE|56=MY_COMPANY|34=14|11=passive_liquidity_provider-1747819774.131389|37=passive_liquidity_provider-1747819774.131389|17=efa867e7-b7f7-4bfc-8a3e-e5f8c7cb527d|39=2|150=F|55=AD.AS|54=2|38=6|32=6|31=37.83212800|151=0|14=6|44=37.83212800|6007=passive_liquidity_provider|52=20250521-09:29:39.188|10=131|
2025-05-21 10:29:39,188 [INFO] OUT: 8=FIX.4.4|9=290|35=8|49=EXCHANGE|56=MY_COMPANY|34=15|11=2f5fd1cc-f2ba-4e41-8e41-896e80557377|37=2f5fd1cc-f2ba-4e41-8e41-896e80557377|17=45958331-c919-41a4-9acd-6458e365d2ff|39=2|150=F|55=AD.AS|54=2|38=6|32=6|31=37.83212800|151=0|14=6|44=37.83212800|6007=passive_liquidity_provider|52=20250521-09:29:39.188|10=073|
2025-05-21 10:29:39,189 [INFO] OUT: 8=FIX.4.4|9=306|35=8|49=EXCHANGE|56=MY_COMPANY|34=16|11=passive_liquidity_provider-1747819779.186253|37=passive_liquidity_provider-1747819779.186253|17=675bfe73-bef8-4f73-b05b-e2f980beb800|39=2|150=F|55=AD.AS|54=2|38=2|32=2|31=37.83212800|151=0|14=2|44=37.83212800|6007=passive_liquidity_provider|52=20250521-09:29:39.189|10=226|
2025-05-21 10:29:39,194 [INFO] OUT: 8=FIX.4.4|9=176|35=D|49=MY_COMPANY|56=EXCHANGE|34=7|11=passive_liquidity_provider-1747819779.194346|55=SAN.PA|54=1|44=93.42647600|38=8|52=20250521-09:29:39.194|6007=passive_liquidity_provider|10=210|
2025-05-21 10:29:39,194 [INFO] IN: 8=FIX.4.4|9=176|35=D|49=MY_COMPANY|56=EXCHANGE|34=7|11=passive_liquidity_provider-1747819779.194346|55=SAN.PA|54=1|44=93.42647600|38=8|52=20250521-09:29:39.194|6007=passive_liquidity_provider|10=210|
2025-05-21 10:29:39,194 [INFO] OUT: 8=FIX.4.4|9=290|35=8|49=EXCHANGE|56=MY_COMPANY|34=8|11=3b2dade4-20d2-4db8-b637-807cfafa4da2|37=3b2dade4-20d2-4db8-b637-807cfafa4da2|17=1caf01b2-37d9-4222-89eb-e8f6dd0b336a|39=2|150=F|55=SAN.PA|54=1|38=8|32=8|31=93.42647600|151=0|14=8|44=93.42647600|6007=passive_liquidity_provider|52=20250521-09:29:39.194|10=205|
2025-05-21 10:29:39,195 [INFO] OUT: 8=FIX.4.4|9=290|35=8|49=EXCHANGE|56=MY_COMPANY|34=9|11=9c824fa2-100c-4f23-b6ad-5fce941b3faa|37=9c824fa2-100c-4f23-b6ad-5fce941b3faa|17=740723b8-9490-45ee-a384-bcf1ffc44e9e|39=2|150=F|55=SAN.PA|54=2|38=1|32=1|31=93.42647600|151=0|14=1|44=93.42647600|6007=passive_liquidity_provider|52=20250521-09:29:39.194|10=067|
2025-05-21 10:29:39,195 [INFO] OUT: 8=FIX.4.4|9=309|35=8|49=EXCHANGE|56=MY_COMPANY|34=10|11=passive_liquidity_provider-1747819769.0942981|37=passive_liquidity_provider-1747819769.0942981|17=798f2073-c918-41d4-8842-3b1bbed7018f|39=2|150=F|55=SAN.PA|54=1|38=6|32=6|31=93.42647600|151=0|14=6|44=93.42647600|6007=passive_liquidity_provider|52=20250521-09:29:39.195|10=206|
2025-05-21 10:29:39,196 [INFO] OUT: 8=FIX.4.4|9=309|35=8|49=EXCHANGE|56=MY_COMPANY|34=11|11=passive_liquidity_provider-1747819769.0942981|37=passive_liquidity_provider-1747819769.0942981|17=d37d9fe6-528a-4f1c-a329-6f87209ad03e|39=2|150=F|55=SAN.PA|54=2|38=2|32=2|31=93.42647600|151=0|14=2|44=93.42647600|6007=passive_liquidity_provider|52=20250521-09:29:39.196|10=086|
2025-05-21 10:29:44,212 [INFO] OUT: 8=FIX.4.4|9=178|35=D|49=MY_COMPANY|56=EXCHANGE|34=20|11=passive_liquidity_provider-1747819784.211659|55=PHIA.AS|54=1|44=21.30866900|38=6|52=20250521-09:29:44.211|6007=passive_liquidity_provider|10=037|
2025-05-21 10:29:44,212 [INFO] IN: 8=FIX.4.4|9=178|35=D|49=MY_COMPANY|56=EXCHANGE|34=20|11=passive_liquidity_provider-1747819784.211659|55=PHIA.AS|54=1|44=21.30866900|38=6|52=20250521-09:29:44.211|6007=passive_liquidity_provider|10=037|
2025-05-21 10:29:44,213 [INFO] OUT: 8=FIX.4.4|9=308|35=8|49=EXCHANGE|56=MY_COMPANY|34=21|11=passive_liquidity_provider-1747819784.211659|37=passive_liquidity_provider-1747819784.211659|17=b3e92586-b7b6-49f0-9e68-64dbcacf151c|39=2|150=F|55=PHIA.AS|54=1|38=6|32=6|31=21.30866900|151=0|14=6|44=21.30866900|6007=passive_liquidity_provider|52=20250521-09:29:44.213|10=069|
2025-05-21 10:29:44,213 [INFO] OUT: 8=FIX.4.4|9=292|35=8|49=EXCHANGE|56=MY_COMPANY|34=22|11=3427fabc-67f0-47ae-812e-cfa2e35363a9|37=3427fabc-67f0-47ae-812e-cfa2e35363a9|17=0e5cbced-a348-4c76-bcac-4f40f3b9124b|39=2|150=F|55=PHIA.AS|54=1|38=6|32=6|31=21.30866900|151=0|14=6|44=21.30866900|6007=passive_liquidity_provider|52=20250521-09:29:44.213|10=168|
2025-05-21 10:29:44,214 [INFO] OUT: 8=FIX.4.4|9=292|35=8|49=EXCHANGE|56=MY_COMPANY|34=23|11=5cc50858-c2f1-4431-a02c-c21be7110182|37=5cc50858-c2f1-4431-a02c-c21be7110182|17=075252ef-6c46-4e37-8e0c-c556f74a3b80|39=2|150=F|55=PHIA.AS|54=2|38=9|32=9|31=21.28733900|151=0|14=9|44=21.28733900|6007=passive_liquidity_provider|52=20250521-09:29:44.214|10=243|
2025-05-21 10:29:44,226 [INFO] OUT: 8=FIX.4.4|9=178|35=D|49=MY_COMPANY|56=EXCHANGE|34=10|11=passive_liquidity_provider-1747819784.226107|55=INGA.AS|54=1|44=19.13084900|38=9|52=20250521-09:29:44.226|6007=passive_liquidity_provider|10=036|
2025-05-21 10:29:44,226 [INFO] IN: 8=FIX.4.4|9=178|35=D|49=MY_COMPANY|56=EXCHANGE|34=10|11=passive_liquidity_provider-1747819784.226107|55=INGA.AS|54=1|44=19.13084900|38=9|52=20250521-09:29:44.226|6007=passive_liquidity_provider|10=036|
2025-05-21 10:29:44,227 [INFO] OUT: 8=FIX.4.4|9=292|35=8|49=EXCHANGE|56=MY_COMPANY|34=11|11=ae7b552e-5b93-4305-8f28-4cfe5ec37a63|37=ae7b552e-5b93-4305-8f28-4cfe5ec37a63|17=bc901b2f-77c4-4627-9546-f38e60cea806|39=2|150=F|55=INGA.AS|54=1|38=9|32=9|31=19.13084900|151=0|14=9|44=19.13084900|6007=passive_liquidity_provider|52=20250521-09:29:44.226|10=095|
2025-05-21 10:29:44,227 [INFO] OUT: 8=FIX.4.4|9=292|35=8|49=EXCHANGE|56=MY_COMPANY|34=12|11=9104d1d0-85c1-4dc4-b172-da23d4393904|37=9104d1d0-85c1-4dc4-b172-da23d4393904|17=6639cadf-e443-4621-89e7-6840423a6aea|39=2|150=F|55=INGA.AS|54=2|38=1|32=1|31=19.13084900|151=0|14=1|44=19.13084900|6007=passive_liquidity_provider|52=20250521-09:29:44.227|10=245|
2025-05-21 10:29:44,227 [INFO] OUT: 8=FIX.4.4|9=308|35=8|49=EXCHANGE|56=MY_COMPANY|34=13|11=passive_liquidity_provider-1747819769.079328|37=passive_liquidity_provider-1747819769.079328|17=af8839a0-adb2-44b6-9834-521a39078818|39=2|150=F|55=INGA.AS|54=2|38=4|32=4|31=19.13084900|151=0|14=4|44=19.13084900|6007=passive_liquidity_provider|52=20250521-09:29:44.227|10=094|
2025-05-21 10:29:44,228 [INFO] OUT: 8=FIX.4.4|9=292|35=8|49=EXCHANGE|56=MY_COMPANY|34=14|11=9104d1d0-85c1-4dc4-b172-da23d4393904|37=9104d1d0-85c1-4dc4-b172-da23d4393904|17=aa04d9be-d7f6-4904-a879-c62b47f3ef8d|39=2|150=F|55=INGA.AS|54=2|38=4|32=4|31=19.13084900|151=0|14=4|44=19.13084900|6007=passive_liquidity_provider|52=20250521-09:29:44.228|10=203|
2025-05-21 10:29:44,229 [INFO] OUT: 8=FIX.4.4|9=308|35=8|49=EXCHANGE|56=MY_COMPANY|34=15|11=passive_liquidity_provider-1747819769.079328|37=passive_liquidity_provider-1747819769.079328|17=ef56d0f1-5f73-4f9c-a17c-067ee10fc486|39=2|150=F|55=INGA.AS|54=1|38=2|32=2|31=19.13084900|151=0|14=2|44=19.13084900|6007=passive_liquidity_provider|52=20250521-09:29:44.229|10=076|
2025-05-21 10:29:44,231 [INFO] OUT: 8=FIX.4.4|9=310|35=8|49=EXCHANGE|56=MY_COMPANY|34=16|11=passive_liquidity_provider-1747819774.1239018|37=passive_liquidity_provider-1747819774.1239018|17=1da47c2b-b2d7-46f9-a4c9-0ffecaa83734|39=2|150=F|55=INGA.AS|54=2|38=2|32=2|31=19.13084900|151=0|14=2|44=19.13084900|6007=passive_liquidity_provider|52=20250521-09:29:44.230|10=226|
2025-05-21 10:29:44,232 [INFO] OUT: 8=FIX.4.4|9=310|35=8|49=EXCHANGE|56=MY_COMPANY|34=17|11=passive_liquidity_provider-1747819779.1808388|37=passive_liquidity_provider-1747819779.1808388|17=af762ab5-7754-4544-9793-678b4b286f53|39=2|150=F|55=INGA.AS|54=2|38=2|32=2|31=19.13084900|151=0|14=2|44=19.13084900|6007=passive_liquidity_provider|52=20250521-09:29:44.232|10=164|
2025-05-21 10:29:44,233 [INFO] OUT: 8=FIX.4.4|9=308|35=8|49=EXCHANGE|56=MY_COMPANY|34=18|11=passive_liquidity_provider-1747819784.226107|37=passive_liquidity_provider-1747819784.226107|17=286a41f9-46e5-4ae0-a126-e3e58e3142df|39=2|150=F|55=INGA.AS|54=2|38=3|32=3|31=19.13084900|151=0|14=3|44=19.13084900|6007=passive_liquidity_provider|52=20250521-09:29:44.233|10=199|
2025-05-21 10:29:44,235 [INFO] OUT: 8=FIX.4.4|9=176|35=D|49=MY_COMPANY|56=EXCHANGE|34=17|11=passive_liquidity_provider-1747819784.235457|55=AD.AS|54=1|44=37.79425800|38=4|52=20250521-09:29:44.235|6007=passive_liquidity_provider|10=156|
2025-05-21 10:29:44,235 [INFO] IN: 8=FIX.4.4|9=176|35=D|49=MY_COMPANY|56=EXCHANGE|34=17|11=passive_liquidity_provider-1747819784.235457|55=AD.AS|54=1|44=37.79425800|38=4|52=20250521-09:29:44.235|6007=passive_liquidity_provider|10=156|
2025-05-21 10:29:44,236 [INFO] OUT: 8=FIX.4.4|9=290|35=8|49=EXCHANGE|56=MY_COMPANY|34=18|11=58806e7c-a8a0-4ead-a839-26f41735988e|37=58806e7c-a8a0-4ead-a839-26f41735988e|17=913c1bf8-b8a4-4827-9cc6-7b2074f761bb|39=2|150=F|55=AD.AS|54=1|38=4|32=4|31=37.79425800|151=0|14=4|44=37.79425800|6007=passive_liquidity_provider|52=20250521-09:29:44.235|10=085|
2025-05-21 10:29:44,236 [INFO] OUT: 8=FIX.4.4|9=290|35=8|49=EXCHANGE|56=MY_COMPANY|34=19|11=430eb2aa-f28b-4cc1-8e32-63d48f5eb384|37=430eb2aa-f28b-4cc1-8e32-63d48f5eb384|17=ef7cd63d-8e59-4d72-aca2-5ab99ff5f4f2|39=2|150=F|55=AD.AS|54=2|38=2|32=2|31=37.79425800|151=0|14=2|44=37.79425800|6007=passive_liquidity_provider|52=20250521-09:29:44.236|10=056|
2025-05-21 10:29:44,240 [INFO] OUT: 8=FIX.4.4|9=307|35=8|49=EXCHANGE|56=MY_COMPANY|34=6|11=passive_liquidity_provider-1747819769.091872|37=passive_liquidity_provider-1747819769.091872|17=1e8120e1-39cc-447b-b840-01f800fc3f22|39=2|150=F|55=OR.PA|54=1|38=8|32=8|31=380.66893701|151=0|14=8|44=380.66893701|6007=passive_liquidity_provider|52=20250521-09:29:44.240|10=115|
2025-05-21 10:29:44,242 [INFO] OUT: 8=FIX.4.4|9=307|35=8|49=EXCHANGE|56=MY_COMPANY|34=12|11=passive_liquidity_provider-1747819774.141014|37=passive_liquidity_provider-1747819774.141014|17=16449ddf-b275-4889-a13e-269defecb767|39=2|150=F|55=SAN.PA|54=2|38=2|32=2|31=93.42647600|151=0|14=2|44=93.42647600|6007=passive_liquidity_provider|52=20250521-09:29:44.242|10=196|
2025-05-21 10:29:44,244 [INFO] OUT: 8=FIX.4.4|9=307|35=8|49=EXCHANGE|56=MY_COMPANY|34=13|11=passive_liquidity_provider-1747819774.141014|37=passive_liquidity_provider-1747819774.141014|17=4517d529-f79d-41f6-9bec-553f3365cddb|39=2|150=F|55=SAN.PA|54=1|38=4|32=4|31=93.42647600|151=0|14=4|44=93.42647600|6007=passive_liquidity_provider|52=20250521-09:29:44.244|10=197|
2025-05-21 10:29:44,244 [INFO] OUT: 8=FIX.4.4|9=307|35=8|49=EXCHANGE|56=MY_COMPANY|34=14|11=passive_liquidity_provider-1747819774.141014|37=passive_liquidity_provider-1747819774.141014|17=926c0fcc-3041-4f75-8993-94434cdb9483|39=2|150=F|55=SAN.PA|54=2|38=2|32=2|31=93.42647600|151=0|14=2|44=93.42647600|6007=passive_liquidity_provider|52=20250521-09:29:44.244|10=001|
2025-05-21 10:29:44,245 [INFO] OUT: 8=FIX.4.4|9=307|35=8|49=EXCHANGE|56=MY_COMPANY|34=15|11=passive_liquidity_provider-1747819779.194346|37=passive_liquidity_provider-1747819779.194346|17=576162c3-91bd-47e8-a92a-b776f3c809c9|39=2|150=F|55=SAN.PA|54=1|38=5|32=5|31=93.42647600|151=0|14=5|44=93.42647600|6007=passive_liquidity_provider|52=20250521-09:29:44.245|10=150|
2025-05-21 10:29:49,258 [INFO] OUT: 8=FIX.4.4|9=178|35=D|49=MY_COMPANY|56=EXCHANGE|34=24|11=passive_liquidity_provider-1747819789.257498|55=PHIA.AS|54=1|44=21.28733900|38=6|52=20250521-09:29:49.257|6007=passive_liquidity_provider|10=072|
2025-05-21 10:29:49,259 [INFO] IN: 8=FIX.4.4|9=178|35=D|49=MY_COMPANY|56=EXCHANGE|34=24|11=passive_liquidity_provider-1747819789.257498|55=PHIA.AS|54=1|44=21.28733900|38=6|52=20250521-09:29:49.257|6007=passive_liquidity_provider|10=072|
2025-05-21 10:29:49,260 [INFO] OUT: 8=FIX.4.4|9=292|35=8|49=EXCHANGE|56=MY_COMPANY|34=25|11=73a3eb9a-fafa-40c6-a039-98f2f67b784d|37=73a3eb9a-fafa-40c6-a039-98f2f67b784d|17=536c0f9d-1c9f-4a19-95e9-985877cbf1c2|39=2|150=F|55=PHIA.AS|54=1|38=6|32=6|31=21.28733900|151=0|14=6|44=21.28733900|6007=passive_liquidity_provider|52=20250521-09:29:49.260|10=104|
2025-05-21 10:29:49,260 [INFO] OUT: 8=FIX.4.4|9=292|35=8|49=EXCHANGE|56=MY_COMPANY|34=26|11=743c6466-2164-4b86-9423-1b8c50783205|37=743c6466-2164-4b86-9423-1b8c50783205|17=a71ba651-4861-4673-b410-2b628a0c5c07|39=2|150=F|55=PHIA.AS|54=2|38=3|32=3|31=21.28733900|151=0|14=3|44=21.28733900|6007=passive_liquidity_provider|52=20250521-09:29:49.260|10=211|
2025-05-21 10:29:49,269 [INFO] OUT: 8=FIX.4.4|9=308|35=8|49=EXCHANGE|56=MY_COMPANY|34=19|11=passive_liquidity_provider-1747819784.226107|37=passive_liquidity_provider-1747819784.226107|17=ad46a8d8-2a1a-41c6-8b8c-22687216b696|39=2|150=F|55=INGA.AS|54=1|38=6|32=6|31=19.13084900|151=0|14=6|44=19.13084900|6007=passive_liquidity_provider|52=20250521-09:29:49.269|10=179|
2025-05-21 10:29:49,272 [INFO] OUT: 8=FIX.4.4|9=178|35=D|49=MY_COMPANY|56=EXCHANGE|34=20|11=passive_liquidity_provider-1747819789.272425|55=INGA.AS|54=1|44=19.13084900|38=3|52=20250521-09:29:49.272|6007=passive_liquidity_provider|10=046|
2025-05-21 10:29:49,272 [INFO] IN: 8=FIX.4.4|9=178|35=D|49=MY_COMPANY|56=EXCHANGE|34=20|11=passive_liquidity_provider-1747819789.272425|55=INGA.AS|54=1|44=19.13084900|38=3|52=20250521-09:29:49.272|6007=passive_liquidity_provider|10=046|
2025-05-21 10:29:49,273 [INFO] OUT: 8=FIX.4.4|9=308|35=8|49=EXCHANGE|56=MY_COMPANY|34=21|11=passive_liquidity_provider-1747819789.272425|37=passive_liquidity_provider-1747819789.272425|17=3d9684e3-6a54-4e34-af62-de0cbfdec536|39=2|150=F|55=INGA.AS|54=1|38=3|32=3|31=19.13084900|151=0|14=3|44=19.13084900|6007=passive_liquidity_provider|52=20250521-09:29:49.273|10=114|
2025-05-21 10:29:49,273 [INFO] OUT: 8=FIX.4.4|9=292|35=8|49=EXCHANGE|56=MY_COMPANY|34=22|11=6e47eaa6-a1f8-472e-ad87-8586581772b0|37=6e47eaa6-a1f8-472e-ad87-8586581772b0|17=a1be6a7d-479f-4779-9397-8b79c8116f32|39=2|150=F|55=INGA.AS|54=1|38=3|32=3|31=19.13084900|151=0|14=3|44=19.13084900|6007=passive_liquidity_provider|52=20250521-09:29:49.273|10=146|
2025-05-21 10:29:49,274 [INFO] OUT: 8=FIX.4.4|9=292|35=8|49=EXCHANGE|56=MY_COMPANY|34=23|11=9a78d308-0850-4535-b7cd-9f68a728b751|37=9a78d308-0850-4535-b7cd-9f68a728b751|17=7aa97186-5fcc-41ad-abf1-e8dcdedaaf92|39=2|150=F|55=INGA.AS|54=2|38=8|32=8|31=19.11169900|151=0|14=8|44=19.11169900|6007=passive_liquidity_provider|52=20250521-09:29:49.274|10=165|
2025-05-21 10:29:49,277 [INFO] OUT: 8=FIX.4.4|9=177|35=D|49=MY_COMPANY|56=EXCHANGE|34=20|11=passive_liquidity_provider-1747819789.2770529|55=AD.AS|54=1|44=37.79425800|38=5|52=20250521-09:29:49.277|6007=passive_liquidity_provider|10=222|
2025-05-21 10:29:49,277 [INFO] IN: 8=FIX.4.4|9=177|35=D|49=MY_COMPANY|56=EXCHANGE|34=20|11=passive_liquidity_provider-1747819789.2770529|55=AD.AS|54=1|44=37.79425800|38=5|52=20250521-09:29:49.277|6007=passive_liquidity_provider|10=222|
2025-05-21 10:29:49,277 [INFO] OUT: 8=FIX.4.4|9=290|35=8|49=EXCHANGE|56=MY_COMPANY|34=21|11=dfb65724-ad81-4fca-a4e4-92b0e74c65e5|37=dfb65724-ad81-4fca-a4e4-92b0e74c65e5|17=5535bc70-52f6-457f-aacb-60baaffe30ab|39=2|150=F|55=AD.AS|54=1|38=5|32=5|31=37.79425800|151=0|14=5|44=37.79425800|6007=passive_liquidity_provider|52=20250521-09:29:49.277|10=140|
2025-05-21 10:29:49,277 [INFO] OUT: 8=FIX.4.4|9=290|35=8|49=EXCHANGE|56=MY_COMPANY|34=22|11=c407d719-2b87-4ac2-8909-7821a2024e77|37=c407d719-2b87-4ac2-8909-7821a2024e77|17=dbe95d9e-c3e5-4078-9cb6-b6ff7243b191|39=2|150=F|55=AD.AS|54=2|38=5|32=5|31=37.79425800|151=0|14=5|44=37.79425800|6007=passive_liquidity_provider|52=20250521-09:29:49.277|10=140|
2025-05-21 10:29:49,283 [INFO] OUT: 8=FIX.4.4|9=307|35=8|49=EXCHANGE|56=MY_COMPANY|34=16|11=passive_liquidity_provider-1747819779.194346|37=passive_liquidity_provider-1747819779.194346|17=6105fcf4-60c6-4062-a9b0-3b52a17450b5|39=2|150=F|55=SAN.PA|54=1|38=1|32=1|31=93.42647600|151=0|14=1|44=93.42647600|6007=passive_liquidity_provider|52=20250521-09:29:49.283|10=056|
2025-05-21 10:29:49,283 [INFO] OUT: 8=FIX.4.4|9=307|35=8|49=EXCHANGE|56=MY_COMPANY|34=17|11=passive_liquidity_provider-1747819779.194346|37=passive_liquidity_provider-1747819779.194346|17=a5b3ce37-aecb-4d87-9148-8a4d312380b3|39=2|150=F|55=SAN.PA|54=2|38=2|32=2|31=93.42647600|151=0|14=2|44=93.42647600|6007=passive_liquidity_provider|52=20250521-09:29:49.283|10=222|
2025-05-21 10:29:54,296 [INFO] OUT: 8=FIX.4.4|9=308|35=8|49=EXCHANGE|56=MY_COMPANY|34=27|11=passive_liquidity_provider-1747819789.257498|37=passive_liquidity_provider-1747819789.257498|17=8977f225-20f9-40f3-90f1-747ea7c67830|39=2|150=F|55=PHIA.AS|54=2|38=5|32=5|31=21.28733900|151=0|14=5|44=21.28733900|6007=passive_liquidity_provider|52=20250521-09:29:54.296|10=092|
2025-05-21 10:29:54,297 [INFO] OUT: 8=FIX.4.4|9=178|35=D|49=MY_COMPANY|56=EXCHANGE|34=28|11=passive_liquidity_provider-1747819794.297615|55=PHIA.AS|54=1|44=21.28733900|38=1|52=20250521-09:29:54.297|6007=passive_liquidity_provider|10=062|
2025-05-21 10:29:54,298 [INFO] IN: 8=FIX.4.4|9=178|35=D|49=MY_COMPANY|56=EXCHANGE|34=28|11=passive_liquidity_provider-1747819794.297615|55=PHIA.AS|54=1|44=21.28733900|38=1|52=20250521-09:29:54.297|6007=passive_liquidity_provider|10=062|
2025-05-21 10:29:54,299 [INFO] OUT: 8=FIX.4.4|9=308|35=8|49=EXCHANGE|56=MY_COMPANY|34=29|11=passive_liquidity_provider-1747819789.257498|37=passive_liquidity_provider-1747819789.257498|17=43d94da9-8991-4f1d-b495-856eb15a64a0|39=2|150=F|55=PHIA.AS|54=1|38=1|32=1|31=21.28733900|151=0|14=1|44=21.28733900|6007=passive_liquidity_provider|52=20250521-09:29:54.298|10=221|
2025-05-21 10:29:54,299 [INFO] OUT: 8=FIX.4.4|9=292|35=8|49=EXCHANGE|56=MY_COMPANY|34=30|11=c416522c-92bd-4747-a85d-ff065fb0f4b0|37=c416522c-92bd-4747-a85d-ff065fb0f4b0|17=53f3bf51-8e27-431e-91f4-ae26e3aa770c|39=2|150=F|55=PHIA.AS|54=1|38=1|32=1|31=21.28733900|151=0|14=1|44=21.28733900|6007=passive_liquidity_provider|52=20250521-09:29:54.299|10=145|
2025-05-21 10:29:54,301 [INFO] OUT: 8=FIX.4.4|9=308|35=8|49=EXCHANGE|56=MY_COMPANY|34=31|11=passive_liquidity_provider-1747819794.297615|37=passive_liquidity_provider-1747819794.297615|17=896ff04c-5bb3-42c2-8ee7-b8edfd15e8e0|39=2|150=F|55=PHIA.AS|54=2|38=1|32=1|31=21.28733900|151=0|14=1|44=21.28733900|6007=passive_liquidity_provider|52=20250521-09:29:54.300|10=164|
2025-05-21 10:29:54,301 [INFO] OUT: 8=FIX.4.4|9=292|35=8|49=EXCHANGE|56=MY_COMPANY|34=32|11=f4e75c56-5ec2-442e-8a33-2a9b2ebf6a7f|37=f4e75c56-5ec2-442e-8a33-2a9b2ebf6a7f|17=4e3fd050-a58a-416e-a93c-20472ce4aedd|39=2|150=F|55=PHIA.AS|54=2|38=1|32=1|31=21.28733900|151=0|14=1|44=21.28733900|6007=passive_liquidity_provider|52=20250521-09:29:54.301|10=170|
2025-05-21 10:29:54,307 [INFO] OUT: 8=FIX.4.4|9=292|35=8|49=EXCHANGE|56=MY_COMPANY|34=33|11=f4e75c56-5ec2-442e-8a33-2a9b2ebf6a7f|37=f4e75c56-5ec2-442e-8a33-2a9b2ebf6a7f|17=db31f393-09cf-40ed-a512-2656521f064e|39=2|150=F|55=PHIA.AS|54=2|38=8|32=8|31=21.27670600|151=0|14=8|44=21.27670600|6007=passive_liquidity_provider|52=20250521-09:29:54.306|10=001|
2025-05-21 10:29:54,319 [INFO] OUT: 8=FIX.4.4|9=178|35=D|49=MY_COMPANY|56=EXCHANGE|34=24|11=passive_liquidity_provider-1747819794.319256|55=INGA.AS|54=1|44=19.11169900|38=3|52=20250521-09:29:54.319|6007=passive_liquidity_provider|10=050|
2025-05-21 10:29:54,319 [INFO] IN: 8=FIX.4.4|9=178|35=D|49=MY_COMPANY|56=EXCHANGE|34=24|11=passive_liquidity_provider-1747819794.319256|55=INGA.AS|54=1|44=19.11169900|38=3|52=20250521-09:29:54.319|6007=passive_liquidity_provider|10=050|
2025-05-21 10:29:54,319 [INFO] OUT: 8=FIX.4.4|9=292|35=8|49=EXCHANGE|56=MY_COMPANY|34=25|11=6b9a7c06-546f-4f5d-9250-3c17dab57825|37=6b9a7c06-546f-4f5d-9250-3c17dab57825|17=c7652253-dd36-4176-ae64-4faeea3e5736|39=2|150=F|55=INGA.AS|54=1|38=3|32=3|31=19.11169900|151=0|14=3|44=19.11169900|6007=passive_liquidity_provider|52=20250521-09:29:54.319|10=197|
2025-05-21 10:29:54,320 [INFO] OUT: 8=FIX.4.4|9=292|35=8|49=EXCHANGE|56=MY_COMPANY|34=26|11=f6e54776-e474-4ee1-922e-357b3a06423a|37=f6e54776-e474-4ee1-922e-357b3a06423a|17=6a6c4c7e-f755-42f0-820a-708aff1f679a|39=2|150=F|55=INGA.AS|54=2|38=5|32=5|31=19.11169900|151=0|14=5|44=19.11169900|6007=passive_liquidity_provider|52=20250521-09:29:54.320|10=149|
2025-05-21 10:29:54,324 [INFO] OUT: 8=FIX.4.4|9=176|35=D|49=MY_COMPANY|56=EXCHANGE|34=23|11=passive_liquidity_provider-1747819794.32402|55=AD.AS|54=1|44=37.79425800|38=10|52=20250521-09:29:54.324|6007=passive_liquidity_provider|10=136|
2025-05-21 10:29:54,324 [INFO] IN: 8=FIX.4.4|9=176|35=D|49=MY_COMPANY|56=EXCHANGE|34=23|11=passive_liquidity_provider-1747819794.32402|55=AD.AS|54=1|44=37.79425800|38=10|52=20250521-09:29:54.324|6007=passive_liquidity_provider|10=136|
2025-05-21 10:29:54,324 [INFO] OUT: 8=FIX.4.4|9=290|35=8|49=EXCHANGE|56=MY_COMPANY|34=24|11=0c4ac9ec-362a-4176-937b-a2e51d12ceff|37=0c4ac9ec-362a-4176-937b-a2e51d12ceff|17=6230ff12-bc1f-4e09-918e-aeb19aad1598|39=2|150=F|55=AD.AS|54=1|38=1|32=1|31=37.79425800|151=0|14=1|44=37.79425800|6007=passive_liquidity_provider|52=20250521-09:29:54.324|10=225|
2025-05-21 10:29:54,324 [INFO] OUT: 8=FIX.4.4|9=306|35=8|49=EXCHANGE|56=MY_COMPANY|34=25|11=passive_liquidity_provider-1747819784.235457|37=passive_liquidity_provider-1747819784.235457|17=df3be7aa-ae21-4d9a-b487-31c51f117f77|39=2|150=F|55=AD.AS|54=1|38=4|32=4|31=37.79425800|151=0|14=4|44=37.79425800|6007=passive_liquidity_provider|52=20250521-09:29:54.324|10=222|
2025-05-21 10:29:54,325 [INFO] OUT: 8=FIX.4.4|9=290|35=8|49=EXCHANGE|56=MY_COMPANY|34=26|11=0c4ac9ec-362a-4176-937b-a2e51d12ceff|37=0c4ac9ec-362a-4176-937b-a2e51d12ceff|17=d41f2ef5-cddc-42da-9185-1eb9f7f0267e|39=2|150=F|55=AD.AS|54=1|38=4|32=4|31=37.79425800|151=0|14=4|44=37.79425800|6007=passive_liquidity_provider|52=20250521-09:29:54.325|10=088|
2025-05-21 10:29:54,325 [INFO] OUT: 8=FIX.4.4|9=308|35=8|49=EXCHANGE|56=MY_COMPANY|34=27|11=passive_liquidity_provider-1747819789.2770529|37=passive_liquidity_provider-1747819789.2770529|17=00351bdf-3a27-4d04-8f83-8a22dc99c211|39=2|150=F|55=AD.AS|54=1|38=5|32=5|31=37.79425800|151=0|14=5|44=37.79425800|6007=passive_liquidity_provider|52=20250521-09:29:54.325|10=147|
2025-05-21 10:29:54,325 [INFO] OUT: 8=FIX.4.4|9=290|35=8|49=EXCHANGE|56=MY_COMPANY|34=28|11=0c4ac9ec-362a-4176-937b-a2e51d12ceff|37=0c4ac9ec-362a-4176-937b-a2e51d12ceff|17=51001931-159a-40a6-921b-ac8c189ab26d|39=2|150=F|55=AD.AS|54=1|38=5|32=5|31=37.79425800|151=0|14=5|44=37.79425800|6007=passive_liquidity_provider|52=20250521-09:29:54.325|10=033|
2025-05-21 10:29:54,326 [INFO] OUT: 8=FIX.4.4|9=304|35=8|49=EXCHANGE|56=MY_COMPANY|34=29|11=passive_liquidity_provider-1747819794.32402|37=passive_liquidity_provider-1747819794.32402|17=ec2ceae2-18eb-4685-9675-ce60ceceebd5|39=2|150=F|55=AD.AS|54=2|38=9|32=9|31=37.79425800|151=0|14=9|44=37.79425800|6007=passive_liquidity_provider|52=20250521-09:29:54.326|10=019|
2025-05-21 10:29:54,326 [INFO] OUT: 8=FIX.4.4|9=290|35=8|49=EXCHANGE|56=MY_COMPANY|34=30|11=53fd91ae-4d78-421c-b0a8-dc150a22e230|37=53fd91ae-4d78-421c-b0a8-dc150a22e230|17=4deba597-36b8-4287-b90a-81d534d82f0c|39=2|150=F|55=AD.AS|54=2|38=9|32=9|31=37.79425800|151=0|14=9|44=37.79425800|6007=passive_liquidity_provider|52=20250521-09:29:54.326|10=200|
2025-05-21 10:29:54,327 [INFO] OUT: 8=FIX.4.4|9=304|35=8|49=EXCHANGE|56=MY_COMPANY|34=31|11=passive_liquidity_provider-1747819794.32402|37=passive_liquidity_provider-1747819794.32402|17=7b5dc584-cfd9-4ae8-946d-32945b80102c|39=2|150=F|55=AD.AS|54=1|38=1|32=1|31=37.79425800|151=0|14=1|44=37.79425800|6007=passive_liquidity_provider|52=20250521-09:29:54.327|10=214|
2025-05-21 10:29:59,345 [INFO] HEARBEAT SENT: 8=FIX.4.4|9=61|35=0|49=MY_COMPANY|56=EXCHANGE|34=7|52=20250521-09:29:59.344|10=070|
2025-05-21 10:29:59,350 [INFO] OUT: 8=FIX.4.4|9=177|35=D|49=MY_COMPANY|56=EXCHANGE|34=34|11=passive_liquidity_provider-1747819799.34983|55=PHIA.AS|54=1|44=21.26600900|38=2|52=20250521-09:29:59.350|6007=passive_liquidity_provider|10=255|
2025-05-21 10:29:59,350 [INFO] IN: 8=FIX.4.4|9=177|35=D|49=MY_COMPANY|56=EXCHANGE|34=34|11=passive_liquidity_provider-1747819799.34983|55=PHIA.AS|54=1|44=21.26600900|38=2|52=20250521-09:29:59.350|6007=passive_liquidity_provider|10=255|
2025-05-21 10:29:59,351 [INFO] OUT: 8=FIX.4.4|9=292|35=8|49=EXCHANGE|56=MY_COMPANY|34=35|11=6d6a7bbe-a7d6-4294-95ee-44bddca91cbf|37=6d6a7bbe-a7d6-4294-95ee-44bddca91cbf|17=c0f79573-68a9-4bdf-b911-b616596ec684|39=2|150=F|55=PHIA.AS|54=1|38=2|32=2|31=21.26600900|151=0|14=2|44=21.26600900|6007=passive_liquidity_provider|52=20250521-09:29:59.350|10=049|
2025-05-21 10:29:59,351 [INFO] OUT: 8=FIX.4.4|9=292|35=8|49=EXCHANGE|56=MY_COMPANY|34=36|11=a861379c-23c9-48f5-b830-04cf7a132aa5|37=a861379c-23c9-48f5-b830-04cf7a132aa5|17=d1b0e0f9-77a0-4148-bdcc-f2e73389ae38|39=2|150=F|55=PHIA.AS|54=2|38=1|32=1|31=21.26600900|151=0|14=1|44=21.26600900|6007=passive_liquidity_provider|52=20250521-09:29:59.351|10=242|
2025-05-21 10:29:59,360 [INFO] HEARBEAT SENT: 8=FIX.4.4|9=62|35=0|49=MY_COMPANY|56=EXCHANGE|34=37|52=20250521-09:29:59.359|10=128|
2025-05-21 10:29:59,364 [INFO] OUT: 8=FIX.4.4|9=308|35=8|49=EXCHANGE|56=MY_COMPANY|34=27|11=passive_liquidity_provider-1747819794.319256|37=passive_liquidity_provider-1747819794.319256|17=0a61ad77-3a0a-4659-bc01-93a9dbc31d6c|39=2|150=F|55=INGA.AS|54=2|38=2|32=2|31=19.11169900|151=0|14=2|44=19.11169900|6007=passive_liquidity_provider|52=20250521-09:29:59.364|10=051|
2025-05-21 10:29:59,368 [INFO] OUT: 8=FIX.4.4|9=178|35=D|49=MY_COMPANY|56=EXCHANGE|34=28|11=passive_liquidity_provider-1747819799.367979|55=INGA.AS|54=1|44=19.11169900|38=6|52=20250521-09:29:59.368|6007=passive_liquidity_provider|10=086|
2025-05-21 10:29:59,368 [INFO] IN: 8=FIX.4.4|9=178|35=D|49=MY_COMPANY|56=EXCHANGE|34=28|11=passive_liquidity_provider-1747819799.367979|55=INGA.AS|54=1|44=19.11169900|38=6|52=20250521-09:29:59.368|6007=passive_liquidity_provider|10=086|
2025-05-21 10:29:59,368 [INFO] OUT: 8=FIX.4.4|9=308|35=8|49=EXCHANGE|56=MY_COMPANY|34=29|11=passive_liquidity_provider-1747819794.319256|37=passive_liquidity_provider-1747819794.319256|17=9d10e12c-b411-4de0-9069-f6b478bd2379|39=2|150=F|55=INGA.AS|54=1|38=1|32=1|31=19.11169900|151=0|14=1|44=19.11169900|6007=passive_liquidity_provider|52=20250521-09:29:59.368|10=185|
2025-05-21 10:29:59,369 [INFO] OUT: 8=FIX.4.4|9=292|35=8|49=EXCHANGE|56=MY_COMPANY|34=30|11=b40f2d06-82aa-4e30-b74c-ef57851afc7b|37=b40f2d06-82aa-4e30-b74c-ef57851afc7b|17=10f91d9e-b3ab-4158-98ca-d9324b239bb4|39=2|150=F|55=INGA.AS|54=1|38=1|32=1|31=19.11169900|151=0|14=1|44=19.11169900|6007=passive_liquidity_provider|52=20250521-09:29:59.369|10=074|
2025-05-21 10:29:59,369 [INFO] OUT: 8=FIX.4.4|9=308|35=8|49=EXCHANGE|56=MY_COMPANY|34=31|11=passive_liquidity_provider-1747819799.367979|37=passive_liquidity_provider-1747819799.367979|17=e4b2ca84-8d20-4ad6-b207-c7c4b17e4694|39=2|150=F|55=INGA.AS|54=1|38=5|32=5|31=19.11169900|151=0|14=5|44=19.11169900|6007=passive_liquidity_provider|52=20250521-09:29:59.369|10=065|
2025-05-21 10:29:59,369 [INFO] OUT: 8=FIX.4.4|9=292|35=8|49=EXCHANGE|56=MY_COMPANY|34=32|11=b40f2d06-82aa-4e30-b74c-ef57851afc7b|37=b40f2d06-82aa-4e30-b74c-ef57851afc7b|17=dc66a088-2ce3-4758-a5be-18f87abee2e2|39=2|150=F|55=INGA.AS|54=1|38=5|32=5|31=19.11169900|151=0|14=5|44=19.11169900|6007=passive_liquidity_provider|52=20250521-09:29:59.369|10=194|
2025-05-21 10:29:59,370 [INFO] OUT: 8=FIX.4.4|9=308|35=8|49=EXCHANGE|56=MY_COMPANY|34=33|11=passive_liquidity_provider-1747819799.367979|37=passive_liquidity_provider-1747819799.367979|17=f9019de3-4a37-4d4d-9dff-3d5ce824755d|39=2|150=F|55=INGA.AS|54=2|38=1|32=1|31=19.11169900|151=0|14=1|44=19.11169900|6007=passive_liquidity_provider|52=20250521-09:29:59.370|10=120|
2025-05-21 10:29:59,370 [INFO] OUT: 8=FIX.4.4|9=292|35=8|49=EXCHANGE|56=MY_COMPANY|34=34|11=57392727-8c21-49cd-ba79-ca02b67a8f38|37=57392727-8c21-49cd-ba79-ca02b67a8f38|17=44345fa9-3c4d-41ad-9186-bff5a1c316f5|39=2|150=F|55=INGA.AS|54=2|38=1|32=1|31=19.11169900|151=0|14=1|44=19.11169900|6007=passive_liquidity_provider|52=20250521-09:29:59.370|10=244|
2025-05-21 10:29:59,371 [INFO] OUT: 8=FIX.4.4|9=292|35=8|49=EXCHANGE|56=MY_COMPANY|34=35|11=57392727-8c21-49cd-ba79-ca02b67a8f38|37=57392727-8c21-49cd-ba79-ca02b67a8f38|17=e3a6151f-781e-484d-8868-1f3c33a2db87|39=2|150=F|55=INGA.AS|54=2|38=8|32=8|31=19.10215273|151=0|14=8|44=19.10215273|6007=passive_liquidity_provider|52=20250521-09:29:59.371|10=172|
2025-05-21 10:29:59,374 [INFO] HEARBEAT SENT: 8=FIX.4.4|9=62|35=0|49=MY_COMPANY|56=EXCHANGE|34=36|52=20250521-09:29:59.374|10=124|
2025-05-21 10:29:59,375 [INFO] OUT: 8=FIX.4.4|9=177|35=D|49=MY_COMPANY|56=EXCHANGE|34=32|11=passive_liquidity_provider-1747819799.375277|55=AD.AS|54=1|44=37.75646374|38=10|52=20250521-09:29:59.375|6007=passive_liquidity_provider|10=228|
2025-05-21 10:29:59,375 [INFO] IN: 8=FIX.4.4|9=177|35=D|49=MY_COMPANY|56=EXCHANGE|34=32|11=passive_liquidity_provider-1747819799.375277|55=AD.AS|54=1|44=37.75646374|38=10|52=20250521-09:29:59.375|6007=passive_liquidity_provider|10=228|
2025-05-21 10:29:59,376 [INFO] OUT: 8=FIX.4.4|9=290|35=8|49=EXCHANGE|56=MY_COMPANY|34=33|11=85f6b7ac-9c76-47c0-be6a-02b7e0b9db61|37=85f6b7ac-9c76-47c0-be6a-02b7e0b9db61|17=a5cff444-0c56-47f8-abba-6c1d98670ff4|39=2|150=F|55=AD.AS|54=1|38=6|32=6|31=37.75646374|151=0|14=6|44=37.75646374|6007=passive_liquidity_provider|52=20250521-09:29:59.376|10=092|
2025-05-21 10:29:59,376 [INFO] OUT: 8=FIX.4.4|9=306|35=8|49=EXCHANGE|56=MY_COMPANY|34=34|11=passive_liquidity_provider-1747819799.375277|37=passive_liquidity_provider-1747819799.375277|17=1b0400ca-bbed-4314-ba9a-d42727584573|39=2|150=F|55=AD.AS|54=1|38=4|32=4|31=37.75646374|151=0|14=4|44=37.75646374|6007=passive_liquidity_provider|52=20250521-09:29:59.376|10=108|
2025-05-21 10:29:59,376 [INFO] OUT: 8=FIX.4.4|9=290|35=8|49=EXCHANGE|56=MY_COMPANY|34=35|11=85f6b7ac-9c76-47c0-be6a-02b7e0b9db61|37=85f6b7ac-9c76-47c0-be6a-02b7e0b9db61|17=3e8a126b-48d7-42b3-b054-3b059fb7491d|39=2|150=F|55=AD.AS|54=1|38=4|32=4|31=37.75646374|151=0|14=4|44=37.75646374|6007=passive_liquidity_provider|52=20250521-09:29:59.376|10=139|
2025-05-21 10:29:59,376 [INFO] OUT: 8=FIX.4.4|9=306|35=8|49=EXCHANGE|56=MY_COMPANY|34=36|11=passive_liquidity_provider-1747819799.375277|37=passive_liquidity_provider-1747819799.375277|17=373c4018-2bf2-4c45-abda-0e8e2fd62a6b|39=2|150=F|55=AD.AS|54=2|38=2|32=2|31=37.75646374|151=0|14=2|44=37.75646374|6007=passive_liquidity_provider|52=20250521-09:29:59.376|10=254|
2025-05-21 10:29:59,377 [INFO] OUT: 8=FIX.4.4|9=290|35=8|49=EXCHANGE|56=MY_COMPANY|34=37|11=1a579150-c60c-4d09-8b9f-6e40767a40aa|37=1a579150-c60c-4d09-8b9f-6e40767a40aa|17=d124982e-7866-42d7-863c-bee0ed27bc43|39=2|150=F|55=AD.AS|54=2|38=2|32=2|31=37.75646374|151=0|14=2|44=37.75646374|6007=passive_liquidity_provider|52=20250521-09:29:59.376|10=060|
2025-05-21 10:29:59,377 [INFO] OUT: 8=FIX.4.4|9=306|35=8|49=EXCHANGE|56=MY_COMPANY|34=38|11=passive_liquidity_provider-1747819799.375277|37=passive_liquidity_provider-1747819799.375277|17=c6ef62ac-4fab-4111-99f1-a4d6a67334f9|39=2|150=F|55=AD.AS|54=1|38=4|32=4|31=37.75646374|151=0|14=4|44=37.75646374|6007=passive_liquidity_provider|52=20250521-09:29:59.377|10=233|
2025-05-21 10:29:59,378 [INFO] HEARBEAT SENT: 8=FIX.4.4|9=62|35=0|49=MY_COMPANY|56=EXCHANGE|34=39|52=20250521-09:29:59.378|10=131|
2025-05-21 10:29:59,379 [INFO] HEARBEAT SENT: 8=FIX.4.4|9=61|35=0|49=MY_COMPANY|56=EXCHANGE|34=7|52=20250521-09:29:59.379|10=078|
2025-05-21 10:29:59,381 [INFO] HEARBEAT SENT: 8=FIX.4.4|9=62|35=0|49=MY_COMPANY|56=EXCHANGE|34=18|52=20250521-09:29:59.381|10=122|
2025-05-21 10:30:04,394 [INFO] OUT: 8=FIX.4.4|9=306|35=8|49=EXCHANGE|56=MY_COMPANY|34=38|11=passive_liquidity_provider-1747819799.34983|37=passive_liquidity_provider-1747819799.34983|17=a23f134b-7461-4d62-b336-30e233f63f80|39=2|150=F|55=PHIA.AS|54=1|38=1|32=1|31=21.26600900|151=0|14=1|44=21.26600900|6007=passive_liquidity_provider|52=20250521-09:30:04.393|10=205|
2025-05-21 10:30:04,395 [INFO] OUT: 8=FIX.4.4|9=306|35=8|49=EXCHANGE|56=MY_COMPANY|34=39|11=passive_liquidity_provider-1747819799.34983|37=passive_liquidity_provider-1747819799.34983|17=8db73c93-2722-4c71-ac3c-e1568cce24dd|39=2|150=F|55=PHIA.AS|54=2|38=1|32=1|31=21.26600900|151=0|14=1|44=21.26600900|6007=passive_liquidity_provider|52=20250521-09:30:04.395|10=205|
2025-05-21 10:30:04,403 [INFO] OUT: 8=FIX.4.4|9=177|35=D|49=MY_COMPANY|56=EXCHANGE|34=40|11=passive_liquidity_provider-1747819804.40293|55=PHIA.AS|54=1|44=21.26600900|38=1|52=20250521-09:30:04.403|6007=passive_liquidity_provider|10=210|
2025-05-21 10:30:04,403 [INFO] IN: 8=FIX.4.4|9=177|35=D|49=MY_COMPANY|56=EXCHANGE|34=40|11=passive_liquidity_provider-1747819804.40293|55=PHIA.AS|54=1|44=21.26600900|38=1|52=20250521-09:30:04.403|6007=passive_liquidity_provider|10=210|
2025-05-21 10:30:04,404 [INFO] OUT: 8=FIX.4.4|9=306|35=8|49=EXCHANGE|56=MY_COMPANY|34=41|11=passive_liquidity_provider-1747819804.40293|37=passive_liquidity_provider-1747819804.40293|17=a3c141f8-99dd-4cd3-ab4a-b5f071c870c6|39=2|150=F|55=PHIA.AS|54=1|38=1|32=1|31=21.26600900|151=0|14=1|44=21.26600900|6007=passive_liquidity_provider|52=20250521-09:30:04.404|10=188|
2025-05-21 10:30:04,405 [INFO] OUT: 8=FIX.4.4|9=292|35=8|49=EXCHANGE|56=MY_COMPANY|34=42|11=986588fe-4023-42fd-98b9-a69ef90c0617|37=986588fe-4023-42fd-98b9-a69ef90c0617|17=53980670-c752-48d2-84df-2ee2cab59b52|39=2|150=F|55=PHIA.AS|54=1|38=1|32=1|31=21.26600900|151=0|14=1|44=21.26600900|6007=passive_liquidity_provider|52=20250521-09:30:04.405|10=059|
2025-05-21 10:30:04,405 [INFO] OUT: 8=FIX.4.4|9=292|35=8|49=EXCHANGE|56=MY_COMPANY|34=43|11=836871ae-4543-49fd-a00a-3c6516fea416|37=836871ae-4543-49fd-a00a-3c6516fea416|17=c2d33f96-e97b-460e-ab70-8878840c00f8|39=2|150=F|55=PHIA.AS|54=2|38=6|32=6|31=21.24467900|151=0|14=6|44=21.24467900|6007=passive_liquidity_provider|52=20250521-09:30:04.405|10=128|
2025-05-21 10:30:04,411 [INFO] OUT: 8=FIX.4.4|9=178|35=D|49=MY_COMPANY|56=EXCHANGE|34=37|11=passive_liquidity_provider-1747819804.411225|55=INGA.AS|54=1|44=19.09254900|38=2|52=20250521-09:30:04.411|6007=passive_liquidity_provider|10=016|
2025-05-21 10:30:04,411 [INFO] IN: 8=FIX.4.4|9=178|35=D|49=MY_COMPANY|56=EXCHANGE|34=37|11=passive_liquidity_provider-1747819804.411225|55=INGA.AS|54=1|44=19.09254900|38=2|52=20250521-09:30:04.411|6007=passive_liquidity_provider|10=016|
2025-05-21 10:30:04,412 [INFO] OUT: 8=FIX.4.4|9=292|35=8|49=EXCHANGE|56=MY_COMPANY|34=38|11=b7b1b6bf-b681-4473-a7f9-9cb37cffec58|37=b7b1b6bf-b681-4473-a7f9-9cb37cffec58|17=a13032b0-ee7d-48ad-9756-666a88b0369e|39=2|150=F|55=INGA.AS|54=1|38=2|32=2|31=19.09254900|151=0|14=2|44=19.09254900|6007=passive_liquidity_provider|52=20250521-09:30:04.412|10=121|
2025-05-21 10:30:04,412 [INFO] OUT: 8=FIX.4.4|9=292|35=8|49=EXCHANGE|56=MY_COMPANY|34=39|11=24a70f37-0919-4344-93ab-fde1641c2155|37=24a70f37-0919-4344-93ab-fde1641c2155|17=79d76464-735c-4d62-9bc3-d0825f949b2b|39=2|150=F|55=INGA.AS|54=2|38=8|32=8|31=19.09254900|151=0|14=8|44=19.09254900|6007=passive_liquidity_provider|52=20250521-09:30:04.412|10=155|
2025-05-21 10:30:04,416 [INFO] OUT: 8=FIX.4.4|9=177|35=D|49=MY_COMPANY|56=EXCHANGE|34=40|11=passive_liquidity_provider-1747819804.4163709|55=AD.AS|54=1|44=37.75638801|38=8|52=20250521-09:30:04.416|6007=passive_liquidity_provider|10=194|
2025-05-21 10:30:04,416 [INFO] IN: 8=FIX.4.4|9=177|35=D|49=MY_COMPANY|56=EXCHANGE|34=40|11=passive_liquidity_provider-1747819804.4163709|55=AD.AS|54=1|44=37.75638801|38=8|52=20250521-09:30:04.416|6007=passive_liquidity_provider|10=194|
2025-05-21 10:30:04,416 [INFO] OUT: 8=FIX.4.4|9=308|35=8|49=EXCHANGE|56=MY_COMPANY|34=41|11=passive_liquidity_provider-1747819804.4163709|37=passive_liquidity_provider-1747819804.4163709|17=6e0979ae-bcdd-489d-9004-80edc16ab71d|39=2|150=F|55=AD.AS|54=1|38=8|32=8|31=37.75638801|151=0|14=8|44=37.75638801|6007=passive_liquidity_provider|52=20250521-09:30:04.416|10=073|
2025-05-21 10:30:04,417 [INFO] OUT: 8=FIX.4.4|9=290|35=8|49=EXCHANGE|56=MY_COMPANY|34=42|11=8939be95-56b2-4822-bd68-03f0f6234e56|37=8939be95-56b2-4822-bd68-03f0f6234e56|17=fdcf1ed4-ef3b-4a92-b313-96cf191d56fb|39=2|150=F|55=AD.AS|54=1|38=8|32=8|31=37.75638801|151=0|14=8|44=37.75638801|6007=passive_liquidity_provider|52=20250521-09:30:04.417|10=126|
2025-05-21 10:30:04,417 [INFO] OUT: 8=FIX.4.4|9=290|35=8|49=EXCHANGE|56=MY_COMPANY|34=43|11=61552633-a0ca-4fbe-a0c3-7e96548c031c|37=61552633-a0ca-4fbe-a0c3-7e96548c031c|17=6c06c152-db39-4f9c-98bb-3689d8555c80|39=2|150=F|55=AD.AS|54=2|38=4|32=4|31=37.75638801|151=0|14=4|44=37.75638801|6007=passive_liquidity_provider|52=20250521-09:30:04.417|10=069|
2025-05-21 10:30:09,435 [INFO] OUT: 8=FIX.4.4|9=180|35=D|49=MY_COMPANY|56=EXCHANGE|34=44|11=passive_liquidity_provider-1747819809.4346628|55=PHIA.AS|54=1|44=21.24467900|38=10|52=20250521-09:30:09.434|6007=passive_liquidity_provider|10=134|
2025-05-21 10:30:09,437 [INFO] IN: 8=FIX.4.4|9=180|35=D|49=MY_COMPANY|56=EXCHANGE|34=44|11=passive_liquidity_provider-1747819809.4346628|55=PHIA.AS|54=1|44=21.24467900|38=10|52=20250521-09:30:09.434|6007=passive_liquidity_provider|10=134|
2025-05-21 10:30:09,441 [INFO] OUT: 8=FIX.4.4|9=295|35=8|49=EXCHANGE|56=MY_COMPANY|34=45|11=ca934b97-5267-4073-b9a2-7928044f3c8e|37=ca934b97-5267-4073-b9a2-7928044f3c8e|17=f84f34e1-3cc6-4186-a492-6563d0e15674|39=2|150=F|55=PHIA.AS|54=1|38=10|32=10|31=21.24467900|151=0|14=10|44=21.24467900|6007=passive_liquidity_provider|52=20250521-09:30:09.440|10=008|
2025-05-21 10:30:09,442 [INFO] OUT: 8=FIX.4.4|9=310|35=8|49=EXCHANGE|56=MY_COMPANY|34=46|11=passive_liquidity_provider-1747819809.4346628|37=passive_liquidity_provider-1747819809.4346628|17=dde841b1-0d94-465a-bda7-d7147583b93e|39=2|150=F|55=PHIA.AS|54=2|38=4|32=4|31=21.24467900|151=0|14=4|44=21.24467900|6007=passive_liquidity_provider|52=20250521-09:30:09.442|10=114|
2025-05-21 10:30:09,442 [INFO] OUT: 8=FIX.4.4|9=292|35=8|49=EXCHANGE|56=MY_COMPANY|34=47|11=802573b2-ce85-4fac-bf64-4f8376be369d|37=802573b2-ce85-4fac-bf64-4f8376be369d|17=9a0b94f5-f8e6-408c-8a01-1ff3de5e27ca|39=2|150=F|55=PHIA.AS|54=2|38=4|32=4|31=21.24467900|151=0|14=4|44=21.24467900|6007=passive_liquidity_provider|52=20250521-09:30:09.442|10=030|
2025-05-21 10:30:09,447 [INFO] OUT: 8=FIX.4.4|9=310|35=8|49=EXCHANGE|56=MY_COMPANY|34=48|11=passive_liquidity_provider-1747819809.4346628|37=passive_liquidity_provider-1747819809.4346628|17=4cf341b6-c888-42f9-b95a-6181a3d5ac1c|39=2|150=F|55=PHIA.AS|54=2|38=6|32=6|31=21.24467900|151=0|14=6|44=21.24467900|6007=passive_liquidity_provider|52=20250521-09:30:09.447|10=124|
2025-05-21 10:30:09,451 [INFO] OUT: 8=FIX.4.4|9=179|35=D|49=MY_COMPANY|56=EXCHANGE|34=40|11=passive_liquidity_provider-1747819809.451026|55=INGA.AS|54=1|44=19.09254900|38=10|52=20250521-09:30:09.451|6007=passive_liquidity_provider|10=075|
2025-05-21 10:30:09,451 [INFO] IN: 8=FIX.4.4|9=179|35=D|49=MY_COMPANY|56=EXCHANGE|34=40|11=passive_liquidity_provider-1747819809.451026|55=INGA.AS|54=1|44=19.09254900|38=10|52=20250521-09:30:09.451|6007=passive_liquidity_provider|10=075|
2025-05-21 10:30:09,451 [INFO] OUT: 8=FIX.4.4|9=295|35=8|49=EXCHANGE|56=MY_COMPANY|34=41|11=5c6a2715-1fae-49aa-a801-6c78c38d9c4e|37=5c6a2715-1fae-49aa-a801-6c78c38d9c4e|17=a73dc3f4-391f-486f-936a-59f2618a2d42|39=2|150=F|55=INGA.AS|54=1|38=10|32=10|31=19.09254900|151=0|14=10|44=19.09254900|6007=passive_liquidity_provider|52=20250521-09:30:09.451|10=051|
2025-05-21 10:30:09,452 [INFO] OUT: 8=FIX.4.4|9=292|35=8|49=EXCHANGE|56=MY_COMPANY|34=42|11=56ead5f7-c54e-4238-aeea-52c793fe9d99|37=56ead5f7-c54e-4238-aeea-52c793fe9d99|17=f274fc9e-4831-4f6f-a5ff-20132f5bfa03|39=2|150=F|55=INGA.AS|54=2|38=7|32=7|31=19.09254900|151=0|14=7|44=19.09254900|6007=passive_liquidity_provider|52=20250521-09:30:09.452|10=201|
2025-05-21 10:30:09,453 [INFO] OUT: 8=FIX.4.4|9=308|35=8|49=EXCHANGE|56=MY_COMPANY|34=43|11=passive_liquidity_provider-1747819804.411225|37=passive_liquidity_provider-1747819804.411225|17=62fe4efd-3494-4a6a-8a06-b904eb040e6c|39=2|150=F|55=INGA.AS|54=1|38=2|32=2|31=19.09254900|151=0|14=2|44=19.09254900|6007=passive_liquidity_provider|52=20250521-09:30:09.453|10=015|
2025-05-21 10:30:09,454 [INFO] OUT: 8=FIX.4.4|9=308|35=8|49=EXCHANGE|56=MY_COMPANY|34=44|11=passive_liquidity_provider-1747819809.451026|37=passive_liquidity_provider-1747819809.451026|17=82f16a56-c483-46c4-8dff-30ca528b8583|39=2|150=F|55=INGA.AS|54=1|38=1|32=1|31=19.09254900|151=0|14=1|44=19.09254900|6007=passive_liquidity_provider|52=20250521-09:30:09.454|10=159|
2025-05-21 10:30:09,454 [INFO] OUT: 8=FIX.4.4|9=308|35=8|49=EXCHANGE|56=MY_COMPANY|34=45|11=passive_liquidity_provider-1747819809.451026|37=passive_liquidity_provider-1747819809.451026|17=43ed695c-2b30-4d4d-b355-66cb81674fa0|39=2|150=F|55=INGA.AS|54=2|38=2|32=2|31=19.09254900|151=0|14=2|44=19.09254900|6007=passive_liquidity_provider|52=20250521-09:30:09.454|10=197|
2025-05-21 10:30:09,455 [INFO] OUT: 8=FIX.4.4|9=177|35=D|49=MY_COMPANY|56=EXCHANGE|34=44|11=passive_liquidity_provider-1747819809.455616|55=AD.AS|54=1|44=37.75638801|38=10|52=20250521-09:30:09.455|6007=passive_liquidity_provider|10=201|
2025-05-21 10:30:09,455 [INFO] IN: 8=FIX.4.4|9=177|35=D|49=MY_COMPANY|56=EXCHANGE|34=44|11=passive_liquidity_provider-1747819809.455616|55=AD.AS|54=1|44=37.75638801|38=10|52=20250521-09:30:09.455|6007=passive_liquidity_provider|10=201|
2025-05-21 10:30:09,456 [INFO] OUT: 8=FIX.4.4|9=309|35=8|49=EXCHANGE|56=MY_COMPANY|34=45|11=passive_liquidity_provider-1747819809.455616|37=passive_liquidity_provider-1747819809.455616|17=984da9da-cb3d-484f-b9d7-68bf2a4171cc|39=2|150=F|55=AD.AS|54=1|38=10|32=10|31=37.75638801|151=0|14=10|44=37.75638801|6007=passive_liquidity_provider|52=20250521-09:30:09.456|10=171|
2025-05-21 10:30:09,456 [INFO] OUT: 8=FIX.4.4|9=293|35=8|49=EXCHANGE|56=MY_COMPANY|34=46|11=07fc296c-1a94-4669-9a6f-28f6f4332dba|37=07fc296c-1a94-4669-9a6f-28f6f4332dba|17=a075026e-5746-48e8-8b72-a38bd4463c66|39=2|150=F|55=AD.AS|54=1|38=10|32=10|31=37.75638801|151=0|14=10|44=37.75638801|6007=passive_liquidity_provider|52=20250521-09:30:09.456|10=174|
2025-05-21 10:30:09,457 [INFO] OUT: 8=FIX.4.4|9=290|35=8|49=EXCHANGE|56=MY_COMPANY|34=47|11=f1f6f53a-ec21-409e-93e4-3215a647301b|37=f1f6f53a-ec21-409e-93e4-3215a647301b|17=1d200b46-3583-4beb-87d0-066dfde633c9|39=2|150=F|55=AD.AS|54=2|38=6|32=6|31=37.75638801|151=0|14=6|44=37.75638801|6007=passive_liquidity_provider|52=20250521-09:30:09.457|10=024|
2025-05-21 10:30:14,480 [INFO] OUT: 8=FIX.4.4|9=179|35=D|49=MY_COMPANY|56=EXCHANGE|34=49|11=passive_liquidity_provider-1747819814.4785018|55=PHIA.AS|54=1|44=21.22334900|38=9|52=20250521-09:30:14.478|6007=passive_liquidity_provider|10=098|
2025-05-21 10:30:14,481 [INFO] IN: 8=FIX.4.4|9=179|35=D|49=MY_COMPANY|56=EXCHANGE|34=49|11=passive_liquidity_provider-1747819814.4785018|55=PHIA.AS|54=1|44=21.22334900|38=9|52=20250521-09:30:14.478|6007=passive_liquidity_provider|10=098|
2025-05-21 10:30:14,485 [INFO] OUT: 8=FIX.4.4|9=292|35=8|49=EXCHANGE|56=MY_COMPANY|34=50|11=34cb067d-3247-47a6-84d2-cfae9706ddc4|37=34cb067d-3247-47a6-84d2-cfae9706ddc4|17=752535cd-fc85-4c33-8e39-a7b93ebbffcc|39=2|150=F|55=PHIA.AS|54=1|38=9|32=9|31=21.22334900|151=0|14=9|44=21.22334900|6007=passive_liquidity_provider|52=20250521-09:30:14.485|10=056|
2025-05-21 10:30:14,487 [INFO] OUT: 8=FIX.4.4|9=292|35=8|49=EXCHANGE|56=MY_COMPANY|34=51|11=03044caa-950f-4690-a0ad-dc29e45cb99f|37=03044caa-950f-4690-a0ad-dc29e45cb99f|17=a5ca8db6-4d6a-45af-924c-b7fcc1c450a0|39=2|150=F|55=PHIA.AS|54=2|38=1|32=1|31=21.22334900|151=0|14=1|44=21.22334900|6007=passive_liquidity_provider|52=20250521-09:30:14.486|10=128|
2025-05-21 10:30:14,499 [INFO] OUT: 8=FIX.4.4|9=308|35=8|49=EXCHANGE|56=MY_COMPANY|34=46|11=passive_liquidity_provider-1747819809.451026|37=passive_liquidity_provider-1747819809.451026|17=82406663-3464-4ea3-9b1e-0bde00a2cd5d|39=2|150=F|55=INGA.AS|54=1|38=7|32=7|31=19.09254900|151=0|14=7|44=19.09254900|6007=passive_liquidity_provider|52=20250521-09:30:14.499|10=202|
2025-05-21 10:30:14,503 [INFO] OUT: 8=FIX.4.4|9=179|35=D|49=MY_COMPANY|56=EXCHANGE|34=47|11=passive_liquidity_provider-1747819814.5021582|55=INGA.AS|54=1|44=19.09254900|38=8|52=20250521-09:30:14.502|6007=passive_liquidity_provider|10=083|
2025-05-21 10:30:14,504 [INFO] IN: 8=FIX.4.4|9=179|35=D|49=MY_COMPANY|56=EXCHANGE|34=47|11=passive_liquidity_provider-1747819814.5021582|55=INGA.AS|54=1|44=19.09254900|38=8|52=20250521-09:30:14.502|6007=passive_liquidity_provider|10=083|
2025-05-21 10:30:14,504 [INFO] OUT: 8=FIX.4.4|9=310|35=8|49=EXCHANGE|56=MY_COMPANY|34=48|11=passive_liquidity_provider-1747819814.5021582|37=passive_liquidity_provider-1747819814.5021582|17=dfab1abf-410c-48b7-8515-eb588bad115f|39=2|150=F|55=INGA.AS|54=1|38=8|32=8|31=19.09254900|151=0|14=8|44=19.09254900|6007=passive_liquidity_provider|52=20250521-09:30:14.504|10=228|
2025-05-21 10:30:14,504 [INFO] OUT: 8=FIX.4.4|9=292|35=8|49=EXCHANGE|56=MY_COMPANY|34=49|11=3adf1e9a-ae48-41ae-877b-1f5c4c817464|37=3adf1e9a-ae48-41ae-877b-1f5c4c817464|17=53492784-7a09-4413-88ab-1007ed5b00df|39=2|150=F|55=INGA.AS|54=1|38=8|32=8|31=19.09254900|151=0|14=8|44=19.09254900|6007=passive_liquidity_provider|52=20250521-09:30:14.504|10=077|
2025-05-21 10:30:14,504 [INFO] OUT: 8=FIX.4.4|9=292|35=8|49=EXCHANGE|56=MY_COMPANY|34=50|11=4ee51490-d809-46a1-9458-fe96bb2a390a|37=4ee51490-d809-46a1-9458-fe96bb2a390a|17=45c282a2-8ec7-46e3-a379-c56acda07115|39=2|150=F|55=INGA.AS|54=2|38=2|32=2|31=19.07339900|151=0|14=2|44=19.07339900|6007=passive_liquidity_provider|52=20250521-09:30:14.504|10=175|
2025-05-21 10:30:14,506 [INFO] OUT: 8=FIX.4.4|9=176|35=D|49=MY_COMPANY|56=EXCHANGE|34=48|11=passive_liquidity_provider-1747819814.506923|55=AD.AS|54=1|44=37.75638801|38=4|52=20250521-09:30:14.506|6007=passive_liquidity_provider|10=146|
2025-05-21 10:30:14,507 [INFO] IN: 8=FIX.4.4|9=176|35=D|49=MY_COMPANY|56=EXCHANGE|34=48|11=passive_liquidity_provider-1747819814.506923|55=AD.AS|54=1|44=37.75638801|38=4|52=20250521-09:30:14.506|6007=passive_liquidity_provider|10=146|
2025-05-21 10:30:14,507 [INFO] OUT: 8=FIX.4.4|9=306|35=8|49=EXCHANGE|56=MY_COMPANY|34=49|11=passive_liquidity_provider-1747819814.506923|37=passive_liquidity_provider-1747819814.506923|17=41c00ea6-5331-4916-aa62-0668eb6ce142|39=2|150=F|55=AD.AS|54=1|38=4|32=4|31=37.75638801|151=0|14=4|44=37.75638801|6007=passive_liquidity_provider|52=20250521-09:30:14.507|10=212|
2025-05-21 10:30:14,507 [INFO] OUT: 8=FIX.4.4|9=290|35=8|49=EXCHANGE|56=MY_COMPANY|34=50|11=01b4d14a-8f82-4975-bd69-3b71d0468ce5|37=01b4d14a-8f82-4975-bd69-3b71d0468ce5|17=4a8250cf-e2f1-4cf8-923d-f33008199af6|39=2|150=F|55=AD.AS|54=1|38=4|32=4|31=37.75638801|151=0|14=4|44=37.75638801|6007=passive_liquidity_provider|52=20250521-09:30:14.507|10=044|
2025-05-21 10:30:14,507 [INFO] OUT: 8=FIX.4.4|9=290|35=8|49=EXCHANGE|56=MY_COMPANY|34=51|11=47578f33-5d65-49c5-bae5-970c99ce478f|37=47578f33-5d65-49c5-bae5-970c99ce478f|17=578264e9-cc85-4fe8-9477-9a87103b0fee|39=2|150=F|55=AD.AS|54=2|38=5|32=5|31=37.75638801|151=0|14=5|44=37.75638801|6007=passive_liquidity_provider|52=20250521-09:30:14.507|10=093|
2025-05-21 10:30:19,510 [INFO] OUT: 8=FIX.4.4|9=178|35=D|49=MY_COMPANY|56=EXCHANGE|34=52|11=passive_liquidity_provider-1747819819.510401|55=PHIA.AS|54=1|44=21.22334900|38=4|52=20250521-09:30:19.510|6007=passive_liquidity_provider|10=013|
2025-05-21 10:30:19,510 [INFO] IN: 8=FIX.4.4|9=178|35=D|49=MY_COMPANY|56=EXCHANGE|34=52|11=passive_liquidity_provider-1747819819.510401|55=PHIA.AS|54=1|44=21.22334900|38=4|52=20250521-09:30:19.510|6007=passive_liquidity_provider|10=013|
2025-05-21 10:30:19,510 [INFO] OUT: 8=FIX.4.4|9=292|35=8|49=EXCHANGE|56=MY_COMPANY|34=53|11=405dfada-d8e3-479e-8e55-85f12c993745|37=405dfada-d8e3-479e-8e55-85f12c993745|17=e14d10e8-3744-46a0-8146-445bb5c4c8cd|39=2|150=F|55=PHIA.AS|54=1|38=4|32=4|31=21.22334900|151=0|14=4|44=21.22334900|6007=passive_liquidity_provider|52=20250521-09:30:19.510|10=238|
2025-05-21 10:30:19,511 [INFO] OUT: 8=FIX.4.4|9=292|35=8|49=EXCHANGE|56=MY_COMPANY|34=54|11=e28c3a63-4811-4dc8-b660-fa74173e8f1e|37=e28c3a63-4811-4dc8-b660-fa74173e8f1e|17=f4db1cf6-701a-4eef-98cf-723805f797ba|39=2|150=F|55=PHIA.AS|54=2|38=3|32=3|31=21.22334900|151=0|14=3|44=21.22334900|6007=passive_liquidity_provider|52=20250521-09:30:19.511|10=149|
2025-05-21 10:30:19,513 [INFO] OUT: 8=FIX.4.4|9=179|35=D|49=MY_COMPANY|56=EXCHANGE|34=51|11=passive_liquidity_provider-1747819819.513381|55=INGA.AS|54=1|44=19.07339900|38=10|52=20250521-09:30:19.513|6007=passive_liquidity_provider|10=083|
2025-05-21 10:30:19,513 [INFO] IN: 8=FIX.4.4|9=179|35=D|49=MY_COMPANY|56=EXCHANGE|34=51|11=passive_liquidity_provider-1747819819.513381|55=INGA.AS|54=1|44=19.07339900|38=10|52=20250521-09:30:19.513|6007=passive_liquidity_provider|10=083|
2025-05-21 10:30:19,513 [INFO] OUT: 8=FIX.4.4|9=295|35=8|49=EXCHANGE|56=MY_COMPANY|34=52|11=85ac4ae0-a53e-4a3f-8a26-5672cdb3d419|37=85ac4ae0-a53e-4a3f-8a26-5672cdb3d419|17=6708bece-2144-44a1-9200-d8d790200e35|39=2|150=F|55=INGA.AS|54=1|38=10|32=10|31=19.07339900|151=0|14=10|44=19.07339900|6007=passive_liquidity_provider|52=20250521-09:30:19.513|10=171|
2025-05-21 10:30:19,513 [INFO] OUT: 8=FIX.4.4|9=292|35=8|49=EXCHANGE|56=MY_COMPANY|34=53|11=2ebfe86f-a4d0-4fde-ad0c-26b937f97249|37=2ebfe86f-a4d0-4fde-ad0c-26b937f97249|17=ea657bb0-739d-4b01-8a61-dd32104453ba|39=2|150=F|55=INGA.AS|54=2|38=4|32=4|31=19.07339900|151=0|14=4|44=19.07339900|6007=passive_liquidity_provider|52=20250521-09:30:19.513|10=147|
2025-05-21 10:30:19,513 [INFO] OUT: 8=FIX.4.4|9=308|35=8|49=EXCHANGE|56=MY_COMPANY|34=54|11=passive_liquidity_provider-1747819819.513381|37=passive_liquidity_provider-1747819819.513381|17=6a0c4282-39f6-435c-94b2-d207e4a2e3b9|39=2|150=F|55=INGA.AS|54=2|38=4|32=4|31=19.07339900|151=0|14=4|44=19.07339900|6007=passive_liquidity_provider|52=20250521-09:30:19.513|10=163|
2025-05-21 10:30:19,514 [INFO] OUT: 8=FIX.4.4|9=292|35=8|49=EXCHANGE|56=MY_COMPANY|34=55|11=2ebfe86f-a4d0-4fde-ad0c-26b937f97249|37=2ebfe86f-a4d0-4fde-ad0c-26b937f97249|17=4f11afd0-12fd-4025-b41b-3faf7e368962|39=2|150=F|55=INGA.AS|54=2|38=4|32=4|31=19.07339900|151=0|14=4|44=19.07339900|6007=passive_liquidity_provider|52=20250521-09:30:19.514|10=209|
2025-05-21 10:30:19,514 [INFO] OUT: 8=FIX.4.4|9=308|35=8|49=EXCHANGE|56=MY_COMPANY|34=56|11=passive_liquidity_provider-1747819819.513381|37=passive_liquidity_provider-1747819819.513381|17=f7ddb84d-aabf-4afb-9f27-eea5a1a1df11|39=2|150=F|55=INGA.AS|54=2|38=3|32=3|31=19.07339900|151=0|14=3|44=19.07339900|6007=passive_liquidity_provider|52=20250521-09:30:19.514|10=123|
2025-05-21 10:30:24,523 [INFO] OUT: 8=FIX.4.4|9=177|35=D|49=MY_COMPANY|56=EXCHANGE|34=55|11=passive_liquidity_provider-1747819824.52284|55=PHIA.AS|54=1|44=21.22334900|38=3|52=20250521-09:30:24.523|6007=passive_liquidity_provider|10=228|
2025-05-21 10:30:24,523 [INFO] IN: 8=FIX.4.4|9=177|35=D|49=MY_COMPANY|56=EXCHANGE|34=55|11=passive_liquidity_provider-1747819824.52284|55=PHIA.AS|54=1|44=21.22334900|38=3|52=20250521-09:30:24.523|6007=passive_liquidity_provider|10=228|
2025-05-21 10:30:24,524 [INFO] OUT: 8=FIX.4.4|9=292|35=8|49=EXCHANGE|56=MY_COMPANY|34=56|11=4b85f849-c41c-45df-977a-ecf063bdea67|37=4b85f849-c41c-45df-977a-ecf063bdea67|17=4b3bf24f-b265-44ef-9621-a6cb013341fa|39=2|150=F|55=PHIA.AS|54=1|38=3|32=3|31=21.22334900|151=0|14=3|44=21.22334900|6007=passive_liquidity_provider|52=20250521-09:30:24.524|10=086|
2025-05-21 10:30:24,524 [INFO] OUT: 8=FIX.4.4|9=310|35=8|49=EXCHANGE|56=MY_COMPANY|34=57|11=passive_liquidity_provider-1747819814.4785018|37=passive_liquidity_provider-1747819814.4785018|17=c4f7b2db-1935-4531-aa94-d0cce3e4327a|39=2|150=F|55=PHIA.AS|54=2|38=3|32=3|31=21.22334900|151=0|14=3|44=21.22334900|6007=passive_liquidity_provider|52=20250521-09:30:24.524|10=115|
2025-05-21 10:30:24,525 [INFO] OUT: 8=FIX.4.4|9=292|35=8|49=EXCHANGE|56=MY_COMPANY|34=58|11=a3892fad-ca20-4418-b719-c14610de955f|37=a3892fad-ca20-4418-b719-c14610de955f|17=a0407fbb-5d35-4825-ae17-b65fc5414395|39=2|150=F|55=PHIA.AS|54=2|38=3|32=3|31=21.22334900|151=0|14=3|44=21.22334900|6007=passive_liquidity_provider|52=20250521-09:30:24.525|10=185|
2025-05-21 10:30:24,526 [INFO] OUT: 8=FIX.4.4|9=310|35=8|49=EXCHANGE|56=MY_COMPANY|34=59|11=passive_liquidity_provider-1747819814.4785018|37=passive_liquidity_provider-1747819814.4785018|17=69da6278-aac4-4ba0-9e5f-be58bba1ea95|39=2|150=F|55=PHIA.AS|54=2|38=6|32=6|31=21.22334900|151=0|14=6|44=21.22334900|6007=passive_liquidity_provider|52=20250521-09:30:24.526|10=030|
2025-05-21 10:30:24,527 [INFO] OUT: 8=FIX.4.4|9=308|35=8|49=EXCHANGE|56=MY_COMPANY|34=60|11=passive_liquidity_provider-1747819819.510401|37=passive_liquidity_provider-1747819819.510401|17=2f924dad-1910-4cb8-804f-cf5766869dcb|39=2|150=F|55=PHIA.AS|54=2|38=3|32=3|31=21.22334900|151=0|14=3|44=21.22334900|6007=passive_liquidity_provider|52=20250521-09:30:24.527|10=224|
2025-05-21 10:30:24,528 [INFO] OUT: 8=FIX.4.4|9=308|35=8|49=EXCHANGE|56=MY_COMPANY|34=57|11=passive_liquidity_provider-1747819819.513381|37=passive_liquidity_provider-1747819819.513381|17=28618f1f-7db3-4628-b377-74fcf3b93388|39=2|150=F|55=INGA.AS|54=1|38=3|32=3|31=19.07339900|151=0|14=3|44=19.07339900|6007=passive_liquidity_provider|52=20250521-09:30:24.528|10=145|
2025-05-21 10:30:24,530 [INFO] OUT: 8=FIX.4.4|9=178|35=D|49=MY_COMPANY|56=EXCHANGE|34=58|11=passive_liquidity_provider-1747819824.529985|55=INGA.AS|54=1|44=19.07339900|38=2|52=20250521-09:30:24.530|6007=passive_liquidity_provider|10=050|
2025-05-21 10:30:24,530 [INFO] IN: 8=FIX.4.4|9=178|35=D|49=MY_COMPANY|56=EXCHANGE|34=58|11=passive_liquidity_provider-1747819824.529985|55=INGA.AS|54=1|44=19.07339900|38=2|52=20250521-09:30:24.530|6007=passive_liquidity_provider|10=050|
2025-05-21 10:30:24,530 [INFO] OUT: 8=FIX.4.4|9=308|35=8|49=EXCHANGE|56=MY_COMPANY|34=59|11=passive_liquidity_provider-1747819824.529985|37=passive_liquidity_provider-1747819824.529985|17=d56ae149-dc94-46c5-885a-0ea986ee32bf|39=2|150=F|55=INGA.AS|54=1|38=2|32=2|31=19.07339900|151=0|14=2|44=19.07339900|6007=passive_liquidity_provider|52=20250521-09:30:24.530|10=091|
2025-05-21 10:30:24,530 [INFO] OUT: 8=FIX.4.4|9=292|35=8|49=EXCHANGE|56=MY_COMPANY|34=60|11=825288cd-d49d-4c50-8e2a-029485bd584e|37=825288cd-d49d-4c50-8e2a-029485bd584e|17=ad3921af-5279-4c17-acd3-bb7e209838b4|39=2|150=F|55=INGA.AS|54=1|38=2|32=2|31=19.07339900|151=0|14=2|44=19.07339900|6007=passive_liquidity_provider|52=20250521-09:30:24.530|10=240|
2025-05-21 10:30:24,531 [INFO] OUT: 8=FIX.4.4|9=292|35=8|49=EXCHANGE|56=MY_COMPANY|34=61|11=e1a5589c-fb59-49b6-b90b-6587b4fd1099|37=e1a5589c-fb59-49b6-b90b-6587b4fd1099|17=6a791072-15dd-4850-adcb-789a009d3215|39=2|150=F|55=INGA.AS|54=2|38=6|32=6|31=19.05424901|151=0|14=6|44=19.05424901|6007=passive_liquidity_provider|52=20250521-09:30:24.531|10=208|
2025-05-21 10:30:29,553 [INFO] HEARBEAT SENT: 8=FIX.4.4|9=61|35=0|49=MY_COMPANY|56=EXCHANGE|34=8|52=20250521-09:30:29.552|10=061|
2025-05-21 10:30:29,554 [INFO] OUT: 8=FIX.4.4|9=180|35=D|49=MY_COMPANY|56=EXCHANGE|34=61|11=passive_liquidity_provider-1747819829.5545118|55=PHIA.AS|54=1|44=21.22334900|38=10|52=20250521-09:30:29.554|6007=passive_liquidity_provider|10=127|
2025-05-21 10:30:29,555 [INFO] IN: 8=FIX.4.4|9=180|35=D|49=MY_COMPANY|56=EXCHANGE|34=61|11=passive_liquidity_provider-1747819829.5545118|55=PHIA.AS|54=1|44=21.22334900|38=10|52=20250521-09:30:29.554|6007=passive_liquidity_provider|10=127|
2025-05-21 10:30:29,555 [INFO] OUT: 8=FIX.4.4|9=308|35=8|49=EXCHANGE|56=MY_COMPANY|34=62|11=passive_liquidity_provider-1747819819.510401|37=passive_liquidity_provider-1747819819.510401|17=ddbcd18a-199e-4c9a-961a-df0305a67478|39=2|150=F|55=PHIA.AS|54=1|38=1|32=1|31=21.22334900|151=0|14=1|44=21.22334900|6007=passive_liquidity_provider|52=20250521-09:30:29.555|10=010|
2025-05-21 10:30:29,555 [INFO] OUT: 8=FIX.4.4|9=292|35=8|49=EXCHANGE|56=MY_COMPANY|34=63|11=15c56323-9eed-4de6-b3f2-9371aa04e302|37=15c56323-9eed-4de6-b3f2-9371aa04e302|17=fbea0f1c-fa50-42c7-9823-29aba745cc78|39=2|150=F|55=PHIA.AS|54=1|38=1|32=1|31=21.22334900|151=0|14=1|44=21.22334900|6007=passive_liquidity_provider|52=20250521-09:30:29.555|10=107|
2025-05-21 10:30:29,557 [INFO] OUT: 8=FIX.4.4|9=306|35=8|49=EXCHANGE|56=MY_COMPANY|34=64|11=passive_liquidity_provider-1747819824.52284|37=passive_liquidity_provider-1747819824.52284|17=a8cf9846-2a25-4504-8aeb-f4e0e7bb481e|39=2|150=F|55=PHIA.AS|54=1|38=3|32=3|31=21.22334900|151=0|14=3|44=21.22334900|6007=passive_liquidity_provider|52=20250521-09:30:29.557|10=187|
2025-05-21 10:30:29,558 [INFO] OUT: 8=FIX.4.4|9=292|35=8|49=EXCHANGE|56=MY_COMPANY|34=65|11=15c56323-9eed-4de6-b3f2-9371aa04e302|37=15c56323-9eed-4de6-b3f2-9371aa04e302|17=56b2fd1d-531a-4be4-b79f-09adb51206b6|39=2|150=F|55=PHIA.AS|54=1|38=3|32=3|31=21.22334900|151=0|14=3|44=21.22334900|6007=passive_liquidity_provider|52=20250521-09:30:29.558|10=061|
2025-05-21 10:30:29,558 [INFO] OUT: 8=FIX.4.4|9=310|35=8|49=EXCHANGE|56=MY_COMPANY|34=66|11=passive_liquidity_provider-1747819829.5545118|37=passive_liquidity_provider-1747819829.5545118|17=f4459ff9-e686-4747-a956-0e2e164a6054|39=2|150=F|55=PHIA.AS|54=1|38=6|32=6|31=21.22334900|151=0|14=6|44=21.22334900|6007=passive_liquidity_provider|52=20250521-09:30:29.558|10=195|
2025-05-21 10:30:29,559 [INFO] OUT: 8=FIX.4.4|9=292|35=8|49=EXCHANGE|56=MY_COMPANY|34=67|11=15c56323-9eed-4de6-b3f2-9371aa04e302|37=15c56323-9eed-4de6-b3f2-9371aa04e302|17=5ff0d136-8575-47c8-86f1-a20f0e12aec6|39=2|150=F|55=PHIA.AS|54=1|38=6|32=6|31=21.22334900|151=0|14=6|44=21.22334900|6007=passive_liquidity_provider|52=20250521-09:30:29.559|10=247|
2025-05-21 10:30:29,559 [INFO] OUT: 8=FIX.4.4|9=310|35=8|49=EXCHANGE|56=MY_COMPANY|34=68|11=passive_liquidity_provider-1747819829.5545118|37=passive_liquidity_provider-1747819829.5545118|17=baccea9c-325d-4a04-a1ce-e78fab715705|39=2|150=F|55=PHIA.AS|54=2|38=2|32=2|31=21.22334900|151=0|14=2|44=21.22334900|6007=passive_liquidity_provider|52=20250521-09:30:29.559|10=017|
2025-05-21 10:30:29,559 [INFO] OUT: 8=FIX.4.4|9=292|35=8|49=EXCHANGE|56=MY_COMPANY|34=69|11=bf5c38a1-40e1-40c6-bb9b-17d997770773|37=bf5c38a1-40e1-40c6-bb9b-17d997770773|17=0a4a2bcf-93f1-4086-b74c-da0f87c024fb|39=2|150=F|55=PHIA.AS|54=2|38=2|32=2|31=21.22334900|151=0|14=2|44=21.22334900|6007=passive_liquidity_provider|52=20250521-09:30:29.559|10=046|
2025-05-21 10:30:29,560 [INFO] HEARBEAT SENT: 8=FIX.4.4|9=62|35=0|49=MY_COMPANY|56=EXCHANGE|34=70|52=20250521-09:30:29.560|10=108|
2025-05-21 10:30:29,562 [INFO] HEARBEAT SENT: 8=FIX.4.4|9=62|35=0|49=MY_COMPANY|56=EXCHANGE|34=62|52=20250521-09:30:29.562|10=111|
2025-05-21 10:30:29,563 [INFO] HEARBEAT SENT: 8=FIX.4.4|9=62|35=0|49=MY_COMPANY|56=EXCHANGE|34=52|52=20250521-09:30:29.563|10=111|
2025-05-21 10:30:29,564 [INFO] HEARBEAT SENT: 8=FIX.4.4|9=61|35=0|49=MY_COMPANY|56=EXCHANGE|34=8|52=20250521-09:30:29.564|10=064|
2025-05-21 10:30:29,566 [INFO] HEARBEAT SENT: 8=FIX.4.4|9=62|35=0|49=MY_COMPANY|56=EXCHANGE|34=19|52=20250521-09:30:29.566|10=117|
2025-05-21 10:30:34,570 [INFO] OUT: 8=FIX.4.4|9=293|35=8|49=EXCHANGE|56=MY_COMPANY|34=9|11=72d19279-1bae-45f2-adbd-ec9aa9c0551b|37=72d19279-1bae-45f2-adbd-ec9aa9c0551b|17=0c9a775d-9c3d-48ed-bc52-55eba7ec1f12|39=2|150=F|55=ASML.AS|54=1|38=2|32=2|31=659.34000000|151=0|14=2|44=659.34000000|6007=passive_liquidity_provider|52=20250521-09:30:34.570|10=096|
2025-05-21 10:30:34,571 [INFO] OUT: 8=FIX.4.4|9=310|35=8|49=EXCHANGE|56=MY_COMPANY|34=10|11=passive_liquidity_provider-1747819769.062699|37=passive_liquidity_provider-1747819769.062699|17=2a3f1bb6-52cc-48a0-8af9-36500288bea8|39=2|150=F|55=ASML.AS|54=1|38=1|32=1|31=659.34000000|151=0|14=1|44=659.34000000|6007=passive_liquidity_provider|52=20250521-09:30:34.571|10=086|
2025-05-21 10:30:34,571 [INFO] OUT: 8=FIX.4.4|9=294|35=8|49=EXCHANGE|56=MY_COMPANY|34=11|11=72d19279-1bae-45f2-adbd-ec9aa9c0551b|37=72d19279-1bae-45f2-adbd-ec9aa9c0551b|17=f7961fdc-aa34-405b-b09a-263cd4addbcd|39=2|150=F|55=ASML.AS|54=1|38=1|32=1|31=659.34000000|151=0|14=1|44=659.34000000|6007=passive_liquidity_provider|52=20250521-09:30:34.571|10=215|
2025-05-21 10:30:34,572 [INFO] OUT: 8=FIX.4.4|9=310|35=8|49=EXCHANGE|56=MY_COMPANY|34=12|11=passive_liquidity_provider-1747819769.062699|37=passive_liquidity_provider-1747819769.062699|17=d582fd8e-6417-49bf-817d-64d8fdfd9255|39=2|150=F|55=ASML.AS|54=2|38=6|32=6|31=659.34000000|151=0|14=6|44=659.34000000|6007=passive_liquidity_provider|52=20250521-09:30:34.572|10=148|
2025-05-21 10:30:34,573 [INFO] OUT: 8=FIX.4.4|9=294|35=8|49=EXCHANGE|56=MY_COMPANY|34=13|11=1b299ca6-82c4-465c-b1d0-97f44259a96c|37=1b299ca6-82c4-465c-b1d0-97f44259a96c|17=31f8d383-d1ee-4eab-b195-3e2452f70c5b|39=2|150=F|55=ASML.AS|54=2|38=6|32=6|31=659.34000000|151=0|14=6|44=659.34000000|6007=passive_liquidity_provider|52=20250521-09:30:34.573|10=121|
2025-05-21 10:30:34,576 [INFO] OUT: 8=FIX.4.4|9=310|35=8|49=EXCHANGE|56=MY_COMPANY|34=14|11=passive_liquidity_provider-1747819769.062699|37=passive_liquidity_provider-1747819769.062699|17=2e522fc9-1e63-4da2-abcd-93141a9165f4|39=2|150=F|55=ASML.AS|54=1|38=1|32=1|31=659.34000000|151=0|14=1|44=659.34000000|6007=passive_liquidity_provider|52=20250521-09:30:34.576|10=094|
2025-05-21 10:30:34,579 [INFO] OUT: 8=FIX.4.4|9=310|35=8|49=EXCHANGE|56=MY_COMPANY|34=15|11=passive_liquidity_provider-1747819774.106514|37=passive_liquidity_provider-1747819774.106514|17=bf98af68-9b28-4286-a36d-94fdd587deed|39=2|150=F|55=ASML.AS|54=2|38=2|32=2|31=659.34000000|151=0|14=2|44=659.34000000|6007=passive_liquidity_provider|52=20250521-09:30:34.579|10=206|
2025-05-21 10:30:34,580 [INFO] OUT: 8=FIX.4.4|9=179|35=D|49=MY_COMPANY|56=EXCHANGE|34=71|11=passive_liquidity_provider-1747819834.5807989|55=PHIA.AS|54=1|44=21.22334900|38=4|52=20250521-09:30:34.580|6007=passive_liquidity_provider|10=099|
2025-05-21 10:30:34,581 [INFO] IN: 8=FIX.4.4|9=179|35=D|49=MY_COMPANY|56=EXCHANGE|34=71|11=passive_liquidity_provider-1747819834.5807989|55=PHIA.AS|54=1|44=21.22334900|38=4|52=20250521-09:30:34.580|6007=passive_liquidity_provider|10=099|
2025-05-21 10:30:34,581 [INFO] OUT: 8=FIX.4.4|9=310|35=8|49=EXCHANGE|56=MY_COMPANY|34=72|11=passive_liquidity_provider-1747819829.5545118|37=passive_liquidity_provider-1747819829.5545118|17=dea24002-8872-4be3-bbd9-09c2e6788f5f|39=2|150=F|55=PHIA.AS|54=1|38=2|32=2|31=21.22334900|151=0|14=2|44=21.22334900|6007=passive_liquidity_provider|52=20250521-09:30:34.581|10=091|
2025-05-21 10:30:34,581 [INFO] OUT: 8=FIX.4.4|9=292|35=8|49=EXCHANGE|56=MY_COMPANY|34=73|11=38ed0f11-a625-4ba7-bea3-679462a5b745|37=38ed0f11-a625-4ba7-bea3-679462a5b745|17=f6b68c92-d83a-41b8-9b95-6ccb9a4a7154|39=2|150=F|55=PHIA.AS|54=1|38=2|32=2|31=21.22334900|151=0|14=2|44=21.22334900|6007=passive_liquidity_provider|52=20250521-09:30:34.581|10=040|
2025-05-21 10:30:34,581 [INFO] OUT: 8=FIX.4.4|9=310|35=8|49=EXCHANGE|56=MY_COMPANY|34=74|11=passive_liquidity_provider-1747819834.5807989|37=passive_liquidity_provider-1747819834.5807989|17=cccbd6e3-333c-463e-a9a0-0fc538b51d60|39=2|150=F|55=PHIA.AS|54=1|38=2|32=2|31=21.22334900|151=0|14=2|44=21.22334900|6007=passive_liquidity_provider|52=20250521-09:30:34.581|10=189|
2025-05-21 10:30:34,582 [INFO] OUT: 8=FIX.4.4|9=292|35=8|49=EXCHANGE|56=MY_COMPANY|34=75|11=38ed0f11-a625-4ba7-bea3-679462a5b745|37=38ed0f11-a625-4ba7-bea3-679462a5b745|17=429275bc-24b2-4631-8086-fc1095449c92|39=2|150=F|55=PHIA.AS|54=1|38=2|32=2|31=21.22334900|151=0|14=2|44=21.22334900|6007=passive_liquidity_provider|52=20250521-09:30:34.581|10=001|
2025-05-21 10:30:34,582 [INFO] OUT: 8=FIX.4.4|9=310|35=8|49=EXCHANGE|56=MY_COMPANY|34=76|11=passive_liquidity_provider-1747819834.5807989|37=passive_liquidity_provider-1747819834.5807989|17=b47a1da0-c6fd-41c2-845c-bca0319b37de|39=2|150=F|55=PHIA.AS|54=2|38=2|32=2|31=21.22334900|151=0|14=2|44=21.22334900|6007=passive_liquidity_provider|52=20250521-09:30:34.582|10=237|
2025-05-21 10:30:34,582 [INFO] OUT: 8=FIX.4.4|9=292|35=8|49=EXCHANGE|56=MY_COMPANY|34=77|11=076f252e-250a-4cb2-b06b-0577f45285f2|37=076f252e-250a-4cb2-b06b-0577f45285f2|17=b88c4016-2882-436f-9f7b-1519809e8603|39=2|150=F|55=PHIA.AS|54=2|38=2|32=2|31=21.22334900|151=0|14=2|44=21.22334900|6007=passive_liquidity_provider|52=20250521-09:30:34.582|10=072|
2025-05-21 10:30:34,582 [INFO] OUT: 8=FIX.4.4|9=292|35=8|49=EXCHANGE|56=MY_COMPANY|34=78|11=076f252e-250a-4cb2-b06b-0577f45285f2|37=076f252e-250a-4cb2-b06b-0577f45285f2|17=47eec2ae-803b-4cc0-92e9-5f7b25532256|39=2|150=F|55=PHIA.AS|54=2|38=5|32=5|31=21.20201901|151=0|14=5|44=21.20201901|6007=passive_liquidity_provider|52=20250521-09:30:34.582|10=030|
2025-05-21 10:30:34,587 [INFO] OUT: 8=FIX.4.4|9=291|35=8|49=EXCHANGE|56=MY_COMPANY|34=9|11=8eb4891f-6b2c-4410-96d9-cd8d87bd2e37|37=8eb4891f-6b2c-4410-96d9-cd8d87bd2e37|17=da8df2cd-2c31-4d9f-8527-8d09977b30d6|39=2|150=F|55=OR.PA|54=1|38=3|32=3|31=380.28788703|151=0|14=3|44=380.28788703|6007=passive_liquidity_provider|52=20250521-09:30:34.587|10=166|
2025-05-21 10:30:34,588 [INFO] OUT: 8=FIX.4.4|9=292|35=8|49=EXCHANGE|56=MY_COMPANY|34=10|11=574b6cfa-b72e-4849-a8f4-b2463a70a909|37=574b6cfa-b72e-4849-a8f4-b2463a70a909|17=2fbc9779-a8f1-4376-92d4-a7c15f41fad5|39=2|150=F|55=OR.PA|54=2|38=1|32=1|31=380.28788703|151=0|14=1|44=380.28788703|6007=passive_liquidity_provider|52=20250521-09:30:34.588|10=082|
2025-05-21 10:30:39,601 [INFO] OUT: 8=FIX.4.4|9=294|35=8|49=EXCHANGE|56=MY_COMPANY|34=16|11=b414ca9c-7bd9-4a4f-a4c3-684e737770fa|37=b414ca9c-7bd9-4a4f-a4c3-684e737770fa|17=d3de120d-395e-477e-8dd9-938831df94fd|39=2|150=F|55=ASML.AS|54=1|38=9|32=9|31=658.68000000|151=0|14=9|44=658.68000000|6007=passive_liquidity_provider|52=20250521-09:30:39.601|10=151|
2025-05-21 10:30:39,601 [INFO] OUT: 8=FIX.4.4|9=294|35=8|49=EXCHANGE|56=MY_COMPANY|34=17|11=99449eff-5552-4b57-87fd-78c651cbf8df|37=99449eff-5552-4b57-87fd-78c651cbf8df|17=919524e5-c1b9-414f-b35f-aa88e1a86faa|39=2|150=F|55=ASML.AS|54=2|38=1|32=1|31=658.68000000|151=0|14=1|44=658.68000000|6007=passive_liquidity_provider|52=20250521-09:30:39.601|10=126|
2025-05-21 10:30:39,602 [INFO] OUT: 8=FIX.4.4|9=177|35=D|49=MY_COMPANY|56=EXCHANGE|34=79|11=passive_liquidity_provider-1747819839.60235|55=PHIA.AS|54=1|44=21.20201901|38=4|52=20250521-09:30:39.602|6007=passive_liquidity_provider|10=232|
2025-05-21 10:30:39,602 [INFO] IN: 8=FIX.4.4|9=177|35=D|49=MY_COMPANY|56=EXCHANGE|34=79|11=passive_liquidity_provider-1747819839.60235|55=PHIA.AS|54=1|44=21.20201901|38=4|52=20250521-09:30:39.602|6007=passive_liquidity_provider|10=232|
2025-05-21 10:30:39,603 [INFO] OUT: 8=FIX.4.4|9=306|35=8|49=EXCHANGE|56=MY_COMPANY|34=80|11=passive_liquidity_provider-1747819839.60235|37=passive_liquidity_provider-1747819839.60235|17=0e6dcfb7-d5d6-426e-b28d-ee4479477544|39=2|150=F|55=PHIA.AS|54=1|38=4|32=4|31=21.20201901|151=0|14=4|44=21.20201901|6007=passive_liquidity_provider|52=20250521-09:30:39.603|10=136|
2025-05-21 10:30:39,603 [INFO] OUT: 8=FIX.4.4|9=292|35=8|49=EXCHANGE|56=MY_COMPANY|34=81|11=29c2ab93-c2dc-4f15-be5a-1ea31298e267|37=29c2ab93-c2dc-4f15-be5a-1ea31298e267|17=40809fd4-b6a8-4b63-b823-34e669162673|39=2|150=F|55=PHIA.AS|54=1|38=4|32=4|31=21.20201901|151=0|14=4|44=21.20201901|6007=passive_liquidity_provider|52=20250521-09:30:39.603|10=227|
2025-05-21 10:30:39,604 [INFO] OUT: 8=FIX.4.4|9=292|35=8|49=EXCHANGE|56=MY_COMPANY|34=82|11=5234687b-7c7c-417e-8ed3-b68d1216e200|37=5234687b-7c7c-417e-8ed3-b68d1216e200|17=3c79d95e-58a2-412c-9440-96dc323c8217|39=2|150=F|55=PHIA.AS|54=2|38=1|32=1|31=21.20201901|151=0|14=1|44=21.20201901|6007=passive_liquidity_provider|52=20250521-09:30:39.603|10=157|
2025-05-21 10:30:39,611 [INFO] OUT: 8=FIX.4.4|9=176|35=D|49=MY_COMPANY|56=EXCHANGE|34=20|11=passive_liquidity_provider-1747819839.61119|55=SAN.PA|54=1|44=93.33295601|38=5|52=20250521-09:30:39.611|6007=passive_liquidity_provider|10=176|
2025-05-21 10:30:39,611 [INFO] IN: 8=FIX.4.4|9=176|35=D|49=MY_COMPANY|56=EXCHANGE|34=20|11=passive_liquidity_provider-1747819839.61119|55=SAN.PA|54=1|44=93.33295601|38=5|52=20250521-09:30:39.611|6007=passive_liquidity_provider|10=176|
2025-05-21 10:30:39,611 [INFO] OUT: 8=FIX.4.4|9=305|35=8|49=EXCHANGE|56=MY_COMPANY|34=21|11=passive_liquidity_provider-1747819839.61119|37=passive_liquidity_provider-1747819839.61119|17=70d18471-e6ae-4aeb-9a8e-d2c343a7c1a1|39=2|150=F|55=SAN.PA|54=1|38=5|32=5|31=93.33295601|151=0|14=5|44=93.33295601|6007=passive_liquidity_provider|52=20250521-09:30:39.611|10=178|
2025-05-21 10:30:39,612 [INFO] OUT: 8=FIX.4.4|9=291|35=8|49=EXCHANGE|56=MY_COMPANY|34=22|11=a5f16656-d319-4c01-a1dd-cf2374e62800|37=a5f16656-d319-4c01-a1dd-cf2374e62800|17=9a75c214-1a2d-4fc6-b932-ee4d4894f8cd|39=2|150=F|55=SAN.PA|54=1|38=5|32=5|31=93.33295601|151=0|14=5|44=93.33295601|6007=passive_liquidity_provider|52=20250521-09:30:39.612|10=192|
2025-05-21 10:30:39,612 [INFO] OUT: 8=FIX.4.4|9=291|35=8|49=EXCHANGE|56=MY_COMPANY|34=23|11=e21f3129-bd02-4654-b0b7-62b61ce7fe9d|37=e21f3129-bd02-4654-b0b7-62b61ce7fe9d|17=39e7b208-8c21-4d5d-a98d-22e02a314198|39=2|150=F|55=SAN.PA|54=2|38=8|32=8|31=93.33295601|151=0|14=8|44=93.33295601|6007=passive_liquidity_provider|52=20250521-09:30:39.612|10=203|
2025-05-21 10:30:44,622 [INFO] OUT: 8=FIX.4.4|9=294|35=8|49=EXCHANGE|56=MY_COMPANY|34=18|11=8ee4191e-b625-4a3e-8877-64c7f4176505|37=8ee4191e-b625-4a3e-8877-64c7f4176505|17=c113387a-f5aa-42a5-9a45-b8f956a9eca2|39=2|150=F|55=ASML.AS|54=1|38=9|32=9|31=658.68000000|151=0|14=9|44=658.68000000|6007=passive_liquidity_provider|52=20250521-09:30:44.622|10=230|
2025-05-21 10:30:44,623 [INFO] OUT: 8=FIX.4.4|9=294|35=8|49=EXCHANGE|56=MY_COMPANY|34=19|11=6bc72f17-8525-4f58-8ba2-983bc037d9d8|37=6bc72f17-8525-4f58-8ba2-983bc037d9d8|17=6aa59d3f-3052-4ea4-bcb6-f94f1974eb65|39=2|150=F|55=ASML.AS|54=2|38=1|32=1|31=658.68000000|151=0|14=1|44=658.68000000|6007=passive_liquidity_provider|52=20250521-09:30:44.623|10=153|
2025-05-21 10:30:44,639 [INFO] OUT: 8=FIX.4.4|9=177|35=D|49=MY_COMPANY|56=EXCHANGE|34=24|11=passive_liquidity_provider-1747819844.639033|55=SAN.PA|54=1|44=93.28633629|38=4|52=20250521-09:30:44.639|6007=passive_liquidity_provider|10=246|
2025-05-21 10:30:44,639 [INFO] IN: 8=FIX.4.4|9=177|35=D|49=MY_COMPANY|56=EXCHANGE|34=24|11=passive_liquidity_provider-1747819844.639033|55=SAN.PA|54=1|44=93.28633629|38=4|52=20250521-09:30:44.639|6007=passive_liquidity_provider|10=246|
2025-05-21 10:30:44,640 [INFO] OUT: 8=FIX.4.4|9=291|35=8|49=EXCHANGE|56=MY_COMPANY|34=25|11=40c52c21-6755-44a6-8704-379e91902cea|37=40c52c21-6755-44a6-8704-379e91902cea|17=610d6d7b-aeb2-4942-a9f9-3fc63bba2f79|39=2|150=F|55=SAN.PA|54=1|38=4|32=4|31=93.28633629|151=0|14=4|44=93.28633629|6007=passive_liquidity_provider|52=20250521-09:30:44.640|10=248|
2025-05-21 10:30:44,640 [INFO] OUT: 8=FIX.4.4|9=291|35=8|49=EXCHANGE|56=MY_COMPANY|34=26|11=898cc9e5-b5f1-4534-ad63-7b2cca300bba|37=898cc9e5-b5f1-4534-ad63-7b2cca300bba|17=98fc115f-8969-40a0-b77b-7cae3d0564a9|39=2|150=F|55=SAN.PA|54=2|38=1|32=1|31=93.28633629|151=0|14=1|44=93.28633629|6007=passive_liquidity_provider|52=20250521-09:30:44.640|10=243|
2025-05-21 10:30:44,641 [INFO] OUT: 8=FIX.4.4|9=307|35=8|49=EXCHANGE|56=MY_COMPANY|34=27|11=passive_liquidity_provider-1747819844.639033|37=passive_liquidity_provider-1747819844.639033|17=18e826c0-8a0a-4072-8811-ad5a39ef4bcb|39=2|150=F|55=SAN.PA|54=2|38=1|32=1|31=93.28633629|151=0|14=1|44=93.28633629|6007=passive_liquidity_provider|52=20250521-09:30:44.641|10=200|
2025-05-21 10:30:44,642 [INFO] OUT: 8=FIX.4.4|9=291|35=8|49=EXCHANGE|56=MY_COMPANY|34=28|11=898cc9e5-b5f1-4534-ad63-7b2cca300bba|37=898cc9e5-b5f1-4534-ad63-7b2cca300bba|17=83f3fb67-7f46-4709-8c03-7b7dce08b90e|39=2|150=F|55=SAN.PA|54=2|38=1|32=1|31=93.28633629|151=0|14=1|44=93.28633629|6007=passive_liquidity_provider|52=20250521-09:30:44.641|10=254|
2025-05-21 10:30:44,643 [INFO] OUT: 8=FIX.4.4|9=307|35=8|49=EXCHANGE|56=MY_COMPANY|34=29|11=passive_liquidity_provider-1747819844.639033|37=passive_liquidity_provider-1747819844.639033|17=6e3f1477-caab-4e9a-89a8-ab5bec0a00e1|39=2|150=F|55=SAN.PA|54=1|38=3|32=3|31=93.28633629|151=0|14=3|44=93.28633629|6007=passive_liquidity_provider|52=20250521-09:30:44.643|10=142|
2025-05-21 10:30:49,653 [INFO] OUT: 8=FIX.4.4|9=294|35=8|49=EXCHANGE|56=MY_COMPANY|34=20|11=8fe45c2b-0a80-4678-b377-132116e332a2|37=8fe45c2b-0a80-4678-b377-132116e332a2|17=3e84e60a-b327-4bcd-afa5-fd47ff536199|39=2|150=F|55=ASML.AS|54=1|38=2|32=2|31=658.68000000|151=0|14=2|44=658.68000000|6007=passive_liquidity_provider|52=20250521-09:30:49.653|10=205|
2025-05-21 10:30:49,653 [INFO] OUT: 8=FIX.4.4|9=294|35=8|49=EXCHANGE|56=MY_COMPANY|34=21|11=8fe45c2b-0a80-4678-b377-132116e332a2|37=8fe45c2b-0a80-4678-b377-132116e332a2|17=ee4e4b8b-71cd-4001-ac60-6e85e5931f52|39=2|150=F|55=ASML.AS|54=1|38=2|32=2|31=658.02000000|151=0|14=2|44=658.02000000|6007=passive_liquidity_provider|52=20250521-09:30:49.653|10=073|
2025-05-21 10:30:49,654 [INFO] OUT: 8=FIX.4.4|9=294|35=8|49=EXCHANGE|56=MY_COMPANY|34=22|11=5a1a6216-d8ac-436e-b353-306302fcb700|37=5a1a6216-d8ac-436e-b353-306302fcb700|17=48c2784b-bd6a-44ef-9eff-c6f175942a1c|39=2|150=F|55=ASML.AS|54=2|38=8|32=8|31=658.02000000|151=0|14=8|44=658.02000000|6007=passive_liquidity_provider|52=20250521-09:30:49.654|10=113|
2025-05-21 10:30:59,689 [INFO] HEARBEAT SENT: 8=FIX.4.4|9=62|35=0|49=MY_COMPANY|56=EXCHANGE|34=23|52=20250521-09:30:59.688|10=120|
2025-05-21 10:30:59,691 [INFO] HEARBEAT SENT: 8=FIX.4.4|9=62|35=0|49=MY_COMPANY|56=EXCHANGE|34=83|52=20250521-09:30:59.691|10=120|
2025-05-21 10:30:59,693 [INFO] HEARBEAT SENT: 8=FIX.4.4|9=62|35=0|49=MY_COMPANY|56=EXCHANGE|34=63|52=20250521-09:30:59.693|10=120|
2025-05-21 10:30:59,694 [INFO] HEARBEAT SENT: 8=FIX.4.4|9=62|35=0|49=MY_COMPANY|56=EXCHANGE|34=53|52=20250521-09:30:59.694|10=120|
2025-05-21 10:30:59,696 [INFO] HEARBEAT SENT: 8=FIX.4.4|9=62|35=0|49=MY_COMPANY|56=EXCHANGE|34=11|52=20250521-09:30:59.696|10=116|
2025-05-21 10:30:59,698 [INFO] HEARBEAT SENT: 8=FIX.4.4|9=62|35=0|49=MY_COMPANY|56=EXCHANGE|34=30|52=20250521-09:30:59.698|10=119|
2025-05-21 10:31:14,776 [INFO] OUT: 8=FIX.4.4|9=290|35=8|49=EXCHANGE|56=MY_COMPANY|34=54|11=43bb32a1-a196-47c8-b561-96231347d05f|37=43bb32a1-a196-47c8-b561-96231347d05f|17=dd25cea2-9cf0-4c06-ab1e-50b8186e72a3|39=2|150=F|55=AD.AS|54=1|38=5|32=5|31=37.68064801|151=0|14=5|44=37.68064801|6007=passive_liquidity_provider|52=20250521-09:31:14.776|10=210|
2025-05-21 10:31:14,776 [INFO] OUT: 8=FIX.4.4|9=293|35=8|49=EXCHANGE|56=MY_COMPANY|34=55|11=b17d9757-8e7f-4a32-83e2-ee094e835e67|37=b17d9757-8e7f-4a32-83e2-ee094e835e67|17=6881462e-d419-4cf6-8997-2fa38a920cf6|39=2|150=F|55=AD.AS|54=2|38=10|32=10|31=37.68064801|151=0|14=10|44=37.68064801|6007=passive_liquidity_provider|52=20250521-09:31:14.776|10=160|
2025-05-21 10:31:19,799 [INFO] OUT: 8=FIX.4.4|9=290|35=8|49=EXCHANGE|56=MY_COMPANY|34=56|11=e8760ea0-96e3-46d9-ae1e-87043bcbb3df|37=e8760ea0-96e3-46d9-ae1e-87043bcbb3df|17=0771e9cf-7b88-46bc-8f0a-16c3381d8ce9|39=2|150=F|55=AD.AS|54=1|38=3|32=3|31=37.64277801|151=0|14=3|44=37.64277801|6007=passive_liquidity_provider|52=20250521-09:31:19.799|10=247|
2025-05-21 10:31:19,799 [INFO] OUT: 8=FIX.4.4|9=290|35=8|49=EXCHANGE|56=MY_COMPANY|34=57|11=ea857328-ac0f-4474-9a11-3f431ecec17c|37=ea857328-ac0f-4474-9a11-3f431ecec17c|17=a6400d23-8f70-4607-bfaa-65d086c74660|39=2|150=F|55=AD.AS|54=2|38=7|32=7|31=37.64277801|151=0|14=7|44=37.64277801|6007=passive_liquidity_provider|52=20250521-09:31:19.799|10=137|
2025-05-21 10:31:24,816 [INFO] OUT: 8=FIX.4.4|9=292|35=8|49=EXCHANGE|56=MY_COMPANY|34=64|11=c437dace-0e7a-463a-9b1c-da52628bd57a|37=c437dace-0e7a-463a-9b1c-da52628bd57a|17=60f76afa-202b-4d1f-a138-642a1376379f|39=2|150=F|55=INGA.AS|54=1|38=5|32=5|31=18.80683102|151=0|14=5|44=18.80683102|6007=passive_liquidity_provider|52=20250521-09:31:24.816|10=067|
2025-05-21 10:31:24,817 [INFO] OUT: 8=FIX.4.4|9=292|35=8|49=EXCHANGE|56=MY_COMPANY|34=65|11=c437dace-0e7a-463a-9b1c-da52628bd57a|37=c437dace-0e7a-463a-9b1c-da52628bd57a|17=c8ca3ca9-fabd-4ebc-9acf-babcc7e82fc9|39=2|150=F|55=INGA.AS|54=1|38=4|32=4|31=18.78787252|151=0|14=4|44=18.78787252|6007=passive_liquidity_provider|52=20250521-09:31:24.817|10=220|
2025-05-21 10:31:24,835 [INFO] OUT: 8=FIX.4.4|9=292|35=8|49=EXCHANGE|56=MY_COMPANY|34=66|11=b75c1dce-8a1d-4527-8aab-5555cc0e6c34|37=b75c1dce-8a1d-4527-8aab-5555cc0e6c34|17=122ad8d9-56c1-49cc-b722-8261354ba17b|39=2|150=F|55=INGA.AS|54=2|38=1|32=1|31=18.78787252|151=0|14=1|44=18.78787252|6007=passive_liquidity_provider|52=20250521-09:31:24.834|10=000|
2025-05-21 10:31:29,857 [INFO] HEARBEAT SENT: 8=FIX.4.4|9=62|35=0|49=MY_COMPANY|56=EXCHANGE|34=24|52=20250521-09:31:29.856|10=116|
2025-05-21 10:31:29,867 [INFO] HEARBEAT SENT: 8=FIX.4.4|9=62|35=0|49=MY_COMPANY|56=EXCHANGE|34=84|52=20250521-09:31:29.867|10=124|
2025-05-21 10:31:29,873 [INFO] OUT: 8=FIX.4.4|9=178|35=D|49=MY_COMPANY|56=EXCHANGE|34=67|11=passive_liquidity_provider-1747819889.873697|55=INGA.AS|54=1|44=19.13084900|38=6|52=20250521-09:31:29.873|6007=passive_liquidity_provider|10=077|
2025-05-21 10:31:29,874 [INFO] IN: 8=FIX.4.4|9=178|35=D|49=MY_COMPANY|56=EXCHANGE|34=67|11=passive_liquidity_provider-1747819889.873697|55=INGA.AS|54=1|44=19.13084900|38=6|52=20250521-09:31:29.873|6007=passive_liquidity_provider|10=077|
