2025-05-21 10:27:55,415 [INFO] ===== FIX ENGINE INITIALISED FOR SYMBOL my_strategy =====
2025-05-21 10:27:55,416 [INFO] OUT: 8=FIX.4.4|9=147|35=D|49=MY_COMPANY|56=EXCHANGE|34=1|11=my_strategy-1747819675.416888|55=PHIA.AS|54=1|44=21.09558231|38=8|52=20250521-09:27:55.416|6007=my_strategy|10=112|
2025-05-21 10:27:55,417 [INFO] IN: 8=FIX.4.4|9=147|35=D|49=MY_COMPANY|56=EXCHANGE|34=1|11=my_strategy-1747819675.416888|55=PHIA.AS|54=1|44=21.09558231|38=8|52=20250521-09:27:55.416|6007=my_strategy|10=112|
2025-05-21 10:27:55,417 [INFO] OUT: 8=FIX.4.4|9=276|35=8|49=EXCHANGE|56=MY_COMPANY|34=2|11=e4b9cf41-2120-4604-bb02-b0dd92017b8b|37=e4b9cf41-2120-4604-bb02-b0dd92017b8b|17=c2cf364d-ef23-41df-9736-3babd819a3b6|39=2|150=F|55=PHIA.AS|54=1|38=8|32=8|31=21.30866900|151=0|14=8|44=21.30866900|6007=my_strategy|52=20250521-09:27:55.417|10=242|
2025-05-21 10:27:55,419 [INFO] OUT: 8=FIX.4.4|9=276|35=8|49=EXCHANGE|56=MY_COMPANY|34=3|11=0e5fbd0f-9bef-40e3-8b0d-2e64b4d6752d|37=0e5fbd0f-9bef-40e3-8b0d-2e64b4d6752d|17=e7039c2a-5dc0-410a-9c86-db286c826e2a|39=2|150=F|55=PHIA.AS|54=2|38=1|32=1|31=21.30866900|151=0|14=1|44=21.30866900|6007=my_strategy|52=20250521-09:27:55.419|10=049|
2025-05-21 10:28:41,459 [INFO] OUT: 8=FIX.4.4|9=148|35=D|49=MY_COMPANY|56=EXCHANGE|34=1|11=my_strategy-1747819721.457858|55=ASML.AS|54=1|44=652.74660000|38=9|52=20250521-09:28:41.457|6007=my_strategy|10=168|
2025-05-21 10:28:41,460 [INFO] IN: 8=FIX.4.4|9=148|35=D|49=MY_COMPANY|56=EXCHANGE|34=1|11=my_strategy-1747819721.457858|55=ASML.AS|54=1|44=652.74660000|38=9|52=20250521-09:28:41.457|6007=my_strategy|10=168|
2025-05-21 10:28:41,461 [INFO] OUT: 8=FIX.4.4|9=278|35=8|49=EXCHANGE|56=MY_COMPANY|34=2|11=0bd378b4-5114-4831-a32f-4cc5cf3acbe1|37=0bd378b4-5114-4831-a32f-4cc5cf3acbe1|17=9d055c6e-e86c-4960-94e1-dd8d7aa94ad3|39=2|150=F|55=ASML.AS|54=1|38=9|32=9|31=659.34000000|151=0|14=9|44=659.34000000|6007=my_strategy|52=20250521-09:28:41.460|10=254|
2025-05-21 10:28:41,461 [INFO] OUT: 8=FIX.4.4|9=278|35=8|49=EXCHANGE|56=MY_COMPANY|34=3|11=17172bab-6db6-4190-ac53-bef8ad96a4eb|37=17172bab-6db6-4190-ac53-bef8ad96a4eb|17=69d29ccc-6fac-4056-b593-8d8381b2e4a5|39=2|150=F|55=ASML.AS|54=2|38=3|32=3|31=659.34000000|151=0|14=3|44=659.34000000|6007=my_strategy|52=20250521-09:28:41.461|10=144|
2025-05-21 10:29:29,061 [INFO] OUT: 8=FIX.4.4|9=149|35=D|49=MY_COMPANY|56=EXCHANGE|34=1|11=my_strategy-1747819769.0615392|55=ASML.AS|54=1|44=652.74660000|38=1|52=20250521-09:29:29.061|6007=my_strategy|10=208|
2025-05-21 10:29:29,062 [INFO] IN: 8=FIX.4.4|9=149|35=D|49=MY_COMPANY|56=EXCHANGE|34=1|11=my_strategy-1747819769.0615392|55=ASML.AS|54=1|44=652.74660000|38=1|52=20250521-09:29:29.061|6007=my_strategy|10=208|
2025-05-21 10:29:29,062 [INFO] OUT: 8=FIX.4.4|9=278|35=8|49=EXCHANGE|56=MY_COMPANY|34=2|11=50dd0436-f533-4e0f-bbf2-73f0c3f4e52f|37=50dd0436-f533-4e0f-bbf2-73f0c3f4e52f|17=14d759d1-dfe9-47c1-8077-9ddd1aa629e8|39=2|150=F|55=ASML.AS|54=1|38=1|32=1|31=659.34000000|151=0|14=1|44=659.34000000|6007=my_strategy|52=20250521-09:29:29.062|10=214|
2025-05-21 10:29:29,062 [INFO] OUT: 8=FIX.4.4|9=278|35=8|49=EXCHANGE|56=MY_COMPANY|34=3|11=0541ceb5-2d9b-4619-b6ce-57609eb4236b|37=0541ceb5-2d9b-4619-b6ce-57609eb4236b|17=4661cfaf-75b4-434b-ab36-b07e9557108a|39=2|150=F|55=ASML.AS|54=2|38=6|32=6|31=659.34000000|151=0|14=6|44=659.34000000|6007=my_strategy|52=20250521-09:29:29.062|10=241|
2025-05-21 10:29:29,065 [INFO] ===== FIX ENGINE INITIALISED FOR SYMBOL my_strategy =====
2025-05-21 10:29:29,069 [INFO] OUT: 8=FIX.4.4|9=148|35=D|49=MY_COMPANY|56=EXCHANGE|34=1|11=my_strategy-1747819769.0691268|55=PHIA.AS|54=1|44=21.09558231|38=2|52=20250521-09:29:29.069|6007=my_strategy|10=163|
2025-05-21 10:29:29,069 [INFO] IN: 8=FIX.4.4|9=148|35=D|49=MY_COMPANY|56=EXCHANGE|34=1|11=my_strategy-1747819769.0691268|55=PHIA.AS|54=1|44=21.09558231|38=2|52=20250521-09:29:29.069|6007=my_strategy|10=163|
2025-05-21 10:29:29,069 [INFO] OUT: 8=FIX.4.4|9=276|35=8|49=EXCHANGE|56=MY_COMPANY|34=2|11=e532d335-904e-4f9a-8161-97724d0705c9|37=e532d335-904e-4f9a-8161-97724d0705c9|17=8adc10f7-324c-4ab7-85d2-f99b0f354fdf|39=2|150=F|55=PHIA.AS|54=1|38=2|32=2|31=21.30866900|151=0|14=2|44=21.30866900|6007=my_strategy|52=20250521-09:29:29.069|10=190|
2025-05-21 10:29:29,070 [INFO] OUT: 8=FIX.4.4|9=276|35=8|49=EXCHANGE|56=MY_COMPANY|34=3|11=c41ed44e-d7bc-4bc6-b4d2-0229dc98b370|37=c41ed44e-d7bc-4bc6-b4d2-0229dc98b370|17=d96c15a7-c2d2-4bba-b556-4716edba39a1|39=2|150=F|55=PHIA.AS|54=2|38=4|32=4|31=21.30866900|151=0|14=4|44=21.30866900|6007=my_strategy|52=20250521-09:29:29.070|10=039|
2025-05-21 10:29:29,077 [INFO] ===== FIX ENGINE INITIALISED FOR SYMBOL my_strategy =====
2025-05-21 10:29:29,078 [INFO] OUT: 8=FIX.4.4|9=147|35=D|49=MY_COMPANY|56=EXCHANGE|34=1|11=my_strategy-1747819769.078837|55=INGA.AS|54=1|44=18.93954051|38=1|52=20250521-09:29:29.078|6007=my_strategy|10=120|
2025-05-21 10:29:29,078 [INFO] IN: 8=FIX.4.4|9=147|35=D|49=MY_COMPANY|56=EXCHANGE|34=1|11=my_strategy-1747819769.078837|55=INGA.AS|54=1|44=18.93954051|38=1|52=20250521-09:29:29.078|6007=my_strategy|10=120|
2025-05-21 10:29:29,079 [INFO] OUT: 8=FIX.4.4|9=276|35=8|49=EXCHANGE|56=MY_COMPANY|34=2|11=028ba068-5400-4be5-b51c-4234fc737a2d|37=028ba068-5400-4be5-b51c-4234fc737a2d|17=700af9e8-8bf8-450b-b35d-fd96a0b8d955|39=2|150=F|55=INGA.AS|54=1|38=1|32=1|31=19.13084900|151=0|14=1|44=19.13084900|6007=my_strategy|52=20250521-09:29:29.079|10=114|
2025-05-21 10:29:29,079 [INFO] OUT: 8=FIX.4.4|9=276|35=8|49=EXCHANGE|56=MY_COMPANY|34=3|11=69d1fa8d-c628-41ba-a4fb-c39643f03fa1|37=69d1fa8d-c628-41ba-a4fb-c39643f03fa1|17=69d1f028-2f16-49e1-bcdf-05ca3869be9b|39=2|150=F|55=INGA.AS|54=2|38=1|32=1|31=19.13084900|151=0|14=1|44=19.13084900|6007=my_strategy|52=20250521-09:29:29.079|10=012|
2025-05-21 10:29:29,085 [INFO] ===== FIX ENGINE INITIALISED FOR SYMBOL my_strategy =====
2025-05-21 10:29:29,086 [INFO] OUT: 8=FIX.4.4|9=146|35=D|49=MY_COMPANY|56=EXCHANGE|34=1|11=my_strategy-1747819769.0868921|55=AD.AS|54=1|44=37.45380672|38=9|52=20250521-09:29:29.086|6007=my_strategy|10=021|
2025-05-21 10:29:29,087 [INFO] IN: 8=FIX.4.4|9=146|35=D|49=MY_COMPANY|56=EXCHANGE|34=1|11=my_strategy-1747819769.0868921|55=AD.AS|54=1|44=37.45380672|38=9|52=20250521-09:29:29.086|6007=my_strategy|10=021|
2025-05-21 10:29:29,087 [INFO] OUT: 8=FIX.4.4|9=274|35=8|49=EXCHANGE|56=MY_COMPANY|34=2|11=61ccd13d-e45e-42c0-9737-ab372a71dfa1|37=61ccd13d-e45e-42c0-9737-ab372a71dfa1|17=d3e826be-11fe-43ae-86e7-c62f43d2e9d6|39=2|150=F|55=AD.AS|54=1|38=9|32=9|31=37.83212800|151=0|14=9|44=37.83212800|6007=my_strategy|52=20250521-09:29:29.087|10=068|
2025-05-21 10:29:29,087 [INFO] OUT: 8=FIX.4.4|9=274|35=8|49=EXCHANGE|56=MY_COMPANY|34=3|11=cec8dd47-0081-4716-bec8-d09fe7818aa0|37=cec8dd47-0081-4716-bec8-d09fe7818aa0|17=85b74b11-72f6-4190-9306-200d98c99c29|39=2|150=F|55=AD.AS|54=2|38=3|32=3|31=37.83212800|151=0|14=3|44=37.83212800|6007=my_strategy|52=20250521-09:29:29.087|10=216|
2025-05-21 10:29:29,090 [INFO] ===== FIX ENGINE INITIALISED FOR SYMBOL my_strategy =====
2025-05-21 10:29:29,091 [INFO] OUT: 8=FIX.4.4|9=147|35=D|49=MY_COMPANY|56=EXCHANGE|34=1|11=my_strategy-1747819769.091498|55=OR.PA|54=1|44=376.86224764|38=10|52=20250521-09:29:29.091|6007=my_strategy|10=090|
2025-05-21 10:29:29,091 [INFO] IN: 8=FIX.4.4|9=147|35=D|49=MY_COMPANY|56=EXCHANGE|34=1|11=my_strategy-1747819769.091498|55=OR.PA|54=1|44=376.86224764|38=10|52=20250521-09:29:29.091|6007=my_strategy|10=090|
2025-05-21 10:29:29,091 [INFO] OUT: 8=FIX.4.4|9=279|35=8|49=EXCHANGE|56=MY_COMPANY|34=2|11=643c8932-bd2e-4a0a-b1df-a78e22a388b3|37=643c8932-bd2e-4a0a-b1df-a78e22a388b3|17=a2deb1c0-7a03-452f-9429-7abb4e11f13b|39=2|150=F|55=OR.PA|54=1|38=10|32=10|31=380.66893701|151=0|14=10|44=380.66893701|6007=my_strategy|52=20250521-09:29:29.091|10=013|
2025-05-21 10:29:29,091 [INFO] OUT: 8=FIX.4.4|9=276|35=8|49=EXCHANGE|56=MY_COMPANY|34=3|11=a1f8e8e6-de3f-490a-a126-683a5ec7c1a3|37=a1f8e8e6-de3f-490a-a126-683a5ec7c1a3|17=00978bd4-9d0a-4b7f-8cac-0152ba3d9e62|39=2|150=F|55=OR.PA|54=2|38=8|32=8|31=380.66893701|151=0|14=8|44=380.66893701|6007=my_strategy|52=20250521-09:29:29.091|10=018|
2025-05-21 10:29:29,093 [INFO] ===== FIX ENGINE INITIALISED FOR SYMBOL my_strategy =====
2025-05-21 10:29:29,093 [INFO] OUT: 8=FIX.4.4|9=146|35=D|49=MY_COMPANY|56=EXCHANGE|34=1|11=my_strategy-1747819769.093846|55=SAN.PA|54=1|44=92.49221124|38=5|52=20250521-09:29:29.093|6007=my_strategy|10=044|
2025-05-21 10:29:29,093 [INFO] IN: 8=FIX.4.4|9=146|35=D|49=MY_COMPANY|56=EXCHANGE|34=1|11=my_strategy-1747819769.093846|55=SAN.PA|54=1|44=92.49221124|38=5|52=20250521-09:29:29.093|6007=my_strategy|10=044|
2025-05-21 10:29:29,094 [INFO] OUT: 8=FIX.4.4|9=275|35=8|49=EXCHANGE|56=MY_COMPANY|34=2|11=b36387f9-a20c-4ff0-965e-d1c4f74de5d0|37=b36387f9-a20c-4ff0-965e-d1c4f74de5d0|17=37bb3f05-66ba-4467-ad06-27a8729baae1|39=2|150=F|55=SAN.PA|54=1|38=5|32=5|31=93.42647600|151=0|14=5|44=93.42647600|6007=my_strategy|52=20250521-09:29:29.094|10=089|
2025-05-21 10:29:29,094 [INFO] OUT: 8=FIX.4.4|9=275|35=8|49=EXCHANGE|56=MY_COMPANY|34=3|11=ff5df90e-bf46-4deb-9fab-e3f51661bd9d|37=ff5df90e-bf46-4deb-9fab-e3f51661bd9d|17=b0f4cea9-7b06-489f-9f42-cbeab1dfb8dd|39=2|150=F|55=SAN.PA|54=2|38=2|32=2|31=93.42647600|151=0|14=2|44=93.42647600|6007=my_strategy|52=20250521-09:29:29.094|10=108|
2025-05-21 10:29:34,103 [INFO] OUT: 8=FIX.4.4|9=148|35=D|49=MY_COMPANY|56=EXCHANGE|34=4|11=my_strategy-1747819774.103049|55=ASML.AS|54=1|44=652.74660000|38=6|52=20250521-09:29:34.103|6007=my_strategy|10=147|
2025-05-21 10:29:34,104 [INFO] IN: 8=FIX.4.4|9=148|35=D|49=MY_COMPANY|56=EXCHANGE|34=4|11=my_strategy-1747819774.103049|55=ASML.AS|54=1|44=652.74660000|38=6|52=20250521-09:29:34.103|6007=my_strategy|10=147|
2025-05-21 10:29:34,104 [INFO] OUT: 8=FIX.4.4|9=278|35=8|49=EXCHANGE|56=MY_COMPANY|34=5|11=d5fd3d69-93ce-43f9-9c26-1e76b219a2c2|37=d5fd3d69-93ce-43f9-9c26-1e76b219a2c2|17=5f170dc8-977e-4a92-9c18-94ba7cdefdd1|39=2|150=F|55=ASML.AS|54=1|38=6|32=6|31=659.34000000|151=0|14=6|44=659.34000000|6007=my_strategy|52=20250521-09:29:34.104|10=016|
2025-05-21 10:29:34,105 [INFO] OUT: 8=FIX.4.4|9=278|35=8|49=EXCHANGE|56=MY_COMPANY|34=6|11=8dd6be11-634f-413d-98b1-e4de221a0262|37=8dd6be11-634f-413d-98b1-e4de221a0262|17=abac7165-b93a-4733-a420-4c5e885fe1db|39=2|150=F|55=ASML.AS|54=2|38=2|32=2|31=659.34000000|151=0|14=2|44=659.34000000|6007=my_strategy|52=20250521-09:29:34.105|10=035|
2025-05-21 10:29:34,114 [INFO] OUT: 8=FIX.4.4|9=147|35=D|49=MY_COMPANY|56=EXCHANGE|34=4|11=my_strategy-1747819774.114076|55=PHIA.AS|54=1|44=21.09558231|38=2|52=20250521-09:29:34.114|6007=my_strategy|10=087|
2025-05-21 10:29:34,114 [INFO] IN: 8=FIX.4.4|9=147|35=D|49=MY_COMPANY|56=EXCHANGE|34=4|11=my_strategy-1747819774.114076|55=PHIA.AS|54=1|44=21.09558231|38=2|52=20250521-09:29:34.114|6007=my_strategy|10=087|
2025-05-21 10:29:34,114 [INFO] OUT: 8=FIX.4.4|9=276|35=8|49=EXCHANGE|56=MY_COMPANY|34=5|11=ac2f99cf-8069-4f1d-b564-7c2c55156a65|37=ac2f99cf-8069-4f1d-b564-7c2c55156a65|17=7b936728-8cf3-4f7c-bd0c-969c5f2857ae|39=2|150=F|55=PHIA.AS|54=1|38=2|32=2|31=21.30866900|151=0|14=2|44=21.30866900|6007=my_strategy|52=20250521-09:29:34.114|10=240|
2025-05-21 10:29:34,115 [INFO] OUT: 8=FIX.4.4|9=276|35=8|49=EXCHANGE|56=MY_COMPANY|34=6|11=ff5085b7-57c6-4a89-85f2-c5dcbc92808d|37=ff5085b7-57c6-4a89-85f2-c5dcbc92808d|17=a636f67f-d732-403c-b4fc-a0242bedc391|39=2|150=F|55=PHIA.AS|54=2|38=5|32=5|31=21.30866900|151=0|14=5|44=21.30866900|6007=my_strategy|52=20250521-09:29:34.115|10=121|
2025-05-21 10:29:34,121 [INFO] OUT: 8=FIX.4.4|9=147|35=D|49=MY_COMPANY|56=EXCHANGE|34=4|11=my_strategy-1747819774.120895|55=INGA.AS|54=1|44=18.93954051|38=4|52=20250521-09:29:34.120|6007=my_strategy|10=098|
2025-05-21 10:29:34,121 [INFO] IN: 8=FIX.4.4|9=147|35=D|49=MY_COMPANY|56=EXCHANGE|34=4|11=my_strategy-1747819774.120895|55=INGA.AS|54=1|44=18.93954051|38=4|52=20250521-09:29:34.120|6007=my_strategy|10=098|
2025-05-21 10:29:34,121 [INFO] OUT: 8=FIX.4.4|9=276|35=8|49=EXCHANGE|56=MY_COMPANY|34=5|11=d9dfd4b9-08ac-4dc7-a1ed-c0dfb83fbe38|37=d9dfd4b9-08ac-4dc7-a1ed-c0dfb83fbe38|17=f2bfa3d1-5260-4b0f-8d24-941e8846fd0a|39=2|150=F|55=INGA.AS|54=1|38=4|32=4|31=19.13084900|151=0|14=4|44=19.13084900|6007=my_strategy|52=20250521-09:29:34.121|10=186|
2025-05-21 10:29:34,123 [INFO] OUT: 8=FIX.4.4|9=276|35=8|49=EXCHANGE|56=MY_COMPANY|34=6|11=acea2d3a-4f48-4f08-b520-cc0f2c589034|37=acea2d3a-4f48-4f08-b520-cc0f2c589034|17=1fdcf86d-d74c-487b-9f09-d186e019957e|39=2|150=F|55=INGA.AS|54=2|38=3|32=3|31=19.13084900|151=0|14=3|44=19.13084900|6007=my_strategy|52=20250521-09:29:34.123|10=124|
2025-05-21 10:29:34,130 [INFO] OUT: 8=FIX.4.4|9=145|35=D|49=MY_COMPANY|56=EXCHANGE|34=4|11=my_strategy-1747819774.130272|55=AD.AS|54=1|44=37.45380672|38=2|52=20250521-09:29:34.130|6007=my_strategy|10=187|
2025-05-21 10:29:34,130 [INFO] IN: 8=FIX.4.4|9=145|35=D|49=MY_COMPANY|56=EXCHANGE|34=4|11=my_strategy-1747819774.130272|55=AD.AS|54=1|44=37.45380672|38=2|52=20250521-09:29:34.130|6007=my_strategy|10=187|
2025-05-21 10:29:34,130 [INFO] OUT: 8=FIX.4.4|9=274|35=8|49=EXCHANGE|56=MY_COMPANY|34=5|11=151f4c9c-7928-43f3-83d8-ffd32f614cc9|37=151f4c9c-7928-43f3-83d8-ffd32f614cc9|17=2fc0146c-f9ec-4887-869a-3c198f7818e0|39=2|150=F|55=AD.AS|54=1|38=2|32=2|31=37.83212800|151=0|14=2|44=37.83212800|6007=my_strategy|52=20250521-09:29:34.130|10=250|
2025-05-21 10:29:34,131 [INFO] OUT: 8=FIX.4.4|9=274|35=8|49=EXCHANGE|56=MY_COMPANY|34=6|11=87ab2126-ab8f-40fe-94d8-c0338e4afa34|37=87ab2126-ab8f-40fe-94d8-c0338e4afa34|17=a3b1087c-3710-4fe2-9c7d-5b59f04d4061|39=2|150=F|55=AD.AS|54=2|38=5|32=5|31=37.83212800|151=0|14=5|44=37.83212800|6007=my_strategy|52=20250521-09:29:34.131|10=116|
2025-05-21 10:29:34,136 [INFO] OUT: 8=FIX.4.4|9=276|35=8|49=EXCHANGE|56=MY_COMPANY|34=4|11=ec59dc22-a37c-46b1-82bb-a6bfae6f969e|37=ec59dc22-a37c-46b1-82bb-a6bfae6f969e|17=4f3b09ce-ffd4-4604-b757-aa7835ff712d|39=2|150=F|55=OR.PA|54=1|38=2|32=2|31=380.66893701|151=0|14=2|44=380.66893701|6007=my_strategy|52=20250521-09:29:34.136|10=220|
2025-05-21 10:29:34,136 [INFO] OUT: 8=FIX.4.4|9=279|35=8|49=EXCHANGE|56=MY_COMPANY|34=5|11=4f48e5d1-6ae3-4ccb-8c55-6a7402e68e76|37=4f48e5d1-6ae3-4ccb-8c55-6a7402e68e76|17=e9191f24-da54-4ea9-9fba-8331213f6445|39=2|150=F|55=OR.PA|54=2|38=10|32=10|31=380.66893701|151=0|14=10|44=380.66893701|6007=my_strategy|52=20250521-09:29:34.136|10=102|
2025-05-21 10:29:34,139 [INFO] OUT: 8=FIX.4.4|9=146|35=D|49=MY_COMPANY|56=EXCHANGE|34=4|11=my_strategy-1747819774.139835|55=SAN.PA|54=1|44=92.49221124|38=7|52=20250521-09:29:34.139|6007=my_strategy|10=041|
2025-05-21 10:29:34,140 [INFO] IN: 8=FIX.4.4|9=146|35=D|49=MY_COMPANY|56=EXCHANGE|34=4|11=my_strategy-1747819774.139835|55=SAN.PA|54=1|44=92.49221124|38=7|52=20250521-09:29:34.139|6007=my_strategy|10=041|
2025-05-21 10:29:34,140 [INFO] OUT: 8=FIX.4.4|9=275|35=8|49=EXCHANGE|56=MY_COMPANY|34=5|11=3efb1b27-2314-4fb2-89ce-4a02fb8ee86f|37=3efb1b27-2314-4fb2-89ce-4a02fb8ee86f|17=1c8c7769-5e05-4ec2-b402-a95a5c5fa64b|39=2|150=F|55=SAN.PA|54=1|38=7|32=7|31=93.42647600|151=0|14=7|44=93.42647600|6007=my_strategy|52=20250521-09:29:34.140|10=174|
2025-05-21 10:29:34,140 [INFO] OUT: 8=FIX.4.4|9=275|35=8|49=EXCHANGE|56=MY_COMPANY|34=6|11=ed719d80-1bd9-41f6-a6e9-d2028ac5aeaf|37=ed719d80-1bd9-41f6-a6e9-d2028ac5aeaf|17=f6d3f879-63c0-404d-83b0-e5f8b7f8861e|39=2|150=F|55=SAN.PA|54=2|38=1|32=1|31=93.42647600|151=0|14=1|44=93.42647600|6007=my_strategy|52=20250521-09:29:34.140|10=230|
2025-05-21 10:29:39,153 [INFO] OUT: 8=FIX.4.4|9=148|35=D|49=MY_COMPANY|56=EXCHANGE|34=7|11=my_strategy-1747819779.153151|55=PHIA.AS|54=1|44=21.09558231|38=10|52=20250521-09:29:39.153|6007=my_strategy|10=148|
2025-05-21 10:29:39,154 [INFO] IN: 8=FIX.4.4|9=148|35=D|49=MY_COMPANY|56=EXCHANGE|34=7|11=my_strategy-1747819779.153151|55=PHIA.AS|54=1|44=21.09558231|38=10|52=20250521-09:29:39.153|6007=my_strategy|10=148|
2025-05-21 10:29:39,155 [INFO] OUT: 8=FIX.4.4|9=279|35=8|49=EXCHANGE|56=MY_COMPANY|34=8|11=ba4f985b-af8f-4517-b0a1-2431d5cd5157|37=ba4f985b-af8f-4517-b0a1-2431d5cd5157|17=1d47c517-099b-4df3-8bb5-207700b5f66e|39=2|150=F|55=PHIA.AS|54=1|38=10|32=10|31=21.30866900|151=0|14=10|44=21.30866900|6007=my_strategy|52=20250521-09:29:39.155|10=074|
2025-05-21 10:29:39,156 [INFO] OUT: 8=FIX.4.4|9=276|35=8|49=EXCHANGE|56=MY_COMPANY|34=9|11=12100427-4fca-4327-87ee-42b0381f720e|37=12100427-4fca-4327-87ee-42b0381f720e|17=86e7e9ad-6c6b-4321-b1cb-a426bb4ce100|39=2|150=F|55=PHIA.AS|54=2|38=6|32=6|31=21.30866900|151=0|14=6|44=21.30866900|6007=my_strategy|52=20250521-09:29:39.156|10=221|
2025-05-21 10:29:39,158 [INFO] OUT: 8=FIX.4.4|9=277|35=8|49=EXCHANGE|56=MY_COMPANY|34=10|11=12100427-4fca-4327-87ee-42b0381f720e|37=12100427-4fca-4327-87ee-42b0381f720e|17=9271e168-a755-4ae7-b58a-03af524ae070|39=2|150=F|55=PHIA.AS|54=2|38=2|32=2|31=21.30866900|151=0|14=2|44=21.30866900|6007=my_strategy|52=20250521-09:29:39.158|10=074|
2025-05-21 10:29:39,179 [INFO] OUT: 8=FIX.4.4|9=147|35=D|49=MY_COMPANY|56=EXCHANGE|34=7|11=my_strategy-1747819779.179497|55=INGA.AS|54=1|44=18.93954051|38=3|52=20250521-09:29:39.179|6007=my_strategy|10=136|
2025-05-21 10:29:39,179 [INFO] IN: 8=FIX.4.4|9=147|35=D|49=MY_COMPANY|56=EXCHANGE|34=7|11=my_strategy-1747819779.179497|55=INGA.AS|54=1|44=18.93954051|38=3|52=20250521-09:29:39.179|6007=my_strategy|10=136|
2025-05-21 10:29:39,180 [INFO] OUT: 8=FIX.4.4|9=276|35=8|49=EXCHANGE|56=MY_COMPANY|34=8|11=b450eeb3-e7c5-48f1-a890-0ff2af8ca158|37=b450eeb3-e7c5-48f1-a890-0ff2af8ca158|17=be297538-467e-4c08-8fda-74e408685690|39=2|150=F|55=INGA.AS|54=1|38=3|32=3|31=19.13084900|151=0|14=3|44=19.13084900|6007=my_strategy|52=20250521-09:29:39.180|10=065|
2025-05-21 10:29:39,180 [INFO] OUT: 8=FIX.4.4|9=279|35=8|49=EXCHANGE|56=MY_COMPANY|34=9|11=b1ec7fc3-25b2-42d7-a777-ecd6093f3e30|37=b1ec7fc3-25b2-42d7-a777-ecd6093f3e30|17=51f3186a-31b5-4eb0-88cb-ce897d99001e|39=2|150=F|55=INGA.AS|54=2|38=10|32=10|31=19.13084900|151=0|14=10|44=19.13084900|6007=my_strategy|52=20250521-09:29:39.180|10=225|
2025-05-21 10:29:39,184 [INFO] OUT: 8=FIX.4.4|9=145|35=D|49=MY_COMPANY|56=EXCHANGE|34=7|11=my_strategy-1747819779.184383|55=AD.AS|54=1|44=37.45380672|38=8|52=20250521-09:29:39.184|6007=my_strategy|10=227|
2025-05-21 10:29:39,184 [INFO] IN: 8=FIX.4.4|9=145|35=D|49=MY_COMPANY|56=EXCHANGE|34=7|11=my_strategy-1747819779.184383|55=AD.AS|54=1|44=37.45380672|38=8|52=20250521-09:29:39.184|6007=my_strategy|10=227|
2025-05-21 10:29:39,184 [INFO] OUT: 8=FIX.4.4|9=274|35=8|49=EXCHANGE|56=MY_COMPANY|34=8|11=8a8a7cfa-9d22-4b22-9c11-480bd8d37741|37=8a8a7cfa-9d22-4b22-9c11-480bd8d37741|17=7b01c057-735e-49e5-87e1-99ad561499d9|39=2|150=F|55=AD.AS|54=1|38=8|32=8|31=37.83212800|151=0|14=8|44=37.83212800|6007=my_strategy|52=20250521-09:29:39.184|10=146|
2025-05-21 10:29:39,185 [INFO] OUT: 8=FIX.4.4|9=274|35=8|49=EXCHANGE|56=MY_COMPANY|34=9|11=b4e6e60c-8f8e-4cf6-84b7-6e99bbb7b233|37=b4e6e60c-8f8e-4cf6-84b7-6e99bbb7b233|17=29787b12-977a-4247-b43e-2ea606283257|39=2|150=F|55=AD.AS|54=2|38=6|32=6|31=37.83212800|151=0|14=6|44=37.83212800|6007=my_strategy|52=20250521-09:29:39.185|10=104|
2025-05-21 10:29:39,185 [INFO] OUT: 8=FIX.4.4|9=275|35=8|49=EXCHANGE|56=MY_COMPANY|34=10|11=b4e6e60c-8f8e-4cf6-84b7-6e99bbb7b233|37=b4e6e60c-8f8e-4cf6-84b7-6e99bbb7b233|17=3fb22c41-95b6-4422-985d-5c3710dcb2f9|39=2|150=F|55=AD.AS|54=2|38=2|32=2|31=37.83212800|151=0|14=2|44=37.83212800|6007=my_strategy|52=20250521-09:29:39.185|10=057|
2025-05-21 10:29:39,193 [INFO] OUT: 8=FIX.4.4|9=146|35=D|49=MY_COMPANY|56=EXCHANGE|34=7|11=my_strategy-1747819779.193392|55=SAN.PA|54=1|44=92.49221124|38=7|52=20250521-09:29:39.193|6007=my_strategy|10=052|
2025-05-21 10:29:39,193 [INFO] IN: 8=FIX.4.4|9=146|35=D|49=MY_COMPANY|56=EXCHANGE|34=7|11=my_strategy-1747819779.193392|55=SAN.PA|54=1|44=92.49221124|38=7|52=20250521-09:29:39.193|6007=my_strategy|10=052|
2025-05-21 10:29:39,193 [INFO] OUT: 8=FIX.4.4|9=275|35=8|49=EXCHANGE|56=MY_COMPANY|34=8|11=14be2571-6294-4056-b5c7-96ed30ce477b|37=14be2571-6294-4056-b5c7-96ed30ce477b|17=1098aa36-2c91-45cb-bb91-539bb18e77f5|39=2|150=F|55=SAN.PA|54=1|38=7|32=7|31=93.42647600|151=0|14=7|44=93.42647600|6007=my_strategy|52=20250521-09:29:39.193|10=187|
2025-05-21 10:29:39,194 [INFO] OUT: 8=FIX.4.4|9=275|35=8|49=EXCHANGE|56=MY_COMPANY|34=9|11=08ef625d-989e-491a-a29c-4952beda07ca|37=08ef625d-989e-491a-a29c-4952beda07ca|17=41a75c29-0441-476d-aaf2-9c132c6f691e|39=2|150=F|55=SAN.PA|54=2|38=2|32=2|31=93.42647600|151=0|14=2|44=93.42647600|6007=my_strategy|52=20250521-09:29:39.194|10=003|
2025-05-21 10:29:44,206 [INFO] OUT: 8=FIX.4.4|9=148|35=D|49=MY_COMPANY|56=EXCHANGE|34=11|11=my_strategy-1747819784.205389|55=PHIA.AS|54=1|44=21.09558231|38=4|52=20250521-09:29:44.205|6007=my_strategy|10=147|
2025-05-21 10:29:44,206 [INFO] IN: 8=FIX.4.4|9=148|35=D|49=MY_COMPANY|56=EXCHANGE|34=11|11=my_strategy-1747819784.205389|55=PHIA.AS|54=1|44=21.09558231|38=4|52=20250521-09:29:44.205|6007=my_strategy|10=147|
2025-05-21 10:29:44,209 [INFO] OUT: 8=FIX.4.4|9=277|35=8|49=EXCHANGE|56=MY_COMPANY|34=12|11=9f93411d-886b-4ec9-8a6b-64cec88d6289|37=9f93411d-886b-4ec9-8a6b-64cec88d6289|17=e31b581c-d533-4341-93bd-a521356193ac|39=2|150=F|55=PHIA.AS|54=1|38=1|32=1|31=21.30866900|151=0|14=1|44=21.30866900|6007=my_strategy|52=20250521-09:29:44.209|10=144|
2025-05-21 10:29:44,210 [INFO] OUT: 8=FIX.4.4|9=277|35=8|49=EXCHANGE|56=MY_COMPANY|34=13|11=9f93411d-886b-4ec9-8a6b-64cec88d6289|37=9f93411d-886b-4ec9-8a6b-64cec88d6289|17=adb9b581-3464-414d-b0a7-d5f3433ab6ba|39=2|150=F|55=PHIA.AS|54=1|38=3|32=3|31=21.28733900|151=0|14=3|44=21.28733900|6007=my_strategy|52=20250521-09:29:44.209|10=086|
2025-05-21 10:29:44,210 [INFO] OUT: 8=FIX.4.4|9=277|35=8|49=EXCHANGE|56=MY_COMPANY|34=14|11=f14607d4-efdf-4724-ab5c-e131aef3e597|37=f14607d4-efdf-4724-ab5c-e131aef3e597|17=b59cf253-d756-4fb7-a077-09c62f02e315|39=2|150=F|55=PHIA.AS|54=2|38=4|32=4|31=21.28733900|151=0|14=4|44=21.28733900|6007=my_strategy|52=20250521-09:29:44.210|10=182|
2025-05-21 10:29:44,223 [INFO] OUT: 8=FIX.4.4|9=148|35=D|49=MY_COMPANY|56=EXCHANGE|34=10|11=my_strategy-1747819784.223116|55=INGA.AS|54=1|44=18.93954051|38=2|52=20250521-09:29:44.223|6007=my_strategy|10=138|
2025-05-21 10:29:44,223 [INFO] IN: 8=FIX.4.4|9=148|35=D|49=MY_COMPANY|56=EXCHANGE|34=10|11=my_strategy-1747819784.223116|55=INGA.AS|54=1|44=18.93954051|38=2|52=20250521-09:29:44.223|6007=my_strategy|10=138|
2025-05-21 10:29:44,225 [INFO] OUT: 8=FIX.4.4|9=277|35=8|49=EXCHANGE|56=MY_COMPANY|34=11|11=a8523913-13b2-4a5c-92a6-9f04577adfa8|37=a8523913-13b2-4a5c-92a6-9f04577adfa8|17=2dc954c8-eada-482b-bc58-281c85de948a|39=2|150=F|55=INGA.AS|54=1|38=2|32=2|31=19.13084900|151=0|14=2|44=19.13084900|6007=my_strategy|52=20250521-09:29:44.225|10=241|
2025-05-21 10:29:44,225 [INFO] OUT: 8=FIX.4.4|9=277|35=8|49=EXCHANGE|56=MY_COMPANY|34=12|11=4df63c44-6a8c-4fb4-8853-da080699ad77|37=4df63c44-6a8c-4fb4-8853-da080699ad77|17=b96745f4-64fd-4171-a972-70ec542198c6|39=2|150=F|55=INGA.AS|54=2|38=6|32=6|31=19.13084900|151=0|14=6|44=19.13084900|6007=my_strategy|52=20250521-09:29:44.225|10=108|
2025-05-21 10:29:44,234 [INFO] OUT: 8=FIX.4.4|9=146|35=D|49=MY_COMPANY|56=EXCHANGE|34=11|11=my_strategy-1747819784.234399|55=AD.AS|54=1|44=37.41631542|38=3|52=20250521-09:29:44.234|6007=my_strategy|10=248|
2025-05-21 10:29:44,234 [INFO] IN: 8=FIX.4.4|9=146|35=D|49=MY_COMPANY|56=EXCHANGE|34=11|11=my_strategy-1747819784.234399|55=AD.AS|54=1|44=37.41631542|38=3|52=20250521-09:29:44.234|6007=my_strategy|10=248|
2025-05-21 10:29:44,234 [INFO] OUT: 8=FIX.4.4|9=275|35=8|49=EXCHANGE|56=MY_COMPANY|34=12|11=9b4c89fd-3868-434f-8db4-3bc8ad65fccf|37=9b4c89fd-3868-434f-8db4-3bc8ad65fccf|17=2ea2400f-ad0b-4405-82c3-d866ea7e1ef6|39=2|150=F|55=AD.AS|54=1|38=3|32=3|31=37.79425800|151=0|14=3|44=37.79425800|6007=my_strategy|52=20250521-09:29:44.234|10=056|
2025-05-21 10:29:44,235 [INFO] OUT: 8=FIX.4.4|9=275|35=8|49=EXCHANGE|56=MY_COMPANY|34=13|11=66d93bc0-5a36-4a29-a65e-fa18319cd79c|37=66d93bc0-5a36-4a29-a65e-fa18319cd79c|17=ae31cb32-82c4-4cc9-83ea-9be53624b5fc|39=2|150=F|55=AD.AS|54=2|38=4|32=4|31=37.79425800|151=0|14=4|44=37.79425800|6007=my_strategy|52=20250521-09:29:44.235|10=049|
2025-05-21 10:29:44,241 [INFO] OUT: 8=FIX.4.4|9=147|35=D|49=MY_COMPANY|56=EXCHANGE|34=10|11=my_strategy-1747819784.241143|55=SAN.PA|54=1|44=92.49221124|38=1|52=20250521-09:29:44.241|6007=my_strategy|10=063|
2025-05-21 10:29:44,241 [INFO] IN: 8=FIX.4.4|9=147|35=D|49=MY_COMPANY|56=EXCHANGE|34=10|11=my_strategy-1747819784.241143|55=SAN.PA|54=1|44=92.49221124|38=1|52=20250521-09:29:44.241|6007=my_strategy|10=063|
2025-05-21 10:29:44,241 [INFO] OUT: 8=FIX.4.4|9=276|35=8|49=EXCHANGE|56=MY_COMPANY|34=11|11=4d157e47-a4f6-4037-b944-2975ce95a5ed|37=4d157e47-a4f6-4037-b944-2975ce95a5ed|17=d6113d74-048a-4912-acec-e9d0923ffa5f|39=2|150=F|55=SAN.PA|54=1|38=1|32=1|31=93.42647600|151=0|14=1|44=93.42647600|6007=my_strategy|52=20250521-09:29:44.241|10=157|
2025-05-21 10:29:44,243 [INFO] OUT: 8=FIX.4.4|9=276|35=8|49=EXCHANGE|56=MY_COMPANY|34=12|11=38038574-38af-42e7-9aed-14e802aa2013|37=38038574-38af-42e7-9aed-14e802aa2013|17=3d84ff4c-9dab-4135-be51-deb656d32d03|39=2|150=F|55=SAN.PA|54=2|38=2|32=2|31=93.42647600|151=0|14=2|44=93.42647600|6007=my_strategy|52=20250521-09:29:44.243|10=061|
2025-05-21 10:29:49,253 [INFO] OUT: 8=FIX.4.4|9=149|35=D|49=MY_COMPANY|56=EXCHANGE|34=15|11=my_strategy-1747819789.2534888|55=PHIA.AS|54=1|44=21.07446561|38=8|52=20250521-09:29:49.253|6007=my_strategy|10=228|
2025-05-21 10:29:49,255 [INFO] IN: 8=FIX.4.4|9=149|35=D|49=MY_COMPANY|56=EXCHANGE|34=15|11=my_strategy-1747819789.2534888|55=PHIA.AS|54=1|44=21.07446561|38=8|52=20250521-09:29:49.253|6007=my_strategy|10=228|
2025-05-21 10:29:49,256 [INFO] OUT: 8=FIX.4.4|9=277|35=8|49=EXCHANGE|56=MY_COMPANY|34=16|11=77674d56-d41f-479b-8513-6b2d34c34af7|37=77674d56-d41f-479b-8513-6b2d34c34af7|17=722188f3-e115-4de3-b87d-d66dd2adeac6|39=2|150=F|55=PHIA.AS|54=1|38=8|32=8|31=21.28733900|151=0|14=8|44=21.28733900|6007=my_strategy|52=20250521-09:29:49.256|10=203|
2025-05-21 10:29:49,256 [INFO] OUT: 8=FIX.4.4|9=277|35=8|49=EXCHANGE|56=MY_COMPANY|34=17|11=3cca6671-7d86-444a-9224-d6bdd163489c|37=3cca6671-7d86-444a-9224-d6bdd163489c|17=88194e11-9090-4562-80fa-f7200e193ae6|39=2|150=F|55=PHIA.AS|54=2|38=8|32=8|31=21.28733900|151=0|14=8|44=21.28733900|6007=my_strategy|52=20250521-09:29:49.256|10=209|
2025-05-21 10:29:49,268 [INFO] OUT: 8=FIX.4.4|9=149|35=D|49=MY_COMPANY|56=EXCHANGE|34=13|11=my_strategy-1747819789.2681851|55=INGA.AS|54=1|44=18.93954051|38=7|52=20250521-09:29:49.268|6007=my_strategy|10=230|
2025-05-21 10:29:49,268 [INFO] IN: 8=FIX.4.4|9=149|35=D|49=MY_COMPANY|56=EXCHANGE|34=13|11=my_strategy-1747819789.2681851|55=INGA.AS|54=1|44=18.93954051|38=7|52=20250521-09:29:49.268|6007=my_strategy|10=230|
2025-05-21 10:29:49,269 [INFO] OUT: 8=FIX.4.4|9=277|35=8|49=EXCHANGE|56=MY_COMPANY|34=14|11=c1925743-b7fb-4121-a94d-4272a1185ac3|37=c1925743-b7fb-4121-a94d-4272a1185ac3|17=7af0e588-dd49-4f32-a3fc-fd499a3a875e|39=2|150=F|55=INGA.AS|54=1|38=6|32=6|31=19.13084900|151=0|14=6|44=19.13084900|6007=my_strategy|52=20250521-09:29:49.269|10=155|
2025-05-21 10:29:49,270 [INFO] OUT: 8=FIX.4.4|9=277|35=8|49=EXCHANGE|56=MY_COMPANY|34=15|11=c1925743-b7fb-4121-a94d-4272a1185ac3|37=c1925743-b7fb-4121-a94d-4272a1185ac3|17=555d3487-aa69-4e55-8793-b3f623f3290e|39=2|150=F|55=INGA.AS|54=1|38=1|32=1|31=19.13084900|151=0|14=1|44=19.13084900|6007=my_strategy|52=20250521-09:29:49.270|10=101|
2025-05-21 10:29:49,271 [INFO] OUT: 8=FIX.4.4|9=277|35=8|49=EXCHANGE|56=MY_COMPANY|34=16|11=11c41825-f3e9-4dce-9bfb-ed5db3b0ac05|37=11c41825-f3e9-4dce-9bfb-ed5db3b0ac05|17=602ab0fd-7614-4dbb-94a8-10a478a4ef7c|39=2|150=F|55=INGA.AS|54=2|38=3|32=3|31=19.13084900|151=0|14=3|44=19.13084900|6007=my_strategy|52=20250521-09:29:49.271|10=227|
2025-05-21 10:29:49,271 [INFO] OUT: 8=FIX.4.4|9=277|35=8|49=EXCHANGE|56=MY_COMPANY|34=17|11=11c41825-f3e9-4dce-9bfb-ed5db3b0ac05|37=11c41825-f3e9-4dce-9bfb-ed5db3b0ac05|17=25d6daf0-ff77-48ab-9b8e-54fc042d2b81|39=2|150=F|55=INGA.AS|54=2|38=5|32=5|31=19.11169900|151=0|14=5|44=19.11169900|6007=my_strategy|52=20250521-09:29:49.271|10=044|
2025-05-21 10:29:54,295 [INFO] OUT: 8=FIX.4.4|9=148|35=D|49=MY_COMPANY|56=EXCHANGE|34=18|11=my_strategy-1747819794.294655|55=PHIA.AS|54=1|44=21.07446561|38=4|52=20250521-09:29:54.294|6007=my_strategy|10=168|
2025-05-21 10:29:54,295 [INFO] IN: 8=FIX.4.4|9=148|35=D|49=MY_COMPANY|56=EXCHANGE|34=18|11=my_strategy-1747819794.294655|55=PHIA.AS|54=1|44=21.07446561|38=4|52=20250521-09:29:54.294|6007=my_strategy|10=168|
2025-05-21 10:29:54,296 [INFO] OUT: 8=FIX.4.4|9=277|35=8|49=EXCHANGE|56=MY_COMPANY|34=19|11=b4d51abf-6a57-4a71-8c39-1ee5e3f3989f|37=b4d51abf-6a57-4a71-8c39-1ee5e3f3989f|17=8de7a2ee-3b7e-4a5e-905a-8f02fcfd5cf0|39=2|150=F|55=PHIA.AS|54=1|38=4|32=4|31=21.28733900|151=0|14=4|44=21.28733900|6007=my_strategy|52=20250521-09:29:54.295|10=210|
2025-05-21 10:29:54,296 [INFO] OUT: 8=FIX.4.4|9=277|35=8|49=EXCHANGE|56=MY_COMPANY|34=20|11=87920192-991a-4906-bf27-251b053f70d2|37=87920192-991a-4906-bf27-251b053f70d2|17=f822d000-c9ba-44df-9c53-2117954ebf44|39=2|150=F|55=PHIA.AS|54=2|38=5|32=5|31=21.28733900|151=0|14=5|44=21.28733900|6007=my_strategy|52=20250521-09:29:54.296|10=235|
2025-05-21 10:29:54,317 [INFO] OUT: 8=FIX.4.4|9=148|35=D|49=MY_COMPANY|56=EXCHANGE|34=18|11=my_strategy-1747819794.317483|55=INGA.AS|54=1|44=18.92058201|38=2|52=20250521-09:29:54.317|6007=my_strategy|10=154|
2025-05-21 10:29:54,318 [INFO] IN: 8=FIX.4.4|9=148|35=D|49=MY_COMPANY|56=EXCHANGE|34=18|11=my_strategy-1747819794.317483|55=INGA.AS|54=1|44=18.92058201|38=2|52=20250521-09:29:54.317|6007=my_strategy|10=154|
2025-05-21 10:29:54,318 [INFO] OUT: 8=FIX.4.4|9=277|35=8|49=EXCHANGE|56=MY_COMPANY|34=19|11=b742eeb2-7760-4cc4-ae44-de164d87aa54|37=b742eeb2-7760-4cc4-ae44-de164d87aa54|17=138690e9-f1ed-4ebd-9dbf-98bc5f366de6|39=2|150=F|55=INGA.AS|54=1|38=2|32=2|31=19.11169900|151=0|14=2|44=19.11169900|6007=my_strategy|52=20250521-09:29:54.318|10=092|
2025-05-21 10:29:54,318 [INFO] OUT: 8=FIX.4.4|9=277|35=8|49=EXCHANGE|56=MY_COMPANY|34=20|11=efff4610-28bd-4fce-83cd-3246644486cf|37=efff4610-28bd-4fce-83cd-3246644486cf|17=e544e525-9651-4421-885b-d3bad5db0051|39=2|150=F|55=INGA.AS|54=2|38=6|32=6|31=19.11169900|151=0|14=6|44=19.11169900|6007=my_strategy|52=20250521-09:29:54.318|10=060|
2025-05-21 10:29:59,343 [INFO] HEARBEAT SENT: 8=FIX.4.4|9=61|35=0|49=MY_COMPANY|56=EXCHANGE|34=7|52=20250521-09:29:59.343|10=069|
2025-05-21 10:29:59,347 [INFO] OUT: 8=FIX.4.4|9=149|35=D|49=MY_COMPANY|56=EXCHANGE|34=21|11=my_strategy-1747819799.3470101|55=PHIA.AS|54=1|44=21.05334891|38=8|52=20250521-09:29:59.347|6007=my_strategy|10=209|
2025-05-21 10:29:59,347 [INFO] IN: 8=FIX.4.4|9=149|35=D|49=MY_COMPANY|56=EXCHANGE|34=21|11=my_strategy-1747819799.3470101|55=PHIA.AS|54=1|44=21.05334891|38=8|52=20250521-09:29:59.347|6007=my_strategy|10=209|
2025-05-21 10:29:59,348 [INFO] OUT: 8=FIX.4.4|9=277|35=8|49=EXCHANGE|56=MY_COMPANY|34=22|11=690c15ad-2577-4ef7-b9a4-f8e12c9b56bf|37=690c15ad-2577-4ef7-b9a4-f8e12c9b56bf|17=f50f120a-a030-49d3-87c8-028aed5ac8f3|39=2|150=F|55=PHIA.AS|54=1|38=8|32=8|31=21.26600900|151=0|14=8|44=21.26600900|6007=my_strategy|52=20250521-09:29:59.348|10=198|
2025-05-21 10:29:59,349 [INFO] OUT: 8=FIX.4.4|9=277|35=8|49=EXCHANGE|56=MY_COMPANY|34=23|11=cb785f30-baca-499c-8c9e-08c8dc0ae24d|37=cb785f30-baca-499c-8c9e-08c8dc0ae24d|17=885dd9e9-9dff-4cb5-92a5-c59f0802461a|39=2|150=F|55=PHIA.AS|54=2|38=5|32=5|31=21.26600900|151=0|14=5|44=21.26600900|6007=my_strategy|52=20250521-09:29:59.349|10=240|
2025-05-21 10:29:59,358 [INFO] HEARBEAT SENT: 8=FIX.4.4|9=62|35=0|49=MY_COMPANY|56=EXCHANGE|34=24|52=20250521-09:29:59.358|10=123|
2025-05-21 10:29:59,362 [INFO] OUT: 8=FIX.4.4|9=149|35=D|49=MY_COMPANY|56=EXCHANGE|34=21|11=my_strategy-1747819799.3622558|55=INGA.AS|54=1|44=18.92058201|38=2|52=20250521-09:29:59.362|6007=my_strategy|10=212|
2025-05-21 10:29:59,362 [INFO] IN: 8=FIX.4.4|9=149|35=D|49=MY_COMPANY|56=EXCHANGE|34=21|11=my_strategy-1747819799.3622558|55=INGA.AS|54=1|44=18.92058201|38=2|52=20250521-09:29:59.362|6007=my_strategy|10=212|
2025-05-21 10:29:59,363 [INFO] OUT: 8=FIX.4.4|9=277|35=8|49=EXCHANGE|56=MY_COMPANY|34=22|11=69ab8ace-ad8d-4e2a-bde3-da0a981323a7|37=69ab8ace-ad8d-4e2a-bde3-da0a981323a7|17=8c80066a-f4c4-4e89-a4dd-71d1b9af9f5a|39=2|150=F|55=INGA.AS|54=1|38=2|32=2|31=19.11169900|151=0|14=2|44=19.11169900|6007=my_strategy|52=20250521-09:29:59.363|10=137|
2025-05-21 10:29:59,363 [INFO] OUT: 8=FIX.4.4|9=277|35=8|49=EXCHANGE|56=MY_COMPANY|34=23|11=063d4009-19cd-4b59-8ae1-f3b83b442768|37=063d4009-19cd-4b59-8ae1-f3b83b442768|17=be59d8ab-8718-42bc-a858-df1ccdbfaf13|39=2|150=F|55=INGA.AS|54=2|38=7|32=7|31=19.11169900|151=0|14=7|44=19.11169900|6007=my_strategy|52=20250521-09:29:59.363|10=065|
2025-05-21 10:29:59,367 [INFO] OUT: 8=FIX.4.4|9=277|35=8|49=EXCHANGE|56=MY_COMPANY|34=24|11=063d4009-19cd-4b59-8ae1-f3b83b442768|37=063d4009-19cd-4b59-8ae1-f3b83b442768|17=f1970610-4f3b-4b63-ba0c-907052cbecfe|39=2|150=F|55=INGA.AS|54=2|38=2|32=2|31=19.11169900|151=0|14=2|44=19.11169900|6007=my_strategy|52=20250521-09:29:59.367|10=099|
2025-05-21 10:29:59,374 [INFO] HEARBEAT SENT: 8=FIX.4.4|9=62|35=0|49=MY_COMPANY|56=EXCHANGE|34=25|52=20250521-09:29:59.374|10=122|
2025-05-21 10:29:59,378 [INFO] HEARBEAT SENT: 8=FIX.4.4|9=62|35=0|49=MY_COMPANY|56=EXCHANGE|34=14|52=20250521-09:29:59.378|10=124|
2025-05-21 10:29:59,379 [INFO] HEARBEAT SENT: 8=FIX.4.4|9=61|35=0|49=MY_COMPANY|56=EXCHANGE|34=6|52=20250521-09:29:59.379|10=077|
2025-05-21 10:29:59,381 [INFO] HEARBEAT SENT: 8=FIX.4.4|9=62|35=0|49=MY_COMPANY|56=EXCHANGE|34=13|52=20250521-09:29:59.381|10=117|
2025-05-21 10:30:04,390 [INFO] OUT: 8=FIX.4.4|9=149|35=D|49=MY_COMPANY|56=EXCHANGE|34=25|11=my_strategy-1747819804.389933|55=PHIA.AS|54=1|44=21.05334891|38=10|52=20250521-09:30:04.390|6007=my_strategy|10=192|
2025-05-21 10:30:04,391 [INFO] IN: 8=FIX.4.4|9=149|35=D|49=MY_COMPANY|56=EXCHANGE|34=25|11=my_strategy-1747819804.389933|55=PHIA.AS|54=1|44=21.05334891|38=10|52=20250521-09:30:04.390|6007=my_strategy|10=192|
2025-05-21 10:30:04,392 [INFO] OUT: 8=FIX.4.4|9=277|35=8|49=EXCHANGE|56=MY_COMPANY|34=26|11=61d3a2e5-a4ce-47fe-a6da-4151585aa9ed|37=61d3a2e5-a4ce-47fe-a6da-4151585aa9ed|17=c9e7565d-82df-40fa-b625-f493427c36bc|39=2|150=F|55=PHIA.AS|54=1|38=9|32=9|31=21.26600900|151=0|14=9|44=21.26600900|6007=my_strategy|52=20250521-09:30:04.392|10=107|
2025-05-21 10:30:04,395 [INFO] OUT: 8=FIX.4.4|9=277|35=8|49=EXCHANGE|56=MY_COMPANY|34=27|11=61d3a2e5-a4ce-47fe-a6da-4151585aa9ed|37=61d3a2e5-a4ce-47fe-a6da-4151585aa9ed|17=972e4638-aa8c-4f78-8d19-a4737a0c66bd|39=2|150=F|55=PHIA.AS|54=1|38=1|32=1|31=21.26600900|151=0|14=1|44=21.26600900|6007=my_strategy|52=20250521-09:30:04.394|10=044|
2025-05-21 10:30:04,400 [INFO] OUT: 8=FIX.4.4|9=277|35=8|49=EXCHANGE|56=MY_COMPANY|34=28|11=e4e73046-224a-470c-ad67-8ab098f197cd|37=e4e73046-224a-470c-ad67-8ab098f197cd|17=a20c40b1-645f-49fb-8ce7-a0875c39a43c|39=2|150=F|55=PHIA.AS|54=2|38=1|32=1|31=21.26600900|151=0|14=1|44=21.26600900|6007=my_strategy|52=20250521-09:30:04.400|10=207|
2025-05-21 10:30:04,401 [INFO] OUT: 8=FIX.4.4|9=277|35=8|49=EXCHANGE|56=MY_COMPANY|34=29|11=e4e73046-224a-470c-ad67-8ab098f197cd|37=e4e73046-224a-470c-ad67-8ab098f197cd|17=13379bd4-ee95-4520-8ea6-d740916108d2|39=2|150=F|55=PHIA.AS|54=2|38=4|32=4|31=21.25539733|151=0|14=4|44=21.25539733|6007=my_strategy|52=20250521-09:30:04.401|10=063|
2025-05-21 10:30:04,401 [INFO] OUT: 8=FIX.4.4|9=277|35=8|49=EXCHANGE|56=MY_COMPANY|34=30|11=e4e73046-224a-470c-ad67-8ab098f197cd|37=e4e73046-224a-470c-ad67-8ab098f197cd|17=3ac3fc71-e76b-4319-a9a7-bd507e105895|39=2|150=F|55=PHIA.AS|54=2|38=2|32=2|31=21.24467900|151=0|14=2|44=21.24467900|6007=my_strategy|52=20250521-09:30:04.401|10=182|
2025-05-21 10:30:04,409 [INFO] OUT: 8=FIX.4.4|9=149|35=D|49=MY_COMPANY|56=EXCHANGE|34=26|11=my_strategy-1747819804.4091232|55=INGA.AS|54=1|44=18.90162351|38=1|52=20250521-09:30:04.409|6007=my_strategy|10=177|
2025-05-21 10:30:04,409 [INFO] IN: 8=FIX.4.4|9=149|35=D|49=MY_COMPANY|56=EXCHANGE|34=26|11=my_strategy-1747819804.4091232|55=INGA.AS|54=1|44=18.90162351|38=1|52=20250521-09:30:04.409|6007=my_strategy|10=177|
2025-05-21 10:30:04,409 [INFO] OUT: 8=FIX.4.4|9=277|35=8|49=EXCHANGE|56=MY_COMPANY|34=27|11=6ea1e040-71c6-4b2b-80f2-9392b084cf25|37=6ea1e040-71c6-4b2b-80f2-9392b084cf25|17=58052e01-581d-4e71-98b2-c67200c2d653|39=2|150=F|55=INGA.AS|54=1|38=1|32=1|31=19.09254900|151=0|14=1|44=19.09254900|6007=my_strategy|52=20250521-09:30:04.409|10=125|
2025-05-21 10:30:04,410 [INFO] OUT: 8=FIX.4.4|9=277|35=8|49=EXCHANGE|56=MY_COMPANY|34=28|11=716353de-19b5-4ee3-b5eb-bbebe9812cf1|37=716353de-19b5-4ee3-b5eb-bbebe9812cf1|17=b120677b-6e40-4229-b908-a7cc7e2432c8|39=2|150=F|55=INGA.AS|54=2|38=1|32=1|31=19.09254900|151=0|14=1|44=19.09254900|6007=my_strategy|52=20250521-09:30:04.410|10=206|
2025-05-21 10:30:09,430 [INFO] OUT: 8=FIX.4.4|9=148|35=D|49=MY_COMPANY|56=EXCHANGE|34=31|11=my_strategy-1747819809.430409|55=PHIA.AS|54=1|44=21.03223221|38=8|52=20250521-09:30:09.430|6007=my_strategy|10=119|
2025-05-21 10:30:09,431 [INFO] IN: 8=FIX.4.4|9=148|35=D|49=MY_COMPANY|56=EXCHANGE|34=31|11=my_strategy-1747819809.430409|55=PHIA.AS|54=1|44=21.03223221|38=8|52=20250521-09:30:09.430|6007=my_strategy|10=119|
2025-05-21 10:30:09,432 [INFO] OUT: 8=FIX.4.4|9=277|35=8|49=EXCHANGE|56=MY_COMPANY|34=32|11=9b3798e1-0868-47fa-b03b-3b85f5c5458e|37=9b3798e1-0868-47fa-b03b-3b85f5c5458e|17=b5aef0be-f966-416d-ac12-56b0920ea631|39=2|150=F|55=PHIA.AS|54=1|38=8|32=8|31=21.24467900|151=0|14=8|44=21.24467900|6007=my_strategy|52=20250521-09:30:09.432|10=226|
2025-05-21 10:30:09,433 [INFO] OUT: 8=FIX.4.4|9=277|35=8|49=EXCHANGE|56=MY_COMPANY|34=33|11=69d1e2be-7288-458b-8572-a2cbccf39f62|37=69d1e2be-7288-458b-8572-a2cbccf39f62|17=5a51530c-9dc3-40aa-a178-90a563340ef1|39=2|150=F|55=PHIA.AS|54=2|38=4|32=4|31=21.24467900|151=0|14=4|44=21.24467900|6007=my_strategy|52=20250521-09:30:09.433|10=250|
2025-05-21 10:30:09,449 [INFO] OUT: 8=FIX.4.4|9=148|35=D|49=MY_COMPANY|56=EXCHANGE|34=29|11=my_strategy-1747819809.449091|55=INGA.AS|54=1|44=18.90162351|38=1|52=20250521-09:30:09.449|6007=my_strategy|10=151|
2025-05-21 10:30:09,449 [INFO] IN: 8=FIX.4.4|9=148|35=D|49=MY_COMPANY|56=EXCHANGE|34=29|11=my_strategy-1747819809.449091|55=INGA.AS|54=1|44=18.90162351|38=1|52=20250521-09:30:09.449|6007=my_strategy|10=151|
2025-05-21 10:30:09,449 [INFO] OUT: 8=FIX.4.4|9=277|35=8|49=EXCHANGE|56=MY_COMPANY|34=30|11=655743c0-a2bb-45c1-91b7-6574c9fdc8a1|37=655743c0-a2bb-45c1-91b7-6574c9fdc8a1|17=b34ce54f-4c7d-47c4-a161-1bb22b3409a7|39=2|150=F|55=INGA.AS|54=1|38=1|32=1|31=19.09254900|151=0|14=1|44=19.09254900|6007=my_strategy|52=20250521-09:30:09.449|10=219|
2025-05-21 10:30:09,450 [INFO] OUT: 8=FIX.4.4|9=277|35=8|49=EXCHANGE|56=MY_COMPANY|34=31|11=0c620829-8e8b-4afe-a160-838da44e237e|37=0c620829-8e8b-4afe-a160-838da44e237e|17=d7b3e5cc-be57-4910-87a1-ebecdffdc553|39=2|150=F|55=INGA.AS|54=2|38=8|32=8|31=19.09254900|151=0|14=8|44=19.09254900|6007=my_strategy|52=20250521-09:30:09.450|10=243|
2025-05-21 10:30:14,499 [INFO] OUT: 8=FIX.4.4|9=148|35=D|49=MY_COMPANY|56=EXCHANGE|34=32|11=my_strategy-1747819814.49861|55=INGA.AS|54=1|44=18.90162351|38=10|52=20250521-09:30:14.498|6007=my_strategy|10=142|
2025-05-21 10:30:14,499 [INFO] IN: 8=FIX.4.4|9=148|35=D|49=MY_COMPANY|56=EXCHANGE|34=32|11=my_strategy-1747819814.49861|55=INGA.AS|54=1|44=18.90162351|38=10|52=20250521-09:30:14.498|6007=my_strategy|10=142|
2025-05-21 10:30:14,499 [INFO] OUT: 8=FIX.4.4|9=277|35=8|49=EXCHANGE|56=MY_COMPANY|34=33|11=54dac01b-dddc-4d50-a674-f91b704192ff|37=54dac01b-dddc-4d50-a674-f91b704192ff|17=2f8ed8a1-4ac2-4dbf-8ca7-22d202f30cae|39=2|150=F|55=INGA.AS|54=1|38=7|32=7|31=19.09254900|151=0|14=7|44=19.09254900|6007=my_strategy|52=20250521-09:30:14.499|10=187|
2025-05-21 10:30:14,500 [INFO] OUT: 8=FIX.4.4|9=277|35=8|49=EXCHANGE|56=MY_COMPANY|34=34|11=54dac01b-dddc-4d50-a674-f91b704192ff|37=54dac01b-dddc-4d50-a674-f91b704192ff|17=9a01449a-cd32-4c76-80a6-ad1ae6088f3f|39=2|150=F|55=INGA.AS|54=1|38=1|32=1|31=19.08302188|151=0|14=1|44=19.08302188|6007=my_strategy|52=20250521-09:30:14.500|10=234|
2025-05-21 10:30:14,501 [INFO] OUT: 8=FIX.4.4|9=277|35=8|49=EXCHANGE|56=MY_COMPANY|34=35|11=54dac01b-dddc-4d50-a674-f91b704192ff|37=54dac01b-dddc-4d50-a674-f91b704192ff|17=06db5793-38d7-4a85-9176-045d958e6310|39=2|150=F|55=INGA.AS|54=1|38=2|32=2|31=19.08302188|151=0|14=2|44=19.08302188|6007=my_strategy|52=20250521-09:30:14.501|10=231|
2025-05-21 10:30:14,501 [INFO] OUT: 8=FIX.4.4|9=277|35=8|49=EXCHANGE|56=MY_COMPANY|34=36|11=c5582702-b6d8-4144-b0c1-3e06cb15e817|37=c5582702-b6d8-4144-b0c1-3e06cb15e817|17=afbaa1f6-408e-48f7-9b66-5b54f2b343ff|39=2|150=F|55=INGA.AS|54=2|38=5|32=5|31=19.08302188|151=0|14=5|44=19.08302188|6007=my_strategy|52=20250521-09:30:14.501|10=130|
2025-05-21 10:30:14,501 [INFO] OUT: 8=FIX.4.4|9=277|35=8|49=EXCHANGE|56=MY_COMPANY|34=37|11=c5582702-b6d8-4144-b0c1-3e06cb15e817|37=c5582702-b6d8-4144-b0c1-3e06cb15e817|17=9e254f82-5af8-4492-88d0-0571aacf0fff|39=2|150=F|55=INGA.AS|54=2|38=4|32=4|31=19.07339900|151=0|14=4|44=19.07339900|6007=my_strategy|52=20250521-09:30:14.501|10=039|
2025-05-21 10:30:19,512 [INFO] OUT: 8=FIX.4.4|9=149|35=D|49=MY_COMPANY|56=EXCHANGE|34=38|11=my_strategy-1747819819.5125241|55=INGA.AS|54=1|44=18.88266501|38=4|52=20250521-09:30:19.512|6007=my_strategy|10=198|
2025-05-21 10:30:19,512 [INFO] IN: 8=FIX.4.4|9=149|35=D|49=MY_COMPANY|56=EXCHANGE|34=38|11=my_strategy-1747819819.5125241|55=INGA.AS|54=1|44=18.88266501|38=4|52=20250521-09:30:19.512|6007=my_strategy|10=198|
2025-05-21 10:30:19,513 [INFO] OUT: 8=FIX.4.4|9=277|35=8|49=EXCHANGE|56=MY_COMPANY|34=39|11=d690f641-dc50-4ca8-8d73-f7d429eb97e1|37=d690f641-dc50-4ca8-8d73-f7d429eb97e1|17=aab0dc81-1df2-460b-a596-0741a426edfd|39=2|150=F|55=INGA.AS|54=1|38=4|32=4|31=19.07339900|151=0|14=4|44=19.07339900|6007=my_strategy|52=20250521-09:30:19.513|10=204|
2025-05-21 10:30:19,513 [INFO] OUT: 8=FIX.4.4|9=277|35=8|49=EXCHANGE|56=MY_COMPANY|34=40|11=7a115a05-5e79-4727-91cf-e81e0e4b6db5|37=7a115a05-5e79-4727-91cf-e81e0e4b6db5|17=22279539-7a12-41df-adae-7e6f96dac4ca|39=2|150=F|55=INGA.AS|54=2|38=9|32=9|31=19.07339900|151=0|14=9|44=19.07339900|6007=my_strategy|52=20250521-09:30:19.513|10=109|
2025-05-21 10:30:24,528 [INFO] OUT: 8=FIX.4.4|9=149|35=D|49=MY_COMPANY|56=EXCHANGE|34=41|11=my_strategy-1747819824.5281658|55=INGA.AS|54=1|44=18.88266501|38=3|52=20250521-09:30:24.528|6007=my_strategy|10=205|
2025-05-21 10:30:24,528 [INFO] IN: 8=FIX.4.4|9=149|35=D|49=MY_COMPANY|56=EXCHANGE|34=41|11=my_strategy-1747819824.5281658|55=INGA.AS|54=1|44=18.88266501|38=3|52=20250521-09:30:24.528|6007=my_strategy|10=205|
2025-05-21 10:30:24,529 [INFO] OUT: 8=FIX.4.4|9=277|35=8|49=EXCHANGE|56=MY_COMPANY|34=42|11=2ce1a6b2-ef78-4db7-a49a-ade1ceaf8a40|37=2ce1a6b2-ef78-4db7-a49a-ade1ceaf8a40|17=6f447d7f-bf12-48f9-94ce-fb1d0a8bb63e|39=2|150=F|55=INGA.AS|54=1|38=3|32=3|31=19.07339900|151=0|14=3|44=19.07339900|6007=my_strategy|52=20250521-09:30:24.529|10=031|
2025-05-21 10:30:24,529 [INFO] OUT: 8=FIX.4.4|9=277|35=8|49=EXCHANGE|56=MY_COMPANY|34=43|11=29611bc7-1dbc-4840-95f9-b3a4ae5dc3e5|37=29611bc7-1dbc-4840-95f9-b3a4ae5dc3e5|17=74764783-a976-49e9-a9f8-77550b4868db|39=2|150=F|55=INGA.AS|54=2|38=5|32=5|31=19.05424901|151=0|14=5|44=19.05424901|6007=my_strategy|52=20250521-09:30:24.529|10=238|
2025-05-21 10:30:29,552 [INFO] HEARBEAT SENT: 8=FIX.4.4|9=61|35=0|49=MY_COMPANY|56=EXCHANGE|34=8|52=20250521-09:30:29.552|10=061|
2025-05-21 10:30:29,560 [INFO] HEARBEAT SENT: 8=FIX.4.4|9=62|35=0|49=MY_COMPANY|56=EXCHANGE|34=34|52=20250521-09:30:29.560|10=108|
2025-05-21 10:30:29,561 [INFO] OUT: 8=FIX.4.4|9=148|35=D|49=MY_COMPANY|56=EXCHANGE|34=44|11=my_strategy-1747819829.561034|55=INGA.AS|54=1|44=18.86370651|38=3|52=20250521-09:30:29.561|6007=my_strategy|10=150|
2025-05-21 10:30:29,561 [INFO] IN: 8=FIX.4.4|9=148|35=D|49=MY_COMPANY|56=EXCHANGE|34=44|11=my_strategy-1747819829.561034|55=INGA.AS|54=1|44=18.86370651|38=3|52=20250521-09:30:29.561|6007=my_strategy|10=150|
2025-05-21 10:30:29,561 [INFO] OUT: 8=FIX.4.4|9=277|35=8|49=EXCHANGE|56=MY_COMPANY|34=45|11=3c0ecd7f-0056-4f88-be5c-560fc039e2a6|37=3c0ecd7f-0056-4f88-be5c-560fc039e2a6|17=60c595c4-e067-4f3d-9a47-bfabccc5188b|39=2|150=F|55=INGA.AS|54=1|38=3|32=3|31=19.05424901|151=0|14=3|44=19.05424901|6007=my_strategy|52=20250521-09:30:29.561|10=019|
2025-05-21 10:30:29,562 [INFO] OUT: 8=FIX.4.4|9=277|35=8|49=EXCHANGE|56=MY_COMPANY|34=46|11=7c79ee3d-3973-4e43-9a8d-94213b3be65a|37=7c79ee3d-3973-4e43-9a8d-94213b3be65a|17=e08a57f6-a2b5-4a7c-993a-b36d1e423ea5|39=2|150=F|55=INGA.AS|54=2|38=3|32=3|31=19.05424901|151=0|14=3|44=19.05424901|6007=my_strategy|52=20250521-09:30:29.561|10=062|
2025-05-21 10:30:29,562 [INFO] HEARBEAT SENT: 8=FIX.4.4|9=62|35=0|49=MY_COMPANY|56=EXCHANGE|34=47|52=20250521-09:30:29.562|10=114|
2025-05-21 10:30:29,563 [INFO] HEARBEAT SENT: 8=FIX.4.4|9=62|35=0|49=MY_COMPANY|56=EXCHANGE|34=15|52=20250521-09:30:29.563|10=110|
2025-05-21 10:30:29,564 [INFO] HEARBEAT SENT: 8=FIX.4.4|9=61|35=0|49=MY_COMPANY|56=EXCHANGE|34=7|52=20250521-09:30:29.564|10=063|
2025-05-21 10:30:29,566 [INFO] HEARBEAT SENT: 8=FIX.4.4|9=62|35=0|49=MY_COMPANY|56=EXCHANGE|34=14|52=20250521-09:30:29.566|10=112|
2025-05-21 10:30:34,569 [INFO] OUT: 8=FIX.4.4|9=278|35=8|49=EXCHANGE|56=MY_COMPANY|34=9|11=16f1762d-d67a-438c-b18d-1679db072156|37=16f1762d-d67a-438c-b18d-1679db072156|17=cc66c604-8eef-47d9-90fb-bb5bdb91c4d2|39=2|150=F|55=ASML.AS|54=1|38=5|32=5|31=659.34000000|151=0|14=5|44=659.34000000|6007=my_strategy|52=20250521-09:30:34.569|10=055|
2025-05-21 10:30:34,569 [INFO] OUT: 8=FIX.4.4|9=279|35=8|49=EXCHANGE|56=MY_COMPANY|34=10|11=4c005908-8074-46ff-9a98-7db47906ecf5|37=4c005908-8074-46ff-9a98-7db47906ecf5|17=9b05dcaf-2604-4fb3-89e8-323105a52ac2|39=2|150=F|55=ASML.AS|54=2|38=8|32=8|31=659.34000000|151=0|14=8|44=659.34000000|6007=my_strategy|52=20250521-09:30:34.569|10=143|
2025-05-21 10:30:34,583 [INFO] OUT: 8=FIX.4.4|9=148|35=D|49=MY_COMPANY|56=EXCHANGE|34=48|11=my_strategy-1747819834.583508|55=INGA.AS|54=1|44=18.86370651|38=7|52=20250521-09:30:34.583|6007=my_strategy|10=164|
2025-05-21 10:30:34,583 [INFO] IN: 8=FIX.4.4|9=148|35=D|49=MY_COMPANY|56=EXCHANGE|34=48|11=my_strategy-1747819834.583508|55=INGA.AS|54=1|44=18.86370651|38=7|52=20250521-09:30:34.583|6007=my_strategy|10=164|
2025-05-21 10:30:34,584 [INFO] OUT: 8=FIX.4.4|9=277|35=8|49=EXCHANGE|56=MY_COMPANY|34=49|11=03a9d292-1632-4ddd-996d-3ff7edc3f17f|37=03a9d292-1632-4ddd-996d-3ff7edc3f17f|17=41d67874-0d91-443b-bab3-15cbc94307f3|39=2|150=F|55=INGA.AS|54=1|38=7|32=7|31=19.05424901|151=0|14=7|44=19.05424901|6007=my_strategy|52=20250521-09:30:34.584|10=115|
2025-05-21 10:30:34,584 [INFO] OUT: 8=FIX.4.4|9=277|35=8|49=EXCHANGE|56=MY_COMPANY|34=50|11=30023223-dbd6-4c7e-ad55-45358a53befc|37=30023223-dbd6-4c7e-ad55-45358a53befc|17=a3e64bc8-dae7-4a68-9e96-2c17dd8a9ca2|39=2|150=F|55=INGA.AS|54=2|38=2|32=2|31=19.05424901|151=0|14=2|44=19.05424901|6007=my_strategy|52=20250521-09:30:34.584|10=201|
2025-05-21 10:30:34,584 [INFO] OUT: 8=FIX.4.4|9=277|35=8|49=EXCHANGE|56=MY_COMPANY|34=51|11=30023223-dbd6-4c7e-ad55-45358a53befc|37=30023223-dbd6-4c7e-ad55-45358a53befc|17=b5ab3429-6d4f-4a7d-8a0d-b871f9f9b616|39=2|150=F|55=INGA.AS|54=2|38=6|32=6|31=19.03509901|151=0|14=6|44=19.03509901|6007=my_strategy|52=20250521-09:30:34.584|10=120|
2025-05-21 10:30:34,586 [INFO] OUT: 8=FIX.4.4|9=276|35=8|49=EXCHANGE|56=MY_COMPANY|34=8|11=26cf6620-67a1-4d8a-b169-a48f53c447d9|37=26cf6620-67a1-4d8a-b169-a48f53c447d9|17=52355408-6b20-4ff6-a58d-99df38bc8de6|39=2|150=F|55=OR.PA|54=1|38=1|32=1|31=380.28788703|151=0|14=1|44=380.28788703|6007=my_strategy|52=20250521-09:30:34.586|10=085|
2025-05-21 10:30:34,586 [INFO] OUT: 8=FIX.4.4|9=276|35=8|49=EXCHANGE|56=MY_COMPANY|34=9|11=a2ece65e-9aee-4f33-a4c8-9a7e20ce46ec|37=a2ece65e-9aee-4f33-a4c8-9a7e20ce46ec|17=d4e9c493-dd44-40fa-b655-22d78835c129|39=2|150=F|55=OR.PA|54=2|38=1|32=1|31=380.28788703|151=0|14=1|44=380.28788703|6007=my_strategy|52=20250521-09:30:34.586|10=180|
2025-05-21 10:30:39,599 [INFO] OUT: 8=FIX.4.4|9=279|35=8|49=EXCHANGE|56=MY_COMPANY|34=11|11=be43a93a-669a-4ceb-bf7f-836b11e54346|37=be43a93a-669a-4ceb-bf7f-836b11e54346|17=1509ed8a-6ddf-4de2-8496-a1f6d8193ef6|39=2|150=F|55=ASML.AS|54=1|38=4|32=4|31=658.68000000|151=0|14=4|44=658.68000000|6007=my_strategy|52=20250521-09:30:39.599|10=111|
2025-05-21 10:30:39,600 [INFO] OUT: 8=FIX.4.4|9=282|35=8|49=EXCHANGE|56=MY_COMPANY|34=12|11=917c602a-271e-4827-b038-ddf3fe89aa0c|37=917c602a-271e-4827-b038-ddf3fe89aa0c|17=ec33826d-8727-48b8-aa7c-ef73bccccf16|39=2|150=F|55=ASML.AS|54=2|38=10|32=10|31=658.68000000|151=0|14=10|44=658.68000000|6007=my_strategy|52=20250521-09:30:39.599|10=221|
2025-05-21 10:30:39,605 [INFO] OUT: 8=FIX.4.4|9=150|35=D|49=MY_COMPANY|56=EXCHANGE|34=52|11=my_strategy-1747819839.6047978|55=INGA.AS|54=1|44=18.84474802|38=10|52=20250521-09:30:39.604|6007=my_strategy|10=003|
2025-05-21 10:30:39,605 [INFO] IN: 8=FIX.4.4|9=150|35=D|49=MY_COMPANY|56=EXCHANGE|34=52|11=my_strategy-1747819839.6047978|55=INGA.AS|54=1|44=18.84474802|38=10|52=20250521-09:30:39.604|6007=my_strategy|10=003|
2025-05-21 10:30:39,606 [INFO] OUT: 8=FIX.4.4|9=280|35=8|49=EXCHANGE|56=MY_COMPANY|34=53|11=e2cacf65-7cf2-45c5-85c2-9b9f3e7a7c02|37=e2cacf65-7cf2-45c5-85c2-9b9f3e7a7c02|17=3299fc74-ee94-41c7-8e5c-34bb67c2dd40|39=2|150=F|55=INGA.AS|54=1|38=10|32=10|31=19.03509901|151=0|14=10|44=19.03509901|6007=my_strategy|52=20250521-09:30:39.605|10=180|
2025-05-21 10:30:39,606 [INFO] OUT: 8=FIX.4.4|9=277|35=8|49=EXCHANGE|56=MY_COMPANY|34=54|11=cd8179e3-23c3-4eea-bf83-a668cae90ff1|37=cd8179e3-23c3-4eea-bf83-a668cae90ff1|17=d5fb4c4c-0608-4416-b492-c6762c60a522|39=2|150=F|55=INGA.AS|54=2|38=7|32=7|31=19.03509901|151=0|14=7|44=19.03509901|6007=my_strategy|52=20250521-09:30:39.606|10=246|
2025-05-21 10:30:39,608 [INFO] OUT: 8=FIX.4.4|9=277|35=8|49=EXCHANGE|56=MY_COMPANY|34=10|11=4b0c8bc9-8221-4dfe-89bb-2d6882e6f08e|37=4b0c8bc9-8221-4dfe-89bb-2d6882e6f08e|17=35371199-3f7a-4ef4-88c7-4137af372d6e|39=2|150=F|55=OR.PA|54=1|38=7|32=7|31=380.28788703|151=0|14=7|44=380.28788703|6007=my_strategy|52=20250521-09:30:39.608|10=091|
2025-05-21 10:30:39,609 [INFO] OUT: 8=FIX.4.4|9=277|35=8|49=EXCHANGE|56=MY_COMPANY|34=11|11=9747d6cf-59d4-486b-8b96-46ec50cf9ea9|37=9747d6cf-59d4-486b-8b96-46ec50cf9ea9|17=aa957ea7-625e-4c83-a23a-72f4e1a72fe5|39=2|150=F|55=OR.PA|54=2|38=6|32=6|31=380.28788703|151=0|14=6|44=380.28788703|6007=my_strategy|52=20250521-09:30:39.609|10=218|
2025-05-21 10:30:44,620 [INFO] OUT: 8=FIX.4.4|9=279|35=8|49=EXCHANGE|56=MY_COMPANY|34=13|11=670f4e1a-7e92-4adc-b1c5-eb97e5b06f43|37=670f4e1a-7e92-4adc-b1c5-eb97e5b06f43|17=31fb7b22-310a-41be-9af9-008e413d5cd5|39=2|150=F|55=ASML.AS|54=1|38=6|32=6|31=658.68000000|151=0|14=6|44=658.68000000|6007=my_strategy|52=20250521-09:30:44.620|10=100|
2025-05-21 10:30:44,621 [INFO] OUT: 8=FIX.4.4|9=279|35=8|49=EXCHANGE|56=MY_COMPANY|34=14|11=b1533081-410f-4e20-a2a5-8679d77346c6|37=b1533081-410f-4e20-a2a5-8679d77346c6|17=7f3c2c0a-fa77-4f03-a11e-9f59c587df25|39=2|150=F|55=ASML.AS|54=2|38=9|32=9|31=658.68000000|151=0|14=9|44=658.68000000|6007=my_strategy|52=20250521-09:30:44.621|10=015|
2025-05-21 10:30:44,625 [INFO] OUT: 8=FIX.4.4|9=147|35=D|49=MY_COMPANY|56=EXCHANGE|34=55|11=my_strategy-1747819844.62516|55=INGA.AS|54=1|44=18.84474802|38=4|52=20250521-09:30:44.625|6007=my_strategy|10=101|
2025-05-21 10:30:44,625 [INFO] IN: 8=FIX.4.4|9=147|35=D|49=MY_COMPANY|56=EXCHANGE|34=55|11=my_strategy-1747819844.62516|55=INGA.AS|54=1|44=18.84474802|38=4|52=20250521-09:30:44.625|6007=my_strategy|10=101|
2025-05-21 10:30:44,626 [INFO] OUT: 8=FIX.4.4|9=277|35=8|49=EXCHANGE|56=MY_COMPANY|34=56|11=2f33891a-a1bc-4006-9b7a-ad3c54bd4b34|37=2f33891a-a1bc-4006-9b7a-ad3c54bd4b34|17=11684682-5d10-4022-b147-8e5190877e6b|39=2|150=F|55=INGA.AS|54=1|38=3|32=3|31=19.03509901|151=0|14=3|44=19.03509901|6007=my_strategy|52=20250521-09:30:44.626|10=058|
2025-05-21 10:30:44,626 [INFO] OUT: 8=FIX.4.4|9=277|35=8|49=EXCHANGE|56=MY_COMPANY|34=57|11=2f33891a-a1bc-4006-9b7a-ad3c54bd4b34|37=2f33891a-a1bc-4006-9b7a-ad3c54bd4b34|17=a57cfed9-ed7d-48c9-9a97-2b8581e54869|39=2|150=F|55=INGA.AS|54=1|38=1|32=1|31=19.01594901|151=0|14=1|44=19.01594901|6007=my_strategy|52=20250521-09:30:44.626|10=179|
2025-05-21 10:30:44,626 [INFO] OUT: 8=FIX.4.4|9=277|35=8|49=EXCHANGE|56=MY_COMPANY|34=58|11=1af3b123-765c-4d08-9911-2a0810824f64|37=1af3b123-765c-4d08-9911-2a0810824f64|17=73c7a1cf-ba2c-46a0-93f9-cf2dcbb9a036|39=2|150=F|55=INGA.AS|54=2|38=4|32=4|31=19.01594901|151=0|14=4|44=19.01594901|6007=my_strategy|52=20250521-09:30:44.626|10=027|
2025-05-21 10:30:44,627 [INFO] OUT: 8=FIX.4.4|9=275|35=8|49=EXCHANGE|56=MY_COMPANY|34=16|11=b582aef1-3eda-4251-86ff-d701baab5b9a|37=b582aef1-3eda-4251-86ff-d701baab5b9a|17=89b883e7-a1a0-46b1-85c1-c169e22a0d10|39=2|150=F|55=AD.AS|54=1|38=5|32=5|31=37.75638801|151=0|14=5|44=37.75638801|6007=my_strategy|52=20250521-09:30:44.627|10=201|
2025-05-21 10:30:44,628 [INFO] OUT: 8=FIX.4.4|9=275|35=8|49=EXCHANGE|56=MY_COMPANY|34=17|11=c5084ce0-9f56-48b9-a66e-d61d3e648599|37=c5084ce0-9f56-48b9-a66e-d61d3e648599|17=838e59e3-e0f7-4a06-a003-181770c38774|39=2|150=F|55=AD.AS|54=2|38=2|32=2|31=37.75638801|151=0|14=2|44=37.75638801|6007=my_strategy|52=20250521-09:30:44.628|10=091|
2025-05-21 10:30:44,628 [INFO] OUT: 8=FIX.4.4|9=275|35=8|49=EXCHANGE|56=MY_COMPANY|34=18|11=c5084ce0-9f56-48b9-a66e-d61d3e648599|37=c5084ce0-9f56-48b9-a66e-d61d3e648599|17=31ac1f00-c1b3-4447-b9f1-79989bdff6dd|39=2|150=F|55=AD.AS|54=2|38=6|32=6|31=37.73758551|151=0|14=6|44=37.73758551|6007=my_strategy|52=20250521-09:30:44.628|10=142|
2025-05-21 10:30:44,630 [INFO] OUT: 8=FIX.4.4|9=277|35=8|49=EXCHANGE|56=MY_COMPANY|34=12|11=461d5e91-e1cf-4df5-b991-6f49819bbc01|37=461d5e91-e1cf-4df5-b991-6f49819bbc01|17=a8832d9f-7bc3-4da1-b94f-52e7f1f45e45|39=2|150=F|55=OR.PA|54=1|38=5|32=5|31=380.28788703|151=0|14=5|44=380.28788703|6007=my_strategy|52=20250521-09:30:44.630|10=161|
2025-05-21 10:30:44,630 [INFO] OUT: 8=FIX.4.4|9=277|35=8|49=EXCHANGE|56=MY_COMPANY|34=13|11=461d5e91-e1cf-4df5-b991-6f49819bbc01|37=461d5e91-e1cf-4df5-b991-6f49819bbc01|17=8aa05a14-9716-4b9a-8e9e-433984c37473|39=2|150=F|55=OR.PA|54=1|38=1|32=1|31=379.90683704|151=0|14=1|44=379.90683704|6007=my_strategy|52=20250521-09:30:44.630|10=173|
2025-05-21 10:30:44,631 [INFO] OUT: 8=FIX.4.4|9=277|35=8|49=EXCHANGE|56=MY_COMPANY|34=14|11=f327784f-29b4-4d1a-9c1e-3a38e7cec506|37=f327784f-29b4-4d1a-9c1e-3a38e7cec506|17=8f68152a-9068-4117-b67c-4957e2a6fa77|39=2|150=F|55=OR.PA|54=2|38=5|32=5|31=379.90683704|151=0|14=5|44=379.90683704|6007=my_strategy|52=20250521-09:30:44.631|10=186|
2025-05-21 10:30:44,635 [INFO] OUT: 8=FIX.4.4|9=276|35=8|49=EXCHANGE|56=MY_COMPANY|34=15|11=35803f4d-0b7e-49da-90e7-154303f77cc4|37=35803f4d-0b7e-49da-90e7-154303f77cc4|17=a5af6e86-9605-4bb2-975b-12a446dbc4ea|39=2|150=F|55=SAN.PA|54=1|38=7|32=7|31=93.28633629|151=0|14=7|44=93.28633629|6007=my_strategy|52=20250521-09:30:44.635|10=169|
2025-05-21 10:30:44,635 [INFO] OUT: 8=FIX.4.4|9=276|35=8|49=EXCHANGE|56=MY_COMPANY|34=16|11=35803f4d-0b7e-49da-90e7-154303f77cc4|37=35803f4d-0b7e-49da-90e7-154303f77cc4|17=3c46c8ec-b1bf-4c8c-8177-b5bb93e58073|39=2|150=F|55=SAN.PA|54=1|38=3|32=3|31=93.28633629|151=0|14=3|44=93.28633629|6007=my_strategy|52=20250521-09:30:44.635|10=168|
2025-05-21 10:30:44,636 [INFO] OUT: 8=FIX.4.4|9=276|35=8|49=EXCHANGE|56=MY_COMPANY|34=17|11=bba832da-597a-4fc1-9af6-f166b54812f2|37=bba832da-597a-4fc1-9af6-f166b54812f2|17=ee759f4c-662d-4398-9e12-d6bae0cbfeb7|39=2|150=F|55=SAN.PA|54=2|38=6|32=6|31=93.28633629|151=0|14=6|44=93.28633629|6007=my_strategy|52=20250521-09:30:44.636|10=056|
2025-05-21 10:30:44,637 [INFO] OUT: 8=FIX.4.4|9=276|35=8|49=EXCHANGE|56=MY_COMPANY|34=18|11=bba832da-597a-4fc1-9af6-f166b54812f2|37=bba832da-597a-4fc1-9af6-f166b54812f2|17=05b6ebc7-dbea-4792-a77f-be1870f3e124|39=2|150=F|55=SAN.PA|54=2|38=4|32=4|31=93.28633629|151=0|14=4|44=93.28633629|6007=my_strategy|52=20250521-09:30:44.637|10=243|
2025-05-21 10:30:49,651 [INFO] OUT: 8=FIX.4.4|9=279|35=8|49=EXCHANGE|56=MY_COMPANY|34=15|11=103db21e-c036-4551-aeb5-147f17ad05e9|37=103db21e-c036-4551-aeb5-147f17ad05e9|17=77eec24e-1359-4bc7-bdb3-9b9d43b18207|39=2|150=F|55=ASML.AS|54=1|38=7|32=7|31=658.68000000|151=0|14=7|44=658.68000000|6007=my_strategy|52=20250521-09:30:49.651|10=063|
2025-05-21 10:30:49,652 [INFO] OUT: 8=FIX.4.4|9=279|35=8|49=EXCHANGE|56=MY_COMPANY|34=16|11=e70ee161-575b-4a97-8735-83c6fc018b27|37=e70ee161-575b-4a97-8735-83c6fc018b27|17=63f4a5b9-c7e5-4951-885f-1c25f459a7c8|39=2|150=F|55=ASML.AS|54=2|38=4|32=4|31=658.68000000|151=0|14=4|44=658.68000000|6007=my_strategy|52=20250521-09:30:49.652|10=115|
2025-05-21 10:30:49,654 [INFO] OUT: 8=FIX.4.4|9=149|35=D|49=MY_COMPANY|56=EXCHANGE|34=59|11=my_strategy-1747819849.6548212|55=INGA.AS|54=1|44=18.82578952|38=2|52=20250521-09:30:49.654|6007=my_strategy|10=230|
2025-05-21 10:30:49,655 [INFO] IN: 8=FIX.4.4|9=149|35=D|49=MY_COMPANY|56=EXCHANGE|34=59|11=my_strategy-1747819849.6548212|55=INGA.AS|54=1|44=18.82578952|38=2|52=20250521-09:30:49.654|6007=my_strategy|10=230|
2025-05-21 10:30:49,655 [INFO] OUT: 8=FIX.4.4|9=277|35=8|49=EXCHANGE|56=MY_COMPANY|34=60|11=cefcf30e-9ba5-4289-8f73-3921083f6dc3|37=cefcf30e-9ba5-4289-8f73-3921083f6dc3|17=a7f89888-f535-4983-8eb8-efe6942a4800|39=2|150=F|55=INGA.AS|54=1|38=2|32=2|31=19.01594901|151=0|14=2|44=19.01594901|6007=my_strategy|52=20250521-09:30:49.655|10=011|
2025-05-21 10:30:49,655 [INFO] OUT: 8=FIX.4.4|9=277|35=8|49=EXCHANGE|56=MY_COMPANY|34=61|11=abce1aaf-90bf-45ee-9f71-2effce6dd849|37=abce1aaf-90bf-45ee-9f71-2effce6dd849|17=13fe792c-b984-4179-be30-f6a9cf13757a|39=2|150=F|55=INGA.AS|54=2|38=4|32=4|31=19.01594901|151=0|14=4|44=19.01594901|6007=my_strategy|52=20250521-09:30:49.655|10=245|
2025-05-21 10:30:49,657 [INFO] OUT: 8=FIX.4.4|9=275|35=8|49=EXCHANGE|56=MY_COMPANY|34=19|11=0180797b-4cd2-425a-b8c6-5db72a5cef78|37=0180797b-4cd2-425a-b8c6-5db72a5cef78|17=e01628cc-6473-407d-a4f8-8bcd4f9498c3|39=2|150=F|55=AD.AS|54=1|38=3|32=3|31=37.73758551|151=0|14=3|44=37.73758551|6007=my_strategy|52=20250521-09:30:49.656|10=193|
2025-05-21 10:30:49,657 [INFO] OUT: 8=FIX.4.4|9=275|35=8|49=EXCHANGE|56=MY_COMPANY|34=20|11=0180797b-4cd2-425a-b8c6-5db72a5cef78|37=0180797b-4cd2-425a-b8c6-5db72a5cef78|17=86e282cc-2371-45fb-b7b0-62d3ded475e1|39=2|150=F|55=AD.AS|54=1|38=2|32=2|31=37.73754768|151=0|14=2|44=37.73754768|6007=my_strategy|52=20250521-09:30:49.657|10=226|
2025-05-21 10:30:49,658 [INFO] OUT: 8=FIX.4.4|9=275|35=8|49=EXCHANGE|56=MY_COMPANY|34=21|11=3edad9b5-8bee-4935-8d9e-e9e451addb8a|37=3edad9b5-8bee-4935-8d9e-e9e451addb8a|17=98d6bd9e-b2b5-469f-b043-4c79d86c0779|39=2|150=F|55=AD.AS|54=2|38=2|32=2|31=37.73754768|151=0|14=2|44=37.73754768|6007=my_strategy|52=20250521-09:30:49.658|10=212|
2025-05-21 10:30:49,660 [INFO] OUT: 8=FIX.4.4|9=279|35=8|49=EXCHANGE|56=MY_COMPANY|34=19|11=c0535adb-661a-460e-83cd-90e915e2c0e8|37=c0535adb-661a-460e-83cd-90e915e2c0e8|17=0cfcf08a-46b4-4784-87f1-4db7ee972e99|39=2|150=F|55=SAN.PA|54=1|38=10|32=10|31=93.23943601|151=0|14=10|44=93.23943601|6007=my_strategy|52=20250521-09:30:49.660|10=179|
2025-05-21 10:30:49,660 [INFO] OUT: 8=FIX.4.4|9=276|35=8|49=EXCHANGE|56=MY_COMPANY|34=20|11=8830302d-1b69-4883-abf5-26b9a01b26e2|37=8830302d-1b69-4883-abf5-26b9a01b26e2|17=e70c1a14-0aa4-42a6-bd92-c4fbc2f1c155|39=2|150=F|55=SAN.PA|54=2|38=8|32=8|31=93.23943601|151=0|14=8|44=93.23943601|6007=my_strategy|52=20250521-09:30:49.660|10=051|
2025-05-21 10:30:54,668 [INFO] OUT: 8=FIX.4.4|9=282|35=8|49=EXCHANGE|56=MY_COMPANY|34=17|11=fba12edc-1e0a-4d5b-833b-19c1bf47bdb5|37=fba12edc-1e0a-4d5b-833b-19c1bf47bdb5|17=d707a948-1d5e-4db8-97d6-c66d8216df4d|39=2|150=F|55=ASML.AS|54=1|38=10|32=10|31=658.02000000|151=0|14=10|44=658.02000000|6007=my_strategy|52=20250521-09:30:54.668|10=248|
2025-05-21 10:30:54,669 [INFO] OUT: 8=FIX.4.4|9=279|35=8|49=EXCHANGE|56=MY_COMPANY|34=18|11=2d4aef72-0821-4da1-85cf-a4f2c39e1450|37=2d4aef72-0821-4da1-85cf-a4f2c39e1450|17=f7e399a0-e922-4606-850e-17eec33fdddc|39=2|150=F|55=ASML.AS|54=2|38=1|32=1|31=658.02000000|151=0|14=1|44=658.02000000|6007=my_strategy|52=20250521-09:30:54.669|10=198|
2025-05-21 10:30:54,670 [INFO] OUT: 8=FIX.4.4|9=149|35=D|49=MY_COMPANY|56=EXCHANGE|34=62|11=my_strategy-1747819854.6707551|55=INGA.AS|54=1|44=18.82578952|38=5|52=20250521-09:30:54.670|6007=my_strategy|10=220|
2025-05-21 10:30:54,671 [INFO] IN: 8=FIX.4.4|9=149|35=D|49=MY_COMPANY|56=EXCHANGE|34=62|11=my_strategy-1747819854.6707551|55=INGA.AS|54=1|44=18.82578952|38=5|52=20250521-09:30:54.670|6007=my_strategy|10=220|
2025-05-21 10:30:54,671 [INFO] OUT: 8=FIX.4.4|9=277|35=8|49=EXCHANGE|56=MY_COMPANY|34=63|11=b180b5fb-3b03-4b98-aa81-be5486c9e8c0|37=b180b5fb-3b03-4b98-aa81-be5486c9e8c0|17=23b91958-15af-42cc-a0f6-a609a3daac8b|39=2|150=F|55=INGA.AS|54=1|38=5|32=5|31=19.01594901|151=0|14=5|44=19.01594901|6007=my_strategy|52=20250521-09:30:54.671|10=008|
2025-05-21 10:30:54,672 [INFO] OUT: 8=FIX.4.4|9=277|35=8|49=EXCHANGE|56=MY_COMPANY|34=64|11=5db62bb1-1a57-4b92-b949-11544932a1ef|37=5db62bb1-1a57-4b92-b949-11544932a1ef|17=2946e944-13a5-4341-a855-8a4a65709616|39=2|150=F|55=INGA.AS|54=2|38=4|32=4|31=19.01594901|151=0|14=4|44=19.01594901|6007=my_strategy|52=20250521-09:30:54.672|10=068|
2025-05-21 10:30:54,673 [INFO] OUT: 8=FIX.4.4|9=277|35=8|49=EXCHANGE|56=MY_COMPANY|34=65|11=5db62bb1-1a57-4b92-b949-11544932a1ef|37=5db62bb1-1a57-4b92-b949-11544932a1ef|17=19af1ba1-375a-42ad-99a3-d42f459e0111|39=2|150=F|55=INGA.AS|54=2|38=4|32=4|31=18.99679901|151=0|14=4|44=18.99679901|6007=my_strategy|52=20250521-09:30:54.672|10=116|
2025-05-21 10:30:54,676 [INFO] OUT: 8=FIX.4.4|9=275|35=8|49=EXCHANGE|56=MY_COMPANY|34=22|11=d306f12d-c439-4c7e-be79-dc0ffb41d5fd|37=d306f12d-c439-4c7e-be79-dc0ffb41d5fd|17=49ec11cd-24c0-4e0a-9eac-0569419db5a1|39=2|150=F|55=AD.AS|54=1|38=4|32=4|31=37.73754768|151=0|14=4|44=37.73754768|6007=my_strategy|52=20250521-09:30:54.675|10=134|
2025-05-21 10:30:54,676 [INFO] OUT: 8=FIX.4.4|9=275|35=8|49=EXCHANGE|56=MY_COMPANY|34=23|11=d306f12d-c439-4c7e-be79-dc0ffb41d5fd|37=d306f12d-c439-4c7e-be79-dc0ffb41d5fd|17=2e1eb1ea-dfb0-445a-a6b6-5493be3abca2|39=2|150=F|55=AD.AS|54=1|38=1|32=1|31=37.73754768|151=0|14=1|44=37.73754768|6007=my_strategy|52=20250521-09:30:54.676|10=052|
2025-05-21 10:30:54,676 [INFO] OUT: 8=FIX.4.4|9=275|35=8|49=EXCHANGE|56=MY_COMPANY|34=24|11=d306f12d-c439-4c7e-be79-dc0ffb41d5fd|37=d306f12d-c439-4c7e-be79-dc0ffb41d5fd|17=3e8b257a-881d-478b-8871-5417813e74fb|39=2|150=F|55=AD.AS|54=1|38=4|32=4|31=37.71851801|151=0|14=4|44=37.71851801|6007=my_strategy|52=20250521-09:30:54.676|10=159|
2025-05-21 10:30:54,677 [INFO] OUT: 8=FIX.4.4|9=275|35=8|49=EXCHANGE|56=MY_COMPANY|34=25|11=e037df39-2983-43ff-b4c7-2d4b56a0a854|37=e037df39-2983-43ff-b4c7-2d4b56a0a854|17=7726ee08-f289-4f22-96b5-60c88def2058|39=2|150=F|55=AD.AS|54=2|38=8|32=8|31=37.71851801|151=0|14=8|44=37.71851801|6007=my_strategy|52=20250521-09:30:54.677|10=010|
2025-05-21 10:30:59,687 [INFO] OUT: 8=FIX.4.4|9=279|35=8|49=EXCHANGE|56=MY_COMPANY|34=19|11=6ffefa42-699f-41e6-b217-172e08f50150|37=6ffefa42-699f-41e6-b217-172e08f50150|17=494b20c4-d5b6-4bc8-949f-bfb564641204|39=2|150=F|55=ASML.AS|54=1|38=4|32=4|31=658.02000000|151=0|14=4|44=658.02000000|6007=my_strategy|52=20250521-09:30:59.686|10=157|
2025-05-21 10:30:59,687 [INFO] OUT: 8=FIX.4.4|9=282|35=8|49=EXCHANGE|56=MY_COMPANY|34=20|11=49f08aa6-e5c9-4aa2-8c46-712d42fcf6b3|37=49f08aa6-e5c9-4aa2-8c46-712d42fcf6b3|17=3897f3ec-a288-4f4a-9bcc-9aee943c9466|39=2|150=F|55=ASML.AS|54=2|38=10|32=10|31=658.02000000|151=0|14=10|44=658.02000000|6007=my_strategy|52=20250521-09:30:59.687|10=223|
2025-05-21 10:30:59,688 [INFO] HEARBEAT SENT: 8=FIX.4.4|9=62|35=0|49=MY_COMPANY|56=EXCHANGE|34=21|52=20250521-09:30:59.688|10=118|
2025-05-21 10:30:59,691 [INFO] HEARBEAT SENT: 8=FIX.4.4|9=62|35=0|49=MY_COMPANY|56=EXCHANGE|34=35|52=20250521-09:30:59.691|10=117|
2025-05-21 10:30:59,692 [INFO] OUT: 8=FIX.4.4|9=149|35=D|49=MY_COMPANY|56=EXCHANGE|34=66|11=my_strategy-1747819859.691888|55=INGA.AS|54=1|44=18.80683102|38=10|52=20250521-09:30:59.691|6007=my_strategy|10=224|
2025-05-21 10:30:59,692 [INFO] IN: 8=FIX.4.4|9=149|35=D|49=MY_COMPANY|56=EXCHANGE|34=66|11=my_strategy-1747819859.691888|55=INGA.AS|54=1|44=18.80683102|38=10|52=20250521-09:30:59.691|6007=my_strategy|10=224|
2025-05-21 10:30:59,692 [INFO] OUT: 8=FIX.4.4|9=280|35=8|49=EXCHANGE|56=MY_COMPANY|34=67|11=0e92dd31-f026-47ab-99ef-281f40b1038d|37=0e92dd31-f026-47ab-99ef-281f40b1038d|17=0be1697f-9867-42ff-a818-ad5eb863b5bd|39=2|150=F|55=INGA.AS|54=1|38=10|32=10|31=18.99679901|151=0|14=10|44=18.99679901|6007=my_strategy|52=20250521-09:30:59.692|10=231|
2025-05-21 10:30:59,692 [INFO] OUT: 8=FIX.4.4|9=277|35=8|49=EXCHANGE|56=MY_COMPANY|34=68|11=84d3fdac-0209-44e8-a1fa-e6b4f6b80bb9|37=84d3fdac-0209-44e8-a1fa-e6b4f6b80bb9|17=7e9450c9-6568-4c29-b30b-42027f59e174|39=2|150=F|55=INGA.AS|54=2|38=2|32=2|31=18.99679901|151=0|14=2|44=18.99679901|6007=my_strategy|52=20250521-09:30:59.692|10=193|
2025-05-21 10:30:59,693 [INFO] HEARBEAT SENT: 8=FIX.4.4|9=62|35=0|49=MY_COMPANY|56=EXCHANGE|34=69|52=20250521-09:30:59.693|10=126|
2025-05-21 10:30:59,694 [INFO] HEARBEAT SENT: 8=FIX.4.4|9=62|35=0|49=MY_COMPANY|56=EXCHANGE|34=26|52=20250521-09:30:59.694|10=120|
2025-05-21 10:30:59,696 [INFO] HEARBEAT SENT: 8=FIX.4.4|9=62|35=0|49=MY_COMPANY|56=EXCHANGE|34=15|52=20250521-09:30:59.696|10=120|
2025-05-21 10:30:59,698 [INFO] HEARBEAT SENT: 8=FIX.4.4|9=62|35=0|49=MY_COMPANY|56=EXCHANGE|34=21|52=20250521-09:30:59.698|10=119|
2025-05-21 10:31:04,706 [INFO] OUT: 8=FIX.4.4|9=279|35=8|49=EXCHANGE|56=MY_COMPANY|34=22|11=f397df9c-663b-4f19-800b-0d92ba5f5263|37=f397df9c-663b-4f19-800b-0d92ba5f5263|17=ee87a786-d23c-4f05-9654-a208eb6423ab|39=2|150=F|55=ASML.AS|54=1|38=8|32=8|31=658.02000000|151=0|14=8|44=658.02000000|6007=my_strategy|52=20250521-09:31:04.706|10=047|
2025-05-21 10:31:04,706 [INFO] OUT: 8=FIX.4.4|9=279|35=8|49=EXCHANGE|56=MY_COMPANY|34=23|11=a3c3cda5-c5ae-4d89-84fa-0b2cf2be9448|37=a3c3cda5-c5ae-4d89-84fa-0b2cf2be9448|17=4215b879-cefd-45d2-a32e-41260ce1ab17|39=2|150=F|55=ASML.AS|54=2|38=5|32=5|31=658.02000000|151=0|14=5|44=658.02000000|6007=my_strategy|52=20250521-09:31:04.706|10=015|
2025-05-21 10:31:04,710 [INFO] OUT: 8=FIX.4.4|9=148|35=D|49=MY_COMPANY|56=EXCHANGE|34=70|11=my_strategy-1747819864.710026|55=INGA.AS|54=1|44=18.78787252|38=5|52=20250521-09:31:04.710|6007=my_strategy|10=147|
2025-05-21 10:31:04,710 [INFO] IN: 8=FIX.4.4|9=148|35=D|49=MY_COMPANY|56=EXCHANGE|34=70|11=my_strategy-1747819864.710026|55=INGA.AS|54=1|44=18.78787252|38=5|52=20250521-09:31:04.710|6007=my_strategy|10=147|
2025-05-21 10:31:04,710 [INFO] OUT: 8=FIX.4.4|9=277|35=8|49=EXCHANGE|56=MY_COMPANY|34=71|11=a5bacf12-b274-4d63-a522-e5be57e18e81|37=a5bacf12-b274-4d63-a522-e5be57e18e81|17=bd808040-7862-4618-91f0-60c8adc20833|39=2|150=F|55=INGA.AS|54=1|38=5|32=5|31=18.97764901|151=0|14=5|44=18.97764901|6007=my_strategy|52=20250521-09:31:04.710|10=196|
2025-05-21 10:31:04,711 [INFO] OUT: 8=FIX.4.4|9=277|35=8|49=EXCHANGE|56=MY_COMPANY|34=72|11=45743a0f-4d73-45f9-9e1e-2f91388c00c5|37=45743a0f-4d73-45f9-9e1e-2f91388c00c5|17=8b2281aa-b95b-453b-9a44-224dfc13119c|39=2|150=F|55=INGA.AS|54=2|38=6|32=6|31=18.97764901|151=0|14=6|44=18.97764901|6007=my_strategy|52=20250521-09:31:04.711|10=039|
2025-05-21 10:31:09,725 [INFO] OUT: 8=FIX.4.4|9=279|35=8|49=EXCHANGE|56=MY_COMPANY|34=24|11=3ab7a395-e96c-4f68-b34b-5a42b1f51a3f|37=3ab7a395-e96c-4f68-b34b-5a42b1f51a3f|17=7c9d2629-1555-4e6b-ac4d-0ca787a6b326|39=2|150=F|55=ASML.AS|54=1|38=1|32=1|31=658.02000000|151=0|14=1|44=658.02000000|6007=my_strategy|52=20250521-09:31:09.725|10=199|
2025-05-21 10:31:09,726 [INFO] OUT: 8=FIX.4.4|9=279|35=8|49=EXCHANGE|56=MY_COMPANY|34=25|11=a6735545-ed9e-43f4-8000-a34685b1241c|37=a6735545-ed9e-43f4-8000-a34685b1241c|17=619eb895-b3e6-4f2b-a8df-8334ac93552b|39=2|150=F|55=ASML.AS|54=2|38=1|32=1|31=658.02000000|151=0|14=1|44=658.02000000|6007=my_strategy|52=20250521-09:31:09.726|10=031|
2025-05-21 10:31:09,727 [INFO] OUT: 8=FIX.4.4|9=277|35=8|49=EXCHANGE|56=MY_COMPANY|34=36|11=694a91d3-59a6-42ba-9681-0e421a645330|37=694a91d3-59a6-42ba-9681-0e421a645330|17=cd5335f3-c137-407c-a8d9-6667f7bbb31a|39=2|150=F|55=PHIA.AS|54=1|38=5|32=5|31=21.20201901|151=0|14=5|44=21.20201901|6007=my_strategy|52=20250521-09:31:09.727|10=081|
2025-05-21 10:31:09,728 [INFO] OUT: 8=FIX.4.4|9=277|35=8|49=EXCHANGE|56=MY_COMPANY|34=37|11=8c78300f-0a3b-43d0-a349-e2d1f005585e|37=8c78300f-0a3b-43d0-a349-e2d1f005585e|17=01645e89-50dd-43e0-aedf-64d4338107eb|39=2|150=F|55=PHIA.AS|54=2|38=1|32=1|31=21.20201901|151=0|14=1|44=21.20201901|6007=my_strategy|52=20250521-09:31:09.727|10=030|
2025-05-21 10:31:09,730 [INFO] OUT: 8=FIX.4.4|9=277|35=8|49=EXCHANGE|56=MY_COMPANY|34=73|11=518739bb-8a82-4a0e-852f-cf1c9a728b40|37=518739bb-8a82-4a0e-852f-cf1c9a728b40|17=ec990ca2-ff9b-4b0e-a2f6-2585d47f40bb|39=2|150=F|55=INGA.AS|54=1|38=7|32=7|31=18.95849901|151=0|14=7|44=18.95849901|6007=my_strategy|52=20250521-09:31:09.730|10=182|
2025-05-21 10:31:09,730 [INFO] OUT: 8=FIX.4.4|9=277|35=8|49=EXCHANGE|56=MY_COMPANY|34=74|11=69c60441-37dd-428f-8c17-ec27de94b78c|37=69c60441-37dd-428f-8c17-ec27de94b78c|17=009d853e-c656-4ca8-9e54-7a184ec62a3e|39=2|150=F|55=INGA.AS|54=2|38=1|32=1|31=18.95849901|151=0|14=1|44=18.95849901|6007=my_strategy|52=20250521-09:31:09.730|10=015|
2025-05-21 10:31:09,736 [INFO] OUT: 8=FIX.4.4|9=261|35=8|49=EXCHANGE|56=MY_COMPANY|34=75|11=my_strategy-1747819814.49861|37=my_strategy-1747819814.49861|17=0c6aa4e4-4362-463e-923d-5fcd36f59d76|39=2|150=F|55=INGA.AS|54=2|38=9|32=9|31=18.90162351|151=0|14=9|44=18.90162351|6007=my_strategy|52=20250521-09:31:09.736|10=179|
2025-05-21 10:31:09,736 [INFO] OUT: 8=FIX.4.4|9=277|35=8|49=EXCHANGE|56=MY_COMPANY|34=76|11=69c60441-37dd-428f-8c17-ec27de94b78c|37=69c60441-37dd-428f-8c17-ec27de94b78c|17=89fce4a9-64b3-4e8a-ac1c-776c2d493b08|39=2|150=F|55=INGA.AS|54=2|38=9|32=9|31=18.90162351|151=0|14=9|44=18.90162351|6007=my_strategy|52=20250521-09:31:09.736|10=109|
2025-05-21 10:31:09,745 [INFO] OUT: 8=FIX.4.4|9=261|35=8|49=EXCHANGE|56=MY_COMPANY|34=77|11=my_strategy-1747819814.49861|37=my_strategy-1747819814.49861|17=2b612dbd-398e-4e91-8048-87e9e61cfe6a|39=2|150=F|55=INGA.AS|54=2|38=1|32=1|31=18.90162351|151=0|14=1|44=18.90162351|6007=my_strategy|52=20250521-09:31:09.745|10=215|
2025-05-21 10:31:09,746 [INFO] OUT: 8=FIX.4.4|9=265|35=8|49=EXCHANGE|56=MY_COMPANY|34=78|11=my_strategy-1747819819.5125241|37=my_strategy-1747819819.5125241|17=d6d01caa-d604-4de9-a8b2-f85dd4091cfc|39=2|150=F|55=INGA.AS|54=2|38=2|32=2|31=18.88266501|151=0|14=2|44=18.88266501|6007=my_strategy|52=20250521-09:31:09.746|10=081|
2025-05-21 10:31:14,764 [INFO] OUT: 8=FIX.4.4|9=279|35=8|49=EXCHANGE|56=MY_COMPANY|34=26|11=8210018a-b6c3-4430-89d5-d84674b2b7f9|37=8210018a-b6c3-4430-89d5-d84674b2b7f9|17=4f060df9-ff3f-405b-b84a-e05754f277b3|39=2|150=F|55=ASML.AS|54=1|38=1|32=1|31=658.02000000|151=0|14=1|44=658.02000000|6007=my_strategy|52=20250521-09:31:14.764|10=040|
2025-05-21 10:31:14,764 [INFO] OUT: 8=FIX.4.4|9=279|35=8|49=EXCHANGE|56=MY_COMPANY|34=27|11=8210018a-b6c3-4430-89d5-d84674b2b7f9|37=8210018a-b6c3-4430-89d5-d84674b2b7f9|17=1ca748f7-42dc-4eca-8c1e-fc01204f78ba|39=2|150=F|55=ASML.AS|54=1|38=4|32=4|31=657.36000000|151=0|14=4|44=657.36000000|6007=my_strategy|52=20250521-09:31:14.764|10=191|
2025-05-21 10:31:14,764 [INFO] OUT: 8=FIX.4.4|9=279|35=8|49=EXCHANGE|56=MY_COMPANY|34=28|11=46e1234f-32b0-4386-9ed9-4379ef317106|37=46e1234f-32b0-4386-9ed9-4379ef317106|17=df6262fd-312e-4097-9d7e-015311f40f72|39=2|150=F|55=ASML.AS|54=2|38=5|32=5|31=657.36000000|151=0|14=5|44=657.36000000|6007=my_strategy|52=20250521-09:31:14.764|10=086|
2025-05-21 10:31:14,765 [INFO] OUT: 8=FIX.4.4|9=277|35=8|49=EXCHANGE|56=MY_COMPANY|34=38|11=264d45b6-4a2b-4cf6-b562-617617ca17d0|37=264d45b6-4a2b-4cf6-b562-617617ca17d0|17=32fa26da-b7a6-49e3-befc-2f45af7b653d|39=2|150=F|55=PHIA.AS|54=1|38=5|32=5|31=21.20201901|151=0|14=5|44=21.20201901|6007=my_strategy|52=20250521-09:31:14.765|10=037|
2025-05-21 10:31:14,765 [INFO] OUT: 8=FIX.4.4|9=277|35=8|49=EXCHANGE|56=MY_COMPANY|34=39|11=264d45b6-4a2b-4cf6-b562-617617ca17d0|37=264d45b6-4a2b-4cf6-b562-617617ca17d0|17=08b7d13b-10a6-4b4e-a301-60868957d1be|39=2|150=F|55=PHIA.AS|54=1|38=5|32=5|31=21.18068901|151=0|14=5|44=21.18068901|6007=my_strategy|52=20250521-09:31:14.765|10=029|
2025-05-21 10:31:14,766 [INFO] OUT: 8=FIX.4.4|9=277|35=8|49=EXCHANGE|56=MY_COMPANY|34=40|11=5605804a-1b26-40d6-94e8-4219d58a675c|37=5605804a-1b26-40d6-94e8-4219d58a675c|17=ea2069e4-5939-45c7-b8f3-a4fef6f1f220|39=2|150=F|55=PHIA.AS|54=2|38=4|32=4|31=21.18068901|151=0|14=4|44=21.18068901|6007=my_strategy|52=20250521-09:31:14.766|10=139|
2025-05-21 10:31:14,767 [INFO] OUT: 8=FIX.4.4|9=148|35=D|49=MY_COMPANY|56=EXCHANGE|34=79|11=my_strategy-1747819874.767575|55=INGA.AS|54=1|44=18.69383836|38=6|52=20250521-09:31:14.767|6007=my_strategy|10=192|
2025-05-21 10:31:14,767 [INFO] IN: 8=FIX.4.4|9=148|35=D|49=MY_COMPANY|56=EXCHANGE|34=79|11=my_strategy-1747819874.767575|55=INGA.AS|54=1|44=18.69383836|38=6|52=20250521-09:31:14.767|6007=my_strategy|10=192|
2025-05-21 10:31:14,768 [INFO] OUT: 8=FIX.4.4|9=265|35=8|49=EXCHANGE|56=MY_COMPANY|34=80|11=my_strategy-1747819819.5125241|37=my_strategy-1747819819.5125241|17=889e403e-3660-4f95-95e8-c053074f17a4|39=2|150=F|55=INGA.AS|54=1|38=2|32=2|31=18.88266501|151=0|14=2|44=18.88266501|6007=my_strategy|52=20250521-09:31:14.768|10=180|
2025-05-21 10:31:14,768 [INFO] OUT: 8=FIX.4.4|9=277|35=8|49=EXCHANGE|56=MY_COMPANY|34=81|11=0f2b0da8-06e9-494a-9fd5-0080c9fc8e67|37=0f2b0da8-06e9-494a-9fd5-0080c9fc8e67|17=eb8c73b3-3d1b-4145-9393-3f9960e1bec4|39=2|150=F|55=INGA.AS|54=1|38=2|32=2|31=18.88266501|151=0|14=2|44=18.88266501|6007=my_strategy|52=20250521-09:31:14.768|10=077|
2025-05-21 10:31:14,768 [INFO] OUT: 8=FIX.4.4|9=265|35=8|49=EXCHANGE|56=MY_COMPANY|34=82|11=my_strategy-1747819824.5281658|37=my_strategy-1747819824.5281658|17=b28f083e-743c-447b-8237-b0e4c1faa410|39=2|150=F|55=INGA.AS|54=1|38=3|32=3|31=18.88266501|151=0|14=3|44=18.88266501|6007=my_strategy|52=20250521-09:31:14.768|10=110|
2025-05-21 10:31:14,769 [INFO] OUT: 8=FIX.4.4|9=277|35=8|49=EXCHANGE|56=MY_COMPANY|34=83|11=0f2b0da8-06e9-494a-9fd5-0080c9fc8e67|37=0f2b0da8-06e9-494a-9fd5-0080c9fc8e67|17=0e52f5c6-868b-476d-a055-48685630cba3|39=2|150=F|55=INGA.AS|54=1|38=3|32=3|31=18.88266501|151=0|14=3|44=18.88266501|6007=my_strategy|52=20250521-09:31:14.769|10=246|
2025-05-21 10:31:14,769 [INFO] OUT: 8=FIX.4.4|9=263|35=8|49=EXCHANGE|56=MY_COMPANY|34=84|11=my_strategy-1747819829.561034|37=my_strategy-1747819829.561034|17=1adaa60b-c6e9-44d9-90ae-00df4dad4fed|39=2|150=F|55=INGA.AS|54=1|38=1|32=1|31=18.86370651|151=0|14=1|44=18.86370651|6007=my_strategy|52=20250521-09:31:14.769|10=068|
2025-05-21 10:31:14,769 [INFO] OUT: 8=FIX.4.4|9=277|35=8|49=EXCHANGE|56=MY_COMPANY|34=85|11=0f2b0da8-06e9-494a-9fd5-0080c9fc8e67|37=0f2b0da8-06e9-494a-9fd5-0080c9fc8e67|17=6461e6e6-e157-4d79-99c5-3b005ebb24bf|39=2|150=F|55=INGA.AS|54=1|38=1|32=1|31=18.86370651|151=0|14=1|44=18.86370651|6007=my_strategy|52=20250521-09:31:14.769|10=085|
2025-05-21 10:31:14,770 [INFO] OUT: 8=FIX.4.4|9=263|35=8|49=EXCHANGE|56=MY_COMPANY|34=86|11=my_strategy-1747819829.561034|37=my_strategy-1747819829.561034|17=59ce5ce2-f870-4f5a-ae98-68eeb0810fa3|39=2|150=F|55=INGA.AS|54=2|38=2|32=2|31=18.86370651|151=0|14=2|44=18.86370651|6007=my_strategy|52=20250521-09:31:14.770|10=155|
2025-05-21 10:31:14,770 [INFO] OUT: 8=FIX.4.4|9=277|35=8|49=EXCHANGE|56=MY_COMPANY|34=87|11=b53c873d-b009-4612-83ec-0d8febf810cf|37=b53c873d-b009-4612-83ec-0d8febf810cf|17=0327708c-a1ad-40df-a23e-062c7fc53fa0|39=2|150=F|55=INGA.AS|54=2|38=2|32=2|31=18.86370651|151=0|14=2|44=18.86370651|6007=my_strategy|52=20250521-09:31:14.770|10=213|
2025-05-21 10:31:14,772 [INFO] OUT: 8=FIX.4.4|9=263|35=8|49=EXCHANGE|56=MY_COMPANY|34=88|11=my_strategy-1747819834.583508|37=my_strategy-1747819834.583508|17=114e3207-2ddc-4784-9b4c-e66cebb1ee9e|39=2|150=F|55=INGA.AS|54=2|38=6|32=6|31=18.86370651|151=0|14=6|44=18.86370651|6007=my_strategy|52=20250521-09:31:14.772|10=172|
2025-05-21 10:31:19,791 [INFO] OUT: 8=FIX.4.4|9=279|35=8|49=EXCHANGE|56=MY_COMPANY|34=29|11=47f05f56-21d2-4207-bfef-9a52be72fe83|37=47f05f56-21d2-4207-bfef-9a52be72fe83|17=63863065-6cf7-4f27-ad15-2fe2735d210a|39=2|150=F|55=ASML.AS|54=1|38=4|32=4|31=657.36000000|151=0|14=4|44=657.36000000|6007=my_strategy|52=20250521-09:31:19.791|10=049|
2025-05-21 10:31:19,792 [INFO] OUT: 8=FIX.4.4|9=279|35=8|49=EXCHANGE|56=MY_COMPANY|34=30|11=39cd2ddb-c617-4e19-b961-7b4a4d59c07d|37=39cd2ddb-c617-4e19-b961-7b4a4d59c07d|17=2097ab2c-d686-467a-8d03-78b34ba3c471|39=2|150=F|55=ASML.AS|54=2|38=5|32=5|31=657.36000000|151=0|14=5|44=657.36000000|6007=my_strategy|52=20250521-09:31:19.792|10=191|
2025-05-21 10:31:19,795 [INFO] OUT: 8=FIX.4.4|9=263|35=8|49=EXCHANGE|56=MY_COMPANY|34=89|11=my_strategy-1747819834.583508|37=my_strategy-1747819834.583508|17=a61824bc-3888-4bfe-b93a-e54ab9ce6c90|39=2|150=F|55=INGA.AS|54=1|38=1|32=1|31=18.86370651|151=0|14=1|44=18.86370651|6007=my_strategy|52=20250521-09:31:19.795|10=174|
2025-05-21 10:31:19,795 [INFO] OUT: 8=FIX.4.4|9=277|35=8|49=EXCHANGE|56=MY_COMPANY|34=90|11=00f71cf5-2fe6-46ff-98ab-3d5420876a43|37=00f71cf5-2fe6-46ff-98ab-3d5420876a43|17=7a2f2aab-61f3-4f94-8668-c02bf845562d|39=2|150=F|55=INGA.AS|54=1|38=1|32=1|31=18.86370651|151=0|14=1|44=18.86370651|6007=my_strategy|52=20250521-09:31:19.795|10=233|
2025-05-21 10:31:19,795 [INFO] OUT: 8=FIX.4.4|9=265|35=8|49=EXCHANGE|56=MY_COMPANY|34=91|11=my_strategy-1747819839.6047978|37=my_strategy-1747819839.6047978|17=732a8081-d470-4ac2-a4ff-9173ddf07a26|39=2|150=F|55=INGA.AS|54=1|38=7|32=7|31=18.84474802|151=0|14=7|44=18.84474802|6007=my_strategy|52=20250521-09:31:19.795|10=159|
2025-05-21 10:31:19,795 [INFO] OUT: 8=FIX.4.4|9=277|35=8|49=EXCHANGE|56=MY_COMPANY|34=92|11=00f71cf5-2fe6-46ff-98ab-3d5420876a43|37=00f71cf5-2fe6-46ff-98ab-3d5420876a43|17=f1591771-953d-4805-8a0a-3016c8236737|39=2|150=F|55=INGA.AS|54=1|38=7|32=7|31=18.84474802|151=0|14=7|44=18.84474802|6007=my_strategy|52=20250521-09:31:19.795|10=221|
2025-05-21 10:31:19,796 [INFO] OUT: 8=FIX.4.4|9=265|35=8|49=EXCHANGE|56=MY_COMPANY|34=93|11=my_strategy-1747819839.6047978|37=my_strategy-1747819839.6047978|17=17e26027-6974-4cdb-b487-fbf2a8f84452|39=2|150=F|55=INGA.AS|54=2|38=1|32=1|31=18.84474802|151=0|14=1|44=18.84474802|6007=my_strategy|52=20250521-09:31:19.796|10=119|
2025-05-21 10:31:19,796 [INFO] OUT: 8=FIX.4.4|9=277|35=8|49=EXCHANGE|56=MY_COMPANY|34=94|11=fd02c9c7-7c3e-4bb4-813d-30d944fa602b|37=fd02c9c7-7c3e-4bb4-813d-30d944fa602b|17=ff2879db-bbc3-41d5-8d72-48af431c488f|39=2|150=F|55=INGA.AS|54=2|38=1|32=1|31=18.84474802|151=0|14=1|44=18.84474802|6007=my_strategy|52=20250521-09:31:19.796|10=252|
2025-05-21 10:31:19,797 [INFO] OUT: 8=FIX.4.4|9=265|35=8|49=EXCHANGE|56=MY_COMPANY|34=95|11=my_strategy-1747819839.6047978|37=my_strategy-1747819839.6047978|17=a11af6c0-d970-4b40-b960-f9e3a65f5d28|39=2|150=F|55=INGA.AS|54=2|38=2|32=2|31=18.84474802|151=0|14=2|44=18.84474802|6007=my_strategy|52=20250521-09:31:19.797|10=203|
2025-05-21 10:31:19,797 [INFO] OUT: 8=FIX.4.4|9=261|35=8|49=EXCHANGE|56=MY_COMPANY|34=96|11=my_strategy-1747819844.62516|37=my_strategy-1747819844.62516|17=3982c981-d841-4a9c-9337-d1fe368cefb1|39=2|150=F|55=INGA.AS|54=2|38=1|32=1|31=18.84474802|151=0|14=1|44=18.84474802|6007=my_strategy|52=20250521-09:31:19.797|10=186|
2025-05-21 10:31:24,809 [INFO] OUT: 8=FIX.4.4|9=279|35=8|49=EXCHANGE|56=MY_COMPANY|34=31|11=89c03c2f-9c4a-4164-a68e-14f14a2b89dd|37=89c03c2f-9c4a-4164-a68e-14f14a2b89dd|17=324fd59f-7d65-4e56-ac34-4e82cd284a6d|39=2|150=F|55=ASML.AS|54=1|38=6|32=6|31=657.36000000|151=0|14=6|44=657.36000000|6007=my_strategy|52=20250521-09:31:24.809|10=198|
2025-05-21 10:31:24,810 [INFO] OUT: 8=FIX.4.4|9=282|35=8|49=EXCHANGE|56=MY_COMPANY|34=32|11=aea44543-df71-45b1-8042-524f9ab514e8|37=aea44543-df71-45b1-8042-524f9ab514e8|17=87084fda-86e5-495f-a8c9-e7ad973a10f7|39=2|150=F|55=ASML.AS|54=2|38=10|32=10|31=657.36000000|151=0|14=10|44=657.36000000|6007=my_strategy|52=20250521-09:31:24.810|10=120|
2025-05-21 10:31:24,814 [INFO] OUT: 8=FIX.4.4|9=261|35=8|49=EXCHANGE|56=MY_COMPANY|34=97|11=my_strategy-1747819844.62516|37=my_strategy-1747819844.62516|17=33636532-807a-42b1-927e-38a64abd03c1|39=2|150=F|55=INGA.AS|54=1|38=3|32=3|31=18.84474802|151=0|14=3|44=18.84474802|6007=my_strategy|52=20250521-09:31:24.814|10=000|
2025-05-21 10:31:24,814 [INFO] OUT: 8=FIX.4.4|9=277|35=8|49=EXCHANGE|56=MY_COMPANY|34=98|11=be175866-8fba-45c3-90c1-ccb8b36b2cab|37=be175866-8fba-45c3-90c1-ccb8b36b2cab|17=4cfab648-13de-49d3-8a34-b3c570df8634|39=2|150=F|55=INGA.AS|54=1|38=3|32=3|31=18.84474802|151=0|14=3|44=18.84474802|6007=my_strategy|52=20250521-09:31:24.814|10=127|
2025-05-21 10:31:24,814 [INFO] OUT: 8=FIX.4.4|9=265|35=8|49=EXCHANGE|56=MY_COMPANY|34=99|11=my_strategy-1747819849.6548212|37=my_strategy-1747819849.6548212|17=251ff593-05c1-4611-87bc-a64cc7216bf5|39=2|150=F|55=INGA.AS|54=1|38=2|32=2|31=18.82578952|151=0|14=2|44=18.82578952|6007=my_strategy|52=20250521-09:31:24.814|10=088|
2025-05-21 10:31:24,814 [INFO] OUT: 8=FIX.4.4|9=278|35=8|49=EXCHANGE|56=MY_COMPANY|34=100|11=be175866-8fba-45c3-90c1-ccb8b36b2cab|37=be175866-8fba-45c3-90c1-ccb8b36b2cab|17=b7dee20a-7c4f-4113-a2f9-43396b7b07ed|39=2|150=F|55=INGA.AS|54=1|38=2|32=2|31=18.82578952|151=0|14=2|44=18.82578952|6007=my_strategy|52=20250521-09:31:24.814|10=214|
2025-05-21 10:31:24,815 [INFO] OUT: 8=FIX.4.4|9=266|35=8|49=EXCHANGE|56=MY_COMPANY|34=101|11=my_strategy-1747819854.6707551|37=my_strategy-1747819854.6707551|17=f5413bde-2b61-48fe-be46-a911d0fe15c7|39=2|150=F|55=INGA.AS|54=2|38=5|32=5|31=18.82578952|151=0|14=5|44=18.82578952|6007=my_strategy|52=20250521-09:31:24.815|10=066|
2025-05-21 10:31:24,815 [INFO] OUT: 8=FIX.4.4|9=278|35=8|49=EXCHANGE|56=MY_COMPANY|34=102|11=1b36100a-98e3-46b5-a71f-7b5b59ab42fe|37=1b36100a-98e3-46b5-a71f-7b5b59ab42fe|17=6fc654b3-19ec-43ba-aec9-41777cae0e69|39=2|150=F|55=INGA.AS|54=2|38=5|32=5|31=18.82578952|151=0|14=5|44=18.82578952|6007=my_strategy|52=20250521-09:31:24.815|10=252|
2025-05-21 10:31:24,815 [INFO] OUT: 8=FIX.4.4|9=264|35=8|49=EXCHANGE|56=MY_COMPANY|34=103|11=my_strategy-1747819859.691888|37=my_strategy-1747819859.691888|17=b7892327-d19e-40d8-bfbb-ea02f1532f3b|39=2|150=F|55=INGA.AS|54=2|38=5|32=5|31=18.80683102|151=0|14=5|44=18.80683102|6007=my_strategy|52=20250521-09:31:24.815|10=169|
2025-05-21 10:31:24,815 [INFO] OUT: 8=FIX.4.4|9=278|35=8|49=EXCHANGE|56=MY_COMPANY|34=104|11=1b36100a-98e3-46b5-a71f-7b5b59ab42fe|37=1b36100a-98e3-46b5-a71f-7b5b59ab42fe|17=af15b469-f042-4910-8140-84e59d50c4a3|39=2|150=F|55=INGA.AS|54=2|38=5|32=5|31=18.80683102|151=0|14=5|44=18.80683102|6007=my_strategy|52=20250521-09:31:24.815|10=174|
2025-05-21 10:31:24,816 [INFO] OUT: 8=FIX.4.4|9=264|35=8|49=EXCHANGE|56=MY_COMPANY|34=105|11=my_strategy-1747819859.691888|37=my_strategy-1747819859.691888|17=2d907209-c68a-415e-986f-fd975ab66ff0|39=2|150=F|55=INGA.AS|54=1|38=5|32=5|31=18.80683102|151=0|14=5|44=18.80683102|6007=my_strategy|52=20250521-09:31:24.816|10=105|
2025-05-21 10:31:24,817 [INFO] OUT: 8=FIX.4.4|9=264|35=8|49=EXCHANGE|56=MY_COMPANY|34=106|11=my_strategy-1747819864.710026|37=my_strategy-1747819864.710026|17=dd564766-ff2c-4f73-97f3-68ddc061e46c|39=2|150=F|55=INGA.AS|54=1|38=4|32=4|31=18.78787252|151=0|14=4|44=18.78787252|6007=my_strategy|52=20250521-09:31:24.817|10=133|
2025-05-21 10:31:24,818 [INFO] OUT: 8=FIX.4.4|9=264|35=8|49=EXCHANGE|56=MY_COMPANY|34=107|11=my_strategy-1747819864.710026|37=my_strategy-1747819864.710026|17=a938dbb5-aa5a-4a20-bcc7-6730cf9af4d4|39=2|150=F|55=INGA.AS|54=2|38=1|32=1|31=18.78787252|151=0|14=1|44=18.78787252|6007=my_strategy|52=20250521-09:31:24.818|10=026|
2025-05-21 10:31:24,837 [INFO] OUT: 8=FIX.4.4|9=264|35=8|49=EXCHANGE|56=MY_COMPANY|34=108|11=my_strategy-1747819874.767575|37=my_strategy-1747819874.767575|17=2d3001eb-7ca4-4c00-86e6-2cd0c0cf417e|39=2|150=F|55=INGA.AS|54=1|38=6|32=6|31=18.69383836|151=0|14=6|44=18.69383836|6007=my_strategy|52=20250521-09:31:24.837|10=183|
2025-05-21 10:31:29,854 [INFO] OUT: 8=FIX.4.4|9=279|35=8|49=EXCHANGE|56=MY_COMPANY|34=33|11=a16528d6-5b00-4d25-846b-da29821be4c5|37=a16528d6-5b00-4d25-846b-da29821be4c5|17=5b37ce9d-ec93-4de4-b850-d3ea7b5b4b91|39=2|150=F|55=ASML.AS|54=1|38=7|32=7|31=659.34000000|151=0|14=7|44=659.34000000|6007=my_strategy|52=20250521-09:31:29.854|10=130|
2025-05-21 10:31:29,855 [INFO] OUT: 8=FIX.4.4|9=279|35=8|49=EXCHANGE|56=MY_COMPANY|34=34|11=34f45ba2-a6cc-40b1-a1df-7e5895de7bad|37=34f45ba2-a6cc-40b1-a1df-7e5895de7bad|17=8e526dd1-e1b2-400b-b615-02c7da42a518|39=2|150=F|55=ASML.AS|54=2|38=6|32=6|31=659.34000000|151=0|14=6|44=659.34000000|6007=my_strategy|52=20250521-09:31:29.855|10=226|
2025-05-21 10:31:29,856 [INFO] HEARBEAT SENT: 8=FIX.4.4|9=62|35=0|49=MY_COMPANY|56=EXCHANGE|34=35|52=20250521-09:31:29.856|10=118|
2025-05-21 10:31:29,866 [INFO] HEARBEAT SENT: 8=FIX.4.4|9=62|35=0|49=MY_COMPANY|56=EXCHANGE|34=41|52=20250521-09:31:29.866|10=116|
2025-05-21 10:31:29,871 [INFO] OUT: 8=FIX.4.4|9=278|35=8|49=EXCHANGE|56=MY_COMPANY|34=109|11=0802b457-626d-4dff-8cdb-ea3c484fec5e|37=0802b457-626d-4dff-8cdb-ea3c484fec5e|17=f3edfe84-444a-415c-b25d-b42e45a7b9b8|39=2|150=F|55=INGA.AS|54=1|38=7|32=7|31=19.13084900|151=0|14=7|44=19.13084900|6007=my_strategy|52=20250521-09:31:29.871|10=030|
2025-05-21 10:31:29,873 [INFO] OUT: 8=FIX.4.4|9=281|35=8|49=EXCHANGE|56=MY_COMPANY|34=110|11=18544976-d0de-467a-a67e-d3fc39051fa7|37=18544976-d0de-467a-a67e-d3fc39051fa7|17=a924837d-00cf-469e-ad76-e53d7cbea2a6|39=2|150=F|55=INGA.AS|54=2|38=10|32=10|31=19.13084900|151=0|14=10|44=19.13084900|6007=my_strategy|52=20250521-09:31:29.873|10=033|
2025-05-21 10:31:29,878 [INFO] HEARBEAT SENT: 8=FIX.4.4|9=63|35=0|49=MY_COMPANY|56=EXCHANGE|34=111|52=20250521-09:31:29.878|10=166|
2025-05-21 10:31:29,881 [INFO] HEARBEAT SENT: 8=FIX.4.4|9=62|35=0|49=MY_COMPANY|56=EXCHANGE|34=27|52=20250521-09:31:29.881|10=117|
2025-05-21 10:31:29,885 [INFO] HEARBEAT SENT: 8=FIX.4.4|9=62|35=0|49=MY_COMPANY|56=EXCHANGE|34=16|52=20250521-09:31:29.885|10=119|
2025-05-21 10:31:29,890 [INFO] HEARBEAT SENT: 8=FIX.4.4|9=62|35=0|49=MY_COMPANY|56=EXCHANGE|34=22|52=20250521-09:31:29.890|10=112|
2025-05-21 10:31:34,898 [INFO] OUT: 8=FIX.4.4|9=279|35=8|49=EXCHANGE|56=MY_COMPANY|34=36|11=0fa20bd6-c9c9-4be4-8fe8-f376ae50ac49|37=0fa20bd6-c9c9-4be4-8fe8-f376ae50ac49|17=7b7a9422-70cf-4528-ba3f-def9c94277c7|39=2|150=F|55=ASML.AS|54=1|38=4|32=4|31=659.34000000|151=0|14=4|44=659.34000000|6007=my_strategy|52=20250521-09:31:34.898|10=252|
2025-05-21 10:31:34,898 [INFO] OUT: 8=FIX.4.4|9=279|35=8|49=EXCHANGE|56=MY_COMPANY|34=37|11=615c0191-4412-4e37-abb5-74ec3f3ee85d|37=615c0191-4412-4e37-abb5-74ec3f3ee85d|17=da25c9a9-22b5-4e20-b283-e9d993eaa0f7|39=2|150=F|55=ASML.AS|54=2|38=5|32=5|31=659.34000000|151=0|14=5|44=659.34000000|6007=my_strategy|52=20250521-09:31:34.898|10=134|
2025-05-21 10:31:34,902 [INFO] OUT: 8=FIX.4.4|9=278|35=8|49=EXCHANGE|56=MY_COMPANY|34=112|11=ebd22fe0-e4bb-45b6-ab9d-67a83f1f2bf3|37=ebd22fe0-e4bb-45b6-ab9d-67a83f1f2bf3|17=2e079485-71fb-45eb-87a2-28c378f3d90d|39=2|150=F|55=INGA.AS|54=1|38=5|32=5|31=19.13084900|151=0|14=5|44=19.13084900|6007=my_strategy|52=20250521-09:31:34.902|10=001|
2025-05-21 10:31:34,903 [INFO] OUT: 8=FIX.4.4|9=278|35=8|49=EXCHANGE|56=MY_COMPANY|34=113|11=f277a20f-7a9b-44f5-85a5-802dd871f9dc|37=f277a20f-7a9b-44f5-85a5-802dd871f9dc|17=a58f0867-a1b9-4aa0-8ee5-5010667539ab|39=2|150=F|55=INGA.AS|54=2|38=4|32=4|31=19.13084900|151=0|14=4|44=19.13084900|6007=my_strategy|52=20250521-09:31:34.903|10=056|
2025-05-21 10:31:39,942 [INFO] OUT: 8=FIX.4.4|9=279|35=8|49=EXCHANGE|56=MY_COMPANY|34=38|11=8852d087-5936-4217-948f-aa11d7b369f5|37=8852d087-5936-4217-948f-aa11d7b369f5|17=b3b4d2d9-a1d2-47bc-a6e1-1f38627c66c2|39=2|150=F|55=ASML.AS|54=1|38=9|32=9|31=659.34000000|151=0|14=9|44=659.34000000|6007=my_strategy|52=20250521-09:31:39.942|10=059|
2025-05-21 10:31:39,944 [INFO] OUT: 8=FIX.4.4|9=279|35=8|49=EXCHANGE|56=MY_COMPANY|34=39|11=291b3c09-e2bb-4266-b96a-2be059d35666|37=291b3c09-e2bb-4266-b96a-2be059d35666|17=e965497b-c95a-483f-96db-d39a1c621b83|39=2|150=F|55=ASML.AS|54=2|38=5|32=5|31=659.34000000|151=0|14=5|44=659.34000000|6007=my_strategy|52=20250521-09:31:39.944|10=227|
2025-05-21 10:31:39,952 [INFO] OUT: 8=FIX.4.4|9=278|35=8|49=EXCHANGE|56=MY_COMPANY|34=114|11=4af6b4fe-09f1-4cf5-acfe-b1a37852ce57|37=4af6b4fe-09f1-4cf5-acfe-b1a37852ce57|17=3e905305-f12e-4c1c-ae2d-954408a22b53|39=2|150=F|55=INGA.AS|54=1|38=2|32=2|31=19.13084900|151=0|14=2|44=19.13084900|6007=my_strategy|52=20250521-09:31:39.952|10=147|
2025-05-21 10:31:39,953 [INFO] OUT: 8=FIX.4.4|9=278|35=8|49=EXCHANGE|56=MY_COMPANY|34=115|11=ea3d7e14-6a4f-4ba5-a885-ce90236e7d55|37=ea3d7e14-6a4f-4ba5-a885-ce90236e7d55|17=6ba431a1-330e-4db4-be43-cf75af67ae1f|39=2|150=F|55=INGA.AS|54=2|38=2|32=2|31=19.13084900|151=0|14=2|44=19.13084900|6007=my_strategy|52=20250521-09:31:39.953|10=108|
2025-05-21 10:31:39,954 [INFO] OUT: 8=FIX.4.4|9=278|35=8|49=EXCHANGE|56=MY_COMPANY|34=116|11=ea3d7e14-6a4f-4ba5-a885-ce90236e7d55|37=ea3d7e14-6a4f-4ba5-a885-ce90236e7d55|17=d632b18f-9711-4241-b9e5-f22a28638cc4|39=2|150=F|55=INGA.AS|54=2|38=4|32=4|31=19.11169900|151=0|14=4|44=19.11169900|6007=my_strategy|52=20250521-09:31:39.954|10=106|
2025-05-21 10:31:44,977 [INFO] OUT: 8=FIX.4.4|9=279|35=8|49=EXCHANGE|56=MY_COMPANY|34=40|11=08a20569-c738-4abd-8dc8-7d6164c0cffa|37=08a20569-c738-4abd-8dc8-7d6164c0cffa|17=273b47a5-655d-43f1-ae62-f4fc3b727205|39=2|150=F|55=ASML.AS|54=1|38=3|32=3|31=659.34000000|151=0|14=3|44=659.34000000|6007=my_strategy|52=20250521-09:31:44.977|10=182|
2025-05-21 10:31:44,978 [INFO] OUT: 8=FIX.4.4|9=279|35=8|49=EXCHANGE|56=MY_COMPANY|34=41|11=cddd1a19-6f96-4b3d-866e-a53893901f9e|37=cddd1a19-6f96-4b3d-866e-a53893901f9e|17=d5fcf3c1-bffc-4bfc-92d5-6fb5604aafac|39=2|150=F|55=ASML.AS|54=2|38=8|32=8|31=659.34000000|151=0|14=8|44=659.34000000|6007=my_strategy|52=20250521-09:31:44.977|10=105|
2025-05-21 10:31:44,991 [INFO] OUT: 8=FIX.4.4|9=278|35=8|49=EXCHANGE|56=MY_COMPANY|34=117|11=228819f6-1a93-49bf-86b5-5790a61f2619|37=228819f6-1a93-49bf-86b5-5790a61f2619|17=8196377a-d873-4bd1-921a-bd9b23156f08|39=2|150=F|55=INGA.AS|54=1|38=4|32=4|31=19.11169900|151=0|14=4|44=19.11169900|6007=my_strategy|52=20250521-09:31:44.991|10=077|
2025-05-21 10:31:44,992 [INFO] OUT: 8=FIX.4.4|9=278|35=8|49=EXCHANGE|56=MY_COMPANY|34=118|11=56f2f555-6e5b-47ce-af1b-6f49817ccf76|37=56f2f555-6e5b-47ce-af1b-6f49817ccf76|17=61b22464-b549-44d6-a937-e9eb1b9fcbfc|39=2|150=F|55=INGA.AS|54=2|38=7|32=7|31=19.11169900|151=0|14=7|44=19.11169900|6007=my_strategy|52=20250521-09:31:44.992|10=095|
2025-05-21 10:31:45,010 [INFO] OUT: 8=FIX.4.4|9=277|35=8|49=EXCHANGE|56=MY_COMPANY|34=17|11=b51d1828-c090-44df-bc2a-69df1d0e555c|37=b51d1828-c090-44df-bc2a-69df1d0e555c|17=9c7aa62f-1df3-4566-bcf7-6a7114ba6cb2|39=2|150=F|55=OR.PA|54=1|38=2|32=2|31=380.66893701|151=0|14=2|44=380.66893701|6007=my_strategy|52=20250521-09:31:45.009|10=241|
2025-05-21 10:31:45,010 [INFO] OUT: 8=FIX.4.4|9=277|35=8|49=EXCHANGE|56=MY_COMPANY|34=18|11=4954e963-e882-4ae3-a5e3-8087115a29e0|37=4954e963-e882-4ae3-a5e3-8087115a29e0|17=7fb88c6a-e547-45bc-82cd-b372bef744fe|39=2|150=F|55=OR.PA|54=2|38=2|32=2|31=380.66893701|151=0|14=2|44=380.66893701|6007=my_strategy|52=20250521-09:31:45.010|10=121|
2025-05-21 10:31:50,018 [INFO] OUT: 8=FIX.4.4|9=282|35=8|49=EXCHANGE|56=MY_COMPANY|34=42|11=812956dc-06d3-4fe3-82d0-48c53026b7a1|37=812956dc-06d3-4fe3-82d0-48c53026b7a1|17=5d67aa12-1f7b-474e-aefa-a68fb0bb53db|39=2|150=F|55=ASML.AS|54=1|38=10|32=10|31=658.68000000|151=0|14=10|44=658.68000000|6007=my_strategy|52=20250521-09:31:50.018|10=238|
2025-05-21 10:31:50,019 [INFO] OUT: 8=FIX.4.4|9=279|35=8|49=EXCHANGE|56=MY_COMPANY|34=43|11=e8daf9bd-cf3e-4f50-8323-d8645ec57a35|37=e8daf9bd-cf3e-4f50-8323-d8645ec57a35|17=3a4807de-39b4-4aa7-a996-126f04bb8583|39=2|150=F|55=ASML.AS|54=2|38=7|32=7|31=658.68000000|151=0|14=7|44=658.68000000|6007=my_strategy|52=20250521-09:31:50.019|10=063|
2025-05-21 10:31:50,026 [INFO] OUT: 8=FIX.4.4|9=149|35=D|49=MY_COMPANY|56=EXCHANGE|34=119|11=my_strategy-1747819910.026002|55=INGA.AS|54=1|44=18.90162351|38=6|52=20250521-09:31:50.026|6007=my_strategy|10=169|
2025-05-21 10:31:50,026 [INFO] IN: 8=FIX.4.4|9=149|35=D|49=MY_COMPANY|56=EXCHANGE|34=119|11=my_strategy-1747819910.026002|55=INGA.AS|54=1|44=18.90162351|38=6|52=20250521-09:31:50.026|6007=my_strategy|10=169|
2025-05-21 10:31:50,027 [INFO] OUT: 8=FIX.4.4|9=278|35=8|49=EXCHANGE|56=MY_COMPANY|34=120|11=cf553774-6fc2-4cc9-ab3a-4aa54a697f06|37=cf553774-6fc2-4cc9-ab3a-4aa54a697f06|17=b1f0b27f-5376-451a-869e-ebf8ea9262d2|39=2|150=F|55=INGA.AS|54=1|38=6|32=6|31=19.09254900|151=0|14=6|44=19.09254900|6007=my_strategy|52=20250521-09:31:50.026|10=241|
2025-05-21 10:31:50,027 [INFO] OUT: 8=FIX.4.4|9=278|35=8|49=EXCHANGE|56=MY_COMPANY|34=121|11=d7743065-50c3-47b2-8688-0d8e441a0b85|37=d7743065-50c3-47b2-8688-0d8e441a0b85|17=f5dd2b1d-5b3a-4a2f-843d-e6d33c94368d|39=2|150=F|55=INGA.AS|54=2|38=7|32=7|31=19.09254900|151=0|14=7|44=19.09254900|6007=my_strategy|52=20250521-09:31:50.027|10=016|
2025-05-21 10:31:50,034 [INFO] OUT: 8=FIX.4.4|9=276|35=8|49=EXCHANGE|56=MY_COMPANY|34=23|11=8d3673b0-9b71-4757-88cf-abb5136e36c6|37=8d3673b0-9b71-4757-88cf-abb5136e36c6|17=72631d60-7562-4e99-b13a-3edeff889200|39=2|150=F|55=SAN.PA|54=1|38=2|32=2|31=93.42647600|151=0|14=2|44=93.42647600|6007=my_strategy|52=20250521-09:31:50.034|10=221|
2025-05-21 10:31:50,035 [INFO] OUT: 8=FIX.4.4|9=279|35=8|49=EXCHANGE|56=MY_COMPANY|34=24|11=f0de3a2b-9982-4a0b-bf8d-0340b1e13d29|37=f0de3a2b-9982-4a0b-bf8d-0340b1e13d29|17=7243fd5f-d29f-4f68-9960-27f70c13f3af|39=2|150=F|55=SAN.PA|54=2|38=10|32=10|31=93.42647600|151=0|14=10|44=93.42647600|6007=my_strategy|52=20250521-09:31:50.035|10=190|
2025-05-21 10:31:55,050 [INFO] OUT: 8=FIX.4.4|9=279|35=8|49=EXCHANGE|56=MY_COMPANY|34=44|11=5b81f3f1-b70c-4303-aeba-95b7226e5258|37=5b81f3f1-b70c-4303-aeba-95b7226e5258|17=01d7ceaa-86a3-4014-bdba-425be8d4d23d|39=2|150=F|55=ASML.AS|54=1|38=4|32=4|31=658.68000000|151=0|14=4|44=658.68000000|6007=my_strategy|52=20250521-09:31:55.050|10=188|
2025-05-21 10:31:55,051 [INFO] OUT: 8=FIX.4.4|9=282|35=8|49=EXCHANGE|56=MY_COMPANY|34=45|11=286bc716-898f-4b18-84ac-eab36ea12c94|37=286bc716-898f-4b18-84ac-eab36ea12c94|17=0f514fa6-b09e-43aa-8704-89c186a312fe|39=2|150=F|55=ASML.AS|54=2|38=10|32=10|31=658.68000000|151=0|14=10|44=658.68000000|6007=my_strategy|52=20250521-09:31:55.051|10=025|
2025-05-21 10:31:55,053 [INFO] OUT: 8=FIX.4.4|9=149|35=D|49=MY_COMPANY|56=EXCHANGE|34=122|11=my_strategy-1747819915.052963|55=INGA.AS|54=1|44=18.90162351|38=4|52=20250521-09:31:55.053|6007=my_strategy|10=186|
2025-05-21 10:31:55,053 [INFO] IN: 8=FIX.4.4|9=149|35=D|49=MY_COMPANY|56=EXCHANGE|34=122|11=my_strategy-1747819915.052963|55=INGA.AS|54=1|44=18.90162351|38=4|52=20250521-09:31:55.053|6007=my_strategy|10=186|
2025-05-21 10:31:55,054 [INFO] OUT: 8=FIX.4.4|9=278|35=8|49=EXCHANGE|56=MY_COMPANY|34=123|11=3c3a77f7-34b8-4155-82f6-000da09ddfc5|37=3c3a77f7-34b8-4155-82f6-000da09ddfc5|17=c4bfe7ee-c1f2-4fa2-890a-6190a0829a80|39=2|150=F|55=INGA.AS|54=1|38=4|32=4|31=19.09254900|151=0|14=4|44=19.09254900|6007=my_strategy|52=20250521-09:31:55.054|10=075|
2025-05-21 10:31:55,056 [INFO] OUT: 8=FIX.4.4|9=278|35=8|49=EXCHANGE|56=MY_COMPANY|34=124|11=ca41b4ec-22ff-4909-ab86-79d9cd9c0127|37=ca41b4ec-22ff-4909-ab86-79d9cd9c0127|17=628b289b-5315-4f38-9f4e-52a621c2cc78|39=2|150=F|55=INGA.AS|54=2|38=1|32=1|31=19.09254900|151=0|14=1|44=19.09254900|6007=my_strategy|52=20250521-09:31:55.056|10=104|
2025-05-21 10:31:55,065 [INFO] OUT: 8=FIX.4.4|9=278|35=8|49=EXCHANGE|56=MY_COMPANY|34=28|11=9c883712-dbe3-4ba1-b325-5e41fb482ed6|37=9c883712-dbe3-4ba1-b325-5e41fb482ed6|17=d193174d-984c-4195-9f01-c024f5ed054b|39=2|150=F|55=AD.AS|54=1|38=10|32=10|31=37.83212800|151=0|14=10|44=37.83212800|6007=my_strategy|52=20250521-09:31:55.065|10=171|
2025-05-21 10:31:55,065 [INFO] OUT: 8=FIX.4.4|9=275|35=8|49=EXCHANGE|56=MY_COMPANY|34=29|11=4532f161-7394-46c7-924d-cf103d58af16|37=4532f161-7394-46c7-924d-cf103d58af16|17=ce1b0ef8-b23b-434a-b886-4cc8a9bc5e68|39=2|150=F|55=AD.AS|54=2|38=7|32=7|31=37.83212800|151=0|14=7|44=37.83212800|6007=my_strategy|52=20250521-09:31:55.065|10=218|
2025-05-21 10:32:00,074 [INFO] OUT: 8=FIX.4.4|9=279|35=8|49=EXCHANGE|56=MY_COMPANY|34=46|11=356e57f3-a18f-4984-905f-884b8e40f25a|37=356e57f3-a18f-4984-905f-884b8e40f25a|17=2c317a5e-cf56-4272-895a-bcd8b051126b|39=2|150=F|55=ASML.AS|54=1|38=8|32=8|31=658.68000000|151=0|14=8|44=658.68000000|6007=my_strategy|52=20250521-09:32:00.074|10=153|
2025-05-21 10:32:00,074 [INFO] OUT: 8=FIX.4.4|9=279|35=8|49=EXCHANGE|56=MY_COMPANY|34=47|11=86527bf2-92a3-404c-8038-83a836e4c61c|37=86527bf2-92a3-404c-8038-83a836e4c61c|17=af1c990a-cd74-4d81-b7f7-1742ae229cb3|39=2|150=F|55=ASML.AS|54=2|38=6|32=6|31=658.68000000|151=0|14=6|44=658.68000000|6007=my_strategy|52=20250521-09:32:00.074|10=116|
2025-05-21 10:32:00,075 [INFO] OUT: 8=FIX.4.4|9=279|35=8|49=EXCHANGE|56=MY_COMPANY|34=48|11=86527bf2-92a3-404c-8038-83a836e4c61c|37=86527bf2-92a3-404c-8038-83a836e4c61c|17=9ff5394b-21f6-4509-b98a-2f69afcbc936|39=2|150=F|55=ASML.AS|54=2|38=1|32=1|31=658.02000000|151=0|14=1|44=658.02000000|6007=my_strategy|52=20250521-09:32:00.075|10=056|
2025-05-21 10:32:00,076 [INFO] HEARBEAT SENT: 8=FIX.4.4|9=62|35=0|49=MY_COMPANY|56=EXCHANGE|34=49|52=20250521-09:32:00.075|10=106|
2025-05-21 10:32:00,079 [INFO] HEARBEAT SENT: 8=FIX.4.4|9=62|35=0|49=MY_COMPANY|56=EXCHANGE|34=42|52=20250521-09:32:00.079|10=103|
2025-05-21 10:32:00,081 [INFO] OUT: 8=FIX.4.4|9=150|35=D|49=MY_COMPANY|56=EXCHANGE|34=125|11=my_strategy-1747819920.0809128|55=INGA.AS|54=1|44=18.88266501|38=7|52=20250521-09:32:00.081|6007=my_strategy|10=232|
2025-05-21 10:32:00,081 [INFO] IN: 8=FIX.4.4|9=150|35=D|49=MY_COMPANY|56=EXCHANGE|34=125|11=my_strategy-1747819920.0809128|55=INGA.AS|54=1|44=18.88266501|38=7|52=20250521-09:32:00.081|6007=my_strategy|10=232|
2025-05-21 10:32:00,082 [INFO] OUT: 8=FIX.4.4|9=278|35=8|49=EXCHANGE|56=MY_COMPANY|34=126|11=8b44c2e8-76e0-4222-8f26-5ae5c193104b|37=8b44c2e8-76e0-4222-8f26-5ae5c193104b|17=46156367-e96c-4d84-bb29-2ad891a137d9|39=2|150=F|55=INGA.AS|54=1|38=7|32=7|31=19.07339900|151=0|14=7|44=19.07339900|6007=my_strategy|52=20250521-09:32:00.082|10=228|
2025-05-21 10:32:00,082 [INFO] OUT: 8=FIX.4.4|9=278|35=8|49=EXCHANGE|56=MY_COMPANY|34=127|11=5c145b5a-0607-48a9-9e39-fbf9cd45f60a|37=5c145b5a-0607-48a9-9e39-fbf9cd45f60a|17=f4d3ca20-7209-4168-a779-8713ec6057bc|39=2|150=F|55=INGA.AS|54=2|38=2|32=2|31=19.07339900|151=0|14=2|44=19.07339900|6007=my_strategy|52=20250521-09:32:00.082|10=007|
2025-05-21 10:32:00,087 [INFO] HEARBEAT SENT: 8=FIX.4.4|9=63|35=0|49=MY_COMPANY|56=EXCHANGE|34=128|52=20250521-09:32:00.086|10=155|
2025-05-21 10:32:00,092 [INFO] HEARBEAT SENT: 8=FIX.4.4|9=62|35=0|49=MY_COMPANY|56=EXCHANGE|34=30|52=20250521-09:32:00.091|10=094|
2025-05-21 10:32:00,093 [INFO] HEARBEAT SENT: 8=FIX.4.4|9=62|35=0|49=MY_COMPANY|56=EXCHANGE|34=19|52=20250521-09:32:00.093|10=103|
2025-05-21 10:32:00,097 [INFO] HEARBEAT SENT: 8=FIX.4.4|9=62|35=0|49=MY_COMPANY|56=EXCHANGE|34=25|52=20250521-09:32:00.097|10=104|
2025-05-21 10:32:05,106 [INFO] OUT: 8=FIX.4.4|9=279|35=8|49=EXCHANGE|56=MY_COMPANY|34=50|11=6e3ba694-5970-4f13-af79-c990fa18adfa|37=6e3ba694-5970-4f13-af79-c990fa18adfa|17=fdb455af-bc51-4a3b-a790-db221eabcbd5|39=2|150=F|55=ASML.AS|54=1|38=9|32=9|31=658.02000000|151=0|14=9|44=658.02000000|6007=my_strategy|52=20250521-09:32:05.106|10=041|
2025-05-21 10:32:05,108 [INFO] OUT: 8=FIX.4.4|9=282|35=8|49=EXCHANGE|56=MY_COMPANY|34=51|11=1700ffe4-f045-4315-9983-c924e72fe42f|37=1700ffe4-f045-4315-9983-c924e72fe42f|17=22ee7f5e-f7c8-4feb-9c49-4929e4c2c6f0|39=2|150=F|55=ASML.AS|54=2|38=10|32=10|31=658.02000000|151=0|14=10|44=658.02000000|6007=my_strategy|52=20250521-09:32:05.108|10=143|
2025-05-21 10:32:05,111 [INFO] OUT: 8=FIX.4.4|9=150|35=D|49=MY_COMPANY|56=EXCHANGE|34=129|11=my_strategy-1747819925.1107872|55=INGA.AS|54=1|44=18.88266501|38=5|52=20250521-09:32:05.110|6007=my_strategy|10=235|
2025-05-21 10:32:05,111 [INFO] IN: 8=FIX.4.4|9=150|35=D|49=MY_COMPANY|56=EXCHANGE|34=129|11=my_strategy-1747819925.1107872|55=INGA.AS|54=1|44=18.88266501|38=5|52=20250521-09:32:05.110|6007=my_strategy|10=235|
2025-05-21 10:32:05,111 [INFO] OUT: 8=FIX.4.4|9=278|35=8|49=EXCHANGE|56=MY_COMPANY|34=130|11=e5adfd34-08c3-4af8-8c58-1456ced23e35|37=e5adfd34-08c3-4af8-8c58-1456ced23e35|17=cf2f8916-510a-48c4-9c48-57da6d74eaaa|39=2|150=F|55=INGA.AS|54=1|38=5|32=5|31=19.07339900|151=0|14=5|44=19.07339900|6007=my_strategy|52=20250521-09:32:05.111|10=034|
