2025-05-21 10:27:55,414 [INFO] OUT: 8=FIX.4.4|9=279|35=8|49=EXCHANGE|56=MY_COMPANY|34=2|11=e305d31d-9da4-40c8-8b37-ad3caee02cfc|37=e305d31d-9da4-40c8-8b37-ad3caee02cfc|17=14adf894-dad7-4311-8b04-db12b8de195b|39=2|150=F|55=ASML.AS|54=1|38=9|32=9|31=659.34000000|151=0|14=9|44=659.34000000|6007=market_maker|52=20250521-09:27:55.414|10=079|
2025-05-21 10:27:55,414 [INFO] OUT: 8=FIX.4.4|9=279|35=8|49=EXCHANGE|56=MY_COMPANY|34=3|11=e2a59de6-d2b3-417b-931b-e554617fdc0a|37=e2a59de6-d2b3-417b-931b-e554617fdc0a|17=cb1e1ee8-3e07-49ab-b3d6-bcb829a9ca28|39=2|150=F|55=ASML.AS|54=2|38=9|32=9|31=659.34000000|151=0|14=9|44=659.34000000|6007=market_maker|52=20250521-09:27:55.414|10=218|
2025-05-21 10:27:55,416 [INFO] ===== FIX ENGINE INITIALISED FOR SYMBOL market_maker =====
2025-05-21 10:29:29,064 [INFO] OUT: 8=FIX.4.4|9=151|35=D|49=MY_COMPANY|56=EXCHANGE|34=1|11=market_maker-1747819769.0642529|55=ASML.AS|54=1|44=659.34000000|38=9|52=20250521-09:29:29.064|6007=market_maker|10=067|
2025-05-21 10:29:29,064 [INFO] IN: 8=FIX.4.4|9=151|35=D|49=MY_COMPANY|56=EXCHANGE|34=1|11=market_maker-1747819769.0642529|55=ASML.AS|54=1|44=659.34000000|38=9|52=20250521-09:29:29.064|6007=market_maker|10=067|
2025-05-21 10:29:29,064 [INFO] OUT: 8=FIX.4.4|9=279|35=8|49=EXCHANGE|56=MY_COMPANY|34=2|11=b2925c99-679d-4f24-821c-1265abfc2eb9|37=b2925c99-679d-4f24-821c-1265abfc2eb9|17=0dae0d00-5d08-44c1-b1c2-1c6b65cd7e7f|39=2|150=F|55=ASML.AS|54=1|38=9|32=9|31=659.34000000|151=0|14=9|44=659.34000000|6007=market_maker|52=20250521-09:29:29.064|10=202|
2025-05-21 10:29:29,064 [INFO] OUT: 8=FIX.4.4|9=279|35=8|49=EXCHANGE|56=MY_COMPANY|34=3|11=02c93c85-ac89-42ec-ba7d-e160a2c818b5|37=02c93c85-ac89-42ec-ba7d-e160a2c818b5|17=681dfccc-8856-4320-b5d2-df704032c7a4|39=2|150=F|55=ASML.AS|54=2|38=8|32=8|31=659.34000000|151=0|14=8|44=659.34000000|6007=market_maker|52=20250521-09:29:29.064|10=233|
2025-05-21 10:29:29,066 [INFO] ===== FIX ENGINE INITIALISED FOR SYMBOL market_maker =====
2025-05-21 10:29:29,074 [INFO] OUT: 8=FIX.4.4|9=150|35=D|49=MY_COMPANY|56=EXCHANGE|34=1|11=market_maker-1747819769.0747252|55=PHIA.AS|54=1|44=21.30866900|38=4|52=20250521-09:29:29.074|6007=market_maker|10=010|
2025-05-21 10:29:29,075 [INFO] IN: 8=FIX.4.4|9=150|35=D|49=MY_COMPANY|56=EXCHANGE|34=1|11=market_maker-1747819769.0747252|55=PHIA.AS|54=1|44=21.30866900|38=4|52=20250521-09:29:29.074|6007=market_maker|10=010|
2025-05-21 10:29:29,075 [INFO] OUT: 8=FIX.4.4|9=277|35=8|49=EXCHANGE|56=MY_COMPANY|34=2|11=761c8148-8f0d-4caf-b009-dc9e7d57b829|37=761c8148-8f0d-4caf-b009-dc9e7d57b829|17=6a24240b-8cb8-4929-a89a-c38b56b1ad0f|39=2|150=F|55=PHIA.AS|54=1|38=4|32=4|31=21.30866900|151=0|14=4|44=21.30866900|6007=market_maker|52=20250521-09:29:29.075|10=126|
2025-05-21 10:29:29,075 [INFO] OUT: 8=FIX.4.4|9=277|35=8|49=EXCHANGE|56=MY_COMPANY|34=3|11=e12a5a75-7ab9-4364-9a10-36ef46e506f8|37=e12a5a75-7ab9-4364-9a10-36ef46e506f8|17=774e3459-5b6e-4131-87d4-ee16df7d14d8|39=2|150=F|55=PHIA.AS|54=2|38=5|32=5|31=21.30866900|151=0|14=5|44=21.30866900|6007=market_maker|52=20250521-09:29:29.075|10=098|
2025-05-21 10:29:29,077 [INFO] ===== FIX ENGINE INITIALISED FOR SYMBOL market_maker =====
2025-05-21 10:29:29,080 [INFO] OUT: 8=FIX.4.4|9=149|35=D|49=MY_COMPANY|56=EXCHANGE|34=1|11=market_maker-1747819769.080626|55=INGA.AS|54=1|44=19.13084900|38=3|52=20250521-09:29:29.080|6007=market_maker|10=214|
2025-05-21 10:29:29,080 [INFO] IN: 8=FIX.4.4|9=149|35=D|49=MY_COMPANY|56=EXCHANGE|34=1|11=market_maker-1747819769.080626|55=INGA.AS|54=1|44=19.13084900|38=3|52=20250521-09:29:29.080|6007=market_maker|10=214|
2025-05-21 10:29:29,081 [INFO] OUT: 8=FIX.4.4|9=277|35=8|49=EXCHANGE|56=MY_COMPANY|34=2|11=9c7744d1-4238-40db-b030-b67d0f4ff29e|37=9c7744d1-4238-40db-b030-b67d0f4ff29e|17=e78e23c1-f563-4ee3-afbd-200366dfaa73|39=2|150=F|55=INGA.AS|54=1|38=3|32=3|31=19.13084900|151=0|14=3|44=19.13084900|6007=market_maker|52=20250521-09:29:29.081|10=078|
2025-05-21 10:29:29,081 [INFO] OUT: 8=FIX.4.4|9=277|35=8|49=EXCHANGE|56=MY_COMPANY|34=3|11=a05207af-3eab-43e5-8e11-c7033c92ba35|37=a05207af-3eab-43e5-8e11-c7033c92ba35|17=c9696024-827f-4ede-a6e0-9ebc1a4e2d76|39=2|150=F|55=INGA.AS|54=2|38=4|32=4|31=19.13084900|151=0|14=4|44=19.13084900|6007=market_maker|52=20250521-09:29:29.081|10=105|
2025-05-21 10:29:29,086 [INFO] ===== FIX ENGINE INITIALISED FOR SYMBOL market_maker =====
2025-05-21 10:29:29,088 [INFO] OUT: 8=FIX.4.4|9=147|35=D|49=MY_COMPANY|56=EXCHANGE|34=1|11=market_maker-1747819769.088311|55=AD.AS|54=1|44=37.83212800|38=1|52=20250521-09:29:29.088|6007=market_maker|10=062|
2025-05-21 10:29:29,088 [INFO] IN: 8=FIX.4.4|9=147|35=D|49=MY_COMPANY|56=EXCHANGE|34=1|11=market_maker-1747819769.088311|55=AD.AS|54=1|44=37.83212800|38=1|52=20250521-09:29:29.088|6007=market_maker|10=062|
2025-05-21 10:29:29,089 [INFO] OUT: 8=FIX.4.4|9=275|35=8|49=EXCHANGE|56=MY_COMPANY|34=2|11=28e8c1ff-89a7-4b6b-9910-3e5eca40a7b4|37=28e8c1ff-89a7-4b6b-9910-3e5eca40a7b4|17=5d75ebcc-2a91-4b39-a0a1-2daea78251bc|39=2|150=F|55=AD.AS|54=1|38=1|32=1|31=37.83212800|151=0|14=1|44=37.83212800|6007=market_maker|52=20250521-09:29:29.089|10=166|
2025-05-21 10:29:29,089 [INFO] OUT: 8=FIX.4.4|9=278|35=8|49=EXCHANGE|56=MY_COMPANY|34=3|11=7a6cc16a-afea-4e45-9455-c755ce88c490|37=7a6cc16a-afea-4e45-9455-c755ce88c490|17=ff10ae20-8fce-46a7-8539-6c655597d4ba|39=2|150=F|55=AD.AS|54=2|38=10|32=10|31=37.83212800|151=0|14=10|44=37.83212800|6007=market_maker|52=20250521-09:29:29.089|10=215|
2025-05-21 10:29:29,090 [INFO] ===== FIX ENGINE INITIALISED FOR SYMBOL market_maker =====
2025-05-21 10:29:29,092 [INFO] OUT: 8=FIX.4.4|9=148|35=D|49=MY_COMPANY|56=EXCHANGE|34=1|11=market_maker-1747819769.092258|55=OR.PA|54=1|44=380.66893701|38=4|52=20250521-09:29:29.092|6007=market_maker|10=156|
2025-05-21 10:29:29,092 [INFO] IN: 8=FIX.4.4|9=148|35=D|49=MY_COMPANY|56=EXCHANGE|34=1|11=market_maker-1747819769.092258|55=OR.PA|54=1|44=380.66893701|38=4|52=20250521-09:29:29.092|6007=market_maker|10=156|
2025-05-21 10:29:29,092 [INFO] OUT: 8=FIX.4.4|9=277|35=8|49=EXCHANGE|56=MY_COMPANY|34=2|11=7cf17e81-1fe0-43d1-805b-8055a51127ec|37=7cf17e81-1fe0-43d1-805b-8055a51127ec|17=86d49834-6d6c-4f3c-959c-a77105af0a46|39=2|150=F|55=OR.PA|54=1|38=4|32=4|31=380.66893701|151=0|14=4|44=380.66893701|6007=market_maker|52=20250521-09:29:29.092|10=057|
2025-05-21 10:29:29,092 [INFO] OUT: 8=FIX.4.4|9=277|35=8|49=EXCHANGE|56=MY_COMPANY|34=3|11=0e0593e3-3879-477f-a5e5-524f484663fb|37=0e0593e3-3879-477f-a5e5-524f484663fb|17=84448144-27cd-409e-9ecc-f1c465a2fc70|39=2|150=F|55=OR.PA|54=2|38=2|32=2|31=380.66893701|151=0|14=2|44=380.66893701|6007=market_maker|52=20250521-09:29:29.092|10=220|
2025-05-21 10:29:29,093 [INFO] ===== FIX ENGINE INITIALISED FOR SYMBOL market_maker =====
2025-05-21 10:29:29,094 [INFO] OUT: 8=FIX.4.4|9=148|35=D|49=MY_COMPANY|56=EXCHANGE|34=1|11=market_maker-1747819769.094722|55=SAN.PA|54=1|44=93.42647600|38=3|52=20250521-09:29:29.094|6007=market_maker|10=162|
2025-05-21 10:29:29,094 [INFO] IN: 8=FIX.4.4|9=148|35=D|49=MY_COMPANY|56=EXCHANGE|34=1|11=market_maker-1747819769.094722|55=SAN.PA|54=1|44=93.42647600|38=3|52=20250521-09:29:29.094|6007=market_maker|10=162|
2025-05-21 10:29:29,094 [INFO] OUT: 8=FIX.4.4|9=276|35=8|49=EXCHANGE|56=MY_COMPANY|34=2|11=eaff483a-6bdb-45f8-8acf-ccbe3525c42f|37=eaff483a-6bdb-45f8-8acf-ccbe3525c42f|17=f27844d5-ed9c-495e-8ef8-5d42f25bd24c|39=2|150=F|55=SAN.PA|54=1|38=3|32=3|31=93.42647600|151=0|14=3|44=93.42647600|6007=market_maker|52=20250521-09:29:29.094|10=180|
2025-05-21 10:29:29,095 [INFO] OUT: 8=FIX.4.4|9=276|35=8|49=EXCHANGE|56=MY_COMPANY|34=3|11=8f5682f1-154f-429a-84be-6158067e2e4c|37=8f5682f1-154f-429a-84be-6158067e2e4c|17=118748d5-a4cd-4484-97c8-c0bb7f748ca5|39=2|150=F|55=SAN.PA|54=2|38=4|32=4|31=93.42647600|151=0|14=4|44=93.42647600|6007=market_maker|52=20250521-09:29:29.095|10=011|
2025-05-21 10:29:34,110 [INFO] OUT: 8=FIX.4.4|9=150|35=D|49=MY_COMPANY|56=EXCHANGE|34=4|11=market_maker-1747819774.109946|55=ASML.AS|54=1|44=658.68066000|38=5|52=20250521-09:29:34.110|6007=market_maker|10=020|
2025-05-21 10:29:34,110 [INFO] IN: 8=FIX.4.4|9=150|35=D|49=MY_COMPANY|56=EXCHANGE|34=4|11=market_maker-1747819774.109946|55=ASML.AS|54=1|44=658.68066000|38=5|52=20250521-09:29:34.110|6007=market_maker|10=020|
2025-05-21 10:29:34,111 [INFO] OUT: 8=FIX.4.4|9=279|35=8|49=EXCHANGE|56=MY_COMPANY|34=5|11=66fb7ad9-1493-4270-93dd-526db155dfe2|37=66fb7ad9-1493-4270-93dd-526db155dfe2|17=18800448-87a7-439d-a785-9352ef4e617a|39=2|150=F|55=ASML.AS|54=1|38=5|32=5|31=659.34000000|151=0|14=5|44=659.34000000|6007=market_maker|52=20250521-09:29:34.111|10=141|
2025-05-21 10:29:34,111 [INFO] OUT: 8=FIX.4.4|9=279|35=8|49=EXCHANGE|56=MY_COMPANY|34=6|11=7ad6a234-fcf9-4b7c-8efa-344d4c75339f|37=7ad6a234-fcf9-4b7c-8efa-344d4c75339f|17=d50a16c0-fc1a-4e8e-934b-376c32bda019|39=2|150=F|55=ASML.AS|54=2|38=1|32=1|31=659.34000000|151=0|14=1|44=659.34000000|6007=market_maker|52=20250521-09:29:34.111|10=166|
2025-05-21 10:29:34,117 [INFO] OUT: 8=FIX.4.4|9=149|35=D|49=MY_COMPANY|56=EXCHANGE|34=4|11=market_maker-1747819774.117378|55=PHIA.AS|54=1|44=21.30866900|38=5|52=20250521-09:29:34.117|6007=market_maker|10=220|
2025-05-21 10:29:34,117 [INFO] IN: 8=FIX.4.4|9=149|35=D|49=MY_COMPANY|56=EXCHANGE|34=4|11=market_maker-1747819774.117378|55=PHIA.AS|54=1|44=21.30866900|38=5|52=20250521-09:29:34.117|6007=market_maker|10=220|
2025-05-21 10:29:34,118 [INFO] OUT: 8=FIX.4.4|9=277|35=8|49=EXCHANGE|56=MY_COMPANY|34=5|11=34ad4ac1-c724-42c1-9a9f-2862958535d3|37=34ad4ac1-c724-42c1-9a9f-2862958535d3|17=518a794e-502e-45bd-8b05-9f570240eaf2|39=2|150=F|55=PHIA.AS|54=1|38=5|32=5|31=21.30866900|151=0|14=5|44=21.30866900|6007=market_maker|52=20250521-09:29:34.118|10=229|
2025-05-21 10:29:34,118 [INFO] OUT: 8=FIX.4.4|9=277|35=8|49=EXCHANGE|56=MY_COMPANY|34=6|11=5dad5b41-5e75-4493-9e8a-b17927b91f5a|37=5dad5b41-5e75-4493-9e8a-b17927b91f5a|17=a46dea0e-72bd-4cc1-bc31-cc613c395994|39=2|150=F|55=PHIA.AS|54=2|38=9|32=9|31=21.30866900|151=0|14=9|44=21.30866900|6007=market_maker|52=20250521-09:29:34.118|10=127|
2025-05-21 10:29:34,127 [INFO] OUT: 8=FIX.4.4|9=149|35=D|49=MY_COMPANY|56=EXCHANGE|34=4|11=market_maker-1747819774.127425|55=INGA.AS|54=1|44=19.13084900|38=2|52=20250521-09:29:34.127|6007=market_maker|10=209|
2025-05-21 10:29:34,127 [INFO] IN: 8=FIX.4.4|9=149|35=D|49=MY_COMPANY|56=EXCHANGE|34=4|11=market_maker-1747819774.127425|55=INGA.AS|54=1|44=19.13084900|38=2|52=20250521-09:29:34.127|6007=market_maker|10=209|
2025-05-21 10:29:34,127 [INFO] OUT: 8=FIX.4.4|9=277|35=8|49=EXCHANGE|56=MY_COMPANY|34=5|11=e54b4ef9-0c20-4ea2-9ebe-8a34157c781f|37=e54b4ef9-0c20-4ea2-9ebe-8a34157c781f|17=e95823fb-fff9-4ad4-b2fd-a8207c2e6f46|39=2|150=F|55=INGA.AS|54=1|38=2|32=2|31=19.13084900|151=0|14=2|44=19.13084900|6007=market_maker|52=20250521-09:29:34.127|10=088|
2025-05-21 10:29:34,128 [INFO] OUT: 8=FIX.4.4|9=277|35=8|49=EXCHANGE|56=MY_COMPANY|34=6|11=40d8ef8b-db04-4e9c-b759-96da8b166536|37=40d8ef8b-db04-4e9c-b759-96da8b166536|17=7511618d-4067-4a55-aad9-c5cbde4bfc0f|39=2|150=F|55=INGA.AS|54=2|38=8|32=8|31=19.13084900|151=0|14=8|44=19.13084900|6007=market_maker|52=20250521-09:29:34.128|10=232|
2025-05-21 10:29:34,133 [INFO] OUT: 8=FIX.4.4|9=147|35=D|49=MY_COMPANY|56=EXCHANGE|34=4|11=market_maker-1747819774.133056|55=AD.AS|54=1|44=37.83212800|38=4|52=20250521-09:29:34.133|6007=market_maker|10=048|
2025-05-21 10:29:34,133 [INFO] IN: 8=FIX.4.4|9=147|35=D|49=MY_COMPANY|56=EXCHANGE|34=4|11=market_maker-1747819774.133056|55=AD.AS|54=1|44=37.83212800|38=4|52=20250521-09:29:34.133|6007=market_maker|10=048|
2025-05-21 10:29:34,133 [INFO] OUT: 8=FIX.4.4|9=275|35=8|49=EXCHANGE|56=MY_COMPANY|34=5|11=6c8716e2-1c09-4bf4-a833-608bcc75ee4b|37=6c8716e2-1c09-4bf4-a833-608bcc75ee4b|17=727c47a6-8aa2-45d2-9fc6-d0d7f9f42ed1|39=2|150=F|55=AD.AS|54=1|38=4|32=4|31=37.83212800|151=0|14=4|44=37.83212800|6007=market_maker|52=20250521-09:29:34.133|10=249|
2025-05-21 10:29:34,134 [INFO] OUT: 8=FIX.4.4|9=275|35=8|49=EXCHANGE|56=MY_COMPANY|34=6|11=bac6170e-209c-499f-b8c8-c724c41caf1b|37=bac6170e-209c-499f-b8c8-c724c41caf1b|17=82186fec-a778-4570-9182-ac88e9b7cdb3|39=2|150=F|55=AD.AS|54=2|38=7|32=7|31=37.83212800|151=0|14=7|44=37.83212800|6007=market_maker|52=20250521-09:29:34.134|10=100|
2025-05-21 10:29:34,138 [INFO] OUT: 8=FIX.4.4|9=277|35=8|49=EXCHANGE|56=MY_COMPANY|34=4|11=061197e1-2cfb-4c6a-8192-ec932900e0c2|37=061197e1-2cfb-4c6a-8192-ec932900e0c2|17=f80f9dba-3da6-4c8a-891e-481a27355ba7|39=2|150=F|55=OR.PA|54=1|38=3|32=3|31=380.66893701|151=0|14=3|44=380.66893701|6007=market_maker|52=20250521-09:29:34.138|10=182|
2025-05-21 10:29:34,138 [INFO] OUT: 8=FIX.4.4|9=277|35=8|49=EXCHANGE|56=MY_COMPANY|34=5|11=1c9e864c-18aa-4ba1-a935-7eb82cdfe5e6|37=1c9e864c-18aa-4ba1-a935-7eb82cdfe5e6|17=6f465e9a-e2ac-4c71-85bf-547bb6219674|39=2|150=F|55=OR.PA|54=2|38=4|32=4|31=380.66893701|151=0|14=4|44=380.66893701|6007=market_maker|52=20250521-09:29:34.138|10=100|
2025-05-21 10:29:34,142 [INFO] OUT: 8=FIX.4.4|9=149|35=D|49=MY_COMPANY|56=EXCHANGE|34=4|11=market_maker-1747819774.1420832|55=SAN.PA|54=1|44=93.42647600|38=4|52=20250521-09:29:34.142|6007=market_maker|10=197|
2025-05-21 10:29:34,142 [INFO] IN: 8=FIX.4.4|9=149|35=D|49=MY_COMPANY|56=EXCHANGE|34=4|11=market_maker-1747819774.1420832|55=SAN.PA|54=1|44=93.42647600|38=4|52=20250521-09:29:34.142|6007=market_maker|10=197|
2025-05-21 10:29:34,143 [INFO] OUT: 8=FIX.4.4|9=276|35=8|49=EXCHANGE|56=MY_COMPANY|34=5|11=b1381351-beb1-4400-9d69-8afa5e1d21de|37=b1381351-beb1-4400-9d69-8afa5e1d21de|17=2129374f-0028-4b41-be4b-6a94990661c6|39=2|150=F|55=SAN.PA|54=1|38=4|32=4|31=93.42647600|151=0|14=4|44=93.42647600|6007=market_maker|52=20250521-09:29:34.143|10=017|
2025-05-21 10:29:34,143 [INFO] OUT: 8=FIX.4.4|9=276|35=8|49=EXCHANGE|56=MY_COMPANY|34=6|11=d960cd18-075b-442c-9eef-539f044ba101|37=d960cd18-075b-442c-9eef-539f044ba101|17=d9c1be51-370b-41c6-8fc4-df4f89f6152e|39=2|150=F|55=SAN.PA|54=2|38=4|32=4|31=93.42647600|151=0|14=4|44=93.42647600|6007=market_maker|52=20250521-09:29:34.143|10=242|
2025-05-21 10:29:39,163 [INFO] OUT: 8=FIX.4.4|9=267|35=8|49=EXCHANGE|56=MY_COMPANY|34=7|11=market_maker-1747819769.0747252|37=market_maker-1747819769.0747252|17=8fbf21ad-7ac1-40ab-adc3-16d7310547fe|39=2|150=F|55=PHIA.AS|54=1|38=4|32=4|31=21.30866900|151=0|14=4|44=21.30866900|6007=market_maker|52=20250521-09:29:39.162|10=155|
2025-05-21 10:29:39,165 [INFO] OUT: 8=FIX.4.4|9=265|35=8|49=EXCHANGE|56=MY_COMPANY|34=8|11=market_maker-1747819774.117378|37=market_maker-1747819774.117378|17=d761a5fa-414d-465f-b42a-8933300e04e3|39=2|150=F|55=PHIA.AS|54=2|38=5|32=5|31=21.30866900|151=0|14=5|44=21.30866900|6007=market_maker|52=20250521-09:29:39.165|10=081|
2025-05-21 10:29:39,169 [INFO] OUT: 8=FIX.4.4|9=150|35=D|49=MY_COMPANY|56=EXCHANGE|34=9|11=market_maker-1747819779.169031|55=PHIA.AS|54=1|44=21.30866900|38=10|52=20250521-09:29:39.169|6007=market_maker|10=015|
2025-05-21 10:29:39,169 [INFO] IN: 8=FIX.4.4|9=150|35=D|49=MY_COMPANY|56=EXCHANGE|34=9|11=market_maker-1747819779.169031|55=PHIA.AS|54=1|44=21.30866900|38=10|52=20250521-09:29:39.169|6007=market_maker|10=015|
2025-05-21 10:29:39,170 [INFO] OUT: 8=FIX.4.4|9=278|35=8|49=EXCHANGE|56=MY_COMPANY|34=10|11=3cd97d80-f428-43aa-aed2-804d601b8010|37=3cd97d80-f428-43aa-aed2-804d601b8010|17=5e8586d5-6815-40fd-b968-59b023ba7aca|39=2|150=F|55=PHIA.AS|54=1|38=9|32=9|31=21.30866900|151=0|14=9|44=21.30866900|6007=market_maker|52=20250521-09:29:39.170|10=247|
2025-05-21 10:29:39,174 [INFO] OUT: 8=FIX.4.4|9=266|35=8|49=EXCHANGE|56=MY_COMPANY|34=11|11=market_maker-1747819779.169031|37=market_maker-1747819779.169031|17=ef5ed0b9-6821-48d7-9fe9-edb69f155a97|39=2|150=F|55=PHIA.AS|54=1|38=1|32=1|31=21.30866900|151=0|14=1|44=21.30866900|6007=market_maker|52=20250521-09:29:39.174|10=043|
2025-05-21 10:29:39,175 [INFO] OUT: 8=FIX.4.4|9=278|35=8|49=EXCHANGE|56=MY_COMPANY|34=12|11=3cd97d80-f428-43aa-aed2-804d601b8010|37=3cd97d80-f428-43aa-aed2-804d601b8010|17=df23355c-539e-4d24-9f2c-5f9032b1dbe9|39=2|150=F|55=PHIA.AS|54=1|38=1|32=1|31=21.30866900|151=0|14=1|44=21.30866900|6007=market_maker|52=20250521-09:29:39.175|10=016|
2025-05-21 10:29:39,175 [INFO] OUT: 8=FIX.4.4|9=266|35=8|49=EXCHANGE|56=MY_COMPANY|34=13|11=market_maker-1747819779.169031|37=market_maker-1747819779.169031|17=6567f35b-16cf-4efd-93a3-540aa24eb294|39=2|150=F|55=PHIA.AS|54=2|38=8|32=8|31=21.30866900|151=0|14=8|44=21.30866900|6007=market_maker|52=20250521-09:29:39.175|10=241|
2025-05-21 10:29:39,176 [INFO] OUT: 8=FIX.4.4|9=278|35=8|49=EXCHANGE|56=MY_COMPANY|34=14|11=666d90eb-e458-4d65-a99b-55eede4ef575|37=666d90eb-e458-4d65-a99b-55eede4ef575|17=15f17c82-5d67-4049-a3f9-0b2d9721bcc3|39=2|150=F|55=PHIA.AS|54=2|38=8|32=8|31=21.30866900|151=0|14=8|44=21.30866900|6007=market_maker|52=20250521-09:29:39.176|10=227|
2025-05-21 10:29:39,182 [INFO] OUT: 8=FIX.4.4|9=149|35=D|49=MY_COMPANY|56=EXCHANGE|34=7|11=market_maker-1747819779.182005|55=INGA.AS|54=1|44=19.13084900|38=1|52=20250521-09:29:39.182|6007=market_maker|10=217|
2025-05-21 10:29:39,182 [INFO] IN: 8=FIX.4.4|9=149|35=D|49=MY_COMPANY|56=EXCHANGE|34=7|11=market_maker-1747819779.182005|55=INGA.AS|54=1|44=19.13084900|38=1|52=20250521-09:29:39.182|6007=market_maker|10=217|
2025-05-21 10:29:39,182 [INFO] OUT: 8=FIX.4.4|9=277|35=8|49=EXCHANGE|56=MY_COMPANY|34=8|11=cb7aa66f-8970-4ddc-a01c-23a1d5cbbabb|37=cb7aa66f-8970-4ddc-a01c-23a1d5cbbabb|17=114c561a-078c-46ca-a94d-0deea9a4bb68|39=2|150=F|55=INGA.AS|54=1|38=1|32=1|31=19.13084900|151=0|14=1|44=19.13084900|6007=market_maker|52=20250521-09:29:39.182|10=189|
2025-05-21 10:29:39,182 [INFO] OUT: 8=FIX.4.4|9=277|35=8|49=EXCHANGE|56=MY_COMPANY|34=9|11=4736989c-e227-4ab7-b315-12e132fa9eef|37=4736989c-e227-4ab7-b315-12e132fa9eef|17=fb242966-1e5c-4811-8ecc-c33d45e21507|39=2|150=F|55=INGA.AS|54=2|38=2|32=2|31=19.13084900|151=0|14=2|44=19.13084900|6007=market_maker|52=20250521-09:29:39.182|10=169|
2025-05-21 10:29:39,187 [INFO] OUT: 8=FIX.4.4|9=263|35=8|49=EXCHANGE|56=MY_COMPANY|34=7|11=market_maker-1747819769.088311|37=market_maker-1747819769.088311|17=3fb3f8c2-793e-4b58-96d3-300d40d65d30|39=2|150=F|55=AD.AS|54=2|38=1|32=1|31=37.83212800|151=0|14=1|44=37.83212800|6007=market_maker|52=20250521-09:29:39.187|10=177|
2025-05-21 10:29:39,188 [INFO] OUT: 8=FIX.4.4|9=148|35=D|49=MY_COMPANY|56=EXCHANGE|34=8|11=market_maker-1747819779.1884868|55=AD.AS|54=1|44=37.83212800|38=2|52=20250521-09:29:39.188|6007=market_maker|10=144|
2025-05-21 10:29:39,188 [INFO] IN: 8=FIX.4.4|9=148|35=D|49=MY_COMPANY|56=EXCHANGE|34=8|11=market_maker-1747819779.1884868|55=AD.AS|54=1|44=37.83212800|38=2|52=20250521-09:29:39.188|6007=market_maker|10=144|
2025-05-21 10:29:39,188 [INFO] OUT: 8=FIX.4.4|9=263|35=8|49=EXCHANGE|56=MY_COMPANY|34=9|11=market_maker-1747819774.133056|37=market_maker-1747819774.133056|17=aa73b631-6fc3-468b-9c59-164c0be362e9|39=2|150=F|55=AD.AS|54=1|38=2|32=2|31=37.83212800|151=0|14=2|44=37.83212800|6007=market_maker|52=20250521-09:29:39.188|10=219|
2025-05-21 10:29:39,189 [INFO] OUT: 8=FIX.4.4|9=276|35=8|49=EXCHANGE|56=MY_COMPANY|34=10|11=53f8bdb1-3b45-4886-bb33-0b5b817145af|37=53f8bdb1-3b45-4886-bb33-0b5b817145af|17=97383508-6f8a-47d3-af54-43ea7f419767|39=2|150=F|55=AD.AS|54=1|38=2|32=2|31=37.83212800|151=0|14=2|44=37.83212800|6007=market_maker|52=20250521-09:29:39.189|10=224|
2025-05-21 10:29:39,189 [INFO] OUT: 8=FIX.4.4|9=264|35=8|49=EXCHANGE|56=MY_COMPANY|34=11|11=market_maker-1747819774.133056|37=market_maker-1747819774.133056|17=d7e68d06-1f47-4b90-acea-97eb6264c203|39=2|150=F|55=AD.AS|54=2|38=2|32=2|31=37.83212800|151=0|14=2|44=37.83212800|6007=market_maker|52=20250521-09:29:39.189|10=053|
2025-05-21 10:29:39,189 [INFO] OUT: 8=FIX.4.4|9=276|35=8|49=EXCHANGE|56=MY_COMPANY|34=12|11=bd759760-ce74-4e59-bb83-5ec867829762|37=bd759760-ce74-4e59-bb83-5ec867829762|17=d6060a2a-84c3-4d60-8374-c80da2f2cb9f|39=2|150=F|55=AD.AS|54=2|38=2|32=2|31=37.83212800|151=0|14=2|44=37.83212800|6007=market_maker|52=20250521-09:29:39.189|10=017|
2025-05-21 10:29:39,190 [INFO] OUT: 8=FIX.4.4|9=276|35=8|49=EXCHANGE|56=MY_COMPANY|34=13|11=bd759760-ce74-4e59-bb83-5ec867829762|37=bd759760-ce74-4e59-bb83-5ec867829762|17=6efe9f2e-062c-456e-a3f0-7fde210348fb|39=2|150=F|55=AD.AS|54=2|38=2|32=2|31=37.83212800|151=0|14=2|44=37.83212800|6007=market_maker|52=20250521-09:29:39.190|10=119|
2025-05-21 10:29:39,190 [INFO] OUT: 8=FIX.4.4|9=266|35=8|49=EXCHANGE|56=MY_COMPANY|34=14|11=market_maker-1747819779.1884868|37=market_maker-1747819779.1884868|17=7045b34d-cde8-47ce-bc64-1478617b3fa6|39=2|150=F|55=AD.AS|54=2|38=2|32=2|31=37.83212800|151=0|14=2|44=37.83212800|6007=market_maker|52=20250521-09:29:39.190|10=209|
2025-05-21 10:29:39,190 [INFO] OUT: 8=FIX.4.4|9=276|35=8|49=EXCHANGE|56=MY_COMPANY|34=15|11=bd759760-ce74-4e59-bb83-5ec867829762|37=bd759760-ce74-4e59-bb83-5ec867829762|17=d5437594-63f2-4247-8e55-3a3f261e2f5a|39=2|150=F|55=AD.AS|54=2|38=2|32=2|31=37.83212800|151=0|14=2|44=37.83212800|6007=market_maker|52=20250521-09:29:39.190|10=095|
2025-05-21 10:29:39,191 [INFO] OUT: 8=FIX.4.4|9=276|35=8|49=EXCHANGE|56=MY_COMPANY|34=16|11=bd759760-ce74-4e59-bb83-5ec867829762|37=bd759760-ce74-4e59-bb83-5ec867829762|17=101b9356-71df-481d-a69b-2cd4fc177c0a|39=2|150=F|55=AD.AS|54=2|38=3|32=3|31=37.79425800|151=0|14=3|44=37.79425800|6007=market_maker|52=20250521-09:29:39.191|10=040|
2025-05-21 10:29:39,195 [INFO] OUT: 8=FIX.4.4|9=148|35=D|49=MY_COMPANY|56=EXCHANGE|34=7|11=market_maker-1747819779.195185|55=SAN.PA|54=1|44=93.42647600|38=9|52=20250521-09:29:39.195|6007=market_maker|10=183|
2025-05-21 10:29:39,195 [INFO] IN: 8=FIX.4.4|9=148|35=D|49=MY_COMPANY|56=EXCHANGE|34=7|11=market_maker-1747819779.195185|55=SAN.PA|54=1|44=93.42647600|38=9|52=20250521-09:29:39.195|6007=market_maker|10=183|
2025-05-21 10:29:39,195 [INFO] OUT: 8=FIX.4.4|9=276|35=8|49=EXCHANGE|56=MY_COMPANY|34=8|11=4920b7ba-c0ed-48b9-8e2a-bcd63c820aec|37=4920b7ba-c0ed-48b9-8e2a-bcd63c820aec|17=d1606128-20e7-485b-b19a-f4fb5005560c|39=2|150=F|55=SAN.PA|54=1|38=3|32=3|31=93.42647600|151=0|14=3|44=93.42647600|6007=market_maker|52=20250521-09:29:39.195|10=251|
2025-05-21 10:29:39,196 [INFO] OUT: 8=FIX.4.4|9=276|35=8|49=EXCHANGE|56=MY_COMPANY|34=9|11=4920b7ba-c0ed-48b9-8e2a-bcd63c820aec|37=4920b7ba-c0ed-48b9-8e2a-bcd63c820aec|17=c9387e68-3fec-4b9f-9f50-56e28ee62660|39=2|150=F|55=SAN.PA|54=1|38=6|32=6|31=93.42647600|151=0|14=6|44=93.42647600|6007=market_maker|52=20250521-09:29:39.196|10=149|
2025-05-21 10:29:39,196 [INFO] OUT: 8=FIX.4.4|9=277|35=8|49=EXCHANGE|56=MY_COMPANY|34=10|11=7248bb84-b792-4c1f-b67e-062b713e2525|37=7248bb84-b792-4c1f-b67e-062b713e2525|17=1217d390-c49c-4826-b372-66a421b85471|39=2|150=F|55=SAN.PA|54=2|38=2|32=2|31=93.42647600|151=0|14=2|44=93.42647600|6007=market_maker|52=20250521-09:29:39.196|10=025|
2025-05-21 10:29:39,197 [INFO] OUT: 8=FIX.4.4|9=265|35=8|49=EXCHANGE|56=MY_COMPANY|34=11|11=market_maker-1747819769.094722|37=market_maker-1747819769.094722|17=71f5271d-dffe-4acf-adf5-ac2b9c4b2c22|39=2|150=F|55=SAN.PA|54=2|38=2|32=2|31=93.42647600|151=0|14=2|44=93.42647600|6007=market_maker|52=20250521-09:29:39.197|10=196|
2025-05-21 10:29:44,208 [INFO] OUT: 8=FIX.4.4|9=266|35=8|49=EXCHANGE|56=MY_COMPANY|34=15|11=market_maker-1747819779.169031|37=market_maker-1747819779.169031|17=c510cd53-5c76-4541-85da-02cbad6f9488|39=2|150=F|55=PHIA.AS|54=1|38=1|32=1|31=21.30866900|151=0|14=1|44=21.30866900|6007=market_maker|52=20250521-09:29:44.207|10=165|
2025-05-21 10:29:44,215 [INFO] OUT: 8=FIX.4.4|9=151|35=D|49=MY_COMPANY|56=EXCHANGE|34=16|11=market_maker-1747819784.214859|55=PHIA.AS|54=1|44=21.30866900|38=10|52=20250521-09:29:44.215|6007=market_maker|10=055|
2025-05-21 10:29:44,215 [INFO] IN: 8=FIX.4.4|9=151|35=D|49=MY_COMPANY|56=EXCHANGE|34=16|11=market_maker-1747819784.214859|55=PHIA.AS|54=1|44=21.30866900|38=10|52=20250521-09:29:44.215|6007=market_maker|10=055|
2025-05-21 10:29:44,216 [INFO] OUT: 8=FIX.4.4|9=269|35=8|49=EXCHANGE|56=MY_COMPANY|34=17|11=market_maker-1747819784.214859|37=market_maker-1747819784.214859|17=1a87b437-9fa9-40d9-b9de-d90a44012b85|39=2|150=F|55=PHIA.AS|54=1|38=10|32=10|31=21.30866900|151=0|14=10|44=21.30866900|6007=market_maker|52=20250521-09:29:44.216|10=073|
2025-05-21 10:29:44,216 [INFO] OUT: 8=FIX.4.4|9=281|35=8|49=EXCHANGE|56=MY_COMPANY|34=18|11=bd5759fb-a992-499e-a4c9-adee4c48f525|37=bd5759fb-a992-499e-a4c9-adee4c48f525|17=45619cf0-151a-495c-8c18-86f8fb58ca3d|39=2|150=F|55=PHIA.AS|54=1|38=10|32=10|31=21.30866900|151=0|14=10|44=21.30866900|6007=market_maker|52=20250521-09:29:44.216|10=232|
2025-05-21 10:29:44,217 [INFO] OUT: 8=FIX.4.4|9=278|35=8|49=EXCHANGE|56=MY_COMPANY|34=19|11=57dd71c7-5332-44c9-b31d-68383854a1b4|37=57dd71c7-5332-44c9-b31d-68383854a1b4|17=ef2e2a9f-0fac-49aa-9d2e-23addfec13e6|39=2|150=F|55=PHIA.AS|54=2|38=4|32=4|31=21.28733900|151=0|14=4|44=21.28733900|6007=market_maker|52=20250521-09:29:44.216|10=104|
2025-05-21 10:29:44,228 [INFO] OUT: 8=FIX.4.4|9=150|35=D|49=MY_COMPANY|56=EXCHANGE|34=10|11=market_maker-1747819784.228384|55=INGA.AS|54=1|44=19.13084900|38=4|52=20250521-09:29:44.228|6007=market_maker|10=002|
2025-05-21 10:29:44,228 [INFO] IN: 8=FIX.4.4|9=150|35=D|49=MY_COMPANY|56=EXCHANGE|34=10|11=market_maker-1747819784.228384|55=INGA.AS|54=1|44=19.13084900|38=4|52=20250521-09:29:44.228|6007=market_maker|10=002|
2025-05-21 10:29:44,229 [INFO] OUT: 8=FIX.4.4|9=278|35=8|49=EXCHANGE|56=MY_COMPANY|34=11|11=4b74bac8-f287-4f4f-aaef-65c7a1d0af68|37=4b74bac8-f287-4f4f-aaef-65c7a1d0af68|17=ac312ab3-d1eb-440c-b6e1-721d3dfc0ddb|39=2|150=F|55=INGA.AS|54=1|38=2|32=2|31=19.13084900|151=0|14=2|44=19.13084900|6007=market_maker|52=20250521-09:29:44.229|10=221|
2025-05-21 10:29:44,230 [INFO] OUT: 8=FIX.4.4|9=266|35=8|49=EXCHANGE|56=MY_COMPANY|34=12|11=market_maker-1747819769.080626|37=market_maker-1747819769.080626|17=b6d8c3f0-a4a5-4322-8099-78cca2b3242c|39=2|150=F|55=INGA.AS|54=1|38=2|32=2|31=19.13084900|151=0|14=2|44=19.13084900|6007=market_maker|52=20250521-09:29:44.230|10=150|
2025-05-21 10:29:44,230 [INFO] OUT: 8=FIX.4.4|9=278|35=8|49=EXCHANGE|56=MY_COMPANY|34=13|11=4b74bac8-f287-4f4f-aaef-65c7a1d0af68|37=4b74bac8-f287-4f4f-aaef-65c7a1d0af68|17=c49faac2-30f4-40f7-bd97-1cb9feeaf258|39=2|150=F|55=INGA.AS|54=1|38=2|32=2|31=19.13084900|151=0|14=2|44=19.13084900|6007=market_maker|52=20250521-09:29:44.230|10=208|
2025-05-21 10:29:44,230 [INFO] OUT: 8=FIX.4.4|9=266|35=8|49=EXCHANGE|56=MY_COMPANY|34=14|11=market_maker-1747819769.080626|37=market_maker-1747819769.080626|17=359a2a1f-c3fa-444f-9e3a-12572cd9b2ea|39=2|150=F|55=INGA.AS|54=2|38=1|32=1|31=19.13084900|151=0|14=1|44=19.13084900|6007=market_maker|52=20250521-09:29:44.230|10=038|
2025-05-21 10:29:44,230 [INFO] OUT: 8=FIX.4.4|9=278|35=8|49=EXCHANGE|56=MY_COMPANY|34=15|11=9cd8c457-a84f-4e01-8d66-8ad2ef16f381|37=9cd8c457-a84f-4e01-8d66-8ad2ef16f381|17=d0cc3550-36f1-473a-8666-378f4957065e|39=2|150=F|55=INGA.AS|54=2|38=1|32=1|31=19.13084900|151=0|14=1|44=19.13084900|6007=market_maker|52=20250521-09:29:44.230|10=195|
2025-05-21 10:29:44,231 [INFO] OUT: 8=FIX.4.4|9=278|35=8|49=EXCHANGE|56=MY_COMPANY|34=16|11=9cd8c457-a84f-4e01-8d66-8ad2ef16f381|37=9cd8c457-a84f-4e01-8d66-8ad2ef16f381|17=ec1fa56e-8eea-42ef-b07b-b5f8d4e996d2|39=2|150=F|55=INGA.AS|54=2|38=2|32=2|31=19.13084900|151=0|14=2|44=19.13084900|6007=market_maker|52=20250521-09:29:44.231|10=166|
2025-05-21 10:29:44,231 [INFO] OUT: 8=FIX.4.4|9=266|35=8|49=EXCHANGE|56=MY_COMPANY|34=17|11=market_maker-1747819774.127425|37=market_maker-1747819774.127425|17=92688b41-0401-4f17-809d-b48b00782b7b|39=2|150=F|55=INGA.AS|54=2|38=2|32=2|31=19.13084900|151=0|14=2|44=19.13084900|6007=market_maker|52=20250521-09:29:44.231|10=219|
2025-05-21 10:29:44,231 [INFO] OUT: 8=FIX.4.4|9=278|35=8|49=EXCHANGE|56=MY_COMPANY|34=18|11=9cd8c457-a84f-4e01-8d66-8ad2ef16f381|37=9cd8c457-a84f-4e01-8d66-8ad2ef16f381|17=fb82554c-a742-47da-a8fd-24f22a7a8555|39=2|150=F|55=INGA.AS|54=2|38=2|32=2|31=19.13084900|151=0|14=2|44=19.13084900|6007=market_maker|52=20250521-09:29:44.231|10=173|
2025-05-21 10:29:44,233 [INFO] OUT: 8=FIX.4.4|9=266|35=8|49=EXCHANGE|56=MY_COMPANY|34=19|11=market_maker-1747819779.182005|37=market_maker-1747819779.182005|17=21d5d94b-81ff-4573-b879-f51bbcc394be|39=2|150=F|55=INGA.AS|54=2|38=1|32=1|31=19.13084900|151=0|14=1|44=19.13084900|6007=market_maker|52=20250521-09:29:44.233|10=010|
2025-05-21 10:29:44,236 [INFO] OUT: 8=FIX.4.4|9=149|35=D|49=MY_COMPANY|56=EXCHANGE|34=17|11=market_maker-1747819784.2365088|55=AD.AS|54=1|44=37.77537981|38=6|52=20250521-09:29:44.236|6007=market_maker|10=195|
2025-05-21 10:29:44,236 [INFO] IN: 8=FIX.4.4|9=149|35=D|49=MY_COMPANY|56=EXCHANGE|34=17|11=market_maker-1747819784.2365088|55=AD.AS|54=1|44=37.77537981|38=6|52=20250521-09:29:44.236|6007=market_maker|10=195|
2025-05-21 10:29:44,237 [INFO] OUT: 8=FIX.4.4|9=276|35=8|49=EXCHANGE|56=MY_COMPANY|34=18|11=13d8c9b9-d923-4297-8552-3257570d6134|37=13d8c9b9-d923-4297-8552-3257570d6134|17=0c7a9321-880e-40bc-b145-3e8019853ec9|39=2|150=F|55=AD.AS|54=1|38=6|32=6|31=37.79425800|151=0|14=6|44=37.79425800|6007=market_maker|52=20250521-09:29:44.236|10=254|
2025-05-21 10:29:44,237 [INFO] OUT: 8=FIX.4.4|9=276|35=8|49=EXCHANGE|56=MY_COMPANY|34=19|11=0b92674c-35e0-47fa-8ff1-cea256401bd2|37=0b92674c-35e0-47fa-8ff1-cea256401bd2|17=4e7b6ec7-091c-40bb-95e6-b2fe85095c19|39=2|150=F|55=AD.AS|54=2|38=2|32=2|31=37.79425800|151=0|14=2|44=37.79425800|6007=market_maker|52=20250521-09:29:44.237|10=254|
2025-05-21 10:29:44,240 [INFO] OUT: 8=FIX.4.4|9=265|35=8|49=EXCHANGE|56=MY_COMPANY|34=6|11=market_maker-1747819769.092258|37=market_maker-1747819769.092258|17=b2701dd9-4b10-4bff-b6c4-77c69311a511|39=2|150=F|55=OR.PA|54=1|38=1|32=1|31=380.66893701|151=0|14=1|44=380.66893701|6007=market_maker|52=20250521-09:29:44.240|10=103|
2025-05-21 10:29:44,241 [INFO] OUT: 8=FIX.4.4|9=265|35=8|49=EXCHANGE|56=MY_COMPANY|34=12|11=market_maker-1747819769.094722|37=market_maker-1747819769.094722|17=169e5f18-90a0-4209-bd5b-ee53f6f47b84|39=2|150=F|55=SAN.PA|54=1|38=1|32=1|31=93.42647600|151=0|14=1|44=93.42647600|6007=market_maker|52=20250521-09:29:44.241|10=120|
2025-05-21 10:29:44,243 [INFO] OUT: 8=FIX.4.4|9=149|35=D|49=MY_COMPANY|56=EXCHANGE|34=13|11=market_maker-1747819784.243497|55=SAN.PA|54=1|44=93.33304952|38=4|52=20250521-09:29:44.243|6007=market_maker|10=210|
2025-05-21 10:29:44,243 [INFO] IN: 8=FIX.4.4|9=149|35=D|49=MY_COMPANY|56=EXCHANGE|34=13|11=market_maker-1747819784.243497|55=SAN.PA|54=1|44=93.33304952|38=4|52=20250521-09:29:44.243|6007=market_maker|10=210|
2025-05-21 10:29:44,244 [INFO] OUT: 8=FIX.4.4|9=277|35=8|49=EXCHANGE|56=MY_COMPANY|34=14|11=fd3c5612-2e2d-4397-9baf-95df2e3baa22|37=fd3c5612-2e2d-4397-9baf-95df2e3baa22|17=dc9603a0-3abe-47d3-abfc-cc45b71f1446|39=2|150=F|55=SAN.PA|54=1|38=4|32=4|31=93.42647600|151=0|14=4|44=93.42647600|6007=market_maker|52=20250521-09:29:44.244|10=144|
2025-05-21 10:29:44,244 [INFO] OUT: 8=FIX.4.4|9=277|35=8|49=EXCHANGE|56=MY_COMPANY|34=15|11=4a7a20ff-a897-4c20-9ab0-747629dfd6d1|37=4a7a20ff-a897-4c20-9ab0-747629dfd6d1|17=81e71cbd-19d7-464b-a1a9-19204b4514da|39=2|150=F|55=SAN.PA|54=2|38=2|32=2|31=93.42647600|151=0|14=2|44=93.42647600|6007=market_maker|52=20250521-09:29:44.244|10=030|
2025-05-21 10:29:44,244 [INFO] OUT: 8=FIX.4.4|9=267|35=8|49=EXCHANGE|56=MY_COMPANY|34=16|11=market_maker-1747819774.1420832|37=market_maker-1747819774.1420832|17=6f1dbec0-d805-45c1-97be-30278a4436e1|39=2|150=F|55=SAN.PA|54=2|38=4|32=4|31=93.42647600|151=0|14=4|44=93.42647600|6007=market_maker|52=20250521-09:29:44.244|10=203|
2025-05-21 10:29:44,244 [INFO] OUT: 8=FIX.4.4|9=277|35=8|49=EXCHANGE|56=MY_COMPANY|34=17|11=4a7a20ff-a897-4c20-9ab0-747629dfd6d1|37=4a7a20ff-a897-4c20-9ab0-747629dfd6d1|17=5f6d8f1f-6fec-4e8a-8715-45d799674eaf|39=2|150=F|55=SAN.PA|54=2|38=4|32=4|31=93.42647600|151=0|14=4|44=93.42647600|6007=market_maker|52=20250521-09:29:44.244|10=185|
2025-05-21 10:29:49,261 [INFO] OUT: 8=FIX.4.4|9=151|35=D|49=MY_COMPANY|56=EXCHANGE|34=20|11=market_maker-1747819789.261298|55=PHIA.AS|54=1|44=21.27670600|38=10|52=20250521-09:29:49.261|6007=market_maker|10=056|
2025-05-21 10:29:49,262 [INFO] IN: 8=FIX.4.4|9=151|35=D|49=MY_COMPANY|56=EXCHANGE|34=20|11=market_maker-1747819789.261298|55=PHIA.AS|54=1|44=21.27670600|38=10|52=20250521-09:29:49.261|6007=market_maker|10=056|
2025-05-21 10:29:49,262 [INFO] OUT: 8=FIX.4.4|9=281|35=8|49=EXCHANGE|56=MY_COMPANY|34=21|11=01c7a1f0-4a9a-4720-ac61-4724122b1c3a|37=01c7a1f0-4a9a-4720-ac61-4724122b1c3a|17=3ae0f3f9-21b5-4ec7-8ee8-a74c9c1807a7|39=2|150=F|55=PHIA.AS|54=1|38=10|32=10|31=21.28733900|151=0|14=10|44=21.28733900|6007=market_maker|52=20250521-09:29:49.262|10=062|
2025-05-21 10:29:49,262 [INFO] OUT: 8=FIX.4.4|9=278|35=8|49=EXCHANGE|56=MY_COMPANY|34=22|11=2d784c94-b78c-47f2-8081-f69f2ab85fce|37=2d784c94-b78c-47f2-8081-f69f2ab85fce|17=96328d16-c710-4841-b007-e1871174e6c1|39=2|150=F|55=PHIA.AS|54=2|38=4|32=4|31=21.28733900|151=0|14=4|44=21.28733900|6007=market_maker|52=20250521-09:29:49.262|10=165|
2025-05-21 10:29:49,270 [INFO] OUT: 8=FIX.4.4|9=266|35=8|49=EXCHANGE|56=MY_COMPANY|34=20|11=market_maker-1747819784.228384|37=market_maker-1747819784.228384|17=13e966b8-b7b9-46df-b9c3-3e1ed7284be1|39=2|150=F|55=INGA.AS|54=1|38=1|32=1|31=19.13084900|151=0|14=1|44=19.13084900|6007=market_maker|52=20250521-09:29:49.269|10=031|
2025-05-21 10:29:49,271 [INFO] OUT: 8=FIX.4.4|9=266|35=8|49=EXCHANGE|56=MY_COMPANY|34=21|11=market_maker-1747819784.228384|37=market_maker-1747819784.228384|17=50305787-fd23-49d1-b2b0-be8473049c4c|39=2|150=F|55=INGA.AS|54=2|38=3|32=3|31=19.13084900|151=0|14=3|44=19.13084900|6007=market_maker|52=20250521-09:29:49.270|10=077|
2025-05-21 10:29:49,274 [INFO] OUT: 8=FIX.4.4|9=149|35=D|49=MY_COMPANY|56=EXCHANGE|34=22|11=market_maker-1747819789.27453|55=INGA.AS|54=1|44=19.11171815|38=7|52=20250521-09:29:49.274|6007=market_maker|10=229|
2025-05-21 10:29:49,274 [INFO] IN: 8=FIX.4.4|9=149|35=D|49=MY_COMPANY|56=EXCHANGE|34=22|11=market_maker-1747819789.27453|55=INGA.AS|54=1|44=19.11171815|38=7|52=20250521-09:29:49.274|6007=market_maker|10=229|
2025-05-21 10:29:49,275 [INFO] OUT: 8=FIX.4.4|9=264|35=8|49=EXCHANGE|56=MY_COMPANY|34=23|11=market_maker-1747819789.27453|37=market_maker-1747819789.27453|17=d30e1873-5505-4235-b20a-383f02187365|39=2|150=F|55=INGA.AS|54=1|38=7|32=7|31=19.11171815|151=0|14=7|44=19.11171815|6007=market_maker|52=20250521-09:29:49.275|10=050|
2025-05-21 10:29:49,275 [INFO] OUT: 8=FIX.4.4|9=278|35=8|49=EXCHANGE|56=MY_COMPANY|34=24|11=bff9019c-60a8-4bc8-8f52-c8ee66d3a58c|37=bff9019c-60a8-4bc8-8f52-c8ee66d3a58c|17=203817e1-b258-4a33-b721-ec747627d72b|39=2|150=F|55=INGA.AS|54=1|38=7|32=7|31=19.11171815|151=0|14=7|44=19.11171815|6007=market_maker|52=20250521-09:29:49.275|10=186|
2025-05-21 10:29:49,275 [INFO] OUT: 8=FIX.4.4|9=281|35=8|49=EXCHANGE|56=MY_COMPANY|34=25|11=49ac2e8c-25a0-4de2-92ac-d0924888e2c0|37=49ac2e8c-25a0-4de2-92ac-d0924888e2c0|17=5a231e1d-986c-4003-82be-586fa462ae13|39=2|150=F|55=INGA.AS|54=2|38=10|32=10|31=19.11169900|151=0|14=10|44=19.11169900|6007=market_maker|52=20250521-09:29:49.275|10=173|
2025-05-21 10:29:49,278 [INFO] OUT: 8=FIX.4.4|9=148|35=D|49=MY_COMPANY|56=EXCHANGE|34=20|11=market_maker-1747819789.278095|55=AD.AS|54=1|44=37.77537981|38=9|52=20250521-09:29:49.278|6007=market_maker|10=158|
2025-05-21 10:29:49,278 [INFO] IN: 8=FIX.4.4|9=148|35=D|49=MY_COMPANY|56=EXCHANGE|34=20|11=market_maker-1747819789.278095|55=AD.AS|54=1|44=37.77537981|38=9|52=20250521-09:29:49.278|6007=market_maker|10=158|
2025-05-21 10:29:49,278 [INFO] OUT: 8=FIX.4.4|9=276|35=8|49=EXCHANGE|56=MY_COMPANY|34=21|11=cfe4df59-f53d-4926-b65c-4b0f582ccb28|37=cfe4df59-f53d-4926-b65c-4b0f582ccb28|17=39982e7b-2605-4721-a6dc-0007c9bbeadd|39=2|150=F|55=AD.AS|54=1|38=9|32=9|31=37.79425800|151=0|14=9|44=37.79425800|6007=market_maker|52=20250521-09:29:49.278|10=240|
2025-05-21 10:29:49,278 [INFO] OUT: 8=FIX.4.4|9=276|35=8|49=EXCHANGE|56=MY_COMPANY|34=22|11=f6ee4221-ed1b-4771-b187-84b64f0cd967|37=f6ee4221-ed1b-4771-b187-84b64f0cd967|17=9343cf4e-7411-48ae-bf67-3f6915b94df8|39=2|150=F|55=AD.AS|54=2|38=5|32=5|31=37.79425800|151=0|14=5|44=37.79425800|6007=market_maker|52=20250521-09:29:49.278|10=173|
2025-05-21 10:29:49,280 [INFO] OUT: 8=FIX.4.4|9=265|35=8|49=EXCHANGE|56=MY_COMPANY|34=7|11=market_maker-1747819769.092258|37=market_maker-1747819769.092258|17=44cc73ba-1122-4972-b7d1-102a12d5c6ab|39=2|150=F|55=OR.PA|54=2|38=3|32=3|31=380.66893701|151=0|14=3|44=380.66893701|6007=market_maker|52=20250521-09:29:49.280|10=103|
2025-05-21 10:29:49,282 [INFO] OUT: 8=FIX.4.4|9=148|35=D|49=MY_COMPANY|56=EXCHANGE|34=18|11=market_maker-1747819789.28251|55=SAN.PA|54=1|44=93.33304952|38=1|52=20250521-09:29:49.282|6007=market_maker|10=165|
2025-05-21 10:29:49,282 [INFO] IN: 8=FIX.4.4|9=148|35=D|49=MY_COMPANY|56=EXCHANGE|34=18|11=market_maker-1747819789.28251|55=SAN.PA|54=1|44=93.33304952|38=1|52=20250521-09:29:49.282|6007=market_maker|10=165|
2025-05-21 10:29:49,283 [INFO] OUT: 8=FIX.4.4|9=277|35=8|49=EXCHANGE|56=MY_COMPANY|34=19|11=038f70c1-b58b-4ea9-8c77-f4ceb3818ffc|37=038f70c1-b58b-4ea9-8c77-f4ceb3818ffc|17=df877872-8e51-448e-ab12-24529251e1d4|39=2|150=F|55=SAN.PA|54=1|38=1|32=1|31=93.42647600|151=0|14=1|44=93.42647600|6007=market_maker|52=20250521-09:29:49.283|10=130|
2025-05-21 10:29:49,288 [INFO] OUT: 8=FIX.4.4|9=277|35=8|49=EXCHANGE|56=MY_COMPANY|34=20|11=f140b5d2-209b-4c33-a1c7-b902f87295ea|37=f140b5d2-209b-4c33-a1c7-b902f87295ea|17=3b4d77a3-91c9-4262-b536-e81c39485903|39=2|150=F|55=SAN.PA|54=2|38=2|32=2|31=93.42647600|151=0|14=2|44=93.42647600|6007=market_maker|52=20250521-09:29:49.288|10=001|
2025-05-21 10:29:49,288 [INFO] OUT: 8=FIX.4.4|9=265|35=8|49=EXCHANGE|56=MY_COMPANY|34=21|11=market_maker-1747819779.195185|37=market_maker-1747819779.195185|17=e1b243fc-c491-4f23-a529-24985da2cc43|39=2|150=F|55=SAN.PA|54=2|38=2|32=2|31=93.42647600|151=0|14=2|44=93.42647600|6007=market_maker|52=20250521-09:29:49.288|10=135|
2025-05-21 10:29:49,288 [INFO] OUT: 8=FIX.4.4|9=277|35=8|49=EXCHANGE|56=MY_COMPANY|34=22|11=f140b5d2-209b-4c33-a1c7-b902f87295ea|37=f140b5d2-209b-4c33-a1c7-b902f87295ea|17=d5a373df-594e-4d5b-acbf-62842f34c3cd|39=2|150=F|55=SAN.PA|54=2|38=2|32=2|31=93.42647600|151=0|14=2|44=93.42647600|6007=market_maker|52=20250521-09:29:49.288|10=121|
2025-05-21 10:29:49,289 [INFO] OUT: 8=FIX.4.4|9=265|35=8|49=EXCHANGE|56=MY_COMPANY|34=23|11=market_maker-1747819779.195185|37=market_maker-1747819779.195185|17=3868a4c7-6147-4dd2-a046-657655675f27|39=2|150=F|55=SAN.PA|54=1|38=7|32=7|31=93.42647600|151=0|14=7|44=93.42647600|6007=market_maker|52=20250521-09:29:49.289|10=195|
2025-05-21 10:29:54,302 [INFO] OUT: 8=FIX.4.4|9=266|35=8|49=EXCHANGE|56=MY_COMPANY|34=23|11=market_maker-1747819789.261298|37=market_maker-1747819789.261298|17=d9d67c67-2f96-4cef-a0a8-84ebc7ed488b|39=2|150=F|55=PHIA.AS|54=2|38=8|32=8|31=21.27670600|151=0|14=8|44=21.27670600|6007=market_maker|52=20250521-09:29:54.302|10=156|
2025-05-21 10:29:54,310 [INFO] OUT: 8=FIX.4.4|9=150|35=D|49=MY_COMPANY|56=EXCHANGE|34=24|11=market_maker-1747819794.308386|55=PHIA.AS|54=1|44=21.27670600|38=5|52=20250521-09:29:54.310|6007=market_maker|10=002|
2025-05-21 10:29:54,310 [INFO] IN: 8=FIX.4.4|9=150|35=D|49=MY_COMPANY|56=EXCHANGE|34=24|11=market_maker-1747819794.308386|55=PHIA.AS|54=1|44=21.27670600|38=5|52=20250521-09:29:54.310|6007=market_maker|10=002|
2025-05-21 10:29:54,311 [INFO] OUT: 8=FIX.4.4|9=266|35=8|49=EXCHANGE|56=MY_COMPANY|34=25|11=market_maker-1747819789.261298|37=market_maker-1747819789.261298|17=ee198ecb-a349-4cb2-88bf-2849a89528d2|39=2|150=F|55=PHIA.AS|54=1|38=2|32=2|31=21.27670600|151=0|14=2|44=21.27670600|6007=market_maker|52=20250521-09:29:54.311|10=246|
2025-05-21 10:29:54,312 [INFO] OUT: 8=FIX.4.4|9=278|35=8|49=EXCHANGE|56=MY_COMPANY|34=26|11=3d68f90a-f0e6-419c-ac3c-f1da8f365ae9|37=3d68f90a-f0e6-419c-ac3c-f1da8f365ae9|17=ad15b382-9a88-4a23-8537-3cf44e808d76|39=2|150=F|55=PHIA.AS|54=1|38=2|32=2|31=21.27670600|151=0|14=2|44=21.27670600|6007=market_maker|52=20250521-09:29:54.312|10=044|
2025-05-21 10:29:54,312 [INFO] OUT: 8=FIX.4.4|9=266|35=8|49=EXCHANGE|56=MY_COMPANY|34=27|11=market_maker-1747819794.308386|37=market_maker-1747819794.308386|17=81053e6a-c5c6-4495-a8dc-b07888708d2e|39=2|150=F|55=PHIA.AS|54=1|38=3|32=3|31=21.27670600|151=0|14=3|44=21.27670600|6007=market_maker|52=20250521-09:29:54.312|10=139|
2025-05-21 10:29:54,312 [INFO] OUT: 8=FIX.4.4|9=278|35=8|49=EXCHANGE|56=MY_COMPANY|34=28|11=3d68f90a-f0e6-419c-ac3c-f1da8f365ae9|37=3d68f90a-f0e6-419c-ac3c-f1da8f365ae9|17=17be3d5c-87e9-4909-992c-937712536622|39=2|150=F|55=PHIA.AS|54=1|38=3|32=3|31=21.27670600|151=0|14=3|44=21.27670600|6007=market_maker|52=20250521-09:29:54.312|10=175|
2025-05-21 10:29:54,313 [INFO] OUT: 8=FIX.4.4|9=266|35=8|49=EXCHANGE|56=MY_COMPANY|34=29|11=market_maker-1747819794.308386|37=market_maker-1747819794.308386|17=7ce1c68b-d2b9-4ac5-98bc-81bda0a186a5|39=2|150=F|55=PHIA.AS|54=2|38=2|32=2|31=21.27670600|151=0|14=2|44=21.27670600|6007=market_maker|52=20250521-09:29:54.313|10=106|
2025-05-21 10:29:54,313 [INFO] OUT: 8=FIX.4.4|9=278|35=8|49=EXCHANGE|56=MY_COMPANY|34=30|11=d9565373-f72d-46db-8f1f-17161c8d8946|37=d9565373-f72d-46db-8f1f-17161c8d8946|17=fc2d7f69-18c8-4746-a587-d128868b2453|39=2|150=F|55=PHIA.AS|54=2|38=2|32=2|31=21.27670600|151=0|14=2|44=21.27670600|6007=market_maker|52=20250521-09:29:54.313|10=240|
2025-05-21 10:29:54,313 [INFO] OUT: 8=FIX.4.4|9=278|35=8|49=EXCHANGE|56=MY_COMPANY|34=31|11=d9565373-f72d-46db-8f1f-17161c8d8946|37=d9565373-f72d-46db-8f1f-17161c8d8946|17=8cf36e70-6bd3-4c1a-9022-bbbd063bbd98|39=2|150=F|55=PHIA.AS|54=2|38=6|32=6|31=21.26600900|151=0|14=6|44=21.26600900|6007=market_maker|52=20250521-09:29:54.313|10=236|
2025-05-21 10:29:54,321 [INFO] OUT: 8=FIX.4.4|9=150|35=D|49=MY_COMPANY|56=EXCHANGE|34=26|11=market_maker-1747819794.320987|55=INGA.AS|54=1|44=19.10215273|38=9|52=20250521-09:29:54.321|6007=market_maker|10=008|
2025-05-21 10:29:54,321 [INFO] IN: 8=FIX.4.4|9=150|35=D|49=MY_COMPANY|56=EXCHANGE|34=26|11=market_maker-1747819794.320987|55=INGA.AS|54=1|44=19.10215273|38=9|52=20250521-09:29:54.321|6007=market_maker|10=008|
2025-05-21 10:29:54,321 [INFO] OUT: 8=FIX.4.4|9=278|35=8|49=EXCHANGE|56=MY_COMPANY|34=27|11=2b2b2323-5704-478d-8875-6dac90f15e05|37=2b2b2323-5704-478d-8875-6dac90f15e05|17=19c5cc2b-7d4e-4e3c-9e3d-681cc0736e94|39=2|150=F|55=INGA.AS|54=1|38=9|32=9|31=19.11169900|151=0|14=9|44=19.11169900|6007=market_maker|52=20250521-09:29:54.321|10=091|
2025-05-21 10:29:54,321 [INFO] OUT: 8=FIX.4.4|9=278|35=8|49=EXCHANGE|56=MY_COMPANY|34=28|11=8546af55-727c-45bd-ade1-a43dbd71280f|37=8546af55-727c-45bd-ade1-a43dbd71280f|17=a9a996e7-0414-4cfc-b4f5-caa8e5eda80e|39=2|150=F|55=INGA.AS|54=2|38=2|32=2|31=19.11169900|151=0|14=2|44=19.11169900|6007=market_maker|52=20250521-09:29:54.321|10=174|
2025-05-21 10:29:54,326 [INFO] OUT: 8=FIX.4.4|9=147|35=D|49=MY_COMPANY|56=EXCHANGE|34=23|11=market_maker-1747819794.32672|55=AD.AS|54=1|44=37.75646374|38=9|52=20250521-09:29:54.326|6007=market_maker|10=082|
2025-05-21 10:29:54,327 [INFO] IN: 8=FIX.4.4|9=147|35=D|49=MY_COMPANY|56=EXCHANGE|34=23|11=market_maker-1747819794.32672|55=AD.AS|54=1|44=37.75646374|38=9|52=20250521-09:29:54.326|6007=market_maker|10=082|
2025-05-21 10:29:54,327 [INFO] OUT: 8=FIX.4.4|9=276|35=8|49=EXCHANGE|56=MY_COMPANY|34=24|11=db1bb9cb-37da-44ad-b6e6-b47e862a121c|37=db1bb9cb-37da-44ad-b6e6-b47e862a121c|17=9468fe98-9fb4-4c0a-9ce7-379acd11779d|39=2|150=F|55=AD.AS|54=1|38=1|32=1|31=37.79425800|151=0|14=1|44=37.79425800|6007=market_maker|52=20250521-09:29:54.327|10=131|
2025-05-21 10:29:54,328 [INFO] OUT: 8=FIX.4.4|9=266|35=8|49=EXCHANGE|56=MY_COMPANY|34=25|11=market_maker-1747819784.2365088|37=market_maker-1747819784.2365088|17=23931130-625f-4374-b72a-3011586a13a8|39=2|150=F|55=AD.AS|54=1|38=6|32=6|31=37.77537981|151=0|14=6|44=37.77537981|6007=market_maker|52=20250521-09:29:54.328|10=132|
2025-05-21 10:29:54,328 [INFO] OUT: 8=FIX.4.4|9=276|35=8|49=EXCHANGE|56=MY_COMPANY|34=26|11=db1bb9cb-37da-44ad-b6e6-b47e862a121c|37=db1bb9cb-37da-44ad-b6e6-b47e862a121c|17=88205ae4-72b0-4ee2-88bb-e1e78e5dd9d1|39=2|150=F|55=AD.AS|54=1|38=6|32=6|31=37.77537981|151=0|14=6|44=37.77537981|6007=market_maker|52=20250521-09:29:54.328|10=195|
2025-05-21 10:29:54,328 [INFO] OUT: 8=FIX.4.4|9=264|35=8|49=EXCHANGE|56=MY_COMPANY|34=27|11=market_maker-1747819789.278095|37=market_maker-1747819789.278095|17=c24c3f37-aca9-4398-b37c-c1cb82652648|39=2|150=F|55=AD.AS|54=1|38=2|32=2|31=37.77537981|151=0|14=2|44=37.77537981|6007=market_maker|52=20250521-09:29:54.328|10=089|
2025-05-21 10:29:54,328 [INFO] OUT: 8=FIX.4.4|9=276|35=8|49=EXCHANGE|56=MY_COMPANY|34=28|11=db1bb9cb-37da-44ad-b6e6-b47e862a121c|37=db1bb9cb-37da-44ad-b6e6-b47e862a121c|17=9a10317f-e4ef-4bf8-b709-b16818cb6774|39=2|150=F|55=AD.AS|54=1|38=2|32=2|31=37.77537981|151=0|14=2|44=37.77537981|6007=market_maker|52=20250521-09:29:54.328|10=092|
2025-05-21 10:29:54,329 [INFO] OUT: 8=FIX.4.4|9=264|35=8|49=EXCHANGE|56=MY_COMPANY|34=29|11=market_maker-1747819789.278095|37=market_maker-1747819789.278095|17=eb1434ce-30e8-44d4-a2ee-892b584667a3|39=2|150=F|55=AD.AS|54=2|38=4|32=4|31=37.77537981|151=0|14=4|44=37.77537981|6007=market_maker|52=20250521-09:29:54.329|10=098|
2025-05-21 10:29:54,329 [INFO] OUT: 8=FIX.4.4|9=276|35=8|49=EXCHANGE|56=MY_COMPANY|34=30|11=1ebf3a9b-0b17-456d-bc50-6ec29f344d08|37=1ebf3a9b-0b17-456d-bc50-6ec29f344d08|17=17838330-bb8c-49d1-994f-8a47696c47a6|39=2|150=F|55=AD.AS|54=2|38=4|32=4|31=37.77537981|151=0|14=4|44=37.77537981|6007=market_maker|52=20250521-09:29:54.329|10=204|
2025-05-21 10:29:54,330 [INFO] OUT: 8=FIX.4.4|9=264|35=8|49=EXCHANGE|56=MY_COMPANY|34=31|11=market_maker-1747819789.278095|37=market_maker-1747819789.278095|17=38b31380-eba4-42da-b08d-9d9406d24efa|39=2|150=F|55=AD.AS|54=2|38=3|32=3|31=37.77537981|151=0|14=3|44=37.77537981|6007=market_maker|52=20250521-09:29:54.330|10=162|
2025-05-21 10:29:54,331 [INFO] OUT: 8=FIX.4.4|9=262|35=8|49=EXCHANGE|56=MY_COMPANY|34=32|11=market_maker-1747819794.32672|37=market_maker-1747819794.32672|17=7efd22da-1cbd-4737-8f2e-be0f53724967|39=2|150=F|55=AD.AS|54=2|38=3|32=3|31=37.75646374|151=0|14=3|44=37.75646374|6007=market_maker|52=20250521-09:29:54.331|10=046|
2025-05-21 10:29:54,333 [INFO] OUT: 8=FIX.4.4|9=151|35=D|49=MY_COMPANY|56=EXCHANGE|34=24|11=market_maker-1747819794.3331242|55=SAN.PA|54=1|44=93.33304952|38=10|52=20250521-09:29:54.333|6007=market_maker|10=033|
2025-05-21 10:29:54,333 [INFO] IN: 8=FIX.4.4|9=151|35=D|49=MY_COMPANY|56=EXCHANGE|34=24|11=market_maker-1747819794.3331242|55=SAN.PA|54=1|44=93.33304952|38=10|52=20250521-09:29:54.333|6007=market_maker|10=033|
2025-05-21 10:29:54,333 [INFO] OUT: 8=FIX.4.4|9=277|35=8|49=EXCHANGE|56=MY_COMPANY|34=25|11=6c1fce59-55dd-428d-b577-b4c116c7c9e9|37=6c1fce59-55dd-428d-b577-b4c116c7c9e9|17=84a1fe1e-58c7-4a52-8f71-0efc7fec7fca|39=2|150=F|55=SAN.PA|54=1|38=5|32=5|31=93.42647600|151=0|14=5|44=93.42647600|6007=market_maker|52=20250521-09:29:54.333|10=172|
2025-05-21 10:29:54,334 [INFO] OUT: 8=FIX.4.4|9=277|35=8|49=EXCHANGE|56=MY_COMPANY|34=26|11=6c1fce59-55dd-428d-b577-b4c116c7c9e9|37=6c1fce59-55dd-428d-b577-b4c116c7c9e9|17=6e20b1ca-a798-4a10-bb2f-9901cb7e5325|39=2|150=F|55=SAN.PA|54=1|38=5|32=5|31=93.42647600|151=0|14=5|44=93.42647600|6007=market_maker|52=20250521-09:29:54.334|10=212|
2025-05-21 10:29:54,334 [INFO] OUT: 8=FIX.4.4|9=277|35=8|49=EXCHANGE|56=MY_COMPANY|34=27|11=3628bced-a008-4602-a98b-15932cd2204f|37=3628bced-a008-4602-a98b-15932cd2204f|17=78e56edc-46a7-4be8-8372-8ee779f1ad13|39=2|150=F|55=SAN.PA|54=2|38=2|32=2|31=93.42647600|151=0|14=2|44=93.42647600|6007=market_maker|52=20250521-09:29:54.334|10=150|
2025-05-21 10:29:54,334 [INFO] OUT: 8=FIX.4.4|9=265|35=8|49=EXCHANGE|56=MY_COMPANY|34=28|11=market_maker-1747819784.243497|37=market_maker-1747819784.243497|17=b966fabc-b3ff-453b-ab8b-ffe1bd970844|39=2|150=F|55=SAN.PA|54=2|38=4|32=4|31=93.33304952|151=0|14=4|44=93.33304952|6007=market_maker|52=20250521-09:29:54.334|10=172|
2025-05-21 10:29:54,334 [INFO] OUT: 8=FIX.4.4|9=277|35=8|49=EXCHANGE|56=MY_COMPANY|34=29|11=3628bced-a008-4602-a98b-15932cd2204f|37=3628bced-a008-4602-a98b-15932cd2204f|17=d7f83b8c-9a75-4624-aebe-c666a2d0b776|39=2|150=F|55=SAN.PA|54=2|38=4|32=4|31=93.33304952|151=0|14=4|44=93.33304952|6007=market_maker|52=20250521-09:29:54.334|10=191|
2025-05-21 10:29:54,335 [INFO] OUT: 8=FIX.4.4|9=263|35=8|49=EXCHANGE|56=MY_COMPANY|34=30|11=market_maker-1747819789.28251|37=market_maker-1747819789.28251|17=34420b6d-4081-418d-b6b7-76e67492bd56|39=2|150=F|55=SAN.PA|54=2|38=1|32=1|31=93.33304952|151=0|14=1|44=93.33304952|6007=market_maker|52=20250521-09:29:54.335|10=127|
2025-05-21 10:29:54,335 [INFO] OUT: 8=FIX.4.4|9=277|35=8|49=EXCHANGE|56=MY_COMPANY|34=31|11=3628bced-a008-4602-a98b-15932cd2204f|37=3628bced-a008-4602-a98b-15932cd2204f|17=266e9690-385e-4c4a-99a5-1c54c92e01b0|39=2|150=F|55=SAN.PA|54=2|38=1|32=1|31=93.33304952|151=0|14=1|44=93.33304952|6007=market_maker|52=20250521-09:29:54.335|10=233|
2025-05-21 10:29:54,335 [INFO] OUT: 8=FIX.4.4|9=267|35=8|49=EXCHANGE|56=MY_COMPANY|34=32|11=market_maker-1747819794.3331242|37=market_maker-1747819794.3331242|17=680ef4ca-5ab9-40fd-a4f1-882365aad3c1|39=2|150=F|55=SAN.PA|54=2|38=2|32=2|31=93.33304952|151=0|14=2|44=93.33304952|6007=market_maker|52=20250521-09:29:54.335|10=082|
2025-05-21 10:29:54,335 [INFO] OUT: 8=FIX.4.4|9=277|35=8|49=EXCHANGE|56=MY_COMPANY|34=33|11=3628bced-a008-4602-a98b-15932cd2204f|37=3628bced-a008-4602-a98b-15932cd2204f|17=8b089faa-71cc-4e72-90f8-ec8dd4c3b049|39=2|150=F|55=SAN.PA|54=2|38=2|32=2|31=93.33304952|151=0|14=2|44=93.33304952|6007=market_maker|52=20250521-09:29:54.335|10=226|
2025-05-21 10:29:54,336 [INFO] OUT: 8=FIX.4.4|9=267|35=8|49=EXCHANGE|56=MY_COMPANY|34=34|11=market_maker-1747819794.3331242|37=market_maker-1747819794.3331242|17=3efb5ad4-6f67-4156-b76d-6ec1039c5260|39=2|150=F|55=SAN.PA|54=2|38=1|32=1|31=93.33304952|151=0|14=1|44=93.33304952|6007=market_maker|52=20250521-09:29:54.336|10=206|
2025-05-21 10:29:59,345 [INFO] HEARBEAT SENT: 8=FIX.4.4|9=61|35=0|49=MY_COMPANY|56=EXCHANGE|34=7|52=20250521-09:29:59.345|10=071|
2025-05-21 10:29:59,352 [INFO] OUT: 8=FIX.4.4|9=150|35=D|49=MY_COMPANY|56=EXCHANGE|34=32|11=market_maker-1747819799.352017|55=PHIA.AS|54=1|44=21.25539733|38=4|52=20250521-09:29:59.352|6007=market_maker|10=015|
2025-05-21 10:29:59,352 [INFO] IN: 8=FIX.4.4|9=150|35=D|49=MY_COMPANY|56=EXCHANGE|34=32|11=market_maker-1747819799.352017|55=PHIA.AS|54=1|44=21.25539733|38=4|52=20250521-09:29:59.352|6007=market_maker|10=015|
2025-05-21 10:29:59,353 [INFO] OUT: 8=FIX.4.4|9=278|35=8|49=EXCHANGE|56=MY_COMPANY|34=33|11=0b5e041a-b346-4374-8077-b8950e62273b|37=0b5e041a-b346-4374-8077-b8950e62273b|17=f7000323-838c-4b0c-b7d8-82740a2f0f5b|39=2|150=F|55=PHIA.AS|54=1|38=4|32=4|31=21.26600900|151=0|14=4|44=21.26600900|6007=market_maker|52=20250521-09:29:59.353|10=045|
2025-05-21 10:29:59,355 [INFO] OUT: 8=FIX.4.4|9=281|35=8|49=EXCHANGE|56=MY_COMPANY|34=34|11=e217a486-d114-43b5-8824-9581f127c6f3|37=e217a486-d114-43b5-8824-9581f127c6f3|17=1e0d4d3d-f122-4b83-988b-f04324db0916|39=2|150=F|55=PHIA.AS|54=2|38=10|32=10|31=21.26600900|151=0|14=10|44=21.26600900|6007=market_maker|52=20250521-09:29:59.354|10=208|
2025-05-21 10:29:59,360 [INFO] HEARBEAT SENT: 8=FIX.4.4|9=62|35=0|49=MY_COMPANY|56=EXCHANGE|34=35|52=20250521-09:29:59.360|10=118|
2025-05-21 10:29:59,371 [INFO] OUT: 8=FIX.4.4|9=266|35=8|49=EXCHANGE|56=MY_COMPANY|34=29|11=market_maker-1747819794.320987|37=market_maker-1747819794.320987|17=1418c4cc-77c0-4c8e-9b51-6e63244e34a2|39=2|150=F|55=INGA.AS|54=2|38=8|32=8|31=19.10215273|151=0|14=8|44=19.10215273|6007=market_maker|52=20250521-09:29:59.370|10=148|
2025-05-21 10:29:59,371 [INFO] OUT: 8=FIX.4.4|9=150|35=D|49=MY_COMPANY|56=EXCHANGE|34=30|11=market_maker-1747819799.371583|55=INGA.AS|54=1|44=19.10215273|38=9|52=20250521-09:29:59.371|6007=market_maker|10=016|
2025-05-21 10:29:59,371 [INFO] IN: 8=FIX.4.4|9=150|35=D|49=MY_COMPANY|56=EXCHANGE|34=30|11=market_maker-1747819799.371583|55=INGA.AS|54=1|44=19.10215273|38=9|52=20250521-09:29:59.371|6007=market_maker|10=016|
2025-05-21 10:29:59,372 [INFO] OUT: 8=FIX.4.4|9=266|35=8|49=EXCHANGE|56=MY_COMPANY|34=31|11=market_maker-1747819794.320987|37=market_maker-1747819794.320987|17=00e8f8ed-b5b6-4317-8624-daff554159ae|39=2|150=F|55=INGA.AS|54=1|38=1|32=1|31=19.10215273|151=0|14=1|44=19.10215273|6007=market_maker|52=20250521-09:29:59.372|10=229|
2025-05-21 10:29:59,372 [INFO] OUT: 8=FIX.4.4|9=278|35=8|49=EXCHANGE|56=MY_COMPANY|34=32|11=b209f101-e46f-4819-9d16-26ad4972f215|37=b209f101-e46f-4819-9d16-26ad4972f215|17=4b1571d1-f975-4bd2-8771-0cd25fdcd57f|39=2|150=F|55=INGA.AS|54=1|38=1|32=1|31=19.10215273|151=0|14=1|44=19.10215273|6007=market_maker|52=20250521-09:29:59.372|10=017|
2025-05-21 10:29:59,372 [INFO] OUT: 8=FIX.4.4|9=266|35=8|49=EXCHANGE|56=MY_COMPANY|34=33|11=market_maker-1747819799.371583|37=market_maker-1747819799.371583|17=42ec394c-5c33-4ae6-a38f-fc71731d60ef|39=2|150=F|55=INGA.AS|54=1|38=8|32=8|31=19.10215273|151=0|14=8|44=19.10215273|6007=market_maker|52=20250521-09:29:59.372|10=042|
2025-05-21 10:29:59,372 [INFO] OUT: 8=FIX.4.4|9=278|35=8|49=EXCHANGE|56=MY_COMPANY|34=34|11=b209f101-e46f-4819-9d16-26ad4972f215|37=b209f101-e46f-4819-9d16-26ad4972f215|17=8121da29-cb6d-4e67-a3be-e523c03daf65|39=2|150=F|55=INGA.AS|54=1|38=8|32=8|31=19.10215273|151=0|14=8|44=19.10215273|6007=market_maker|52=20250521-09:29:59.372|10=119|
2025-05-21 10:29:59,373 [INFO] OUT: 8=FIX.4.4|9=266|35=8|49=EXCHANGE|56=MY_COMPANY|34=35|11=market_maker-1747819799.371583|37=market_maker-1747819799.371583|17=94a2da7c-296f-42cf-89cf-8e9e28d9883b|39=2|150=F|55=INGA.AS|54=2|38=1|32=1|31=19.10215273|151=0|14=1|44=19.10215273|6007=market_maker|52=20250521-09:29:59.373|10=061|
2025-05-21 10:29:59,373 [INFO] OUT: 8=FIX.4.4|9=278|35=8|49=EXCHANGE|56=MY_COMPANY|34=36|11=ec9aea13-c2af-4c34-8633-a869b45e6261|37=ec9aea13-c2af-4c34-8633-a869b45e6261|17=23ee33dc-91d8-4b47-9b04-fe80ed81ed86|39=2|150=F|55=INGA.AS|54=2|38=1|32=1|31=19.10215273|151=0|14=1|44=19.10215273|6007=market_maker|52=20250521-09:29:59.373|10=197|
2025-05-21 10:29:59,374 [INFO] HEARBEAT SENT: 8=FIX.4.4|9=62|35=0|49=MY_COMPANY|56=EXCHANGE|34=37|52=20250521-09:29:59.374|10=125|
2025-05-21 10:29:59,375 [INFO] OUT: 8=FIX.4.4|9=262|35=8|49=EXCHANGE|56=MY_COMPANY|34=33|11=market_maker-1747819794.32672|37=market_maker-1747819794.32672|17=f5e75c71-dcd0-4c38-a6a5-3593ecc7d7ed|39=2|150=F|55=AD.AS|54=1|38=6|32=6|31=37.75646374|151=0|14=6|44=37.75646374|6007=market_maker|52=20250521-09:29:59.375|10=164|
2025-05-21 10:29:59,377 [INFO] OUT: 8=FIX.4.4|9=148|35=D|49=MY_COMPANY|56=EXCHANGE|34=34|11=market_maker-1747819799.377225|55=AD.AS|54=1|44=37.73758551|38=9|52=20250521-09:29:59.377|6007=market_maker|10=154|
2025-05-21 10:29:59,377 [INFO] IN: 8=FIX.4.4|9=148|35=D|49=MY_COMPANY|56=EXCHANGE|34=34|11=market_maker-1747819799.377225|55=AD.AS|54=1|44=37.73758551|38=9|52=20250521-09:29:59.377|6007=market_maker|10=154|
2025-05-21 10:29:59,378 [INFO] OUT: 8=FIX.4.4|9=276|35=8|49=EXCHANGE|56=MY_COMPANY|34=35|11=f9611594-5f25-404e-8cbb-319915e64683|37=f9611594-5f25-404e-8cbb-319915e64683|17=005750c9-a3b2-4bae-8312-faee50bb65c6|39=2|150=F|55=AD.AS|54=1|38=4|32=4|31=37.75646374|151=0|14=4|44=37.75646374|6007=market_maker|52=20250521-09:29:59.377|10=129|
2025-05-21 10:29:59,378 [INFO] OUT: 8=FIX.4.4|9=276|35=8|49=EXCHANGE|56=MY_COMPANY|34=36|11=f9611594-5f25-404e-8cbb-319915e64683|37=f9611594-5f25-404e-8cbb-319915e64683|17=980c6c47-f557-4ceb-aa43-0fa17de9616d|39=2|150=F|55=AD.AS|54=1|38=5|32=5|31=37.75638801|151=0|14=5|44=37.75638801|6007=market_maker|52=20250521-09:29:59.378|10=153|
2025-05-21 10:29:59,378 [INFO] OUT: 8=FIX.4.4|9=276|35=8|49=EXCHANGE|56=MY_COMPANY|34=37|11=915113b6-f709-4662-b250-ceaf769cab3e|37=915113b6-f709-4662-b250-ceaf769cab3e|17=4222c80b-d2a5-4c28-b3e6-b6b7b68f622e|39=2|150=F|55=AD.AS|54=2|38=2|32=2|31=37.75638801|151=0|14=2|44=37.75638801|6007=market_maker|52=20250521-09:29:59.378|10=174|
2025-05-21 10:29:59,378 [INFO] HEARBEAT SENT: 8=FIX.4.4|9=62|35=0|49=MY_COMPANY|56=EXCHANGE|34=38|52=20250521-09:29:59.378|10=130|
2025-05-21 10:29:59,379 [INFO] HEARBEAT SENT: 8=FIX.4.4|9=61|35=0|49=MY_COMPANY|56=EXCHANGE|34=8|52=20250521-09:29:59.379|10=079|
2025-05-21 10:29:59,379 [INFO] OUT: 8=FIX.4.4|9=149|35=D|49=MY_COMPANY|56=EXCHANGE|34=35|11=market_maker-1747819799.379869|55=SAN.PA|54=1|44=93.28638300|38=1|52=20250521-09:29:59.379|6007=market_maker|10=247|
2025-05-21 10:29:59,380 [INFO] IN: 8=FIX.4.4|9=149|35=D|49=MY_COMPANY|56=EXCHANGE|34=35|11=market_maker-1747819799.379869|55=SAN.PA|54=1|44=93.28638300|38=1|52=20250521-09:29:59.379|6007=market_maker|10=247|
2025-05-21 10:29:59,380 [INFO] OUT: 8=FIX.4.4|9=267|35=8|49=EXCHANGE|56=MY_COMPANY|34=36|11=market_maker-1747819794.3331242|37=market_maker-1747819794.3331242|17=17492a4a-844b-4ed7-ae39-f85c072f72c0|39=2|150=F|55=SAN.PA|54=1|38=1|32=1|31=93.33304952|151=0|14=1|44=93.33304952|6007=market_maker|52=20250521-09:29:59.380|10=212|
2025-05-21 10:29:59,380 [INFO] OUT: 8=FIX.4.4|9=277|35=8|49=EXCHANGE|56=MY_COMPANY|34=37|11=8d63f2a0-13a3-4e07-a937-fd1cf999588e|37=8d63f2a0-13a3-4e07-a937-fd1cf999588e|17=ad016c1a-21da-4f09-aa11-6982c8d26010|39=2|150=F|55=SAN.PA|54=1|38=1|32=1|31=93.33304952|151=0|14=1|44=93.33304952|6007=market_maker|52=20250521-09:29:59.380|10=205|
2025-05-21 10:29:59,380 [INFO] OUT: 8=FIX.4.4|9=267|35=8|49=EXCHANGE|56=MY_COMPANY|34=38|11=market_maker-1747819794.3331242|37=market_maker-1747819794.3331242|17=9e702e45-3f9b-4d27-afbd-5c9332f42b45|39=2|150=F|55=SAN.PA|54=2|38=2|32=2|31=93.33304952|151=0|14=2|44=93.33304952|6007=market_maker|52=20250521-09:29:59.380|10=011|
2025-05-21 10:29:59,380 [INFO] OUT: 8=FIX.4.4|9=277|35=8|49=EXCHANGE|56=MY_COMPANY|34=39|11=6ead047d-c51f-418c-8aad-d49c61aa66ad|37=6ead047d-c51f-418c-8aad-d49c61aa66ad|17=bb942aea-fcf3-4f5b-af79-110bae8573a5|39=2|150=F|55=SAN.PA|54=2|38=2|32=2|31=93.33304952|151=0|14=2|44=93.33304952|6007=market_maker|52=20250521-09:29:59.380|10=139|
2025-05-21 10:29:59,381 [INFO] HEARBEAT SENT: 8=FIX.4.4|9=62|35=0|49=MY_COMPANY|56=EXCHANGE|34=40|52=20250521-09:29:59.381|10=117|
2025-05-21 10:30:04,401 [INFO] OUT: 8=FIX.4.4|9=266|35=8|49=EXCHANGE|56=MY_COMPANY|34=36|11=market_maker-1747819799.352017|37=market_maker-1747819799.352017|17=66babe70-418f-46d9-9b75-6b91db36796d|39=2|150=F|55=PHIA.AS|54=2|38=4|32=4|31=21.25539733|151=0|14=4|44=21.25539733|6007=market_maker|52=20250521-09:30:04.400|10=194|
2025-05-21 10:30:04,406 [INFO] OUT: 8=FIX.4.4|9=150|35=D|49=MY_COMPANY|56=EXCHANGE|34=37|11=market_maker-1747819804.406164|55=PHIA.AS|54=1|44=21.25539733|38=4|52=20250521-09:30:04.406|6007=market_maker|10=248|
2025-05-21 10:30:04,406 [INFO] IN: 8=FIX.4.4|9=150|35=D|49=MY_COMPANY|56=EXCHANGE|34=37|11=market_maker-1747819804.406164|55=PHIA.AS|54=1|44=21.25539733|38=4|52=20250521-09:30:04.406|6007=market_maker|10=248|
2025-05-21 10:30:04,407 [INFO] OUT: 8=FIX.4.4|9=266|35=8|49=EXCHANGE|56=MY_COMPANY|34=38|11=market_maker-1747819804.406164|37=market_maker-1747819804.406164|17=1b9ce1ce-cc28-4b71-b76b-becb36a52d2d|39=2|150=F|55=PHIA.AS|54=1|38=4|32=4|31=21.25539733|151=0|14=4|44=21.25539733|6007=market_maker|52=20250521-09:30:04.406|10=175|
2025-05-21 10:30:04,407 [INFO] OUT: 8=FIX.4.4|9=278|35=8|49=EXCHANGE|56=MY_COMPANY|34=39|11=9043eadd-074f-4450-ae7c-55372b7cf5fd|37=9043eadd-074f-4450-ae7c-55372b7cf5fd|17=c8a8faf0-22ba-4068-8081-f4b18f70e538|39=2|150=F|55=PHIA.AS|54=1|38=4|32=4|31=21.25539733|151=0|14=4|44=21.25539733|6007=market_maker|52=20250521-09:30:04.407|10=201|
2025-05-21 10:30:04,408 [INFO] OUT: 8=FIX.4.4|9=281|35=8|49=EXCHANGE|56=MY_COMPANY|34=40|11=361527ac-2b31-4ffa-acc2-cb213ef246a1|37=361527ac-2b31-4ffa-acc2-cb213ef246a1|17=8acc43b0-be26-4d50-9ea5-c16b637751c5|39=2|150=F|55=PHIA.AS|54=2|38=10|32=10|31=21.24467900|151=0|14=10|44=21.24467900|6007=market_maker|52=20250521-09:30:04.408|10=127|
2025-05-21 10:30:04,413 [INFO] OUT: 8=FIX.4.4|9=150|35=D|49=MY_COMPANY|56=EXCHANGE|34=38|11=market_maker-1747819804.412905|55=INGA.AS|54=1|44=19.08302188|38=1|52=20250521-09:30:04.413|6007=market_maker|10=241|
2025-05-21 10:30:04,413 [INFO] IN: 8=FIX.4.4|9=150|35=D|49=MY_COMPANY|56=EXCHANGE|34=38|11=market_maker-1747819804.412905|55=INGA.AS|54=1|44=19.08302188|38=1|52=20250521-09:30:04.413|6007=market_maker|10=241|
2025-05-21 10:30:04,413 [INFO] OUT: 8=FIX.4.4|9=278|35=8|49=EXCHANGE|56=MY_COMPANY|34=39|11=30c540e2-fa80-4947-a380-d6a325a8b41a|37=30c540e2-fa80-4947-a380-d6a325a8b41a|17=9ca28440-158b-4410-a714-6cf4950c9d17|39=2|150=F|55=INGA.AS|54=1|38=1|32=1|31=19.09254900|151=0|14=1|44=19.09254900|6007=market_maker|52=20250521-09:30:04.413|10=220|
2025-05-21 10:30:04,414 [INFO] OUT: 8=FIX.4.4|9=278|35=8|49=EXCHANGE|56=MY_COMPANY|34=40|11=eb805569-cf9b-400a-ba55-5d3cdf197907|37=eb805569-cf9b-400a-ba55-5d3cdf197907|17=0a70f0c6-eb83-4d3b-b721-a701bb2ef541|39=2|150=F|55=INGA.AS|54=2|38=4|32=4|31=19.09254900|151=0|14=4|44=19.09254900|6007=market_maker|52=20250521-09:30:04.413|10=168|
2025-05-21 10:30:04,417 [INFO] OUT: 8=FIX.4.4|9=148|35=D|49=MY_COMPANY|56=EXCHANGE|34=39|11=market_maker-1747819804.417653|55=AD.AS|54=1|44=37.73754768|38=8|52=20250521-09:30:04.417|6007=market_maker|10=128|
2025-05-21 10:30:04,417 [INFO] IN: 8=FIX.4.4|9=148|35=D|49=MY_COMPANY|56=EXCHANGE|34=39|11=market_maker-1747819804.417653|55=AD.AS|54=1|44=37.73754768|38=8|52=20250521-09:30:04.417|6007=market_maker|10=128|
2025-05-21 10:30:04,418 [INFO] OUT: 8=FIX.4.4|9=276|35=8|49=EXCHANGE|56=MY_COMPANY|34=40|11=1e295b41-7d9e-43d4-8f8c-b8103cdaa310|37=1e295b41-7d9e-43d4-8f8c-b8103cdaa310|17=77e9a906-4be0-463c-a494-2912e0811944|39=2|150=F|55=AD.AS|54=1|38=8|32=8|31=37.75638801|151=0|14=8|44=37.75638801|6007=market_maker|52=20250521-09:30:04.418|10=017|
2025-05-21 10:30:04,419 [INFO] OUT: 8=FIX.4.4|9=276|35=8|49=EXCHANGE|56=MY_COMPANY|34=41|11=e2c173af-7dd3-40e9-8cd3-f2d9e934900d|37=e2c173af-7dd3-40e9-8cd3-f2d9e934900d|17=7bfc23cf-4a96-4ad3-9e4f-d111ffe19972|39=2|150=F|55=AD.AS|54=2|38=9|32=9|31=37.75638801|151=0|14=9|44=37.75638801|6007=market_maker|52=20250521-09:30:04.419|10=236|
2025-05-21 10:30:04,420 [INFO] OUT: 8=FIX.4.4|9=149|35=D|49=MY_COMPANY|56=EXCHANGE|34=41|11=market_maker-1747819804.420825|55=SAN.PA|54=1|44=93.28638300|38=3|52=20250521-09:30:04.420|6007=market_maker|10=181|
2025-05-21 10:30:04,421 [INFO] IN: 8=FIX.4.4|9=149|35=D|49=MY_COMPANY|56=EXCHANGE|34=41|11=market_maker-1747819804.420825|55=SAN.PA|54=1|44=93.28638300|38=3|52=20250521-09:30:04.420|6007=market_maker|10=181|
2025-05-21 10:30:04,421 [INFO] OUT: 8=FIX.4.4|9=267|35=8|49=EXCHANGE|56=MY_COMPANY|34=42|11=market_maker-1747819794.3331242|37=market_maker-1747819794.3331242|17=3761f321-7acd-4236-9f42-65acd68735ca|39=2|150=F|55=SAN.PA|54=1|38=3|32=3|31=93.33304952|151=0|14=3|44=93.33304952|6007=market_maker|52=20250521-09:30:04.421|10=143|
2025-05-21 10:30:04,421 [INFO] OUT: 8=FIX.4.4|9=277|35=8|49=EXCHANGE|56=MY_COMPANY|34=43|11=5c092bd2-7dcb-42ca-ba80-7a632ae4b5c0|37=5c092bd2-7dcb-42ca-ba80-7a632ae4b5c0|17=8235346e-9697-4303-be0e-6cdfdb9ad254|39=2|150=F|55=SAN.PA|54=1|38=3|32=3|31=93.33304952|151=0|14=3|44=93.33304952|6007=market_maker|52=20250521-09:30:04.421|10=012|
2025-05-21 10:30:04,422 [INFO] OUT: 8=FIX.4.4|9=267|35=8|49=EXCHANGE|56=MY_COMPANY|34=44|11=market_maker-1747819794.3331242|37=market_maker-1747819794.3331242|17=b8277f10-112e-4b99-9d8f-21e3e271e59c|39=2|150=F|55=SAN.PA|54=2|38=1|32=1|31=93.33304952|151=0|14=1|44=93.33304952|6007=market_maker|52=20250521-09:30:04.421|10=149|
2025-05-21 10:30:04,422 [INFO] OUT: 8=FIX.4.4|9=277|35=8|49=EXCHANGE|56=MY_COMPANY|34=45|11=fad9938b-6fc7-44fc-949e-fc9d64f2e80e|37=fad9938b-6fc7-44fc-949e-fc9d64f2e80e|17=eaddcb65-a89e-408d-aeaa-02e718c0cea4|39=2|150=F|55=SAN.PA|54=2|38=1|32=1|31=93.33304952|151=0|14=1|44=93.33304952|6007=market_maker|52=20250521-09:30:04.422|10=193|
2025-05-21 10:30:09,445 [INFO] OUT: 8=FIX.4.4|9=150|35=D|49=MY_COMPANY|56=EXCHANGE|34=41|11=market_maker-1747819809.444984|55=PHIA.AS|54=1|44=21.24474299|38=8|52=20250521-09:30:09.445|6007=market_maker|10=020|
2025-05-21 10:30:09,445 [INFO] IN: 8=FIX.4.4|9=150|35=D|49=MY_COMPANY|56=EXCHANGE|34=41|11=market_maker-1747819809.444984|55=PHIA.AS|54=1|44=21.24474299|38=8|52=20250521-09:30:09.445|6007=market_maker|10=020|
2025-05-21 10:30:09,446 [INFO] OUT: 8=FIX.4.4|9=266|35=8|49=EXCHANGE|56=MY_COMPANY|34=42|11=market_maker-1747819809.444984|37=market_maker-1747819809.444984|17=5a41008d-7027-49c1-8dcf-f0a2cafd4107|39=2|150=F|55=PHIA.AS|54=1|38=8|32=8|31=21.24474299|151=0|14=8|44=21.24474299|6007=market_maker|52=20250521-09:30:09.446|10=246|
2025-05-21 10:30:09,446 [INFO] OUT: 8=FIX.4.4|9=278|35=8|49=EXCHANGE|56=MY_COMPANY|34=43|11=5267acb0-e220-4934-8e28-977685f45679|37=5267acb0-e220-4934-8e28-977685f45679|17=44ee14d2-c477-4ebe-92e8-95f0eaea44b1|39=2|150=F|55=PHIA.AS|54=1|38=8|32=8|31=21.24474299|151=0|14=8|44=21.24474299|6007=market_maker|52=20250521-09:30:09.446|10=007|
2025-05-21 10:30:09,448 [INFO] OUT: 8=FIX.4.4|9=278|35=8|49=EXCHANGE|56=MY_COMPANY|34=44|11=06680abb-8ba1-4953-a49a-173120988da6|37=06680abb-8ba1-4953-a49a-173120988da6|17=bb6f52dc-58ac-42b5-b3d0-43766f044e59|39=2|150=F|55=PHIA.AS|54=2|38=6|32=6|31=21.24467900|151=0|14=6|44=21.24467900|6007=market_maker|52=20250521-09:30:09.447|10=105|
2025-05-21 10:30:09,448 [INFO] OUT: 8=FIX.4.4|9=278|35=8|49=EXCHANGE|56=MY_COMPANY|34=45|11=06680abb-8ba1-4953-a49a-173120988da6|37=06680abb-8ba1-4953-a49a-173120988da6|17=4d8c2f9d-34f0-49cf-a93a-331650eb6dbc|39=2|150=F|55=PHIA.AS|54=2|38=1|32=1|31=21.22334900|151=0|14=1|44=21.22334900|6007=market_maker|52=20250521-09:30:09.448|10=171|
2025-05-21 10:30:09,452 [INFO] OUT: 8=FIX.4.4|9=150|35=D|49=MY_COMPANY|56=EXCHANGE|34=41|11=market_maker-1747819809.452648|55=INGA.AS|54=1|44=19.08302188|38=7|52=20250521-09:30:09.452|6007=market_maker|10=006|
2025-05-21 10:30:09,453 [INFO] IN: 8=FIX.4.4|9=150|35=D|49=MY_COMPANY|56=EXCHANGE|34=41|11=market_maker-1747819809.452648|55=INGA.AS|54=1|44=19.08302188|38=7|52=20250521-09:30:09.452|6007=market_maker|10=006|
2025-05-21 10:30:09,453 [INFO] OUT: 8=FIX.4.4|9=278|35=8|49=EXCHANGE|56=MY_COMPANY|34=42|11=621706e5-0f23-40e2-812f-b90ffe552ed8|37=621706e5-0f23-40e2-812f-b90ffe552ed8|17=d17da2c0-87ec-4448-b558-82e82a537507|39=2|150=F|55=INGA.AS|54=1|38=4|32=4|31=19.09254900|151=0|14=4|44=19.09254900|6007=market_maker|52=20250521-09:30:09.453|10=070|
2025-05-21 10:30:09,454 [INFO] OUT: 8=FIX.4.4|9=278|35=8|49=EXCHANGE|56=MY_COMPANY|34=43|11=621706e5-0f23-40e2-812f-b90ffe552ed8|37=621706e5-0f23-40e2-812f-b90ffe552ed8|17=c646c362-9b6a-44a8-a1ef-1f3641736700|39=2|150=F|55=INGA.AS|54=1|38=2|32=2|31=19.09254900|151=0|14=2|44=19.09254900|6007=market_maker|52=20250521-09:30:09.454|10=053|
2025-05-21 10:30:09,454 [INFO] OUT: 8=FIX.4.4|9=278|35=8|49=EXCHANGE|56=MY_COMPANY|34=44|11=621706e5-0f23-40e2-812f-b90ffe552ed8|37=621706e5-0f23-40e2-812f-b90ffe552ed8|17=db953408-f71d-4a72-8dc7-b16c631f45b3|39=2|150=F|55=INGA.AS|54=1|38=1|32=1|31=19.09254900|151=0|14=1|44=19.09254900|6007=market_maker|52=20250521-09:30:09.454|10=153|
2025-05-21 10:30:09,455 [INFO] OUT: 8=FIX.4.4|9=278|35=8|49=EXCHANGE|56=MY_COMPANY|34=45|11=53a0d91c-d77d-4754-9f3d-e8bfb37410fc|37=53a0d91c-d77d-4754-9f3d-e8bfb37410fc|17=fa089c06-19cb-40d0-afa7-0031dd44685f|39=2|150=F|55=INGA.AS|54=2|38=2|32=2|31=19.09254900|151=0|14=2|44=19.09254900|6007=market_maker|52=20250521-09:30:09.455|10=242|
2025-05-21 10:30:09,457 [INFO] OUT: 8=FIX.4.4|9=148|35=D|49=MY_COMPANY|56=EXCHANGE|34=42|11=market_maker-1747819809.457422|55=AD.AS|54=1|44=37.73754768|38=1|52=20250521-09:30:09.457|6007=market_maker|10=127|
2025-05-21 10:30:09,457 [INFO] IN: 8=FIX.4.4|9=148|35=D|49=MY_COMPANY|56=EXCHANGE|34=42|11=market_maker-1747819809.457422|55=AD.AS|54=1|44=37.73754768|38=1|52=20250521-09:30:09.457|6007=market_maker|10=127|
2025-05-21 10:30:09,458 [INFO] OUT: 8=FIX.4.4|9=276|35=8|49=EXCHANGE|56=MY_COMPANY|34=43|11=fdfa3537-b486-48b0-a56a-82b777d5e230|37=fdfa3537-b486-48b0-a56a-82b777d5e230|17=f69d36a9-df72-4600-8a12-f77f3b5a9c0f|39=2|150=F|55=AD.AS|54=1|38=1|32=1|31=37.75638801|151=0|14=1|44=37.75638801|6007=market_maker|52=20250521-09:30:09.457|10=182|
2025-05-21 10:30:09,458 [INFO] OUT: 8=FIX.4.4|9=276|35=8|49=EXCHANGE|56=MY_COMPANY|34=44|11=0d582720-3c6f-405d-8bf3-f169378b6787|37=0d582720-3c6f-405d-8bf3-f169378b6787|17=ab847784-35c0-4913-bb45-30d4730627b0|39=2|150=F|55=AD.AS|54=2|38=4|32=4|31=37.75638801|151=0|14=4|44=37.75638801|6007=market_maker|52=20250521-09:30:09.458|10=186|
2025-05-21 10:30:09,460 [INFO] OUT: 8=FIX.4.4|9=150|35=D|49=MY_COMPANY|56=EXCHANGE|34=46|11=market_maker-1747819809.4605298|55=SAN.PA|54=1|44=93.28633629|38=3|52=20250521-09:30:09.460|6007=market_maker|10=006|
2025-05-21 10:30:09,460 [INFO] IN: 8=FIX.4.4|9=150|35=D|49=MY_COMPANY|56=EXCHANGE|34=46|11=market_maker-1747819809.4605298|55=SAN.PA|54=1|44=93.28633629|38=3|52=20250521-09:30:09.460|6007=market_maker|10=006|
2025-05-21 10:30:09,461 [INFO] OUT: 8=FIX.4.4|9=277|35=8|49=EXCHANGE|56=MY_COMPANY|34=47|11=220b702b-3960-4afd-a15c-d3e8ecfab468|37=220b702b-3960-4afd-a15c-d3e8ecfab468|17=322b7901-7a53-4156-894b-836092fca48e|39=2|150=F|55=SAN.PA|54=1|38=3|32=3|31=93.33295601|151=0|14=3|44=93.33295601|6007=market_maker|52=20250521-09:30:09.461|10=014|
2025-05-21 10:30:09,461 [INFO] OUT: 8=FIX.4.4|9=280|35=8|49=EXCHANGE|56=MY_COMPANY|34=48|11=c364ddba-6eed-42c7-ae5f-74b98ab7de7c|37=c364ddba-6eed-42c7-ae5f-74b98ab7de7c|17=f1bcd214-cf6c-48d4-9ded-7fa6312d69e2|39=2|150=F|55=SAN.PA|54=2|38=10|32=10|31=93.33295601|151=0|14=10|44=93.33295601|6007=market_maker|52=20250521-09:30:09.461|10=195|
2025-05-21 10:30:14,489 [INFO] OUT: 8=FIX.4.4|9=150|35=D|49=MY_COMPANY|56=EXCHANGE|34=46|11=market_maker-1747819814.488377|55=PHIA.AS|54=1|44=21.23408866|38=9|52=20250521-09:30:14.488|6007=market_maker|10=025|
2025-05-21 10:30:14,489 [INFO] IN: 8=FIX.4.4|9=150|35=D|49=MY_COMPANY|56=EXCHANGE|34=46|11=market_maker-1747819814.488377|55=PHIA.AS|54=1|44=21.23408866|38=9|52=20250521-09:30:14.488|6007=market_maker|10=025|
2025-05-21 10:30:14,490 [INFO] OUT: 8=FIX.4.4|9=266|35=8|49=EXCHANGE|56=MY_COMPANY|34=47|11=market_maker-1747819814.488377|37=market_maker-1747819814.488377|17=1ee1308d-8404-49b1-a7a2-2761843469b3|39=2|150=F|55=PHIA.AS|54=1|38=9|32=9|31=21.23408866|151=0|14=9|44=21.23408866|6007=market_maker|52=20250521-09:30:14.490|10=014|
2025-05-21 10:30:14,491 [INFO] OUT: 8=FIX.4.4|9=278|35=8|49=EXCHANGE|56=MY_COMPANY|34=48|11=d51db420-68ad-40d3-82d3-554736b46903|37=d51db420-68ad-40d3-82d3-554736b46903|17=21e37555-d901-4735-bee4-3ace32e7ba4d|39=2|150=F|55=PHIA.AS|54=1|38=9|32=9|31=21.23408866|151=0|14=9|44=21.23408866|6007=market_maker|52=20250521-09:30:14.491|10=020|
2025-05-21 10:30:14,491 [INFO] OUT: 8=FIX.4.4|9=278|35=8|49=EXCHANGE|56=MY_COMPANY|34=49|11=6ae37400-1562-498a-a43e-ade6052743a4|37=6ae37400-1562-498a-a43e-ade6052743a4|17=c0ec9edb-4385-4afa-85df-5806ab5dcb53|39=2|150=F|55=PHIA.AS|54=2|38=7|32=7|31=21.22334900|151=0|14=7|44=21.22334900|6007=market_maker|52=20250521-09:30:14.491|10=016|
2025-05-21 10:30:14,499 [INFO] OUT: 8=FIX.4.4|9=266|35=8|49=EXCHANGE|56=MY_COMPANY|34=46|11=market_maker-1747819804.412905|37=market_maker-1747819804.412905|17=5084582c-33e3-4940-9157-3a1aac39ad3e|39=2|150=F|55=INGA.AS|54=1|38=1|32=1|31=19.08302188|151=0|14=1|44=19.08302188|6007=market_maker|52=20250521-09:30:14.499|10=055|
2025-05-21 10:30:14,501 [INFO] OUT: 8=FIX.4.4|9=266|35=8|49=EXCHANGE|56=MY_COMPANY|34=47|11=market_maker-1747819809.452648|37=market_maker-1747819809.452648|17=efa54156-63f5-4f27-99fb-82a8f05e6ba7|39=2|150=F|55=INGA.AS|54=1|38=2|32=2|31=19.08302188|151=0|14=2|44=19.08302188|6007=market_maker|52=20250521-09:30:14.501|10=239|
2025-05-21 10:30:14,501 [INFO] OUT: 8=FIX.4.4|9=266|35=8|49=EXCHANGE|56=MY_COMPANY|34=48|11=market_maker-1747819809.452648|37=market_maker-1747819809.452648|17=a8754e67-76c5-4e8e-99c0-073b062e84b2|39=2|150=F|55=INGA.AS|54=2|38=5|32=5|31=19.08302188|151=0|14=5|44=19.08302188|6007=market_maker|52=20250521-09:30:14.501|10=105|
2025-05-21 10:30:14,506 [INFO] OUT: 8=FIX.4.4|9=150|35=D|49=MY_COMPANY|56=EXCHANGE|34=49|11=market_maker-1747819814.506052|55=INGA.AS|54=1|44=19.08302188|38=3|52=20250521-09:30:14.506|6007=market_maker|10=247|
2025-05-21 10:30:14,506 [INFO] IN: 8=FIX.4.4|9=150|35=D|49=MY_COMPANY|56=EXCHANGE|34=49|11=market_maker-1747819814.506052|55=INGA.AS|54=1|44=19.08302188|38=3|52=20250521-09:30:14.506|6007=market_maker|10=247|
2025-05-21 10:30:14,506 [INFO] OUT: 8=FIX.4.4|9=266|35=8|49=EXCHANGE|56=MY_COMPANY|34=50|11=market_maker-1747819814.506052|37=market_maker-1747819814.506052|17=22f380fb-d559-4d69-80e1-410af2f214c4|39=2|150=F|55=INGA.AS|54=1|38=3|32=3|31=19.08302188|151=0|14=3|44=19.08302188|6007=market_maker|52=20250521-09:30:14.506|10=089|
2025-05-21 10:30:14,506 [INFO] OUT: 8=FIX.4.4|9=278|35=8|49=EXCHANGE|56=MY_COMPANY|34=51|11=37133312-008b-46fd-b2fd-ccd564c694ea|37=37133312-008b-46fd-b2fd-ccd564c694ea|17=66edea93-d747-4347-ae4d-3184992707dc|39=2|150=F|55=INGA.AS|54=1|38=3|32=3|31=19.08302188|151=0|14=3|44=19.08302188|6007=market_maker|52=20250521-09:30:14.506|10=044|
2025-05-21 10:30:14,506 [INFO] OUT: 8=FIX.4.4|9=278|35=8|49=EXCHANGE|56=MY_COMPANY|34=52|11=cb14705d-4673-419f-9e8a-2e6d3a9b7aff|37=cb14705d-4673-419f-9e8a-2e6d3a9b7aff|17=f5d16358-85b3-4fdf-9e8f-283e29022ba9|39=2|150=F|55=INGA.AS|54=2|38=7|32=7|31=19.07339900|151=0|14=7|44=19.07339900|6007=market_maker|52=20250521-09:30:14.506|10=245|
2025-05-21 10:30:14,508 [INFO] OUT: 8=FIX.4.4|9=150|35=D|49=MY_COMPANY|56=EXCHANGE|34=49|11=market_maker-1747819814.5082061|55=SAN.PA|54=1|44=93.28633629|38=2|52=20250521-09:30:14.508|6007=market_maker|10=247|
2025-05-21 10:30:14,508 [INFO] IN: 8=FIX.4.4|9=150|35=D|49=MY_COMPANY|56=EXCHANGE|34=49|11=market_maker-1747819814.5082061|55=SAN.PA|54=1|44=93.28633629|38=2|52=20250521-09:30:14.508|6007=market_maker|10=247|
2025-05-21 10:30:14,508 [INFO] OUT: 8=FIX.4.4|9=277|35=8|49=EXCHANGE|56=MY_COMPANY|34=50|11=e2519c31-e7a2-4901-adca-5d1fd3772c52|37=e2519c31-e7a2-4901-adca-5d1fd3772c52|17=9c5fceff-d46c-457f-85f9-94bb069067f4|39=2|150=F|55=SAN.PA|54=1|38=2|32=2|31=93.33295601|151=0|14=2|44=93.33295601|6007=market_maker|52=20250521-09:30:14.508|10=130|
2025-05-21 10:30:14,508 [INFO] OUT: 8=FIX.4.4|9=277|35=8|49=EXCHANGE|56=MY_COMPANY|34=51|11=b82e3738-3670-44fd-9290-fbc973020cd0|37=b82e3738-3670-44fd-9290-fbc973020cd0|17=ecb3c04d-4f9a-4bd4-9363-7f189425c418|39=2|150=F|55=SAN.PA|54=2|38=2|32=2|31=93.33295601|151=0|14=2|44=93.33295601|6007=market_maker|52=20250521-09:30:14.508|10=006|
2025-05-21 10:30:19,511 [INFO] OUT: 8=FIX.4.4|9=150|35=D|49=MY_COMPANY|56=EXCHANGE|34=50|11=market_maker-1747819819.511283|55=PHIA.AS|54=1|44=21.23408866|38=6|52=20250521-09:30:19.511|6007=market_maker|10=253|
2025-05-21 10:30:19,511 [INFO] IN: 8=FIX.4.4|9=150|35=D|49=MY_COMPANY|56=EXCHANGE|34=50|11=market_maker-1747819819.511283|55=PHIA.AS|54=1|44=21.23408866|38=6|52=20250521-09:30:19.511|6007=market_maker|10=253|
2025-05-21 10:30:19,511 [INFO] OUT: 8=FIX.4.4|9=266|35=8|49=EXCHANGE|56=MY_COMPANY|34=51|11=market_maker-1747819819.511283|37=market_maker-1747819819.511283|17=b79dbc23-7bbf-4333-a284-1ac63881f3f1|39=2|150=F|55=PHIA.AS|54=1|38=6|32=6|31=21.23408866|151=0|14=6|44=21.23408866|6007=market_maker|52=20250521-09:30:19.511|10=214|
2025-05-21 10:30:19,512 [INFO] OUT: 8=FIX.4.4|9=278|35=8|49=EXCHANGE|56=MY_COMPANY|34=52|11=e7697c9a-2220-4ecb-b435-875839043fea|37=e7697c9a-2220-4ecb-b435-875839043fea|17=037d5b3b-21a1-4e9c-b6ac-6ee82f17f869|39=2|150=F|55=PHIA.AS|54=1|38=6|32=6|31=21.23408866|151=0|14=6|44=21.23408866|6007=market_maker|52=20250521-09:30:19.512|10=034|
2025-05-21 10:30:19,512 [INFO] OUT: 8=FIX.4.4|9=278|35=8|49=EXCHANGE|56=MY_COMPANY|34=53|11=ef6e9a17-5a74-4fe1-81a5-d03de8f17c22|37=ef6e9a17-5a74-4fe1-81a5-d03de8f17c22|17=a59d4c7d-bb15-42ed-9fdb-79e233e972de|39=2|150=F|55=PHIA.AS|54=2|38=4|32=4|31=21.22334900|151=0|14=4|44=21.22334900|6007=market_maker|52=20250521-09:30:19.512|10=127|
2025-05-21 10:30:19,514 [INFO] OUT: 8=FIX.4.4|9=150|35=D|49=MY_COMPANY|56=EXCHANGE|34=53|11=market_maker-1747819819.514303|55=INGA.AS|54=1|44=19.07345645|38=9|52=20250521-09:30:19.514|6007=market_maker|10=003|
2025-05-21 10:30:19,514 [INFO] IN: 8=FIX.4.4|9=150|35=D|49=MY_COMPANY|56=EXCHANGE|34=53|11=market_maker-1747819819.514303|55=INGA.AS|54=1|44=19.07345645|38=9|52=20250521-09:30:19.514|6007=market_maker|10=003|
2025-05-21 10:30:19,514 [INFO] OUT: 8=FIX.4.4|9=266|35=8|49=EXCHANGE|56=MY_COMPANY|34=54|11=market_maker-1747819819.514303|37=market_maker-1747819819.514303|17=2fb6a580-0c8c-4882-a8bc-84a490f46d46|39=2|150=F|55=INGA.AS|54=1|38=9|32=9|31=19.07345645|151=0|14=9|44=19.07345645|6007=market_maker|52=20250521-09:30:19.514|10=190|
2025-05-21 10:30:19,514 [INFO] OUT: 8=FIX.4.4|9=278|35=8|49=EXCHANGE|56=MY_COMPANY|34=55|11=fe64e155-da66-4fb1-82e7-99cb08792499|37=fe64e155-da66-4fb1-82e7-99cb08792499|17=906a7ee1-ae3d-4e71-aaf4-8aca5ae3843d|39=2|150=F|55=INGA.AS|54=1|38=9|32=9|31=19.07345645|151=0|14=9|44=19.07345645|6007=market_maker|52=20250521-09:30:19.514|10=226|
2025-05-21 10:30:19,515 [INFO] OUT: 8=FIX.4.4|9=278|35=8|49=EXCHANGE|56=MY_COMPANY|34=56|11=5dc9f3f9-6887-4bbe-9802-c7a440074b50|37=5dc9f3f9-6887-4bbe-9802-c7a440074b50|17=85da9682-f9f1-434a-a1f4-75aca19ccab5|39=2|150=F|55=INGA.AS|54=2|38=3|32=3|31=19.07339900|151=0|14=3|44=19.07339900|6007=market_maker|52=20250521-09:30:19.515|10=083|
2025-05-21 10:30:19,515 [INFO] OUT: 8=FIX.4.4|9=149|35=D|49=MY_COMPANY|56=EXCHANGE|34=52|11=market_maker-1747819819.515641|55=SAN.PA|54=1|44=93.28633629|38=1|52=20250521-09:30:19.515|6007=market_maker|10=208|
2025-05-21 10:30:19,515 [INFO] IN: 8=FIX.4.4|9=149|35=D|49=MY_COMPANY|56=EXCHANGE|34=52|11=market_maker-1747819819.515641|55=SAN.PA|54=1|44=93.28633629|38=1|52=20250521-09:30:19.515|6007=market_maker|10=208|
2025-05-21 10:30:19,515 [INFO] OUT: 8=FIX.4.4|9=277|35=8|49=EXCHANGE|56=MY_COMPANY|34=53|11=3109ec46-f1e8-4696-8117-052b1f78aac1|37=3109ec46-f1e8-4696-8117-052b1f78aac1|17=78403395-471c-4caf-a36e-b819dfd4f0b2|39=2|150=F|55=SAN.PA|54=1|38=1|32=1|31=93.33295601|151=0|14=1|44=93.33295601|6007=market_maker|52=20250521-09:30:19.515|10=047|
2025-05-21 10:30:19,516 [INFO] OUT: 8=FIX.4.4|9=277|35=8|49=EXCHANGE|56=MY_COMPANY|34=54|11=cdf2df03-66f3-4705-9dd8-e6bbd62c8b5f|37=cdf2df03-66f3-4705-9dd8-e6bbd62c8b5f|17=e29c5b2f-d80d-4c6f-92fa-629df9383d77|39=2|150=F|55=SAN.PA|54=2|38=5|32=5|31=93.33295601|151=0|14=5|44=93.33295601|6007=market_maker|52=20250521-09:30:19.516|10=220|
2025-05-21 10:30:24,525 [INFO] OUT: 8=FIX.4.4|9=150|35=D|49=MY_COMPANY|56=EXCHANGE|34=54|11=market_maker-1747819824.525642|55=PHIA.AS|54=1|44=21.23408866|38=5|52=20250521-09:30:24.525|6007=market_maker|10=001|
2025-05-21 10:30:24,526 [INFO] IN: 8=FIX.4.4|9=150|35=D|49=MY_COMPANY|56=EXCHANGE|34=54|11=market_maker-1747819824.525642|55=PHIA.AS|54=1|44=21.23408866|38=5|52=20250521-09:30:24.525|6007=market_maker|10=001|
2025-05-21 10:30:24,526 [INFO] OUT: 8=FIX.4.4|9=266|35=8|49=EXCHANGE|56=MY_COMPANY|34=55|11=market_maker-1747819824.525642|37=market_maker-1747819824.525642|17=37edce8a-289c-4e92-bed7-1305168f2231|39=2|150=F|55=PHIA.AS|54=1|38=5|32=5|31=21.23408866|151=0|14=5|44=21.23408866|6007=market_maker|52=20250521-09:30:24.526|10=179|
2025-05-21 10:30:24,526 [INFO] OUT: 8=FIX.4.4|9=278|35=8|49=EXCHANGE|56=MY_COMPANY|34=56|11=d6b790bb-1731-47e0-a6ed-401da6477c5e|37=d6b790bb-1731-47e0-a6ed-401da6477c5e|17=802dd06c-fa95-4d6f-8736-55ad9b838bb1|39=2|150=F|55=PHIA.AS|54=1|38=5|32=5|31=21.23408866|151=0|14=5|44=21.23408866|6007=market_maker|52=20250521-09:30:24.526|10=155|
2025-05-21 10:30:24,527 [INFO] OUT: 8=FIX.4.4|9=278|35=8|49=EXCHANGE|56=MY_COMPANY|34=57|11=38d051f1-89c0-4028-a2aa-259f44d21acd|37=38d051f1-89c0-4028-a2aa-259f44d21acd|17=ea1bef61-b6c5-4e21-93ba-9fbf88de8061|39=2|150=F|55=PHIA.AS|54=2|38=6|32=6|31=21.22334900|151=0|14=6|44=21.22334900|6007=market_maker|52=20250521-09:30:24.527|10=150|
2025-05-21 10:30:24,527 [INFO] OUT: 8=FIX.4.4|9=278|35=8|49=EXCHANGE|56=MY_COMPANY|34=58|11=38d051f1-89c0-4028-a2aa-259f44d21acd|37=38d051f1-89c0-4028-a2aa-259f44d21acd|17=324e7a11-ed35-413b-8dcd-b0630868d00a|39=2|150=F|55=PHIA.AS|54=2|38=3|32=3|31=21.22334900|151=0|14=3|44=21.22334900|6007=market_maker|52=20250521-09:30:24.527|10=181|
2025-05-21 10:30:24,532 [INFO] OUT: 8=FIX.4.4|9=150|35=D|49=MY_COMPANY|56=EXCHANGE|34=57|11=market_maker-1747819824.532628|55=INGA.AS|54=1|44=19.07345645|38=4|52=20250521-09:30:24.532|6007=market_maker|10=004|
2025-05-21 10:30:24,532 [INFO] IN: 8=FIX.4.4|9=150|35=D|49=MY_COMPANY|56=EXCHANGE|34=57|11=market_maker-1747819824.532628|55=INGA.AS|54=1|44=19.07345645|38=4|52=20250521-09:30:24.532|6007=market_maker|10=004|
2025-05-21 10:30:24,533 [INFO] OUT: 8=FIX.4.4|9=266|35=8|49=EXCHANGE|56=MY_COMPANY|34=58|11=market_maker-1747819824.532628|37=market_maker-1747819824.532628|17=5077cff1-db6f-4e0b-aaef-396a39d85d34|39=2|150=F|55=INGA.AS|54=1|38=4|32=4|31=19.07345645|151=0|14=4|44=19.07345645|6007=market_maker|52=20250521-09:30:24.533|10=124|
2025-05-21 10:30:24,533 [INFO] OUT: 8=FIX.4.4|9=278|35=8|49=EXCHANGE|56=MY_COMPANY|34=59|11=9881fcc8-33b9-42b3-8fbd-57889fa7e1e6|37=9881fcc8-33b9-42b3-8fbd-57889fa7e1e6|17=59885177-6798-4a00-b394-2c9f2672a93a|39=2|150=F|55=INGA.AS|54=1|38=4|32=4|31=19.07345645|151=0|14=4|44=19.07345645|6007=market_maker|52=20250521-09:30:24.533|10=216|
2025-05-21 10:30:24,533 [INFO] OUT: 8=FIX.4.4|9=278|35=8|49=EXCHANGE|56=MY_COMPANY|34=60|11=4e84f823-7e8c-4de3-a09f-a410c5e5d5fd|37=4e84f823-7e8c-4de3-a09f-a410c5e5d5fd|17=64ca19ad-c30f-4152-a0fd-713755f406d4|39=2|150=F|55=INGA.AS|54=2|38=6|32=6|31=19.05424901|151=0|14=6|44=19.05424901|6007=market_maker|52=20250521-09:30:24.533|10=031|
2025-05-21 10:30:24,535 [INFO] OUT: 8=FIX.4.4|9=150|35=D|49=MY_COMPANY|56=EXCHANGE|34=55|11=market_maker-1747819824.5354738|55=SAN.PA|54=1|44=93.28633629|38=7|52=20250521-09:30:24.535|6007=market_maker|10=008|
2025-05-21 10:30:24,541 [INFO] IN: 8=FIX.4.4|9=150|35=D|49=MY_COMPANY|56=EXCHANGE|34=55|11=market_maker-1747819824.5354738|55=SAN.PA|54=1|44=93.28633629|38=7|52=20250521-09:30:24.535|6007=market_maker|10=008|
2025-05-21 10:30:24,544 [INFO] OUT: 8=FIX.4.4|9=277|35=8|49=EXCHANGE|56=MY_COMPANY|34=56|11=6aa8f962-4856-408d-baff-4de2e0b0d650|37=6aa8f962-4856-408d-baff-4de2e0b0d650|17=eef5ad61-627b-4e34-8a91-accf57e4c3e9|39=2|150=F|55=SAN.PA|54=1|38=7|32=7|31=93.33295601|151=0|14=7|44=93.33295601|6007=market_maker|52=20250521-09:30:24.544|10=090|
2025-05-21 10:30:24,545 [INFO] OUT: 8=FIX.4.4|9=277|35=8|49=EXCHANGE|56=MY_COMPANY|34=57|11=96294aa8-b997-46dc-8f48-f228b9729ace|37=96294aa8-b997-46dc-8f48-f228b9729ace|17=e81668f2-ef94-4fcb-a957-9c62d5b455fa|39=2|150=F|55=SAN.PA|54=2|38=1|32=1|31=93.33295601|151=0|14=1|44=93.33295601|6007=market_maker|52=20250521-09:30:24.545|10=131|
2025-05-21 10:30:29,553 [INFO] HEARBEAT SENT: 8=FIX.4.4|9=61|35=0|49=MY_COMPANY|56=EXCHANGE|34=8|52=20250521-09:30:29.553|10=062|
2025-05-21 10:30:29,560 [INFO] HEARBEAT SENT: 8=FIX.4.4|9=62|35=0|49=MY_COMPANY|56=EXCHANGE|34=59|52=20250521-09:30:29.560|10=115|
2025-05-21 10:30:29,562 [INFO] HEARBEAT SENT: 8=FIX.4.4|9=62|35=0|49=MY_COMPANY|56=EXCHANGE|34=61|52=20250521-09:30:29.562|10=110|
2025-05-21 10:30:29,563 [INFO] HEARBEAT SENT: 8=FIX.4.4|9=62|35=0|49=MY_COMPANY|56=EXCHANGE|34=45|52=20250521-09:30:29.563|10=113|
2025-05-21 10:30:29,564 [INFO] HEARBEAT SENT: 8=FIX.4.4|9=61|35=0|49=MY_COMPANY|56=EXCHANGE|34=9|52=20250521-09:30:29.564|10=065|
2025-05-21 10:30:29,565 [INFO] OUT: 8=FIX.4.4|9=149|35=D|49=MY_COMPANY|56=EXCHANGE|34=58|11=market_maker-1747819829.565115|55=SAN.PA|54=1|44=93.28633629|38=3|52=20250521-09:30:29.565|6007=market_maker|10=224|
2025-05-21 10:30:29,565 [INFO] IN: 8=FIX.4.4|9=149|35=D|49=MY_COMPANY|56=EXCHANGE|34=58|11=market_maker-1747819829.565115|55=SAN.PA|54=1|44=93.28633629|38=3|52=20250521-09:30:29.565|6007=market_maker|10=224|
2025-05-21 10:30:29,565 [INFO] OUT: 8=FIX.4.4|9=277|35=8|49=EXCHANGE|56=MY_COMPANY|34=59|11=60381059-8267-4f3c-b182-ac0931268114|37=60381059-8267-4f3c-b182-ac0931268114|17=64c6f5e8-6832-4e79-bec5-1bc57aae9943|39=2|150=F|55=SAN.PA|54=1|38=3|32=3|31=93.33295601|151=0|14=3|44=93.33295601|6007=market_maker|52=20250521-09:30:29.565|10=200|
2025-05-21 10:30:29,565 [INFO] OUT: 8=FIX.4.4|9=277|35=8|49=EXCHANGE|56=MY_COMPANY|34=60|11=1fc74b4a-b39b-45c2-9ab2-792327c39e5d|37=1fc74b4a-b39b-45c2-9ab2-792327c39e5d|17=59117fc0-6620-4e9a-bb1d-75896b79716a|39=2|150=F|55=SAN.PA|54=2|38=4|32=4|31=93.33295601|151=0|14=4|44=93.33295601|6007=market_maker|52=20250521-09:30:29.565|10=218|
2025-05-21 10:30:29,566 [INFO] HEARBEAT SENT: 8=FIX.4.4|9=62|35=0|49=MY_COMPANY|56=EXCHANGE|34=61|52=20250521-09:30:29.566|10=114|
2025-05-21 10:30:34,576 [INFO] OUT: 8=FIX.4.4|9=279|35=8|49=EXCHANGE|56=MY_COMPANY|34=9|11=0cbd7f43-b002-4889-9290-fa49eb47dc9d|37=0cbd7f43-b002-4889-9290-fa49eb47dc9d|17=8e2dd6da-0223-495e-a449-723e50280143|39=2|150=F|55=ASML.AS|54=1|38=1|32=1|31=659.34000000|151=0|14=1|44=659.34000000|6007=market_maker|52=20250521-09:30:34.576|10=003|
2025-05-21 10:30:34,577 [INFO] OUT: 8=FIX.4.4|9=270|35=8|49=EXCHANGE|56=MY_COMPANY|34=10|11=market_maker-1747819769.0642529|37=market_maker-1747819769.0642529|17=f532bddd-f445-4bf7-9631-fb5212737ed1|39=2|150=F|55=ASML.AS|54=1|38=1|32=1|31=659.34000000|151=0|14=1|44=659.34000000|6007=market_maker|52=20250521-09:30:34.577|10=151|
2025-05-21 10:30:34,577 [INFO] OUT: 8=FIX.4.4|9=280|35=8|49=EXCHANGE|56=MY_COMPANY|34=11|11=0cbd7f43-b002-4889-9290-fa49eb47dc9d|37=0cbd7f43-b002-4889-9290-fa49eb47dc9d|17=44b161e4-355f-482a-9ba2-0cf1fcf99809|39=2|150=F|55=ASML.AS|54=1|38=1|32=1|31=659.34000000|151=0|14=1|44=659.34000000|6007=market_maker|52=20250521-09:30:34.577|10=194|
2025-05-21 10:30:34,577 [INFO] OUT: 8=FIX.4.4|9=270|35=8|49=EXCHANGE|56=MY_COMPANY|34=12|11=market_maker-1747819769.0642529|37=market_maker-1747819769.0642529|17=814be333-8250-400c-8274-3962cf7eee8f|39=2|150=F|55=ASML.AS|54=2|38=3|32=3|31=659.34000000|151=0|14=3|44=659.34000000|6007=market_maker|52=20250521-09:30:34.577|10=021|
2025-05-21 10:30:34,577 [INFO] OUT: 8=FIX.4.4|9=280|35=8|49=EXCHANGE|56=MY_COMPANY|34=13|11=51c91da4-aa02-44c2-a048-644339df1a46|37=51c91da4-aa02-44c2-a048-644339df1a46|17=e7db427a-d82f-4baa-a933-a753877da266|39=2|150=F|55=ASML.AS|54=2|38=3|32=3|31=659.34000000|151=0|14=3|44=659.34000000|6007=market_maker|52=20250521-09:30:34.577|10=043|
2025-05-21 10:30:34,579 [INFO] OUT: 8=FIX.4.4|9=270|35=8|49=EXCHANGE|56=MY_COMPANY|34=14|11=market_maker-1747819769.0642529|37=market_maker-1747819769.0642529|17=7e38c1b3-ac61-4742-9105-45f645ea477f|39=2|150=F|55=ASML.AS|54=2|38=5|32=5|31=659.34000000|151=0|14=5|44=659.34000000|6007=market_maker|52=20250521-09:30:34.579|10=029|
2025-05-21 10:30:34,589 [INFO] OUT: 8=FIX.4.4|9=278|35=8|49=EXCHANGE|56=MY_COMPANY|34=10|11=e0d7a3a0-c806-4cce-943c-231c5c1f6646|37=e0d7a3a0-c806-4cce-943c-231c5c1f6646|17=08c1ff9e-7e54-47cb-b05e-f978a9e078f7|39=2|150=F|55=OR.PA|54=1|38=7|32=7|31=380.28788703|151=0|14=7|44=380.28788703|6007=market_maker|52=20250521-09:30:34.589|10=209|
2025-05-21 10:30:34,589 [INFO] OUT: 8=FIX.4.4|9=281|35=8|49=EXCHANGE|56=MY_COMPANY|34=11|11=deba56cb-c773-4a55-b50b-7b66b7a0ce0f|37=deba56cb-c773-4a55-b50b-7b66b7a0ce0f|17=6a7fd612-9915-4266-a005-d6736126cbc5|39=2|150=F|55=OR.PA|54=2|38=10|32=10|31=380.28788703|151=0|14=10|44=380.28788703|6007=market_maker|52=20250521-09:30:34.589|10=186|
2025-05-21 10:30:34,591 [INFO] OUT: 8=FIX.4.4|9=150|35=D|49=MY_COMPANY|56=EXCHANGE|34=62|11=market_maker-1747819834.5908291|55=SAN.PA|54=1|44=93.28633629|38=6|52=20250521-09:30:34.590|6007=market_maker|10=007|
2025-05-21 10:30:34,591 [INFO] IN: 8=FIX.4.4|9=150|35=D|49=MY_COMPANY|56=EXCHANGE|34=62|11=market_maker-1747819834.5908291|55=SAN.PA|54=1|44=93.28633629|38=6|52=20250521-09:30:34.590|6007=market_maker|10=007|
2025-05-21 10:30:34,591 [INFO] OUT: 8=FIX.4.4|9=277|35=8|49=EXCHANGE|56=MY_COMPANY|34=63|11=e5dd321a-fcb4-4bbf-8aa8-ddef16101172|37=e5dd321a-fcb4-4bbf-8aa8-ddef16101172|17=13d69755-b9ce-45d4-8da7-69c76253808d|39=2|150=F|55=SAN.PA|54=1|38=6|32=6|31=93.33295601|151=0|14=6|44=93.33295601|6007=market_maker|52=20250521-09:30:34.591|10=066|
2025-05-21 10:30:34,591 [INFO] OUT: 8=FIX.4.4|9=277|35=8|49=EXCHANGE|56=MY_COMPANY|34=64|11=56dd6e0c-86ab-4200-951d-93fd7af4061d|37=56dd6e0c-86ab-4200-951d-93fd7af4061d|17=1044387e-824e-4e64-97f9-5d5338f73487|39=2|150=F|55=SAN.PA|54=2|38=9|32=9|31=93.33295601|151=0|14=9|44=93.33295601|6007=market_maker|52=20250521-09:30:34.591|10=100|
2025-05-21 10:30:39,610 [INFO] OUT: 8=FIX.4.4|9=278|35=8|49=EXCHANGE|56=MY_COMPANY|34=12|11=38443d83-9cd4-46db-a8e1-83a5cd245f3c|37=38443d83-9cd4-46db-a8e1-83a5cd245f3c|17=876aa32e-4cf3-4c22-be9a-efec3a362026|39=2|150=F|55=OR.PA|54=1|38=8|32=8|31=380.28788703|151=0|14=8|44=380.28788703|6007=market_maker|52=20250521-09:30:39.610|10=245|
2025-05-21 10:30:39,610 [INFO] OUT: 8=FIX.4.4|9=278|35=8|49=EXCHANGE|56=MY_COMPANY|34=13|11=643e6e3e-53a8-482c-ab37-2125db330467|37=643e6e3e-53a8-482c-ab37-2125db330467|17=155b88a4-e4b5-4970-8508-48266708c490|39=2|150=F|55=OR.PA|54=2|38=6|32=6|31=380.28788703|151=0|14=6|44=380.28788703|6007=market_maker|52=20250521-09:30:39.610|10=038|
2025-05-21 10:30:39,612 [INFO] OUT: 8=FIX.4.4|9=149|35=D|49=MY_COMPANY|56=EXCHANGE|34=65|11=market_maker-1747819839.612617|55=SAN.PA|54=1|44=93.28633629|38=9|52=20250521-09:30:39.612|6007=market_maker|10=223|
2025-05-21 10:30:39,612 [INFO] IN: 8=FIX.4.4|9=149|35=D|49=MY_COMPANY|56=EXCHANGE|34=65|11=market_maker-1747819839.612617|55=SAN.PA|54=1|44=93.28633629|38=9|52=20250521-09:30:39.612|6007=market_maker|10=223|
2025-05-21 10:30:39,613 [INFO] OUT: 8=FIX.4.4|9=277|35=8|49=EXCHANGE|56=MY_COMPANY|34=66|11=4e7b1b43-e558-46e5-8ef3-424663e0da5a|37=4e7b1b43-e558-46e5-8ef3-424663e0da5a|17=c83783d2-f0c8-4e92-8459-5bbeddac53e4|39=2|150=F|55=SAN.PA|54=1|38=3|32=3|31=93.33295601|151=0|14=3|44=93.33295601|6007=market_maker|52=20250521-09:30:39.613|10=063|
2025-05-21 10:30:39,613 [INFO] OUT: 8=FIX.4.4|9=265|35=8|49=EXCHANGE|56=MY_COMPANY|34=67|11=market_maker-1747819799.379869|37=market_maker-1747819799.379869|17=c534e54a-ef6f-4829-874c-d84f0a3cade8|39=2|150=F|55=SAN.PA|54=1|38=1|32=1|31=93.28638300|151=0|14=1|44=93.28638300|6007=market_maker|52=20250521-09:30:39.613|10=066|
2025-05-21 10:30:39,613 [INFO] OUT: 8=FIX.4.4|9=277|35=8|49=EXCHANGE|56=MY_COMPANY|34=68|11=4e7b1b43-e558-46e5-8ef3-424663e0da5a|37=4e7b1b43-e558-46e5-8ef3-424663e0da5a|17=45bb892c-8559-4d0b-b3c2-772e091edff8|39=2|150=F|55=SAN.PA|54=1|38=1|32=1|31=93.28638300|151=0|14=1|44=93.28638300|6007=market_maker|52=20250521-09:30:39.613|10=011|
2025-05-21 10:30:39,614 [INFO] OUT: 8=FIX.4.4|9=265|35=8|49=EXCHANGE|56=MY_COMPANY|34=69|11=market_maker-1747819804.420825|37=market_maker-1747819804.420825|17=9ae54a18-e332-4704-9da6-7509a4279404|39=2|150=F|55=SAN.PA|54=1|38=3|32=3|31=93.28638300|151=0|14=3|44=93.28638300|6007=market_maker|52=20250521-09:30:39.614|10=172|
2025-05-21 10:30:39,614 [INFO] OUT: 8=FIX.4.4|9=277|35=8|49=EXCHANGE|56=MY_COMPANY|34=70|11=4e7b1b43-e558-46e5-8ef3-424663e0da5a|37=4e7b1b43-e558-46e5-8ef3-424663e0da5a|17=52a13258-2a36-4232-b47b-d7b078cc0c7c|39=2|150=F|55=SAN.PA|54=1|38=3|32=3|31=93.28638300|151=0|14=3|44=93.28638300|6007=market_maker|52=20250521-09:30:39.614|10=141|
2025-05-21 10:30:39,614 [INFO] OUT: 8=FIX.4.4|9=267|35=8|49=EXCHANGE|56=MY_COMPANY|34=71|11=market_maker-1747819809.4605298|37=market_maker-1747819809.4605298|17=4418438f-b2cf-4620-886d-5e461094766d|39=2|150=F|55=SAN.PA|54=1|38=2|32=2|31=93.28633629|151=0|14=2|44=93.28633629|6007=market_maker|52=20250521-09:30:39.614|10=070|
2025-05-21 10:30:39,614 [INFO] OUT: 8=FIX.4.4|9=277|35=8|49=EXCHANGE|56=MY_COMPANY|34=72|11=4e7b1b43-e558-46e5-8ef3-424663e0da5a|37=4e7b1b43-e558-46e5-8ef3-424663e0da5a|17=1cc2fec2-0161-4bc9-bfe3-6adec779d1c8|39=2|150=F|55=SAN.PA|54=1|38=2|32=2|31=93.28633629|151=0|14=2|44=93.28633629|6007=market_maker|52=20250521-09:30:39.614|10=203|
2025-05-21 10:30:39,615 [INFO] OUT: 8=FIX.4.4|9=267|35=8|49=EXCHANGE|56=MY_COMPANY|34=73|11=market_maker-1747819809.4605298|37=market_maker-1747819809.4605298|17=9ce3958c-7c7e-40e7-a095-7c0f7304ff8a|39=2|150=F|55=SAN.PA|54=2|38=1|32=1|31=93.28633629|151=0|14=1|44=93.28633629|6007=market_maker|52=20250521-09:30:39.615|10=058|
2025-05-21 10:30:39,615 [INFO] OUT: 8=FIX.4.4|9=277|35=8|49=EXCHANGE|56=MY_COMPANY|34=74|11=63efd418-7d51-4c1b-b0a1-9cee13f59ee2|37=63efd418-7d51-4c1b-b0a1-9cee13f59ee2|17=1c7962be-4faf-49f5-be0a-587ec2dbb8c1|39=2|150=F|55=SAN.PA|54=2|38=1|32=1|31=93.28633629|151=0|14=1|44=93.28633629|6007=market_maker|52=20250521-09:30:39.615|10=229|
2025-05-21 10:30:39,615 [INFO] OUT: 8=FIX.4.4|9=267|35=8|49=EXCHANGE|56=MY_COMPANY|34=75|11=market_maker-1747819814.5082061|37=market_maker-1747819814.5082061|17=74ba5955-7c30-4b58-828f-0d1c407d6ea1|39=2|150=F|55=SAN.PA|54=2|38=2|32=2|31=93.28633629|151=0|14=2|44=93.28633629|6007=market_maker|52=20250521-09:30:39.615|10=172|
2025-05-21 10:30:39,616 [INFO] OUT: 8=FIX.4.4|9=277|35=8|49=EXCHANGE|56=MY_COMPANY|34=76|11=63efd418-7d51-4c1b-b0a1-9cee13f59ee2|37=63efd418-7d51-4c1b-b0a1-9cee13f59ee2|17=1db707c3-306a-474c-b934-91a0a88f64c9|39=2|150=F|55=SAN.PA|54=2|38=2|32=2|31=93.28633629|151=0|14=2|44=93.28633629|6007=market_maker|52=20250521-09:30:39.615|10=197|
2025-05-21 10:30:39,616 [INFO] OUT: 8=FIX.4.4|9=265|35=8|49=EXCHANGE|56=MY_COMPANY|34=77|11=market_maker-1747819819.515641|37=market_maker-1747819819.515641|17=462b4677-e32c-4868-9c81-20260f41f96d|39=2|150=F|55=SAN.PA|54=2|38=1|32=1|31=93.28633629|151=0|14=1|44=93.28633629|6007=market_maker|52=20250521-09:30:39.616|10=210|
2025-05-21 10:30:39,616 [INFO] OUT: 8=FIX.4.4|9=277|35=8|49=EXCHANGE|56=MY_COMPANY|34=78|11=63efd418-7d51-4c1b-b0a1-9cee13f59ee2|37=63efd418-7d51-4c1b-b0a1-9cee13f59ee2|17=14938d73-9442-42c3-9d45-e81b5a579112|39=2|150=F|55=SAN.PA|54=2|38=1|32=1|31=93.28633629|151=0|14=1|44=93.28633629|6007=market_maker|52=20250521-09:30:39.616|10=015|
2025-05-21 10:30:44,628 [INFO] OUT: 8=FIX.4.4|9=264|35=8|49=EXCHANGE|56=MY_COMPANY|34=46|11=market_maker-1747819799.377225|37=market_maker-1747819799.377225|17=a21199b8-1a4c-468f-b9a5-3919976521cd|39=2|150=F|55=AD.AS|54=2|38=6|32=6|31=37.73758551|151=0|14=6|44=37.73758551|6007=market_maker|52=20250521-09:30:44.628|10=245|
2025-05-21 10:30:44,632 [INFO] OUT: 8=FIX.4.4|9=278|35=8|49=EXCHANGE|56=MY_COMPANY|34=14|11=5a96c9fb-0462-468c-bfde-f8a1be5a6ee5|37=5a96c9fb-0462-468c-bfde-f8a1be5a6ee5|17=a8127835-6219-4130-bad3-f7fe87bec5f2|39=2|150=F|55=OR.PA|54=1|38=1|32=1|31=379.90683704|151=0|14=1|44=379.90683704|6007=market_maker|52=20250521-09:30:44.631|10=239|
2025-05-21 10:30:44,633 [INFO] OUT: 8=FIX.4.4|9=278|35=8|49=EXCHANGE|56=MY_COMPANY|34=15|11=90f051ae-cdbf-40ed-a86e-90103535b51c|37=90f051ae-cdbf-40ed-a86e-90103535b51c|17=539b8eb2-5d18-46c1-9cf3-62fa7598fd06|39=2|150=F|55=OR.PA|54=2|38=2|32=2|31=379.90683704|151=0|14=2|44=379.90683704|6007=market_maker|52=20250521-09:30:44.633|10=172|
2025-05-21 10:30:44,634 [INFO] OUT: 8=FIX.4.4|9=267|35=8|49=EXCHANGE|56=MY_COMPANY|34=79|11=market_maker-1747819824.5354738|37=market_maker-1747819824.5354738|17=c36b8c2b-fd76-480f-9fbf-7c91a216b355|39=2|150=F|55=SAN.PA|54=1|38=7|32=7|31=93.28633629|151=0|14=7|44=93.28633629|6007=market_maker|52=20250521-09:30:44.634|10=111|
2025-05-21 10:30:44,635 [INFO] OUT: 8=FIX.4.4|9=265|35=8|49=EXCHANGE|56=MY_COMPANY|34=80|11=market_maker-1747819829.565115|37=market_maker-1747819829.565115|17=65a995eb-a21b-4847-aaae-ebc7e95f7e25|39=2|150=F|55=SAN.PA|54=1|38=3|32=3|31=93.28633629|151=0|14=3|44=93.28633629|6007=market_maker|52=20250521-09:30:44.635|10=078|
2025-05-21 10:30:44,636 [INFO] OUT: 8=FIX.4.4|9=267|35=8|49=EXCHANGE|56=MY_COMPANY|34=81|11=market_maker-1747819834.5908291|37=market_maker-1747819834.5908291|17=5b1d030f-78ae-4c0b-93d0-3e81a17da878|39=2|150=F|55=SAN.PA|54=2|38=6|32=6|31=93.28633629|151=0|14=6|44=93.28633629|6007=market_maker|52=20250521-09:30:44.636|10=039|
2025-05-21 10:30:44,637 [INFO] OUT: 8=FIX.4.4|9=265|35=8|49=EXCHANGE|56=MY_COMPANY|34=82|11=market_maker-1747819839.612617|37=market_maker-1747819839.612617|17=3f4a5452-8fb4-45b8-b174-6d42617e6794|39=2|150=F|55=SAN.PA|54=2|38=4|32=4|31=93.28633629|151=0|14=4|44=93.28633629|6007=market_maker|52=20250521-09:30:44.637|10=012|
2025-05-21 10:30:44,639 [INFO] OUT: 8=FIX.4.4|9=265|35=8|49=EXCHANGE|56=MY_COMPANY|34=83|11=market_maker-1747819839.612617|37=market_maker-1747819839.612617|17=503c0b8c-f7de-46a0-b60c-b6dba94dc1d8|39=2|150=F|55=SAN.PA|54=1|38=4|32=4|31=93.28633629|151=0|14=4|44=93.28633629|6007=market_maker|52=20250521-09:30:44.639|10=114|
2025-05-21 10:30:44,640 [INFO] OUT: 8=FIX.4.4|9=265|35=8|49=EXCHANGE|56=MY_COMPANY|34=84|11=market_maker-1747819839.612617|37=market_maker-1747819839.612617|17=2d91409d-dd6a-4f64-a442-8c1f85428f14|39=2|150=F|55=SAN.PA|54=2|38=1|32=1|31=93.28633629|151=0|14=1|44=93.28633629|6007=market_maker|52=20250521-09:30:44.640|10=086|
2025-05-21 10:30:44,643 [INFO] OUT: 8=FIX.4.4|9=277|35=8|49=EXCHANGE|56=MY_COMPANY|34=85|11=5cc831f7-f7ff-414b-934b-5732dbf9294e|37=5cc831f7-f7ff-414b-934b-5732dbf9294e|17=385ff55c-eeb8-46b7-a6c5-64c932f66f2d|39=2|150=F|55=SAN.PA|54=1|38=3|32=3|31=93.28633629|151=0|14=3|44=93.28633629|6007=market_maker|52=20250521-09:30:44.643|10=215|
2025-05-21 10:30:44,644 [INFO] OUT: 8=FIX.4.4|9=277|35=8|49=EXCHANGE|56=MY_COMPANY|34=86|11=5cc831f7-f7ff-414b-934b-5732dbf9294e|37=5cc831f7-f7ff-414b-934b-5732dbf9294e|17=e1db6297-b6be-40d1-a75c-e0339317771d|39=2|150=F|55=SAN.PA|54=1|38=3|32=3|31=93.23943601|151=0|14=3|44=93.23943601|6007=market_maker|52=20250521-09:30:44.644|10=073|
2025-05-21 10:30:44,644 [INFO] OUT: 8=FIX.4.4|9=277|35=8|49=EXCHANGE|56=MY_COMPANY|34=87|11=2f026352-2e82-4537-966b-f9fd216bb49e|37=2f026352-2e82-4537-966b-f9fd216bb49e|17=3aab2f10-87ff-4638-a23e-70134c33bc90|39=2|150=F|55=SAN.PA|54=2|38=2|32=2|31=93.23943601|151=0|14=2|44=93.23943601|6007=market_maker|52=20250521-09:30:44.644|10=013|
2025-05-21 10:30:49,656 [INFO] OUT: 8=FIX.4.4|9=264|35=8|49=EXCHANGE|56=MY_COMPANY|34=47|11=market_maker-1747819799.377225|37=market_maker-1747819799.377225|17=620a4992-25d8-48a7-b842-1c4c256e1913|39=2|150=F|55=AD.AS|54=1|38=3|32=3|31=37.73758551|151=0|14=3|44=37.73758551|6007=market_maker|52=20250521-09:30:49.656|10=135|
2025-05-21 10:30:49,657 [INFO] OUT: 8=FIX.4.4|9=264|35=8|49=EXCHANGE|56=MY_COMPANY|34=48|11=market_maker-1747819804.417653|37=market_maker-1747819804.417653|17=e40f26b2-9070-4a8b-ba64-9c797c48610a|39=2|150=F|55=AD.AS|54=1|38=2|32=2|31=37.73754768|151=0|14=2|44=37.73754768|6007=market_maker|52=20250521-09:30:49.657|10=006|
2025-05-21 10:30:49,657 [INFO] OUT: 8=FIX.4.4|9=264|35=8|49=EXCHANGE|56=MY_COMPANY|34=49|11=market_maker-1747819804.417653|37=market_maker-1747819804.417653|17=81a874e2-2690-4015-8df4-129fea29c17b|39=2|150=F|55=AD.AS|54=2|38=2|32=2|31=37.73754768|151=0|14=2|44=37.73754768|6007=market_maker|52=20250521-09:30:49.657|10=220|
2025-05-21 10:30:49,659 [INFO] OUT: 8=FIX.4.4|9=281|35=8|49=EXCHANGE|56=MY_COMPANY|34=16|11=e8b7d098-b811-4324-afba-0b0f88dd32f8|37=e8b7d098-b811-4324-afba-0b0f88dd32f8|17=fc98e94e-1cde-466d-be4b-4dbe7930b323|39=2|150=F|55=OR.PA|54=1|38=10|32=10|31=379.90683704|151=0|14=10|44=379.90683704|6007=market_maker|52=20250521-09:30:49.659|10=024|
2025-05-21 10:30:49,659 [INFO] OUT: 8=FIX.4.4|9=278|35=8|49=EXCHANGE|56=MY_COMPANY|34=17|11=e4b96774-dee5-42c6-b1d3-01dc039614f4|37=e4b96774-dee5-42c6-b1d3-01dc039614f4|17=690977e0-e02f-420b-abb2-4b8631c74e75|39=2|150=F|55=OR.PA|54=2|38=6|32=6|31=379.90683704|151=0|14=6|44=379.90683704|6007=market_maker|52=20250521-09:30:49.659|10=226|
2025-05-21 10:30:49,661 [INFO] OUT: 8=FIX.4.4|9=277|35=8|49=EXCHANGE|56=MY_COMPANY|34=88|11=06ddcc7c-a46b-47a0-a76a-1052c8441ea6|37=06ddcc7c-a46b-47a0-a76a-1052c8441ea6|17=d6f52596-b831-467e-bf8d-97f113f6289f|39=2|150=F|55=SAN.PA|54=1|38=2|32=2|31=93.23943601|151=0|14=2|44=93.23943601|6007=market_maker|52=20250521-09:30:49.661|10=085|
2025-05-21 10:30:49,661 [INFO] OUT: 8=FIX.4.4|9=280|35=8|49=EXCHANGE|56=MY_COMPANY|34=89|11=f994f61d-9d66-488c-a67a-6d7f8b141eb4|37=f994f61d-9d66-488c-a67a-6d7f8b141eb4|17=adfeef32-8481-4130-9c1d-e7c1e29909c9|39=2|150=F|55=SAN.PA|54=2|38=10|32=10|31=93.23943601|151=0|14=10|44=93.23943601|6007=market_maker|52=20250521-09:30:49.661|10=039|
2025-05-21 10:30:54,675 [INFO] OUT: 8=FIX.4.4|9=264|35=8|49=EXCHANGE|56=MY_COMPANY|34=50|11=market_maker-1747819804.417653|37=market_maker-1747819804.417653|17=75ce3d61-987d-4f0d-9482-94e083cef0d5|39=2|150=F|55=AD.AS|54=1|38=4|32=4|31=37.73754768|151=0|14=4|44=37.73754768|6007=market_maker|52=20250521-09:30:54.675|10=071|
