2025-05-21 10:27:55,415 [INFO] OUT: 8=FIX.4.4|9=142|35=D|49=MY_COMPANY|56=EXCHANGE|34=1|11=momentum-1747819675.414957|55=ASML.AS|54=2|44=659.34000000|38=5|52=20250521-09:27:55.415|6007=momentum|10=009|
2025-05-21 10:27:55,415 [INFO] IN: 8=FIX.4.4|9=142|35=D|49=MY_COMPANY|56=EXCHANGE|34=1|11=momentum-1747819675.414957|55=ASML.AS|54=2|44=659.34000000|38=5|52=20250521-09:27:55.415|6007=momentum|10=009|
2025-05-21 10:27:55,415 [INFO] OUT: 8=FIX.4.4|9=275|35=8|49=EXCHANGE|56=MY_COMPANY|34=2|11=6d0de962-0759-4e28-bdda-0481286501de|37=6d0de962-0759-4e28-bdda-0481286501de|17=e57d2896-fa42-4c0e-ac4f-7748de7bc642|39=2|150=F|55=ASML.AS|54=2|38=5|32=5|31=659.34000000|151=0|14=5|44=659.34000000|6007=momentum|52=20250521-09:27:55.415|10=185|
2025-05-21 10:27:55,416 [INFO] ===== FIX ENGINE INITIALISED FOR SYMBOL momentum =====
2025-05-21 10:29:29,065 [INFO] OUT: 8=FIX.4.4|9=143|35=D|49=MY_COMPANY|56=EXCHANGE|34=1|11=momentum-1747819769.0651221|55=ASML.AS|54=2|44=659.34000000|38=3|52=20250521-09:29:29.065|6007=momentum|10=051|
2025-05-21 10:29:29,065 [INFO] IN: 8=FIX.4.4|9=143|35=D|49=MY_COMPANY|56=EXCHANGE|34=1|11=momentum-1747819769.0651221|55=ASML.AS|54=2|44=659.34000000|38=3|52=20250521-09:29:29.065|6007=momentum|10=051|
2025-05-21 10:29:29,065 [INFO] OUT: 8=FIX.4.4|9=275|35=8|49=EXCHANGE|56=MY_COMPANY|34=2|11=bd203b01-7052-4eb0-824c-ca3e59ce07bb|37=bd203b01-7052-4eb0-824c-ca3e59ce07bb|17=73cfd870-0b0a-4b7d-baca-70981e5f691b|39=2|150=F|55=ASML.AS|54=2|38=3|32=3|31=659.34000000|151=0|14=3|44=659.34000000|6007=momentum|52=20250521-09:29:29.065|10=183|
2025-05-21 10:29:29,066 [INFO] ===== FIX ENGINE INITIALISED FOR SYMBOL momentum =====
2025-05-21 10:29:29,076 [INFO] OUT: 8=FIX.4.4|9=141|35=D|49=MY_COMPANY|56=EXCHANGE|34=1|11=momentum-1747819769.076098|55=PHIA.AS|54=1|44=21.35132900|38=9|52=20250521-09:29:29.076|6007=momentum|10=217|
2025-05-21 10:29:29,076 [INFO] IN: 8=FIX.4.4|9=141|35=D|49=MY_COMPANY|56=EXCHANGE|34=1|11=momentum-1747819769.076098|55=PHIA.AS|54=1|44=21.35132900|38=9|52=20250521-09:29:29.076|6007=momentum|10=217|
2025-05-21 10:29:29,076 [INFO] OUT: 8=FIX.4.4|9=253|35=8|49=EXCHANGE|56=MY_COMPANY|34=2|11=momentum-1747819769.076098|37=momentum-1747819769.076098|17=93604573-5b38-41cf-9bc6-69e2c241fc5e|39=2|150=F|55=PHIA.AS|54=1|38=9|32=9|31=21.35132900|151=0|14=9|44=21.35132900|6007=momentum|52=20250521-09:29:29.076|10=227|
2025-05-21 10:29:29,077 [INFO] OUT: 8=FIX.4.4|9=273|35=8|49=EXCHANGE|56=MY_COMPANY|34=3|11=869bb2c2-931a-4d27-98d2-2a964cd89964|37=869bb2c2-931a-4d27-98d2-2a964cd89964|17=238f656f-b03c-4949-987c-6c2b2fefee2d|39=2|150=F|55=PHIA.AS|54=1|38=9|32=9|31=21.35132900|151=0|14=9|44=21.35132900|6007=momentum|52=20250521-09:29:29.077|10=048|
2025-05-21 10:29:29,077 [INFO] ===== FIX ENGINE INITIALISED FOR SYMBOL momentum =====
2025-05-21 10:29:29,081 [INFO] OUT: 8=FIX.4.4|9=141|35=D|49=MY_COMPANY|56=EXCHANGE|34=1|11=momentum-1747819769.081853|55=INGA.AS|54=1|44=19.16914900|38=6|52=20250521-09:29:29.081|6007=momentum|10=216|
2025-05-21 10:29:29,082 [INFO] IN: 8=FIX.4.4|9=141|35=D|49=MY_COMPANY|56=EXCHANGE|34=1|11=momentum-1747819769.081853|55=INGA.AS|54=1|44=19.16914900|38=6|52=20250521-09:29:29.081|6007=momentum|10=216|
2025-05-21 10:29:29,082 [INFO] OUT: 8=FIX.4.4|9=253|35=8|49=EXCHANGE|56=MY_COMPANY|34=2|11=momentum-1747819769.081853|37=momentum-1747819769.081853|17=73d5a61a-b1f7-4e37-8dfa-3574cd932880|39=2|150=F|55=INGA.AS|54=1|38=6|32=6|31=19.16914900|151=0|14=6|44=19.16914900|6007=momentum|52=20250521-09:29:29.082|10=020|
2025-05-21 10:29:29,085 [INFO] OUT: 8=FIX.4.4|9=273|35=8|49=EXCHANGE|56=MY_COMPANY|34=3|11=47138e95-ab5f-439a-a251-3ccf5a46417b|37=47138e95-ab5f-439a-a251-3ccf5a46417b|17=6887e123-807f-43e0-8600-f3162de49b09|39=2|150=F|55=INGA.AS|54=1|38=6|32=6|31=19.16914900|151=0|14=6|44=19.16914900|6007=momentum|52=20250521-09:29:29.085|10=158|
2025-05-21 10:29:29,086 [INFO] ===== FIX ENGINE INITIALISED FOR SYMBOL momentum =====
2025-05-21 10:29:29,090 [INFO] OUT: 8=FIX.4.4|9=139|35=D|49=MY_COMPANY|56=EXCHANGE|34=1|11=momentum-1747819769.090039|55=AD.AS|54=1|44=37.90786800|38=6|52=20250521-09:29:29.090|6007=momentum|10=073|
2025-05-21 10:29:29,090 [INFO] IN: 8=FIX.4.4|9=139|35=D|49=MY_COMPANY|56=EXCHANGE|34=1|11=momentum-1747819769.090039|55=AD.AS|54=1|44=37.90786800|38=6|52=20250521-09:29:29.090|6007=momentum|10=073|
2025-05-21 10:29:29,090 [INFO] OUT: 8=FIX.4.4|9=251|35=8|49=EXCHANGE|56=MY_COMPANY|34=2|11=momentum-1747819769.090039|37=momentum-1747819769.090039|17=f170e16b-9846-42a4-a41b-f90b038e1f73|39=2|150=F|55=AD.AS|54=1|38=6|32=6|31=37.90786800|151=0|14=6|44=37.90786800|6007=momentum|52=20250521-09:29:29.090|10=065|
2025-05-21 10:29:29,090 [INFO] OUT: 8=FIX.4.4|9=271|35=8|49=EXCHANGE|56=MY_COMPANY|34=3|11=42fd0cce-a01d-4563-9adb-aa8416b9ceeb|37=42fd0cce-a01d-4563-9adb-aa8416b9ceeb|17=2d5955d6-5bc7-4087-8784-530a39fea0dc|39=2|150=F|55=AD.AS|54=1|38=6|32=6|31=37.90786800|151=0|14=6|44=37.90786800|6007=momentum|52=20250521-09:29:29.090|10=201|
2025-05-21 10:29:29,090 [INFO] ===== FIX ENGINE INITIALISED FOR SYMBOL momentum =====
2025-05-21 10:29:29,092 [INFO] OUT: 8=FIX.4.4|9=140|35=D|49=MY_COMPANY|56=EXCHANGE|34=1|11=momentum-1747819769.092813|55=OR.PA|54=1|44=381.43103699|38=3|52=20250521-09:29:29.092|6007=momentum|10=138|
2025-05-21 10:29:29,092 [INFO] IN: 8=FIX.4.4|9=140|35=D|49=MY_COMPANY|56=EXCHANGE|34=1|11=momentum-1747819769.092813|55=OR.PA|54=1|44=381.43103699|38=3|52=20250521-09:29:29.092|6007=momentum|10=138|
2025-05-21 10:29:29,092 [INFO] OUT: 8=FIX.4.4|9=253|35=8|49=EXCHANGE|56=MY_COMPANY|34=2|11=momentum-1747819769.092813|37=momentum-1747819769.092813|17=7ef7c880-802d-4eb5-b7ad-bc4886b4eccf|39=2|150=F|55=OR.PA|54=1|38=3|32=3|31=381.43103699|151=0|14=3|44=381.43103699|6007=momentum|52=20250521-09:29:29.092|10=233|
2025-05-21 10:29:29,093 [INFO] OUT: 8=FIX.4.4|9=273|35=8|49=EXCHANGE|56=MY_COMPANY|34=3|11=eddb0a51-06ae-4a18-9c75-5591fb41050c|37=eddb0a51-06ae-4a18-9c75-5591fb41050c|17=8a5a5332-f8da-4f20-b065-cbfc965b5632|39=2|150=F|55=OR.PA|54=1|38=3|32=3|31=381.43103699|151=0|14=3|44=381.43103699|6007=momentum|52=20250521-09:29:29.093|10=167|
2025-05-21 10:29:29,093 [INFO] ===== FIX ENGINE INITIALISED FOR SYMBOL momentum =====
2025-05-21 10:29:29,095 [INFO] OUT: 8=FIX.4.4|9=141|35=D|49=MY_COMPANY|56=EXCHANGE|34=1|11=momentum-1747819769.0951512|55=SAN.PA|54=1|44=93.61351600|38=8|52=20250521-09:29:29.095|6007=momentum|10=199|
2025-05-21 10:29:29,095 [INFO] IN: 8=FIX.4.4|9=141|35=D|49=MY_COMPANY|56=EXCHANGE|34=1|11=momentum-1747819769.0951512|55=SAN.PA|54=1|44=93.61351600|38=8|52=20250521-09:29:29.095|6007=momentum|10=199|
2025-05-21 10:29:29,095 [INFO] OUT: 8=FIX.4.4|9=254|35=8|49=EXCHANGE|56=MY_COMPANY|34=2|11=momentum-1747819769.0951512|37=momentum-1747819769.0951512|17=4ea85e40-eb8d-429f-9790-11dc938e5879|39=2|150=F|55=SAN.PA|54=1|38=8|32=8|31=93.61351600|151=0|14=8|44=93.61351600|6007=momentum|52=20250521-09:29:29.095|10=021|
2025-05-21 10:29:29,095 [INFO] OUT: 8=FIX.4.4|9=272|35=8|49=EXCHANGE|56=MY_COMPANY|34=3|11=f38a6085-e565-4ac7-8ab0-980330131f82|37=f38a6085-e565-4ac7-8ab0-980330131f82|17=bdf3e343-6258-4487-87b6-ed1a0772cf7a|39=2|150=F|55=SAN.PA|54=1|38=8|32=8|31=93.61351600|151=0|14=8|44=93.61351600|6007=momentum|52=20250521-09:29:29.095|10=253|
2025-05-21 10:29:34,112 [INFO] OUT: 8=FIX.4.4|9=143|35=D|49=MY_COMPANY|56=EXCHANGE|34=3|11=momentum-1747819774.1127622|55=ASML.AS|54=2|44=659.34000000|38=4|52=20250521-09:29:34.112|6007=momentum|10=043|
2025-05-21 10:29:34,113 [INFO] IN: 8=FIX.4.4|9=143|35=D|49=MY_COMPANY|56=EXCHANGE|34=3|11=momentum-1747819774.1127622|55=ASML.AS|54=2|44=659.34000000|38=4|52=20250521-09:29:34.112|6007=momentum|10=043|
2025-05-21 10:29:34,113 [INFO] OUT: 8=FIX.4.4|9=275|35=8|49=EXCHANGE|56=MY_COMPANY|34=4|11=4e6deae1-e667-41b5-8230-11c82158f52a|37=4e6deae1-e667-41b5-8230-11c82158f52a|17=a16e99a8-9901-4f76-881d-d5170585a249|39=2|150=F|55=ASML.AS|54=2|38=4|32=4|31=659.34000000|151=0|14=4|44=659.34000000|6007=momentum|52=20250521-09:29:34.113|10=140|
2025-05-21 10:29:34,119 [INFO] OUT: 8=FIX.4.4|9=142|35=D|49=MY_COMPANY|56=EXCHANGE|34=4|11=momentum-1747819774.1193721|55=PHIA.AS|54=1|44=21.35132900|38=6|52=20250521-09:29:34.119|6007=momentum|10=250|
2025-05-21 10:29:34,119 [INFO] IN: 8=FIX.4.4|9=142|35=D|49=MY_COMPANY|56=EXCHANGE|34=4|11=momentum-1747819774.1193721|55=PHIA.AS|54=1|44=21.35132900|38=6|52=20250521-09:29:34.119|6007=momentum|10=250|
2025-05-21 10:29:34,120 [INFO] OUT: 8=FIX.4.4|9=255|35=8|49=EXCHANGE|56=MY_COMPANY|34=5|11=momentum-1747819774.1193721|37=momentum-1747819774.1193721|17=36529d05-ba01-4214-81d8-d7d76ac90a1d|39=2|150=F|55=PHIA.AS|54=1|38=6|32=6|31=21.35132900|151=0|14=6|44=21.35132900|6007=momentum|52=20250521-09:29:34.119|10=014|
2025-05-21 10:29:34,120 [INFO] OUT: 8=FIX.4.4|9=273|35=8|49=EXCHANGE|56=MY_COMPANY|34=6|11=3e869aba-85de-4a96-b891-e78554055474|37=3e869aba-85de-4a96-b891-e78554055474|17=88b5f445-74e9-45cd-813f-c3c6bf98397c|39=2|150=F|55=PHIA.AS|54=1|38=6|32=6|31=21.35132900|151=0|14=6|44=21.35132900|6007=momentum|52=20250521-09:29:34.120|10=205|
2025-05-21 10:29:34,129 [INFO] OUT: 8=FIX.4.4|9=142|35=D|49=MY_COMPANY|56=EXCHANGE|34=4|11=momentum-1747819774.1290271|55=INGA.AS|54=1|44=19.16914900|38=4|52=20250521-09:29:34.129|6007=momentum|10=002|
2025-05-21 10:29:34,129 [INFO] IN: 8=FIX.4.4|9=142|35=D|49=MY_COMPANY|56=EXCHANGE|34=4|11=momentum-1747819774.1290271|55=INGA.AS|54=1|44=19.16914900|38=4|52=20250521-09:29:34.129|6007=momentum|10=002|
2025-05-21 10:29:34,129 [INFO] OUT: 8=FIX.4.4|9=255|35=8|49=EXCHANGE|56=MY_COMPANY|34=5|11=momentum-1747819774.1290271|37=momentum-1747819774.1290271|17=bde98634-3829-4a18-9de5-c86d982434a6|39=2|150=F|55=INGA.AS|54=1|38=4|32=4|31=19.16914900|151=0|14=4|44=19.16914900|6007=momentum|52=20250521-09:29:34.129|10=023|
2025-05-21 10:29:34,129 [INFO] OUT: 8=FIX.4.4|9=273|35=8|49=EXCHANGE|56=MY_COMPANY|34=6|11=cc165dc8-2078-4e05-984d-cce0d5448523|37=cc165dc8-2078-4e05-984d-cce0d5448523|17=87121bb7-75cd-48d0-a9dd-ce7ec56a1ca8|39=2|150=F|55=INGA.AS|54=1|38=4|32=4|31=19.16914900|151=0|14=4|44=19.16914900|6007=momentum|52=20250521-09:29:34.129|10=191|
2025-05-21 10:29:34,134 [INFO] OUT: 8=FIX.4.4|9=139|35=D|49=MY_COMPANY|56=EXCHANGE|34=4|11=momentum-1747819774.134515|55=AD.AS|54=1|44=37.90786800|38=8|52=20250521-09:29:34.134|6007=momentum|10=067|
2025-05-21 10:29:34,134 [INFO] IN: 8=FIX.4.4|9=139|35=D|49=MY_COMPANY|56=EXCHANGE|34=4|11=momentum-1747819774.134515|55=AD.AS|54=1|44=37.90786800|38=8|52=20250521-09:29:34.134|6007=momentum|10=067|
2025-05-21 10:29:34,135 [INFO] OUT: 8=FIX.4.4|9=251|35=8|49=EXCHANGE|56=MY_COMPANY|34=5|11=momentum-1747819774.134515|37=momentum-1747819774.134515|17=ca7deea3-e5f2-4808-875d-b6896458dd6d|39=2|150=F|55=AD.AS|54=1|38=8|32=8|31=37.90786800|151=0|14=8|44=37.90786800|6007=momentum|52=20250521-09:29:34.135|10=235|
2025-05-21 10:29:34,135 [INFO] OUT: 8=FIX.4.4|9=271|35=8|49=EXCHANGE|56=MY_COMPANY|34=6|11=0e15b832-8113-4ff7-807c-77aa6d423827|37=0e15b832-8113-4ff7-807c-77aa6d423827|17=d6840e98-ef49-4b2f-b4d4-74fd1763ea61|39=2|150=F|55=AD.AS|54=1|38=8|32=8|31=37.90786800|151=0|14=8|44=37.90786800|6007=momentum|52=20250521-09:29:34.135|10=246|
2025-05-21 10:29:34,139 [INFO] OUT: 8=FIX.4.4|9=276|35=8|49=EXCHANGE|56=MY_COMPANY|34=4|11=40175371-a7bf-4a94-893a-915532e93632|37=40175371-a7bf-4a94-893a-915532e93632|17=babef196-20c9-4992-9502-98fde33120b9|39=2|150=F|55=OR.PA|54=1|38=10|32=10|31=380.66893701|151=0|14=10|44=380.66893701|6007=momentum|52=20250521-09:29:34.139|10=214|
2025-05-21 10:29:34,144 [INFO] OUT: 8=FIX.4.4|9=140|35=D|49=MY_COMPANY|56=EXCHANGE|34=4|11=momentum-1747819774.143937|55=SAN.PA|54=1|44=93.61351600|38=2|52=20250521-09:29:34.144|6007=momentum|10=138|
2025-05-21 10:29:34,144 [INFO] IN: 8=FIX.4.4|9=140|35=D|49=MY_COMPANY|56=EXCHANGE|34=4|11=momentum-1747819774.143937|55=SAN.PA|54=1|44=93.61351600|38=2|52=20250521-09:29:34.144|6007=momentum|10=138|
2025-05-21 10:29:34,144 [INFO] OUT: 8=FIX.4.4|9=252|35=8|49=EXCHANGE|56=MY_COMPANY|34=5|11=momentum-1747819774.143937|37=momentum-1747819774.143937|17=6c13c09c-465d-43af-b48b-33c67c34a8c0|39=2|150=F|55=SAN.PA|54=1|38=2|32=2|31=93.61351600|151=0|14=2|44=93.61351600|6007=momentum|52=20250521-09:29:34.144|10=212|
2025-05-21 10:29:34,145 [INFO] OUT: 8=FIX.4.4|9=272|35=8|49=EXCHANGE|56=MY_COMPANY|34=6|11=669c446c-8364-47c7-a623-8a6179a755b6|37=669c446c-8364-47c7-a623-8a6179a755b6|17=ca815b3b-14a2-48d5-8b60-5fb5572633c7|39=2|150=F|55=SAN.PA|54=1|38=2|32=2|31=93.61351600|151=0|14=2|44=93.61351600|6007=momentum|52=20250521-09:29:34.145|10=119|
2025-05-21 10:29:39,177 [INFO] OUT: 8=FIX.4.4|9=142|35=D|49=MY_COMPANY|56=EXCHANGE|34=7|11=momentum-1747819779.177356|55=PHIA.AS|54=1|44=21.35132900|38=10|52=20250521-09:29:39.177|6007=momentum|10=011|
2025-05-21 10:29:39,177 [INFO] IN: 8=FIX.4.4|9=142|35=D|49=MY_COMPANY|56=EXCHANGE|34=7|11=momentum-1747819779.177356|55=PHIA.AS|54=1|44=21.35132900|38=10|52=20250521-09:29:39.177|6007=momentum|10=011|
2025-05-21 10:29:39,178 [INFO] OUT: 8=FIX.4.4|9=256|35=8|49=EXCHANGE|56=MY_COMPANY|34=8|11=momentum-1747819779.177356|37=momentum-1747819779.177356|17=b21ba3bf-c956-4473-9cd8-6f80e7350dcb|39=2|150=F|55=PHIA.AS|54=1|38=10|32=10|31=21.35132900|151=0|14=10|44=21.35132900|6007=momentum|52=20250521-09:29:39.178|10=241|
2025-05-21 10:29:39,178 [INFO] OUT: 8=FIX.4.4|9=276|35=8|49=EXCHANGE|56=MY_COMPANY|34=9|11=7fa08f2f-cdcc-4ab2-a44a-f690cd3692ab|37=7fa08f2f-cdcc-4ab2-a44a-f690cd3692ab|17=b942613c-d533-4b73-84a5-4a18ee560131|39=2|150=F|55=PHIA.AS|54=1|38=10|32=10|31=21.35132900|151=0|14=10|44=21.35132900|6007=momentum|52=20250521-09:29:39.178|10=096|
2025-05-21 10:29:39,183 [INFO] OUT: 8=FIX.4.4|9=141|35=D|49=MY_COMPANY|56=EXCHANGE|34=7|11=momentum-1747819779.183274|55=INGA.AS|54=1|44=19.16914900|38=4|52=20250521-09:29:39.183|6007=momentum|10=225|
2025-05-21 10:29:39,183 [INFO] IN: 8=FIX.4.4|9=141|35=D|49=MY_COMPANY|56=EXCHANGE|34=7|11=momentum-1747819779.183274|55=INGA.AS|54=1|44=19.16914900|38=4|52=20250521-09:29:39.183|6007=momentum|10=225|
2025-05-21 10:29:39,183 [INFO] OUT: 8=FIX.4.4|9=253|35=8|49=EXCHANGE|56=MY_COMPANY|34=8|11=momentum-1747819779.183274|37=momentum-1747819779.183274|17=ebd4f1bd-f047-4a01-bf91-5b238ab7dc78|39=2|150=F|55=INGA.AS|54=1|38=4|32=4|31=19.16914900|151=0|14=4|44=19.16914900|6007=momentum|52=20250521-09:29:39.183|10=200|
2025-05-21 10:29:39,183 [INFO] OUT: 8=FIX.4.4|9=273|35=8|49=EXCHANGE|56=MY_COMPANY|34=9|11=d02ef4ca-baca-4f79-8586-f524da2e2af8|37=d02ef4ca-baca-4f79-8586-f524da2e2af8|17=35537ee0-07b6-4942-8583-b0441a1134bd|39=2|150=F|55=INGA.AS|54=1|38=4|32=4|31=19.16914900|151=0|14=4|44=19.16914900|6007=momentum|52=20250521-09:29:39.183|10=114|
2025-05-21 10:29:39,191 [INFO] OUT: 8=FIX.4.4|9=139|35=D|49=MY_COMPANY|56=EXCHANGE|34=7|11=momentum-1747819779.191515|55=AD.AS|54=2|44=37.83212800|38=5|52=20250521-09:29:39.191|6007=momentum|10=070|
2025-05-21 10:29:39,191 [INFO] IN: 8=FIX.4.4|9=139|35=D|49=MY_COMPANY|56=EXCHANGE|34=7|11=momentum-1747819779.191515|55=AD.AS|54=2|44=37.83212800|38=5|52=20250521-09:29:39.191|6007=momentum|10=070|
2025-05-21 10:29:39,191 [INFO] OUT: 8=FIX.4.4|9=271|35=8|49=EXCHANGE|56=MY_COMPANY|34=8|11=17b76a82-99aa-4fc8-a76f-c2efd622d661|37=17b76a82-99aa-4fc8-a76f-c2efd622d661|17=6d50d15d-843d-4965-8446-71381cc05450|39=2|150=F|55=AD.AS|54=2|38=5|32=5|31=37.79425800|151=0|14=5|44=37.79425800|6007=momentum|52=20250521-09:29:39.191|10=184|
2025-05-21 10:29:39,193 [INFO] OUT: 8=FIX.4.4|9=273|35=8|49=EXCHANGE|56=MY_COMPANY|34=5|11=0528b42f-42f5-4091-8084-7ff36e51c30b|37=0528b42f-42f5-4091-8084-7ff36e51c30b|17=273cce36-aa55-4674-b78f-b101e3bb23b7|39=2|150=F|55=OR.PA|54=1|38=6|32=6|31=380.66893701|151=0|14=6|44=380.66893701|6007=momentum|52=20250521-09:29:39.193|10=082|
2025-05-21 10:29:39,196 [INFO] OUT: 8=FIX.4.4|9=141|35=D|49=MY_COMPANY|56=EXCHANGE|34=7|11=momentum-1747819779.1968908|55=SAN.PA|54=2|44=93.42647600|38=2|52=20250521-09:29:39.196|6007=momentum|10=229|
2025-05-21 10:29:39,197 [INFO] IN: 8=FIX.4.4|9=141|35=D|49=MY_COMPANY|56=EXCHANGE|34=7|11=momentum-1747819779.1968908|55=SAN.PA|54=2|44=93.42647600|38=2|52=20250521-09:29:39.196|6007=momentum|10=229|
2025-05-21 10:29:39,197 [INFO] OUT: 8=FIX.4.4|9=272|35=8|49=EXCHANGE|56=MY_COMPANY|34=8|11=516305cf-7d14-48e7-a7e1-e933073ff8c6|37=516305cf-7d14-48e7-a7e1-e933073ff8c6|17=59b11b7c-b5b6-4c0e-a775-488314853eca|39=2|150=F|55=SAN.PA|54=2|38=2|32=2|31=93.42647600|151=0|14=2|44=93.42647600|6007=momentum|52=20250521-09:29:39.197|10=212|
2025-05-21 10:29:44,221 [INFO] OUT: 8=FIX.4.4|9=142|35=D|49=MY_COMPANY|56=EXCHANGE|34=10|11=momentum-1747819784.221119|55=PHIA.AS|54=2|44=21.30866900|38=1|52=20250521-09:29:44.221|6007=momentum|10=240|
2025-05-21 10:29:44,221 [INFO] IN: 8=FIX.4.4|9=142|35=D|49=MY_COMPANY|56=EXCHANGE|34=10|11=momentum-1747819784.221119|55=PHIA.AS|54=2|44=21.30866900|38=1|52=20250521-09:29:44.221|6007=momentum|10=240|
2025-05-21 10:29:44,222 [INFO] OUT: 8=FIX.4.4|9=274|35=8|49=EXCHANGE|56=MY_COMPANY|34=11|11=73057f8e-2b4f-4948-a149-efb1bb53f429|37=73057f8e-2b4f-4948-a149-efb1bb53f429|17=fc13296f-d56e-458f-8da9-6101a9f8d6d3|39=2|150=F|55=PHIA.AS|54=2|38=1|32=1|31=21.28733900|151=0|14=1|44=21.28733900|6007=momentum|52=20250521-09:29:44.222|10=201|
2025-05-21 10:29:44,232 [INFO] OUT: 8=FIX.4.4|9=142|35=D|49=MY_COMPANY|56=EXCHANGE|34=10|11=momentum-1747819784.232237|55=INGA.AS|54=2|44=19.13084900|38=6|52=20250521-09:29:44.232|6007=momentum|10=247|
2025-05-21 10:29:44,232 [INFO] IN: 8=FIX.4.4|9=142|35=D|49=MY_COMPANY|56=EXCHANGE|34=10|11=momentum-1747819784.232237|55=INGA.AS|54=2|44=19.13084900|38=6|52=20250521-09:29:44.232|6007=momentum|10=247|
2025-05-21 10:29:44,232 [INFO] OUT: 8=FIX.4.4|9=274|35=8|49=EXCHANGE|56=MY_COMPANY|34=11|11=837d81a1-d578-4ca9-8773-87f5299d0ade|37=837d81a1-d578-4ca9-8773-87f5299d0ade|17=d4e910a0-d9b0-4cb6-9e62-2b36abf9c55e|39=2|150=F|55=INGA.AS|54=2|38=2|32=2|31=19.13084900|151=0|14=2|44=19.13084900|6007=momentum|52=20250521-09:29:44.232|10=211|
2025-05-21 10:29:44,233 [INFO] OUT: 8=FIX.4.4|9=274|35=8|49=EXCHANGE|56=MY_COMPANY|34=12|11=837d81a1-d578-4ca9-8773-87f5299d0ade|37=837d81a1-d578-4ca9-8773-87f5299d0ade|17=3d071063-0779-49bd-aa20-11f1099e394c|39=2|150=F|55=INGA.AS|54=2|38=1|32=1|31=19.13084900|151=0|14=1|44=19.13084900|6007=momentum|52=20250521-09:29:44.233|10=174|
2025-05-21 10:29:44,233 [INFO] OUT: 8=FIX.4.4|9=274|35=8|49=EXCHANGE|56=MY_COMPANY|34=13|11=837d81a1-d578-4ca9-8773-87f5299d0ade|37=837d81a1-d578-4ca9-8773-87f5299d0ade|17=44f536c0-0d7e-41fc-a522-c23951e8bda8|39=2|150=F|55=INGA.AS|54=2|38=3|32=3|31=19.13084900|151=0|14=3|44=19.13084900|6007=momentum|52=20250521-09:29:44.233|10=118|
2025-05-21 10:29:44,237 [INFO] OUT: 8=FIX.4.4|9=139|35=D|49=MY_COMPANY|56=EXCHANGE|34=9|11=momentum-1747819784.237827|55=AD.AS|54=1|44=37.83212800|38=7|52=20250521-09:29:44.237|6007=momentum|10=073|
2025-05-21 10:29:44,238 [INFO] IN: 8=FIX.4.4|9=139|35=D|49=MY_COMPANY|56=EXCHANGE|34=9|11=momentum-1747819784.237827|55=AD.AS|54=1|44=37.83212800|38=7|52=20250521-09:29:44.237|6007=momentum|10=073|
2025-05-21 10:29:44,238 [INFO] OUT: 8=FIX.4.4|9=252|35=8|49=EXCHANGE|56=MY_COMPANY|34=10|11=momentum-1747819784.237827|37=momentum-1747819784.237827|17=fd7739f0-abae-488a-964d-fb1c28188e7c|39=2|150=F|55=AD.AS|54=1|38=7|32=7|31=37.83212800|151=0|14=7|44=37.83212800|6007=momentum|52=20250521-09:29:44.238|10=060|
2025-05-21 10:29:44,238 [INFO] OUT: 8=FIX.4.4|9=272|35=8|49=EXCHANGE|56=MY_COMPANY|34=11|11=d392b16e-a742-4aeb-a2c0-dcfa40694d57|37=d392b16e-a742-4aeb-a2c0-dcfa40694d57|17=72cb1315-b0ea-4b95-8fd3-49fdecaf2635|39=2|150=F|55=AD.AS|54=1|38=7|32=7|31=37.83212800|151=0|14=7|44=37.83212800|6007=momentum|52=20250521-09:29:44.238|10=119|
2025-05-21 10:29:44,239 [INFO] OUT: 8=FIX.4.4|9=273|35=8|49=EXCHANGE|56=MY_COMPANY|34=6|11=5190b90d-4e18-448b-aeb5-4818cf5ce118|37=5190b90d-4e18-448b-aeb5-4818cf5ce118|17=fe532f5f-e247-448c-b62d-76cb27695a92|39=2|150=F|55=OR.PA|54=1|38=1|32=1|31=380.66893701|151=0|14=1|44=380.66893701|6007=momentum|52=20250521-09:29:44.239|10=089|
2025-05-21 10:29:44,240 [INFO] OUT: 8=FIX.4.4|9=273|35=8|49=EXCHANGE|56=MY_COMPANY|34=7|11=5190b90d-4e18-448b-aeb5-4818cf5ce118|37=5190b90d-4e18-448b-aeb5-4818cf5ce118|17=72807e58-95f2-4c69-b3f0-fba92af3ba4a|39=2|150=F|55=OR.PA|54=1|38=8|32=8|31=380.66893701|151=0|14=8|44=380.66893701|6007=momentum|52=20250521-09:29:44.240|10=186|
2025-05-21 10:29:44,240 [INFO] OUT: 8=FIX.4.4|9=273|35=8|49=EXCHANGE|56=MY_COMPANY|34=8|11=5190b90d-4e18-448b-aeb5-4818cf5ce118|37=5190b90d-4e18-448b-aeb5-4818cf5ce118|17=e34a94fe-837d-4fa0-9704-c83eebaac4a4|39=2|150=F|55=OR.PA|54=1|38=1|32=1|31=380.66893701|151=0|14=1|44=380.66893701|6007=momentum|52=20250521-09:29:44.240|10=001|
2025-05-21 10:29:44,245 [INFO] OUT: 8=FIX.4.4|9=139|35=D|49=MY_COMPANY|56=EXCHANGE|34=9|11=momentum-1747819784.24526|55=SAN.PA|54=1|44=93.42647600|38=5|52=20250521-09:29:44.245|6007=momentum|10=109|
2025-05-21 10:29:44,245 [INFO] IN: 8=FIX.4.4|9=139|35=D|49=MY_COMPANY|56=EXCHANGE|34=9|11=momentum-1747819784.24526|55=SAN.PA|54=1|44=93.42647600|38=5|52=20250521-09:29:44.245|6007=momentum|10=109|
2025-05-21 10:29:44,245 [INFO] OUT: 8=FIX.4.4|9=273|35=8|49=EXCHANGE|56=MY_COMPANY|34=10|11=fb6cc545-b0c1-4234-91fd-520c737b1c38|37=fb6cc545-b0c1-4234-91fd-520c737b1c38|17=4476dad7-15a8-4ef3-b4c3-878508cb000b|39=2|150=F|55=SAN.PA|54=1|38=5|32=5|31=93.42647600|151=0|14=5|44=93.42647600|6007=momentum|52=20250521-09:29:44.245|10=037|
2025-05-21 10:29:49,263 [INFO] OUT: 8=FIX.4.4|9=142|35=D|49=MY_COMPANY|56=EXCHANGE|34=12|11=momentum-1747819789.263633|55=PHIA.AS|54=1|44=21.30866900|38=6|52=20250521-09:29:49.263|6007=momentum|10=013|
2025-05-21 10:29:49,264 [INFO] IN: 8=FIX.4.4|9=142|35=D|49=MY_COMPANY|56=EXCHANGE|34=12|11=momentum-1747819789.263633|55=PHIA.AS|54=1|44=21.30866900|38=6|52=20250521-09:29:49.263|6007=momentum|10=013|
2025-05-21 10:29:49,264 [INFO] OUT: 8=FIX.4.4|9=254|35=8|49=EXCHANGE|56=MY_COMPANY|34=13|11=momentum-1747819789.263633|37=momentum-1747819789.263633|17=0998bc80-4054-4962-874c-f72daf143941|39=2|150=F|55=PHIA.AS|54=1|38=6|32=6|31=21.30866900|151=0|14=6|44=21.30866900|6007=momentum|52=20250521-09:29:49.264|10=137|
2025-05-21 10:29:49,267 [INFO] OUT: 8=FIX.4.4|9=274|35=8|49=EXCHANGE|56=MY_COMPANY|34=14|11=81025feb-fade-40ad-8c1d-570ce183bf08|37=81025feb-fade-40ad-8c1d-570ce183bf08|17=261cc5bf-9457-4962-8f2b-38a362853dce|39=2|150=F|55=PHIA.AS|54=1|38=6|32=6|31=21.30866900|151=0|14=6|44=21.30866900|6007=momentum|52=20250521-09:29:49.267|10=209|
2025-05-21 10:29:49,276 [INFO] OUT: 8=FIX.4.4|9=142|35=D|49=MY_COMPANY|56=EXCHANGE|34=14|11=momentum-1747819789.276098|55=INGA.AS|54=2|44=19.13084900|38=5|52=20250521-09:29:49.276|6007=momentum|10=025|
2025-05-21 10:29:49,276 [INFO] IN: 8=FIX.4.4|9=142|35=D|49=MY_COMPANY|56=EXCHANGE|34=14|11=momentum-1747819789.276098|55=INGA.AS|54=2|44=19.13084900|38=5|52=20250521-09:29:49.276|6007=momentum|10=025|
2025-05-21 10:29:49,276 [INFO] OUT: 8=FIX.4.4|9=274|35=8|49=EXCHANGE|56=MY_COMPANY|34=15|11=fac110cd-86ee-4dbd-acc3-be3f1649d48c|37=fac110cd-86ee-4dbd-acc3-be3f1649d48c|17=f6183c25-a4ce-476d-8268-6e59c4bc68b9|39=2|150=F|55=INGA.AS|54=2|38=5|32=5|31=19.11169900|151=0|14=5|44=19.11169900|6007=momentum|52=20250521-09:29:49.276|10=052|
2025-05-21 10:29:49,279 [INFO] OUT: 8=FIX.4.4|9=141|35=D|49=MY_COMPANY|56=EXCHANGE|34=12|11=momentum-1747819789.279221|55=AD.AS|54=2|44=37.79425800|38=10|52=20250521-09:29:49.279|6007=momentum|10=172|
2025-05-21 10:29:49,279 [INFO] IN: 8=FIX.4.4|9=141|35=D|49=MY_COMPANY|56=EXCHANGE|34=12|11=momentum-1747819789.279221|55=AD.AS|54=2|44=37.79425800|38=10|52=20250521-09:29:49.279|6007=momentum|10=172|
2025-05-21 10:29:49,279 [INFO] OUT: 8=FIX.4.4|9=275|35=8|49=EXCHANGE|56=MY_COMPANY|34=13|11=61864bed-b305-4320-ba38-66d1b1d87a86|37=61864bed-b305-4320-ba38-66d1b1d87a86|17=82c99c43-9b71-40ed-a35a-a316b840b5de|39=2|150=F|55=AD.AS|54=2|38=10|32=10|31=37.79425800|151=0|14=10|44=37.79425800|6007=momentum|52=20250521-09:29:49.279|10=068|
2025-05-21 10:29:49,280 [INFO] OUT: 8=FIX.4.4|9=273|35=8|49=EXCHANGE|56=MY_COMPANY|34=9|11=4951a35d-4435-4d80-830a-58b3e89d89b9|37=4951a35d-4435-4d80-830a-58b3e89d89b9|17=860727be-eeb6-41d9-84a3-be00148d368d|39=2|150=F|55=OR.PA|54=2|38=3|32=3|31=380.66893701|151=0|14=3|44=380.66893701|6007=momentum|52=20250521-09:29:49.280|10=086|
2025-05-21 10:29:49,281 [INFO] OUT: 8=FIX.4.4|9=274|35=8|49=EXCHANGE|56=MY_COMPANY|34=10|11=4951a35d-4435-4d80-830a-58b3e89d89b9|37=4951a35d-4435-4d80-830a-58b3e89d89b9|17=94857612-2ac8-416d-925d-e1a57a5f3255|39=2|150=F|55=OR.PA|54=2|38=1|32=1|31=380.28788703|151=0|14=1|44=380.28788703|6007=momentum|52=20250521-09:29:49.281|10=243|
2025-05-21 10:29:49,289 [INFO] OUT: 8=FIX.4.4|9=141|35=D|49=MY_COMPANY|56=EXCHANGE|34=11|11=momentum-1747819789.289126|55=SAN.PA|54=1|44=93.42647600|38=7|52=20250521-09:29:49.289|6007=momentum|10=220|
2025-05-21 10:29:49,289 [INFO] IN: 8=FIX.4.4|9=141|35=D|49=MY_COMPANY|56=EXCHANGE|34=11|11=momentum-1747819789.289126|55=SAN.PA|54=1|44=93.42647600|38=7|52=20250521-09:29:49.289|6007=momentum|10=220|
2025-05-21 10:29:49,289 [INFO] OUT: 8=FIX.4.4|9=273|35=8|49=EXCHANGE|56=MY_COMPANY|34=12|11=59d36156-6724-4f49-9f96-4f565c3ced6c|37=59d36156-6724-4f49-9f96-4f565c3ced6c|17=ebc8e3fb-3939-49f8-ad0d-24b0907b40f4|39=2|150=F|55=SAN.PA|54=1|38=7|32=7|31=93.42647600|151=0|14=7|44=93.42647600|6007=momentum|52=20250521-09:29:49.289|10=065|
2025-05-21 10:29:54,315 [INFO] OUT: 8=FIX.4.4|9=143|35=D|49=MY_COMPANY|56=EXCHANGE|34=15|11=momentum-1747819794.3148658|55=PHIA.AS|54=2|44=21.28733900|38=6|52=20250521-09:29:54.315|6007=momentum|10=068|
2025-05-21 10:29:54,316 [INFO] IN: 8=FIX.4.4|9=143|35=D|49=MY_COMPANY|56=EXCHANGE|34=15|11=momentum-1747819794.3148658|55=PHIA.AS|54=2|44=21.28733900|38=6|52=20250521-09:29:54.315|6007=momentum|10=068|
2025-05-21 10:29:54,316 [INFO] OUT: 8=FIX.4.4|9=274|35=8|49=EXCHANGE|56=MY_COMPANY|34=16|11=51d0d164-6eab-4bd2-b28b-9d3991cf700c|37=51d0d164-6eab-4bd2-b28b-9d3991cf700c|17=a424d978-1edb-422a-ab35-a90ee4143abd|39=2|150=F|55=PHIA.AS|54=2|38=6|32=6|31=21.26600900|151=0|14=6|44=21.26600900|6007=momentum|52=20250521-09:29:54.316|10=154|
2025-05-21 10:29:54,322 [INFO] OUT: 8=FIX.4.4|9=142|35=D|49=MY_COMPANY|56=EXCHANGE|34=16|11=momentum-1747819794.322403|55=INGA.AS|54=1|44=19.13084900|38=4|52=20250521-09:29:54.322|6007=momentum|10=247|
2025-05-21 10:29:54,322 [INFO] IN: 8=FIX.4.4|9=142|35=D|49=MY_COMPANY|56=EXCHANGE|34=16|11=momentum-1747819794.322403|55=INGA.AS|54=1|44=19.13084900|38=4|52=20250521-09:29:54.322|6007=momentum|10=247|
2025-05-21 10:29:54,323 [INFO] OUT: 8=FIX.4.4|9=254|35=8|49=EXCHANGE|56=MY_COMPANY|34=17|11=momentum-1747819794.322403|37=momentum-1747819794.322403|17=d4a2e61b-4ee7-4f91-8d1d-ffbcf4551e98|39=2|150=F|55=INGA.AS|54=1|38=4|32=4|31=19.13084900|151=0|14=4|44=19.13084900|6007=momentum|52=20250521-09:29:54.323|10=226|
2025-05-21 10:29:54,323 [INFO] OUT: 8=FIX.4.4|9=274|35=8|49=EXCHANGE|56=MY_COMPANY|34=18|11=bad71af7-a6dd-4f06-bcd0-e6871afff9bf|37=bad71af7-a6dd-4f06-bcd0-e6871afff9bf|17=02ba447b-2d5e-4d5c-9c45-dbcc0c87b52b|39=2|150=F|55=INGA.AS|54=1|38=4|32=4|31=19.13084900|151=0|14=4|44=19.13084900|6007=momentum|52=20250521-09:29:54.323|10=050|
2025-05-21 10:29:54,330 [INFO] OUT: 8=FIX.4.4|9=141|35=D|49=MY_COMPANY|56=EXCHANGE|34=14|11=momentum-1747819794.3301198|55=AD.AS|54=2|44=37.79425800|38=6|52=20250521-09:29:54.330|6007=momentum|10=161|
2025-05-21 10:29:54,330 [INFO] IN: 8=FIX.4.4|9=141|35=D|49=MY_COMPANY|56=EXCHANGE|34=14|11=momentum-1747819794.3301198|55=AD.AS|54=2|44=37.79425800|38=6|52=20250521-09:29:54.330|6007=momentum|10=161|
2025-05-21 10:29:54,331 [INFO] OUT: 8=FIX.4.4|9=272|35=8|49=EXCHANGE|56=MY_COMPANY|34=15|11=a529ab68-b20a-45b4-ac72-919812e7fb68|37=a529ab68-b20a-45b4-ac72-919812e7fb68|17=353110b4-8012-4b43-b873-8fd2241d2cc4|39=2|150=F|55=AD.AS|54=2|38=3|32=3|31=37.77537981|151=0|14=3|44=37.77537981|6007=momentum|52=20250521-09:29:54.331|10=096|
2025-05-21 10:29:54,331 [INFO] OUT: 8=FIX.4.4|9=272|35=8|49=EXCHANGE|56=MY_COMPANY|34=16|11=a529ab68-b20a-45b4-ac72-919812e7fb68|37=a529ab68-b20a-45b4-ac72-919812e7fb68|17=79dfafb2-40ee-40e2-a907-570add7e4201|39=2|150=F|55=AD.AS|54=2|38=3|32=3|31=37.75646374|151=0|14=3|44=37.75646374|6007=momentum|52=20250521-09:29:54.331|10=084|
2025-05-21 10:29:54,332 [INFO] OUT: 8=FIX.4.4|9=274|35=8|49=EXCHANGE|56=MY_COMPANY|34=11|11=11e32372-ef01-42fb-83f7-e54d8ef32cac|37=11e32372-ef01-42fb-83f7-e54d8ef32cac|17=e670ad77-756e-43d6-bf60-f69bba824609|39=2|150=F|55=OR.PA|54=2|38=8|32=8|31=380.28788703|151=0|14=8|44=380.28788703|6007=momentum|52=20250521-09:29:54.332|10=073|
2025-05-21 10:29:54,333 [INFO] OUT: 8=FIX.4.4|9=251|35=8|49=EXCHANGE|56=MY_COMPANY|34=13|11=momentum-1747819784.24526|37=momentum-1747819784.24526|17=1ef9a174-5995-4e99-a471-76ed5e46a612|39=2|150=F|55=SAN.PA|54=1|38=5|32=5|31=93.42647600|151=0|14=5|44=93.42647600|6007=momentum|52=20250521-09:29:54.333|10=062|
2025-05-21 10:29:54,334 [INFO] OUT: 8=FIX.4.4|9=253|35=8|49=EXCHANGE|56=MY_COMPANY|34=14|11=momentum-1747819789.289126|37=momentum-1747819789.289126|17=ae819991-576e-4e09-be07-aade82e5d4b1|39=2|150=F|55=SAN.PA|54=1|38=5|32=5|31=93.42647600|151=0|14=5|44=93.42647600|6007=momentum|52=20250521-09:29:54.334|10=112|
2025-05-21 10:29:54,334 [INFO] OUT: 8=FIX.4.4|9=253|35=8|49=EXCHANGE|56=MY_COMPANY|34=15|11=momentum-1747819789.289126|37=momentum-1747819789.289126|17=a4b19e9c-4941-4ad1-b3e1-98177ea36901|39=2|150=F|55=SAN.PA|54=2|38=2|32=2|31=93.42647600|151=0|14=2|44=93.42647600|6007=momentum|52=20250521-09:29:54.334|10=207|
2025-05-21 10:29:54,336 [INFO] OUT: 8=FIX.4.4|9=141|35=D|49=MY_COMPANY|56=EXCHANGE|34=16|11=momentum-1747819794.335974|55=SAN.PA|54=2|44=93.42647600|38=1|52=20250521-09:29:54.336|6007=momentum|10=208|
2025-05-21 10:29:54,336 [INFO] IN: 8=FIX.4.4|9=141|35=D|49=MY_COMPANY|56=EXCHANGE|34=16|11=momentum-1747819794.335974|55=SAN.PA|54=2|44=93.42647600|38=1|52=20250521-09:29:54.336|6007=momentum|10=208|
2025-05-21 10:29:54,336 [INFO] OUT: 8=FIX.4.4|9=273|35=8|49=EXCHANGE|56=MY_COMPANY|34=17|11=e220975d-a579-41ec-8770-9402d178c25d|37=e220975d-a579-41ec-8770-9402d178c25d|17=f050ded8-9580-412b-b15b-daabf02bd958|39=2|150=F|55=SAN.PA|54=2|38=1|32=1|31=93.33304952|151=0|14=1|44=93.33304952|6007=momentum|52=20250521-09:29:54.336|10=185|
2025-05-21 10:29:59,346 [INFO] HEARBEAT SENT: 8=FIX.4.4|9=61|35=0|49=MY_COMPANY|56=EXCHANGE|34=5|52=20250521-09:29:59.346|10=070|
2025-05-21 10:29:59,356 [INFO] OUT: 8=FIX.4.4|9=143|35=D|49=MY_COMPANY|56=EXCHANGE|34=17|11=momentum-1747819799.3565419|55=PHIA.AS|54=1|44=21.28733900|38=4|52=20250521-09:29:59.356|6007=momentum|10=080|
2025-05-21 10:29:59,357 [INFO] IN: 8=FIX.4.4|9=143|35=D|49=MY_COMPANY|56=EXCHANGE|34=17|11=momentum-1747819799.3565419|55=PHIA.AS|54=1|44=21.28733900|38=4|52=20250521-09:29:59.356|6007=momentum|10=080|
2025-05-21 10:29:59,357 [INFO] OUT: 8=FIX.4.4|9=256|35=8|49=EXCHANGE|56=MY_COMPANY|34=18|11=momentum-1747819799.3565419|37=momentum-1747819799.3565419|17=669fa1e7-b147-45bd-a795-7d636ad48122|39=2|150=F|55=PHIA.AS|54=1|38=4|32=4|31=21.28733900|151=0|14=4|44=21.28733900|6007=momentum|52=20250521-09:29:59.357|10=145|
2025-05-21 10:29:59,358 [INFO] OUT: 8=FIX.4.4|9=274|35=8|49=EXCHANGE|56=MY_COMPANY|34=19|11=dc198b81-37f4-4c3f-ad50-3e4a3c6a2513|37=dc198b81-37f4-4c3f-ad50-3e4a3c6a2513|17=98528452-a5c5-4ab4-96ef-d4f5df1b7c06|39=2|150=F|55=PHIA.AS|54=1|38=4|32=4|31=21.28733900|151=0|14=4|44=21.28733900|6007=momentum|52=20250521-09:29:59.358|10=019|
2025-05-21 10:29:59,361 [INFO] HEARBEAT SENT: 8=FIX.4.4|9=62|35=0|49=MY_COMPANY|56=EXCHANGE|34=20|52=20250521-09:29:59.361|10=113|
2025-05-21 10:29:59,373 [INFO] OUT: 8=FIX.4.4|9=143|35=D|49=MY_COMPANY|56=EXCHANGE|34=19|11=momentum-1747819799.3738382|55=INGA.AS|54=2|44=19.11169900|38=4|52=20250521-09:29:59.373|6007=momentum|10=082|
2025-05-21 10:29:59,374 [INFO] IN: 8=FIX.4.4|9=143|35=D|49=MY_COMPANY|56=EXCHANGE|34=19|11=momentum-1747819799.3738382|55=INGA.AS|54=2|44=19.11169900|38=4|52=20250521-09:29:59.373|6007=momentum|10=082|
2025-05-21 10:29:59,374 [INFO] OUT: 8=FIX.4.4|9=274|35=8|49=EXCHANGE|56=MY_COMPANY|34=20|11=2c728ab9-e9bc-461c-ae1d-3690e2f1358e|37=2c728ab9-e9bc-461c-ae1d-3690e2f1358e|17=2b06b7b0-c046-48e1-afa3-c45602b32628|39=2|150=F|55=INGA.AS|54=2|38=4|32=4|31=19.09254900|151=0|14=4|44=19.09254900|6007=momentum|52=20250521-09:29:59.374|10=003|
2025-05-21 10:29:59,374 [INFO] HEARBEAT SENT: 8=FIX.4.4|9=62|35=0|49=MY_COMPANY|56=EXCHANGE|34=21|52=20250521-09:29:59.374|10=118|
2025-05-21 10:29:59,378 [INFO] HEARBEAT SENT: 8=FIX.4.4|9=62|35=0|49=MY_COMPANY|56=EXCHANGE|34=17|52=20250521-09:29:59.378|10=127|
2025-05-21 10:29:59,379 [INFO] HEARBEAT SENT: 8=FIX.4.4|9=62|35=0|49=MY_COMPANY|56=EXCHANGE|34=12|52=20250521-09:29:59.379|10=123|
2025-05-21 10:29:59,381 [INFO] HEARBEAT SENT: 8=FIX.4.4|9=62|35=0|49=MY_COMPANY|56=EXCHANGE|34=18|52=20250521-09:29:59.381|10=122|
2025-05-21 10:30:04,414 [INFO] OUT: 8=FIX.4.4|9=141|35=D|49=MY_COMPANY|56=EXCHANGE|34=22|11=momentum-1747819804.41451|55=INGA.AS|54=1|44=19.11169900|38=5|52=20250521-09:30:04.414|6007=momentum|10=180|
2025-05-21 10:30:04,415 [INFO] IN: 8=FIX.4.4|9=141|35=D|49=MY_COMPANY|56=EXCHANGE|34=22|11=momentum-1747819804.41451|55=INGA.AS|54=1|44=19.11169900|38=5|52=20250521-09:30:04.414|6007=momentum|10=180|
2025-05-21 10:30:04,415 [INFO] OUT: 8=FIX.4.4|9=252|35=8|49=EXCHANGE|56=MY_COMPANY|34=23|11=momentum-1747819804.41451|37=momentum-1747819804.41451|17=04f3fd68-175a-48ec-81b8-943316c8050b|39=2|150=F|55=INGA.AS|54=1|38=5|32=5|31=19.11169900|151=0|14=5|44=19.11169900|6007=momentum|52=20250521-09:30:04.415|10=066|
2025-05-21 10:30:04,415 [INFO] OUT: 8=FIX.4.4|9=274|35=8|49=EXCHANGE|56=MY_COMPANY|34=24|11=2d543957-bf88-4f00-97c5-8f6412f92e7c|37=2d543957-bf88-4f00-97c5-8f6412f92e7c|17=3a7ae299-c125-47c3-b696-8b61c013c89a|39=2|150=F|55=INGA.AS|54=1|38=5|32=5|31=19.11169900|151=0|14=5|44=19.11169900|6007=momentum|52=20250521-09:30:04.415|10=188|
2025-05-21 10:30:29,553 [INFO] HEARBEAT SENT: 8=FIX.4.4|9=61|35=0|49=MY_COMPANY|56=EXCHANGE|34=6|52=20250521-09:30:29.553|10=060|
2025-05-21 10:30:29,560 [INFO] HEARBEAT SENT: 8=FIX.4.4|9=62|35=0|49=MY_COMPANY|56=EXCHANGE|34=21|52=20250521-09:30:29.560|10=104|
2025-05-21 10:30:29,562 [INFO] HEARBEAT SENT: 8=FIX.4.4|9=62|35=0|49=MY_COMPANY|56=EXCHANGE|34=25|52=20250521-09:30:29.562|10=110|
2025-05-21 10:30:29,563 [INFO] HEARBEAT SENT: 8=FIX.4.4|9=62|35=0|49=MY_COMPANY|56=EXCHANGE|34=18|52=20250521-09:30:29.563|10=113|
2025-05-21 10:30:29,564 [INFO] HEARBEAT SENT: 8=FIX.4.4|9=62|35=0|49=MY_COMPANY|56=EXCHANGE|34=13|52=20250521-09:30:29.564|10=109|
2025-05-21 10:30:29,566 [INFO] HEARBEAT SENT: 8=FIX.4.4|9=62|35=0|49=MY_COMPANY|56=EXCHANGE|34=19|52=20250521-09:30:29.566|10=117|
2025-05-21 10:30:34,579 [INFO] OUT: 8=FIX.4.4|9=275|35=8|49=EXCHANGE|56=MY_COMPANY|34=7|11=49b4d7ca-a031-47ca-a567-65cfe01e54a8|37=49b4d7ca-a031-47ca-a567-65cfe01e54a8|17=9ecf84b3-9f9d-4e20-aeac-5cfa7742c06d|39=2|150=F|55=ASML.AS|54=2|38=5|32=5|31=659.34000000|151=0|14=5|44=659.34000000|6007=momentum|52=20250521-09:30:34.579|10=087|
2025-05-21 10:30:34,580 [INFO] OUT: 8=FIX.4.4|9=275|35=8|49=EXCHANGE|56=MY_COMPANY|34=8|11=49b4d7ca-a031-47ca-a567-65cfe01e54a8|37=49b4d7ca-a031-47ca-a567-65cfe01e54a8|17=47b77aae-80bf-435a-a1c4-5126ea7f3479|39=2|150=F|55=ASML.AS|54=2|38=2|32=2|31=659.34000000|151=0|14=2|44=659.34000000|6007=momentum|52=20250521-09:30:34.580|10=126|
2025-05-21 10:30:34,580 [INFO] OUT: 8=FIX.4.4|9=275|35=8|49=EXCHANGE|56=MY_COMPANY|34=9|11=49b4d7ca-a031-47ca-a567-65cfe01e54a8|37=49b4d7ca-a031-47ca-a567-65cfe01e54a8|17=cd70d6d8-1b84-4d89-9549-edae5a788d4f|39=2|150=F|55=ASML.AS|54=2|38=2|32=2|31=658.68000000|151=0|14=2|44=658.68000000|6007=momentum|52=20250521-09:30:34.580|10=220|
2025-05-21 10:30:54,678 [INFO] OUT: 8=FIX.4.4|9=275|35=8|49=EXCHANGE|56=MY_COMPANY|34=19|11=a2ce3591-13bf-4c7f-837d-577e9e2d0ecf|37=a2ce3591-13bf-4c7f-837d-577e9e2d0ecf|17=4c5d1bf2-e70a-4933-ad5d-9e52da5c54b9|39=2|150=F|55=AD.AS|54=2|38=10|32=10|31=37.71851801|151=0|14=10|44=37.71851801|6007=momentum|52=20250521-09:30:54.678|10=064|
2025-05-21 10:30:54,681 [INFO] OUT: 8=FIX.4.4|9=274|35=8|49=EXCHANGE|56=MY_COMPANY|34=14|11=5ee8ff89-89d4-45cb-bb39-3be6bb7509fd|37=5ee8ff89-89d4-45cb-bb39-3be6bb7509fd|17=a8c5922f-74d5-4360-a721-aa3d7a94f396|39=2|150=F|55=OR.PA|54=1|38=8|32=8|31=379.90683704|151=0|14=8|44=379.90683704|6007=momentum|52=20250521-09:30:54.681|10=024|
2025-05-21 10:30:54,683 [INFO] OUT: 8=FIX.4.4|9=273|35=8|49=EXCHANGE|56=MY_COMPANY|34=20|11=0e26cb34-6401-4397-8670-2c5fb9257b90|37=0e26cb34-6401-4397-8670-2c5fb9257b90|17=130138e8-b172-4f01-8dad-f78a9d3db101|39=2|150=F|55=SAN.PA|54=1|38=1|32=1|31=93.23943601|151=0|14=1|44=93.23943601|6007=momentum|52=20250521-09:30:54.683|10=171|
2025-05-21 10:30:54,683 [INFO] OUT: 8=FIX.4.4|9=273|35=8|49=EXCHANGE|56=MY_COMPANY|34=21|11=0e26cb34-6401-4397-8670-2c5fb9257b90|37=0e26cb34-6401-4397-8670-2c5fb9257b90|17=dc54a0ab-7940-4f01-94ed-c46dc30f12c6|39=2|150=F|55=SAN.PA|54=1|38=2|32=2|31=93.14591602|151=0|14=2|44=93.14591602|6007=momentum|52=20250521-09:30:54.683|10=014|
2025-05-21 10:30:59,689 [INFO] HEARBEAT SENT: 8=FIX.4.4|9=62|35=0|49=MY_COMPANY|56=EXCHANGE|34=10|52=20250521-09:30:59.689|10=117|
2025-05-21 10:30:59,691 [INFO] OUT: 8=FIX.4.4|9=274|35=8|49=EXCHANGE|56=MY_COMPANY|34=22|11=f92032be-601d-4cbd-9244-5ec9c0ecf2f0|37=f92032be-601d-4cbd-9244-5ec9c0ecf2f0|17=66a9ef37-8faa-4935-9cdd-f74dd087f896|39=2|150=F|55=PHIA.AS|54=2|38=1|32=1|31=21.20201901|151=0|14=1|44=21.20201901|6007=momentum|52=20250521-09:30:59.690|10=229|
2025-05-21 10:30:59,691 [INFO] HEARBEAT SENT: 8=FIX.4.4|9=62|35=0|49=MY_COMPANY|56=EXCHANGE|34=23|52=20250521-09:30:59.691|10=114|
2025-05-21 10:30:59,693 [INFO] HEARBEAT SENT: 8=FIX.4.4|9=62|35=0|49=MY_COMPANY|56=EXCHANGE|34=26|52=20250521-09:30:59.693|10=119|
2025-05-21 10:30:59,694 [INFO] OUT: 8=FIX.4.4|9=272|35=8|49=EXCHANGE|56=MY_COMPANY|34=20|11=6d9cdba7-8da2-4a4a-8959-bcb6a9bfc69a|37=6d9cdba7-8da2-4a4a-8959-bcb6a9bfc69a|17=77a27407-ec19-451a-8790-2b5e264bb4e1|39=2|150=F|55=AD.AS|54=2|38=7|32=7|31=37.71851801|151=0|14=7|44=37.71851801|6007=momentum|52=20250521-09:30:59.694|10=237|
2025-05-21 10:30:59,694 [INFO] HEARBEAT SENT: 8=FIX.4.4|9=62|35=0|49=MY_COMPANY|56=EXCHANGE|34=21|52=20250521-09:30:59.694|10=115|
2025-05-21 10:30:59,695 [INFO] OUT: 8=FIX.4.4|9=274|35=8|49=EXCHANGE|56=MY_COMPANY|34=15|11=3508d719-92ee-4368-955a-224149167a59|37=3508d719-92ee-4368-955a-224149167a59|17=cf673685-1570-4d8a-ad91-e35f2078d130|39=2|150=F|55=OR.PA|54=1|38=3|32=3|31=379.90683704|151=0|14=3|44=379.90683704|6007=momentum|52=20250521-09:30:59.695|10=019|
2025-05-21 10:30:59,696 [INFO] OUT: 8=FIX.4.4|9=274|35=8|49=EXCHANGE|56=MY_COMPANY|34=16|11=3508d719-92ee-4368-955a-224149167a59|37=3508d719-92ee-4368-955a-224149167a59|17=354deb82-40bf-4b88-885f-6391f7651a41|39=2|150=F|55=OR.PA|54=1|38=6|32=6|31=379.52578705|151=0|14=6|44=379.52578705|6007=momentum|52=20250521-09:30:59.695|10=044|
2025-05-21 10:30:59,696 [INFO] HEARBEAT SENT: 8=FIX.4.4|9=62|35=0|49=MY_COMPANY|56=EXCHANGE|34=17|52=20250521-09:30:59.696|10=122|
2025-05-21 10:30:59,698 [INFO] OUT: 8=FIX.4.4|9=273|35=8|49=EXCHANGE|56=MY_COMPANY|34=22|11=f361e59c-e01d-410a-8dab-22dbc783caf1|37=f361e59c-e01d-410a-8dab-22dbc783caf1|17=712b1113-bad7-40d9-bed8-0633addd49ab|39=2|150=F|55=SAN.PA|54=2|38=8|32=8|31=93.14591602|151=0|14=8|44=93.14591602|6007=momentum|52=20250521-09:30:59.698|10=046|
2025-05-21 10:30:59,698 [INFO] HEARBEAT SENT: 8=FIX.4.4|9=62|35=0|49=MY_COMPANY|56=EXCHANGE|34=23|52=20250521-09:30:59.698|10=121|
2025-05-21 10:31:04,709 [INFO] OUT: 8=FIX.4.4|9=274|35=8|49=EXCHANGE|56=MY_COMPANY|34=24|11=0410ebe6-2fee-4829-b751-70aa248996ac|37=0410ebe6-2fee-4829-b751-70aa248996ac|17=d048a81f-1b33-492a-b2e1-403f4ecbe304|39=2|150=F|55=PHIA.AS|54=2|38=6|32=6|31=21.20201901|151=0|14=6|44=21.20201901|6007=momentum|52=20250521-09:31:04.709|10=117|
2025-05-21 10:31:04,712 [INFO] OUT: 8=FIX.4.4|9=274|35=8|49=EXCHANGE|56=MY_COMPANY|34=27|11=6112342b-d70a-46ea-ad31-f7702644cb42|37=6112342b-d70a-46ea-ad31-f7702644cb42|17=b5e26fd4-098f-4c93-9e3c-178cd7285360|39=2|150=F|55=INGA.AS|54=2|38=2|32=2|31=18.97764901|151=0|14=2|44=18.97764901|6007=momentum|52=20250521-09:31:04.711|10=224|
2025-05-21 10:31:04,712 [INFO] OUT: 8=FIX.4.4|9=274|35=8|49=EXCHANGE|56=MY_COMPANY|34=28|11=6112342b-d70a-46ea-ad31-f7702644cb42|37=6112342b-d70a-46ea-ad31-f7702644cb42|17=f576b2e9-1481-4661-98b9-a926082e56dc|39=2|150=F|55=INGA.AS|54=2|38=2|32=2|31=18.95849901|151=0|14=2|44=18.95849901|6007=momentum|52=20250521-09:31:04.712|10=136|
2025-05-21 10:31:04,715 [INFO] OUT: 8=FIX.4.4|9=274|35=8|49=EXCHANGE|56=MY_COMPANY|34=18|11=f14e4bd9-6509-48e5-9f62-864b8e1612c8|37=f14e4bd9-6509-48e5-9f62-864b8e1612c8|17=6f74c06c-cdb2-4a22-b43f-02d115102b0c|39=2|150=F|55=OR.PA|54=2|38=9|32=9|31=379.52578705|151=0|14=9|44=379.52578705|6007=momentum|52=20250521-09:31:04.714|10=010|
2025-05-21 10:31:04,717 [INFO] OUT: 8=FIX.4.4|9=273|35=8|49=EXCHANGE|56=MY_COMPANY|34=24|11=0286f604-62eb-4383-9c26-c76aedf6483a|37=0286f604-62eb-4383-9c26-c76aedf6483a|17=1908244e-80cc-4250-b932-cc066e3e00a4|39=2|150=F|55=SAN.PA|54=1|38=4|32=4|31=93.14591602|151=0|14=4|44=93.14591602|6007=momentum|52=20250521-09:31:04.717|10=123|
2025-05-21 10:31:04,717 [INFO] OUT: 8=FIX.4.4|9=273|35=8|49=EXCHANGE|56=MY_COMPANY|34=25|11=0286f604-62eb-4383-9c26-c76aedf6483a|37=0286f604-62eb-4383-9c26-c76aedf6483a|17=9f9f149b-b820-47aa-910e-57f5ef85e9ca|39=2|150=F|55=SAN.PA|54=1|38=5|32=5|31=93.05239602|151=0|14=5|44=93.05239602|6007=momentum|52=20250521-09:31:04.717|10=102|
2025-05-21 10:31:09,728 [INFO] OUT: 8=FIX.4.4|9=274|35=8|49=EXCHANGE|56=MY_COMPANY|34=25|11=57ba12d5-a887-42d8-9567-73baed0566d6|37=57ba12d5-a887-42d8-9567-73baed0566d6|17=6117ebd9-7012-4417-a284-8e13f1a61b52|39=2|150=F|55=PHIA.AS|54=2|38=2|32=2|31=21.20201901|151=0|14=2|44=21.20201901|6007=momentum|52=20250521-09:31:09.728|10=121|
2025-05-21 10:31:09,744 [INFO] OUT: 8=FIX.4.4|9=141|35=D|49=MY_COMPANY|56=EXCHANGE|34=29|11=momentum-1747819869.74349|55=INGA.AS|54=2|44=18.95849901|38=3|52=20250521-09:31:09.744|6007=momentum|10=238|
2025-05-21 10:31:09,744 [INFO] IN: 8=FIX.4.4|9=141|35=D|49=MY_COMPANY|56=EXCHANGE|34=29|11=momentum-1747819869.74349|55=INGA.AS|54=2|44=18.95849901|38=3|52=20250521-09:31:09.744|6007=momentum|10=238|
2025-05-21 10:31:09,746 [INFO] OUT: 8=FIX.4.4|9=274|35=8|49=EXCHANGE|56=MY_COMPANY|34=30|11=92221950-2468-4c25-a47d-c77089b81845|37=92221950-2468-4c25-a47d-c77089b81845|17=3bcae650-0a78-4c42-aef2-b2eaf8aa8693|39=2|150=F|55=INGA.AS|54=2|38=1|32=1|31=18.90162351|151=0|14=1|44=18.90162351|6007=momentum|52=20250521-09:31:09.746|10=000|
2025-05-21 10:31:09,746 [INFO] OUT: 8=FIX.4.4|9=274|35=8|49=EXCHANGE|56=MY_COMPANY|34=31|11=92221950-2468-4c25-a47d-c77089b81845|37=92221950-2468-4c25-a47d-c77089b81845|17=ac48a7dd-6f0b-47d0-a423-13b3416cd0ae|39=2|150=F|55=INGA.AS|54=2|38=2|32=2|31=18.88266501|151=0|14=2|44=18.88266501|6007=momentum|52=20250521-09:31:09.746|10=214|
2025-05-21 10:31:09,758 [INFO] OUT: 8=FIX.4.4|9=274|35=8|49=EXCHANGE|56=MY_COMPANY|34=19|11=fa7d6f9a-48f6-41a9-af95-21f5dec65ec1|37=fa7d6f9a-48f6-41a9-af95-21f5dec65ec1|17=45624ddb-1ef2-4460-8c98-6d841647c33f|39=2|150=F|55=OR.PA|54=2|38=8|32=8|31=379.52578705|151=0|14=8|44=379.52578705|6007=momentum|52=20250521-09:31:09.758|10=232|
2025-05-21 10:31:14,767 [INFO] OUT: 8=FIX.4.4|9=274|35=8|49=EXCHANGE|56=MY_COMPANY|34=26|11=881f5eb6-b6d5-4006-b03f-1a9136cb998f|37=881f5eb6-b6d5-4006-b03f-1a9136cb998f|17=55a53aca-cbab-4eb2-83c9-66038061b4b3|39=2|150=F|55=PHIA.AS|54=2|38=6|32=6|31=21.18068901|151=0|14=6|44=21.18068901|6007=momentum|52=20250521-09:31:14.767|10=225|
2025-05-21 10:31:14,773 [INFO] OUT: 8=FIX.4.4|9=274|35=8|49=EXCHANGE|56=MY_COMPANY|34=32|11=84e28a8f-d116-4fe5-b6be-6ff8e517636d|37=84e28a8f-d116-4fe5-b6be-6ff8e517636d|17=6e20e958-7d03-48c0-8f48-04b180239697|39=2|150=F|55=INGA.AS|54=2|38=6|32=6|31=18.86370651|151=0|14=6|44=18.86370651|6007=momentum|52=20250521-09:31:14.773|10=157|
2025-05-21 10:31:14,782 [INFO] OUT: 8=FIX.4.4|9=274|35=8|49=EXCHANGE|56=MY_COMPANY|34=20|11=2c3e1254-cb05-4bb2-b749-1037ce918c5f|37=2c3e1254-cb05-4bb2-b749-1037ce918c5f|17=5e409d7d-5884-43e3-a1ab-10a3a797d7f4|39=2|150=F|55=OR.PA|54=2|38=9|32=9|31=379.52578705|151=0|14=9|44=379.52578705|6007=momentum|52=20250521-09:31:14.782|10=123|
2025-05-21 10:31:19,793 [INFO] OUT: 8=FIX.4.4|9=274|35=8|49=EXCHANGE|56=MY_COMPANY|34=27|11=fea12fea-3083-4019-941d-593c6414984e|37=fea12fea-3083-4019-941d-593c6414984e|17=da781020-e92a-48e7-8d4a-f20b3bc7a7fb|39=2|150=F|55=PHIA.AS|54=2|38=5|32=5|31=21.18068901|151=0|14=5|44=21.18068901|6007=momentum|52=20250521-09:31:19.793|10=090|
2025-05-21 10:31:19,794 [INFO] OUT: 8=FIX.4.4|9=274|35=8|49=EXCHANGE|56=MY_COMPANY|34=28|11=fea12fea-3083-4019-941d-593c6414984e|37=fea12fea-3083-4019-941d-593c6414984e|17=80e9e875-d160-42bd-9e6e-61f8f6d8a41d|39=2|150=F|55=PHIA.AS|54=2|38=5|32=5|31=21.15935901|151=0|14=5|44=21.15935901|6007=momentum|52=20250521-09:31:19.794|10=024|
2025-05-21 10:31:19,797 [INFO] OUT: 8=FIX.4.4|9=274|35=8|49=EXCHANGE|56=MY_COMPANY|34=33|11=21c663df-410b-4ecf-9e82-a5ec44a389ed|37=21c663df-410b-4ecf-9e82-a5ec44a389ed|17=1ed85277-42c4-4bf4-b3b4-3bdf67d8b2ed|39=2|150=F|55=INGA.AS|54=2|38=2|32=2|31=18.84474802|151=0|14=2|44=18.84474802|6007=momentum|52=20250521-09:31:19.797|10=073|
2025-05-21 10:31:19,797 [INFO] OUT: 8=FIX.4.4|9=274|35=8|49=EXCHANGE|56=MY_COMPANY|34=34|11=21c663df-410b-4ecf-9e82-a5ec44a389ed|37=21c663df-410b-4ecf-9e82-a5ec44a389ed|17=49d9fb30-e6a0-4b18-bb03-914e67d7298d|39=2|150=F|55=INGA.AS|54=2|38=1|32=1|31=18.84474802|151=0|14=1|44=18.84474802|6007=momentum|52=20250521-09:31:19.797|10=188|
2025-05-21 10:31:19,802 [INFO] OUT: 8=FIX.4.4|9=274|35=8|49=EXCHANGE|56=MY_COMPANY|34=21|11=7fd63633-99be-4fba-8c35-8f48f8352a93|37=7fd63633-99be-4fba-8c35-8f48f8352a93|17=25a2fa24-86bd-42c1-be87-93ba99585373|39=2|150=F|55=OR.PA|54=2|38=4|32=4|31=379.52578705|151=0|14=4|44=379.52578705|6007=momentum|52=20250521-09:31:19.802|10=145|
2025-05-21 10:31:24,812 [INFO] OUT: 8=FIX.4.4|9=274|35=8|49=EXCHANGE|56=MY_COMPANY|34=29|11=5f91eb03-8c8b-4e20-8405-e41af4b741c8|37=5f91eb03-8c8b-4e20-8405-e41af4b741c8|17=46811e88-2f65-4cd9-8073-9c41e0c4f4a2|39=2|150=F|55=PHIA.AS|54=2|38=1|32=1|31=21.15935901|151=0|14=1|44=21.15935901|6007=momentum|52=20250521-09:31:24.812|10=022|
2025-05-21 10:31:24,813 [INFO] OUT: 8=FIX.4.4|9=274|35=8|49=EXCHANGE|56=MY_COMPANY|34=30|11=5f91eb03-8c8b-4e20-8405-e41af4b741c8|37=5f91eb03-8c8b-4e20-8405-e41af4b741c8|17=e51c0c4a-8db1-4c57-a528-2dc8ab4e980a|39=2|150=F|55=PHIA.AS|54=2|38=4|32=4|31=21.13802901|151=0|14=4|44=21.13802901|6007=momentum|52=20250521-09:31:24.813|10=225|
2025-05-21 10:31:24,838 [INFO] OUT: 8=FIX.4.4|9=142|35=D|49=MY_COMPANY|56=EXCHANGE|34=35|11=momentum-1747819884.838474|55=INGA.AS|54=1|44=18.92052514|38=7|52=20250521-09:31:24.838|6007=momentum|10=019|
2025-05-21 10:31:24,838 [INFO] IN: 8=FIX.4.4|9=142|35=D|49=MY_COMPANY|56=EXCHANGE|34=35|11=momentum-1747819884.838474|55=INGA.AS|54=1|44=18.92052514|38=7|52=20250521-09:31:24.838|6007=momentum|10=019|
2025-05-21 10:31:24,838 [INFO] OUT: 8=FIX.4.4|9=254|35=8|49=EXCHANGE|56=MY_COMPANY|34=36|11=momentum-1747819884.838474|37=momentum-1747819884.838474|17=506d6457-b009-4583-a983-20bbe95ef25d|39=2|150=F|55=INGA.AS|54=1|38=7|32=7|31=18.92052514|151=0|14=7|44=18.92052514|6007=momentum|52=20250521-09:31:24.838|10=242|
2025-05-21 10:31:24,839 [INFO] OUT: 8=FIX.4.4|9=274|35=8|49=EXCHANGE|56=MY_COMPANY|34=37|11=c243a58e-e530-4897-ac4d-72426d4272ec|37=c243a58e-e530-4897-ac4d-72426d4272ec|17=df6e42ce-c40b-4c17-b742-c9ae1e787ac9|39=2|150=F|55=INGA.AS|54=1|38=7|32=7|31=18.92052514|151=0|14=7|44=18.92052514|6007=momentum|52=20250521-09:31:24.839|10=243|
2025-05-21 10:31:24,842 [INFO] OUT: 8=FIX.4.4|9=274|35=8|49=EXCHANGE|56=MY_COMPANY|34=22|11=2ccc103f-aa96-4961-81d3-90c01862bdc2|37=2ccc103f-aa96-4961-81d3-90c01862bdc2|17=e2ab1720-b3ea-4332-8deb-832d5eb8c627|39=2|150=F|55=OR.PA|54=1|38=3|32=3|31=379.52578705|151=0|14=3|44=379.52578705|6007=momentum|52=20250521-09:31:24.842|10=176|
2025-05-21 10:31:29,857 [INFO] HEARBEAT SENT: 8=FIX.4.4|9=62|35=0|49=MY_COMPANY|56=EXCHANGE|34=11|52=20250521-09:31:29.857|10=113|
2025-05-21 10:31:29,866 [INFO] OUT: 8=FIX.4.4|9=274|35=8|49=EXCHANGE|56=MY_COMPANY|34=31|11=3aacff40-d6f2-487b-af59-092946953027|37=3aacff40-d6f2-487b-af59-092946953027|17=e3b9f205-41bf-4d97-84e2-03ca1c74d8f6|39=2|150=F|55=PHIA.AS|54=1|38=6|32=6|31=21.30866900|151=0|14=6|44=21.30866900|6007=momentum|52=20250521-09:31:29.866|10=111|
2025-05-21 10:31:29,867 [INFO] HEARBEAT SENT: 8=FIX.4.4|9=62|35=0|49=MY_COMPANY|56=EXCHANGE|34=32|52=20250521-09:31:29.867|10=117|
2025-05-21 10:31:29,878 [INFO] OUT: 8=FIX.4.4|9=274|35=8|49=EXCHANGE|56=MY_COMPANY|34=38|11=8c0ab4d2-c8e1-4267-87c8-f05547222dbe|37=8c0ab4d2-c8e1-4267-87c8-f05547222dbe|17=7f62867b-b044-49b1-900d-b8c5c4e1d5da|39=2|150=F|55=INGA.AS|54=1|38=8|32=8|31=19.13084900|151=0|14=8|44=19.13084900|6007=momentum|52=20250521-09:31:29.878|10=194|
2025-05-21 10:31:29,878 [INFO] HEARBEAT SENT: 8=FIX.4.4|9=62|35=0|49=MY_COMPANY|56=EXCHANGE|34=39|52=20250521-09:31:29.878|10=126|
2025-05-21 10:31:29,882 [INFO] HEARBEAT SENT: 8=FIX.4.4|9=62|35=0|49=MY_COMPANY|56=EXCHANGE|34=22|52=20250521-09:31:29.882|10=113|
2025-05-21 10:31:29,885 [INFO] OUT: 8=FIX.4.4|9=274|35=8|49=EXCHANGE|56=MY_COMPANY|34=23|11=5ba66d65-d8c7-4a20-ba9a-5502ad8853ab|37=5ba66d65-d8c7-4a20-ba9a-5502ad8853ab|17=6cce8c95-ab64-4ea9-8e79-1b0610bb0d3b|39=2|150=F|55=OR.PA|54=1|38=3|32=3|31=380.66893701|151=0|14=3|44=380.66893701|6007=momentum|52=20250521-09:31:29.885|10=182|
2025-05-21 10:31:29,886 [INFO] HEARBEAT SENT: 8=FIX.4.4|9=62|35=0|49=MY_COMPANY|56=EXCHANGE|34=24|52=20250521-09:31:29.885|10=118|
2025-05-21 10:31:29,891 [INFO] HEARBEAT SENT: 8=FIX.4.4|9=62|35=0|49=MY_COMPANY|56=EXCHANGE|34=26|52=20250521-09:31:29.891|10=117|
2025-05-21 10:31:34,900 [INFO] OUT: 8=FIX.4.4|9=276|35=8|49=EXCHANGE|56=MY_COMPANY|34=12|11=72b26caf-8e74-4ee6-ad4d-f8459237c5df|37=72b26caf-8e74-4ee6-ad4d-f8459237c5df|17=b7c79675-35c6-4916-8568-c906ef9c0d27|39=2|150=F|55=ASML.AS|54=2|38=9|32=9|31=659.34000000|151=0|14=9|44=659.34000000|6007=momentum|52=20250521-09:31:34.900|10=180|
2025-05-21 10:31:34,901 [INFO] OUT: 8=FIX.4.4|9=274|35=8|49=EXCHANGE|56=MY_COMPANY|34=33|11=8dd22cf9-73f4-4230-aa04-8fdb8ab732ef|37=8dd22cf9-73f4-4230-aa04-8fdb8ab732ef|17=34ae3340-de9f-45af-bc3b-088095e62580|39=2|150=F|55=PHIA.AS|54=1|38=5|32=5|31=21.30866900|151=0|14=5|44=21.30866900|6007=momentum|52=20250521-09:31:34.901|10=145|
2025-05-21 10:31:34,908 [INFO] OUT: 8=FIX.4.4|9=274|35=8|49=EXCHANGE|56=MY_COMPANY|34=40|11=b5f68e3c-8c3d-44b9-934d-42449d2896d3|37=b5f68e3c-8c3d-44b9-934d-42449d2896d3|17=0d65164c-37a3-4ec3-8d1f-177babdaaec9|39=2|150=F|55=INGA.AS|54=1|38=2|32=2|31=19.13084900|151=0|14=2|44=19.13084900|6007=momentum|52=20250521-09:31:34.908|10=247|
2025-05-21 10:31:34,909 [INFO] OUT: 8=FIX.4.4|9=274|35=8|49=EXCHANGE|56=MY_COMPANY|34=41|11=b5f68e3c-8c3d-44b9-934d-42449d2896d3|37=b5f68e3c-8c3d-44b9-934d-42449d2896d3|17=a611b897-be99-48b8-9686-961950a59088|39=2|150=F|55=INGA.AS|54=1|38=2|32=2|31=19.13084900|151=0|14=2|44=19.13084900|6007=momentum|52=20250521-09:31:34.909|10=125|
2025-05-21 10:31:39,950 [INFO] OUT: 8=FIX.4.4|9=274|35=8|49=EXCHANGE|56=MY_COMPANY|34=34|11=216e192e-e1db-4626-8264-2749a587fda0|37=216e192e-e1db-4626-8264-2749a587fda0|17=da942ff9-44d0-4461-9f77-44a817f02a54|39=2|150=F|55=PHIA.AS|54=1|38=9|32=9|31=21.30866900|151=0|14=9|44=21.30866900|6007=momentum|52=20250521-09:31:39.950|10=130|
2025-05-21 10:31:39,964 [INFO] OUT: 8=FIX.4.4|9=274|35=8|49=EXCHANGE|56=MY_COMPANY|34=42|11=b22b0831-6abc-40f6-9a68-c621c1f91ab7|37=b22b0831-6abc-40f6-9a68-c621c1f91ab7|17=a40ff0f3-4512-4197-8d9a-9f2fd901fdb5|39=2|150=F|55=INGA.AS|54=1|38=3|32=3|31=19.11169900|151=0|14=3|44=19.11169900|6007=momentum|52=20250521-09:31:39.964|10=246|
2025-05-21 10:31:44,997 [INFO] OUT: 8=FIX.4.4|9=142|35=D|49=MY_COMPANY|56=EXCHANGE|34=43|11=momentum-1747819904.997003|55=INGA.AS|54=2|44=19.11169900|38=9|52=20250521-09:31:44.997|6007=momentum|10=016|
2025-05-21 10:31:44,997 [INFO] IN: 8=FIX.4.4|9=142|35=D|49=MY_COMPANY|56=EXCHANGE|34=43|11=momentum-1747819904.997003|55=INGA.AS|54=2|44=19.11169900|38=9|52=20250521-09:31:44.997|6007=momentum|10=016|
2025-05-21 10:31:44,997 [INFO] OUT: 8=FIX.4.4|9=274|35=8|49=EXCHANGE|56=MY_COMPANY|34=44|11=2059d77c-a1c7-4910-b7f8-7954c60b25da|37=2059d77c-a1c7-4910-b7f8-7954c60b25da|17=be6f4655-4613-4d31-8956-d15c528a5e99|39=2|150=F|55=INGA.AS|54=2|38=9|32=9|31=19.09254900|151=0|14=9|44=19.09254900|6007=momentum|52=20250521-09:31:44.997|10=200|
2025-05-21 10:31:50,030 [INFO] OUT: 8=FIX.4.4|9=142|35=D|49=MY_COMPANY|56=EXCHANGE|34=45|11=momentum-1747819910.029883|55=INGA.AS|54=1|44=18.92052514|38=6|52=20250521-09:31:50.030|6007=momentum|10=244|
2025-05-21 10:31:50,030 [INFO] IN: 8=FIX.4.4|9=142|35=D|49=MY_COMPANY|56=EXCHANGE|34=45|11=momentum-1747819910.029883|55=INGA.AS|54=1|44=18.92052514|38=6|52=20250521-09:31:50.030|6007=momentum|10=244|
2025-05-21 10:31:50,030 [INFO] OUT: 8=FIX.4.4|9=274|35=8|49=EXCHANGE|56=MY_COMPANY|34=46|11=820d45d6-eae3-4155-834c-da1c99ad980e|37=820d45d6-eae3-4155-834c-da1c99ad980e|17=9c255576-19dc-4e7e-a882-954f01a21608|39=2|150=F|55=INGA.AS|54=1|38=6|32=6|31=19.09254900|151=0|14=6|44=19.09254900|6007=momentum|52=20250521-09:31:50.030|10=095|
2025-05-21 10:31:55,061 [INFO] OUT: 8=FIX.4.4|9=142|35=D|49=MY_COMPANY|56=EXCHANGE|34=47|11=momentum-1747819915.061723|55=INGA.AS|54=2|44=19.09254900|38=9|52=20250521-09:31:55.061|6007=momentum|10=255|
2025-05-21 10:31:55,062 [INFO] IN: 8=FIX.4.4|9=142|35=D|49=MY_COMPANY|56=EXCHANGE|34=47|11=momentum-1747819915.061723|55=INGA.AS|54=2|44=19.09254900|38=9|52=20250521-09:31:55.061|6007=momentum|10=255|
2025-05-21 10:31:55,063 [INFO] OUT: 8=FIX.4.4|9=274|35=8|49=EXCHANGE|56=MY_COMPANY|34=48|11=67dbb24c-e8e6-4e81-a316-86dac971f6f8|37=67dbb24c-e8e6-4e81-a316-86dac971f6f8|17=8aa1b7e6-2743-4642-8c29-c85b771e8e5b|39=2|150=F|55=INGA.AS|54=2|38=3|32=3|31=19.09254900|151=0|14=3|44=19.09254900|6007=momentum|52=20250521-09:31:55.062|10=064|
2025-05-21 10:31:55,063 [INFO] OUT: 8=FIX.4.4|9=274|35=8|49=EXCHANGE|56=MY_COMPANY|34=49|11=67dbb24c-e8e6-4e81-a316-86dac971f6f8|37=67dbb24c-e8e6-4e81-a316-86dac971f6f8|17=405b3297-3af9-4867-a9f5-fcadda5584cf|39=2|150=F|55=INGA.AS|54=2|38=1|32=1|31=19.09254900|151=0|14=1|44=19.09254900|6007=momentum|52=20250521-09:31:55.063|10=208|
2025-05-21 10:31:55,063 [INFO] OUT: 8=FIX.4.4|9=274|35=8|49=EXCHANGE|56=MY_COMPANY|34=50|11=67dbb24c-e8e6-4e81-a316-86dac971f6f8|37=67dbb24c-e8e6-4e81-a316-86dac971f6f8|17=e4773fb4-f432-4453-a2df-d2caa2de0929|39=2|150=F|55=INGA.AS|54=2|38=5|32=5|31=19.07339900|151=0|14=5|44=19.07339900|6007=momentum|52=20250521-09:31:55.063|10=193|
2025-05-21 10:32:00,077 [INFO] HEARBEAT SENT: 8=FIX.4.4|9=62|35=0|49=MY_COMPANY|56=EXCHANGE|34=13|52=20250521-09:32:00.077|10=099|
2025-05-21 10:32:00,080 [INFO] HEARBEAT SENT: 8=FIX.4.4|9=62|35=0|49=MY_COMPANY|56=EXCHANGE|34=35|52=20250521-09:32:00.080|10=097|
2025-05-21 10:32:00,086 [INFO] OUT: 8=FIX.4.4|9=143|35=D|49=MY_COMPANY|56=EXCHANGE|34=51|11=momentum-1747819920.0860548|55=INGA.AS|54=1|44=18.92052514|38=3|52=20250521-09:32:00.086|6007=momentum|10=040|
2025-05-21 10:32:00,086 [INFO] IN: 8=FIX.4.4|9=143|35=D|49=MY_COMPANY|56=EXCHANGE|34=51|11=momentum-1747819920.0860548|55=INGA.AS|54=1|44=18.92052514|38=3|52=20250521-09:32:00.086|6007=momentum|10=040|
2025-05-21 10:32:00,086 [INFO] OUT: 8=FIX.4.4|9=274|35=8|49=EXCHANGE|56=MY_COMPANY|34=52|11=6c618741-281f-4f6c-9b8a-db38c810af65|37=6c618741-281f-4f6c-9b8a-db38c810af65|17=9e414576-42f8-4e82-b78c-40583e20592b|39=2|150=F|55=INGA.AS|54=1|38=3|32=3|31=19.07339900|151=0|14=3|44=19.07339900|6007=momentum|52=20250521-09:32:00.086|10=219|
2025-05-21 10:32:00,087 [INFO] HEARBEAT SENT: 8=FIX.4.4|9=62|35=0|49=MY_COMPANY|56=EXCHANGE|34=53|52=20250521-09:32:00.087|10=104|
2025-05-21 10:32:00,091 [INFO] OUT: 8=FIX.4.4|9=272|35=8|49=EXCHANGE|56=MY_COMPANY|34=23|11=8888edc4-b13c-47bf-b3a8-aafa80e917d2|37=8888edc4-b13c-47bf-b3a8-aafa80e917d2|17=b356407d-74a2-40be-9db1-0ecdbf33b363|39=2|150=F|55=AD.AS|54=2|38=4|32=4|31=37.79425800|151=0|14=4|44=37.79425800|6007=momentum|52=20250521-09:32:00.091|10=188|
2025-05-21 10:32:00,092 [INFO] HEARBEAT SENT: 8=FIX.4.4|9=62|35=0|49=MY_COMPANY|56=EXCHANGE|34=24|52=20250521-09:32:00.092|10=098|
2025-05-21 10:32:00,094 [INFO] HEARBEAT SENT: 8=FIX.4.4|9=62|35=0|49=MY_COMPANY|56=EXCHANGE|34=25|52=20250521-09:32:00.093|10=100|
2025-05-21 10:32:00,098 [INFO] HEARBEAT SENT: 8=FIX.4.4|9=62|35=0|49=MY_COMPANY|56=EXCHANGE|34=27|52=20250521-09:32:00.098|10=107|
2025-05-21 10:32:05,119 [INFO] OUT: 8=FIX.4.4|9=275|35=8|49=EXCHANGE|56=MY_COMPANY|34=25|11=9fde1be3-db25-422c-847a-6d2825b20905|37=9fde1be3-db25-422c-847a-6d2825b20905|17=214f3510-4ff9-46b2-8d60-18f5f4b3944d|39=2|150=F|55=AD.AS|54=1|38=10|32=10|31=37.79425800|151=0|14=10|44=37.79425800|6007=momentum|52=20250521-09:32:05.119|10=014|
2025-05-21 10:32:05,123 [INFO] OUT: 8=FIX.4.4|9=273|35=8|49=EXCHANGE|56=MY_COMPANY|34=28|11=9a599f31-d40c-4632-bc92-debe9ed93f9b|37=9a599f31-d40c-4632-bc92-debe9ed93f9b|17=7a286530-8ed1-477e-94c2-64e216dc0d01|39=2|150=F|55=SAN.PA|54=2|38=9|32=9|31=93.23943601|151=0|14=9|44=93.23943601|6007=momentum|52=20250521-09:32:05.123|10=043|
2025-05-21 10:32:10,142 [INFO] OUT: 8=FIX.4.4|9=272|35=8|49=EXCHANGE|56=MY_COMPANY|34=26|11=3a400609-1494-4b29-a1fe-79305d978c9d|37=3a400609-1494-4b29-a1fe-79305d978c9d|17=fcd3c1d2-a097-437a-9e1a-b4f88d514460|39=2|150=F|55=AD.AS|54=1|38=5|32=5|31=37.79425800|151=0|14=5|44=37.79425800|6007=momentum|52=20250521-09:32:10.142|10=005|
2025-05-21 10:32:10,147 [INFO] OUT: 8=FIX.4.4|9=273|35=8|49=EXCHANGE|56=MY_COMPANY|34=29|11=21a606f9-9745-4a57-947c-ee44531c3792|37=21a606f9-9745-4a57-947c-ee44531c3792|17=917b9c4c-2a06-4c7e-94be-fd5482306a4c|39=2|150=F|55=SAN.PA|54=2|38=2|32=2|31=93.23943601|151=0|14=2|44=93.23943601|6007=momentum|52=20250521-09:32:10.147|10=012|
2025-05-21 10:32:15,156 [INFO] OUT: 8=FIX.4.4|9=272|35=8|49=EXCHANGE|56=MY_COMPANY|34=27|11=b9149306-b1d5-48bc-bc4d-7428832feeda|37=b9149306-b1d5-48bc-bc4d-7428832feeda|17=91f118ae-ed9e-44eb-8936-e79854713ccd|39=2|150=F|55=AD.AS|54=2|38=9|32=9|31=37.75638801|151=0|14=9|44=37.75638801|6007=momentum|52=20250521-09:32:15.156|10=016|
2025-05-21 10:32:20,180 [INFO] OUT: 8=FIX.4.4|9=272|35=8|49=EXCHANGE|56=MY_COMPANY|34=28|11=76b0c030-7e6d-476f-8c33-1fbb92d9d777|37=76b0c030-7e6d-476f-8c33-1fbb92d9d777|17=cd85be8f-51f4-4c96-84e1-0a8c1fa3c097|39=2|150=F|55=AD.AS|54=1|38=2|32=2|31=37.75638801|151=0|14=2|44=37.75638801|6007=momentum|52=20250521-09:32:20.180|10=108|
2025-05-21 10:32:30,228 [INFO] HEARBEAT SENT: 8=FIX.4.4|9=62|35=0|49=MY_COMPANY|56=EXCHANGE|34=14|52=20250521-09:32:30.228|10=101|
2025-05-21 10:32:30,231 [INFO] HEARBEAT SENT: 8=FIX.4.4|9=62|35=0|49=MY_COMPANY|56=EXCHANGE|34=36|52=20250521-09:32:30.231|10=099|
2025-05-21 10:32:30,236 [INFO] HEARBEAT SENT: 8=FIX.4.4|9=62|35=0|49=MY_COMPANY|56=EXCHANGE|34=54|52=20250521-09:32:30.236|10=104|
2025-05-21 10:32:30,239 [INFO] HEARBEAT SENT: 8=FIX.4.4|9=62|35=0|49=MY_COMPANY|56=EXCHANGE|34=29|52=20250521-09:32:30.239|10=109|
2025-05-21 10:32:30,241 [INFO] OUT: 8=FIX.4.4|9=277|35=8|49=EXCHANGE|56=MY_COMPANY|34=26|11=f545c684-44eb-4a8c-b6b6-e7854ffda28c|37=f545c684-44eb-4a8c-b6b6-e7854ffda28c|17=556779b7-85f1-469a-8615-73f75b2d4376|39=2|150=F|55=OR.PA|54=1|38=10|32=10|31=380.66893701|151=0|14=10|44=380.66893701|6007=momentum|52=20250521-09:32:30.241|10=107|
2025-05-21 10:32:30,242 [INFO] HEARBEAT SENT: 8=FIX.4.4|9=62|35=0|49=MY_COMPANY|56=EXCHANGE|34=27|52=20250521-09:32:30.241|10=100|
2025-05-21 10:32:30,245 [INFO] HEARBEAT SENT: 8=FIX.4.4|9=62|35=0|49=MY_COMPANY|56=EXCHANGE|34=30|52=20250521-09:32:30.245|10=098|
2025-05-21 10:32:35,260 [INFO] OUT: 8=FIX.4.4|9=276|35=8|49=EXCHANGE|56=MY_COMPANY|34=15|11=d5ed97f0-b4c4-4a5c-b60a-79f7ddf5ac5d|37=d5ed97f0-b4c4-4a5c-b60a-79f7ddf5ac5d|17=687bceca-3b21-436f-8740-8c4c1daf5b7f|39=2|150=F|55=ASML.AS|54=1|38=3|32=3|31=657.36000000|151=0|14=3|44=657.36000000|6007=momentum|52=20250521-09:32:35.260|10=172|
2025-05-21 10:32:40,288 [INFO] OUT: 8=FIX.4.4|9=274|35=8|49=EXCHANGE|56=MY_COMPANY|34=37|11=bac80381-48b3-481d-91de-82be4c8ff8f9|37=bac80381-48b3-481d-91de-82be4c8ff8f9|17=4e6d54cd-f84d-4a94-bf32-055abdf10066|39=2|150=F|55=PHIA.AS|54=1|38=1|32=1|31=21.28733900|151=0|14=1|44=21.28733900|6007=momentum|52=20250521-09:32:40.288|10=176|
2025-05-21 10:32:45,328 [INFO] OUT: 8=FIX.4.4|9=274|35=8|49=EXCHANGE|56=MY_COMPANY|34=38|11=58c34310-890a-42f1-afec-81df88422388|37=58c34310-890a-42f1-afec-81df88422388|17=33e3fda9-e6f9-400d-a857-2f7b83272a8e|39=2|150=F|55=PHIA.AS|54=1|38=4|32=4|31=21.28733900|151=0|14=4|44=21.28733900|6007=momentum|52=20250521-09:32:45.328|10=006|
2025-05-21 10:32:50,364 [INFO] OUT: 8=FIX.4.4|9=274|35=8|49=EXCHANGE|56=MY_COMPANY|34=39|11=b6e3d55e-c28a-42d6-8a20-8e2100f08528|37=b6e3d55e-c28a-42d6-8a20-8e2100f08528|17=f9c23f06-b49d-4aa9-bb5a-dbb449bfdc13|39=2|150=F|55=PHIA.AS|54=2|38=3|32=3|31=21.26600900|151=0|14=3|44=21.26600900|6007=momentum|52=20250521-09:32:50.364|10=016|
2025-05-21 10:32:55,384 [INFO] OUT: 8=FIX.4.4|9=274|35=8|49=EXCHANGE|56=MY_COMPANY|34=40|11=66cf48d7-ec85-4b2b-9d95-9bad34afd5c5|37=66cf48d7-ec85-4b2b-9d95-9bad34afd5c5|17=1692aae2-e316-4040-a1a4-c1c426341922|39=2|150=F|55=PHIA.AS|54=2|38=3|32=3|31=21.26600900|151=0|14=3|44=21.26600900|6007=momentum|52=20250521-09:32:55.384|10=093|
2025-05-21 10:33:00,420 [INFO] HEARBEAT SENT: 8=FIX.4.4|9=62|35=0|49=MY_COMPANY|56=EXCHANGE|34=16|52=20250521-09:33:00.420|10=095|
2025-05-21 10:33:00,422 [INFO] OUT: 8=FIX.4.4|9=274|35=8|49=EXCHANGE|56=MY_COMPANY|34=41|11=60eef06b-a50e-4bcd-a185-eac1228d492b|37=60eef06b-a50e-4bcd-a185-eac1228d492b|17=b6e80ff3-8428-4c28-afcf-207dc5952cff|39=2|150=F|55=PHIA.AS|54=2|38=6|32=6|31=21.26600900|151=0|14=6|44=21.26600900|6007=momentum|52=20250521-09:33:00.422|10=091|
2025-05-21 10:33:00,422 [INFO] HEARBEAT SENT: 8=FIX.4.4|9=62|35=0|49=MY_COMPANY|56=EXCHANGE|34=42|52=20250521-09:33:00.422|10=096|
2025-05-21 10:33:00,425 [INFO] OUT: 8=FIX.4.4|9=274|35=8|49=EXCHANGE|56=MY_COMPANY|34=55|11=d24d7781-27b4-4216-9ad0-85c9044aa624|37=d24d7781-27b4-4216-9ad0-85c9044aa624|17=7b4709be-1dbb-4fa8-b538-0c9f0406811c|39=2|150=F|55=INGA.AS|54=2|38=4|32=4|31=18.86370651|151=0|14=4|44=18.86370651|6007=momentum|52=20250521-09:33:00.425|10=136|
2025-05-21 10:33:00,425 [INFO] OUT: 8=FIX.4.4|9=274|35=8|49=EXCHANGE|56=MY_COMPANY|34=56|11=d24d7781-27b4-4216-9ad0-85c9044aa624|37=d24d7781-27b4-4216-9ad0-85c9044aa624|17=ce481b81-7a7c-45a1-af5a-16dc598e42d6|39=2|150=F|55=INGA.AS|54=2|38=2|32=2|31=18.86370651|151=0|14=2|44=18.86370651|6007=momentum|52=20250521-09:33:00.425|10=187|
2025-05-21 10:33:00,425 [INFO] OUT: 8=FIX.4.4|9=274|35=8|49=EXCHANGE|56=MY_COMPANY|34=57|11=d24d7781-27b4-4216-9ad0-85c9044aa624|37=d24d7781-27b4-4216-9ad0-85c9044aa624|17=0fc9232f-4832-4865-8b12-832e46a3a44d|39=2|150=F|55=INGA.AS|54=2|38=3|32=3|31=18.86370651|151=0|14=3|44=18.86370651|6007=momentum|52=20250521-09:33:00.425|10=205|
2025-05-21 10:33:00,425 [INFO] HEARBEAT SENT: 8=FIX.4.4|9=62|35=0|49=MY_COMPANY|56=EXCHANGE|34=58|52=20250521-09:33:00.425|10=106|
2025-05-21 10:33:00,426 [INFO] HEARBEAT SENT: 8=FIX.4.4|9=62|35=0|49=MY_COMPANY|56=EXCHANGE|34=30|52=20250521-09:33:00.426|10=097|
2025-05-21 10:33:00,427 [INFO] HEARBEAT SENT: 8=FIX.4.4|9=62|35=0|49=MY_COMPANY|56=EXCHANGE|34=28|52=20250521-09:33:00.427|10=105|
2025-05-21 10:33:00,428 [INFO] HEARBEAT SENT: 8=FIX.4.4|9=62|35=0|49=MY_COMPANY|56=EXCHANGE|34=31|52=20250521-09:33:00.428|10=100|
2025-05-21 10:33:05,436 [INFO] OUT: 8=FIX.4.4|9=274|35=8|49=EXCHANGE|56=MY_COMPANY|34=59|11=b739dc7e-b515-4eb0-b4f8-ed82f9b36be4|37=b739dc7e-b515-4eb0-b4f8-ed82f9b36be4|17=d49a0ef5-2d29-492a-9973-05cba5a5b68a|39=2|150=F|55=INGA.AS|54=2|38=5|32=5|31=18.82578952|151=0|14=5|44=18.82578952|6007=momentum|52=20250521-09:33:05.436|10=113|
2025-05-21 10:33:05,437 [INFO] OUT: 8=FIX.4.4|9=274|35=8|49=EXCHANGE|56=MY_COMPANY|34=60|11=b739dc7e-b515-4eb0-b4f8-ed82f9b36be4|37=b739dc7e-b515-4eb0-b4f8-ed82f9b36be4|17=933c6a7c-1bba-4120-94d5-76425b124f3f|39=2|150=F|55=INGA.AS|54=2|38=2|32=2|31=18.82578952|151=0|14=2|44=18.82578952|6007=momentum|52=20250521-09:33:05.437|10=241|
2025-05-21 10:33:10,449 [INFO] OUT: 8=FIX.4.4|9=274|35=8|49=EXCHANGE|56=MY_COMPANY|34=61|11=9d9d8065-5e08-4c53-849c-bd7b02b35da0|37=9d9d8065-5e08-4c53-849c-bd7b02b35da0|17=1597f0b6-b33f-4a83-8007-3d75c6789b9e|39=2|150=F|55=INGA.AS|54=2|38=4|32=4|31=18.73136683|151=0|14=4|44=18.73136683|6007=momentum|52=20250521-09:33:10.449|10=072|
2025-05-21 10:33:10,453 [INFO] OUT: 8=FIX.4.4|9=273|35=8|49=EXCHANGE|56=MY_COMPANY|34=32|11=9457dc4b-8549-45d8-9af2-b932e8fc606e|37=9457dc4b-8549-45d8-9af2-b932e8fc606e|17=2d1ad382-19db-4ee2-b1d2-65e0cd2b9032|39=2|150=F|55=SAN.PA|54=1|38=7|32=7|31=92.77183603|151=0|14=7|44=92.77183603|6007=momentum|52=20250521-09:33:10.453|10=206|
2025-05-21 10:33:15,471 [INFO] OUT: 8=FIX.4.4|9=274|35=8|49=EXCHANGE|56=MY_COMPANY|34=62|11=323d2283-4ba8-4eac-8f5e-e19b54a5f075|37=323d2283-4ba8-4eac-8f5e-e19b54a5f075|17=64f903b2-6a3f-4eeb-aa6b-c9389b1cfb8d|39=2|150=F|55=INGA.AS|54=1|38=6|32=6|31=19.13084900|151=0|14=6|44=19.13084900|6007=momentum|52=20250521-09:33:15.471|10=205|
2025-05-21 10:33:15,475 [INFO] OUT: 8=FIX.4.4|9=273|35=8|49=EXCHANGE|56=MY_COMPANY|34=33|11=bf3b67ca-8af1-47d5-9a19-9007e1a0da2b|37=bf3b67ca-8af1-47d5-9a19-9007e1a0da2b|17=2f30fe19-35c8-4a62-932b-8b4d9eb4b96b|39=2|150=F|55=SAN.PA|54=1|38=9|32=9|31=92.67831604|151=0|14=9|44=92.67831604|6007=momentum|52=20250521-09:33:15.475|10=156|
2025-05-21 10:33:20,508 [INFO] OUT: 8=FIX.4.4|9=274|35=8|49=EXCHANGE|56=MY_COMPANY|34=63|11=18764c25-2b25-4223-ae63-6514e75bf9bb|37=18764c25-2b25-4223-ae63-6514e75bf9bb|17=f3f329dd-a662-403e-8b4f-7532011b7a35|39=2|150=F|55=INGA.AS|54=1|38=3|32=3|31=19.13084900|151=0|14=3|44=19.13084900|6007=momentum|52=20250521-09:33:20.508|10=115|
2025-05-21 10:33:20,515 [INFO] OUT: 8=FIX.4.4|9=272|35=8|49=EXCHANGE|56=MY_COMPANY|34=31|11=6e2d5c80-75bc-495c-8936-a4026f4014bb|37=6e2d5c80-75bc-495c-8936-a4026f4014bb|17=bf5db322-8182-4476-a0a0-4df6bb746018|39=2|150=F|55=AD.AS|54=2|38=2|32=2|31=37.52916802|151=0|14=2|44=37.52916802|6007=momentum|52=20250521-09:33:20.515|10=063|
2025-05-21 10:33:25,530 [INFO] OUT: 8=FIX.4.4|9=274|35=8|49=EXCHANGE|56=MY_COMPANY|34=64|11=3d726a1e-2e63-415b-a33d-8be1e5f1cf54|37=3d726a1e-2e63-415b-a33d-8be1e5f1cf54|17=3d68faa2-a9dc-4373-914e-00078b1ff11a|39=2|150=F|55=INGA.AS|54=1|38=3|32=3|31=19.13084900|151=0|14=3|44=19.13084900|6007=momentum|52=20250521-09:33:25.530|10=064|
2025-05-21 10:33:25,533 [INFO] OUT: 8=FIX.4.4|9=272|35=8|49=EXCHANGE|56=MY_COMPANY|34=32|11=fd19883e-9f30-4835-b9e5-a5de0461af01|37=fd19883e-9f30-4835-b9e5-a5de0461af01|17=ab6fe239-ffd5-4ad7-8387-d96e671041e6|39=2|150=F|55=AD.AS|54=1|38=8|32=8|31=37.83212800|151=0|14=8|44=37.83212800|6007=momentum|52=20250521-09:33:25.533|10=053|
2025-05-21 10:33:30,546 [INFO] HEARBEAT SENT: 8=FIX.4.4|9=62|35=0|49=MY_COMPANY|56=EXCHANGE|34=17|52=20250521-09:33:30.546|10=108|
2025-05-21 10:33:30,548 [INFO] HEARBEAT SENT: 8=FIX.4.4|9=62|35=0|49=MY_COMPANY|56=EXCHANGE|34=43|52=20250521-09:33:30.548|10=109|
2025-05-21 10:33:30,551 [INFO] OUT: 8=FIX.4.4|9=277|35=8|49=EXCHANGE|56=MY_COMPANY|34=65|11=aeeb00bc-988b-4a70-ad94-3fb567e93c76|37=aeeb00bc-988b-4a70-ad94-3fb567e93c76|17=dd10d603-f2a7-41fd-9b7c-5da9d81970d1|39=2|150=F|55=INGA.AS|54=2|38=10|32=10|31=19.11169900|151=0|14=10|44=19.11169900|6007=momentum|52=20250521-09:33:30.551|10=144|
2025-05-21 10:33:30,551 [INFO] HEARBEAT SENT: 8=FIX.4.4|9=62|35=0|49=MY_COMPANY|56=EXCHANGE|34=66|52=20250521-09:33:30.551|10=108|
2025-05-21 10:33:30,551 [INFO] OUT: 8=FIX.4.4|9=272|35=8|49=EXCHANGE|56=MY_COMPANY|34=33|11=9d4457f8-e3e4-4ed4-8c13-78d5c168caff|37=9d4457f8-e3e4-4ed4-8c13-78d5c168caff|17=2769c598-e079-4158-a606-dc706c548a25|39=2|150=F|55=AD.AS|54=1|38=6|32=6|31=37.83212800|151=0|14=6|44=37.83212800|6007=momentum|52=20250521-09:33:30.551|10=028|
2025-05-21 10:33:30,552 [INFO] HEARBEAT SENT: 8=FIX.4.4|9=62|35=0|49=MY_COMPANY|56=EXCHANGE|34=34|52=20250521-09:33:30.552|10=104|
2025-05-21 10:33:30,554 [INFO] OUT: 8=FIX.4.4|9=274|35=8|49=EXCHANGE|56=MY_COMPANY|34=29|11=62cdeecd-513a-466e-a541-09c495efbb0a|37=62cdeecd-513a-466e-a541-09c495efbb0a|17=8563333b-0fe7-4ffa-893c-abb0c0ef1a06|39=2|150=F|55=OR.PA|54=1|38=7|32=7|31=380.66893701|151=0|14=7|44=380.66893701|6007=momentum|52=20250521-09:33:30.554|10=113|
2025-05-21 10:33:30,554 [INFO] HEARBEAT SENT: 8=FIX.4.4|9=62|35=0|49=MY_COMPANY|56=EXCHANGE|34=30|52=20250521-09:33:30.554|10=102|
2025-05-21 10:33:30,555 [INFO] HEARBEAT SENT: 8=FIX.4.4|9=62|35=0|49=MY_COMPANY|56=EXCHANGE|34=34|52=20250521-09:33:30.555|10=107|
2025-05-21 10:33:35,563 [INFO] OUT: 8=FIX.4.4|9=276|35=8|49=EXCHANGE|56=MY_COMPANY|34=18|11=398e2afd-f23c-4e15-b2e7-d0b78355fe65|37=398e2afd-f23c-4e15-b2e7-d0b78355fe65|17=d266d6ea-d03a-4304-821e-5a3009c73f65|39=2|150=F|55=ASML.AS|54=1|38=2|32=2|31=659.34000000|151=0|14=2|44=659.34000000|6007=momentum|52=20250521-09:33:35.563|10=107|
2025-05-21 10:33:35,567 [INFO] OUT: 8=FIX.4.4|9=274|35=8|49=EXCHANGE|56=MY_COMPANY|34=67|11=f501854b-ec36-41e1-86f3-67bd2eea3477|37=f501854b-ec36-41e1-86f3-67bd2eea3477|17=966c83e4-cca2-42ad-af9c-394c61b9bcea|39=2|150=F|55=INGA.AS|54=1|38=1|32=1|31=19.11169900|151=0|14=1|44=19.11169900|6007=momentum|52=20250521-09:33:35.567|10=122|
2025-05-21 10:33:35,567 [INFO] OUT: 8=FIX.4.4|9=272|35=8|49=EXCHANGE|56=MY_COMPANY|34=35|11=a67a73ca-db42-4200-89e3-f3644230ff21|37=a67a73ca-db42-4200-89e3-f3644230ff21|17=276ef0f4-1169-4fd9-a298-acc18cba57fd|39=2|150=F|55=AD.AS|54=1|38=5|32=5|31=37.83212800|151=0|14=5|44=37.83212800|6007=momentum|52=20250521-09:33:35.567|10=000|
2025-05-21 10:33:40,580 [INFO] OUT: 8=FIX.4.4|9=276|35=8|49=EXCHANGE|56=MY_COMPANY|34=19|11=66ddb911-c266-48e6-b1ae-eef86bbe228a|37=66ddb911-c266-48e6-b1ae-eef86bbe228a|17=ec38f991-3768-4c85-b701-b77ab9af8401|39=2|150=F|55=ASML.AS|54=2|38=6|32=6|31=659.34000000|151=0|14=6|44=659.34000000|6007=momentum|52=20250521-09:33:40.580|10=071|
2025-05-21 10:33:40,600 [INFO] OUT: 8=FIX.4.4|9=142|35=D|49=MY_COMPANY|56=EXCHANGE|34=68|11=momentum-1747820020.600468|55=INGA.AS|54=2|44=19.11169900|38=4|52=20250521-09:33:40.600|6007=momentum|10=230|
2025-05-21 10:33:40,600 [INFO] IN: 8=FIX.4.4|9=142|35=D|49=MY_COMPANY|56=EXCHANGE|34=68|11=momentum-1747820020.600468|55=INGA.AS|54=2|44=19.11169900|38=4|52=20250521-09:33:40.600|6007=momentum|10=230|
2025-05-21 10:33:40,601 [INFO] OUT: 8=FIX.4.4|9=274|35=8|49=EXCHANGE|56=MY_COMPANY|34=69|11=d2000695-626c-41bc-9e94-d69181a9a97d|37=d2000695-626c-41bc-9e94-d69181a9a97d|17=d5734a42-475a-40fc-bafa-6bcdb3ccf96d|39=2|150=F|55=INGA.AS|54=2|38=4|32=4|31=19.09254900|151=0|14=4|44=19.09254900|6007=momentum|52=20250521-09:33:40.601|10=235|
2025-05-21 10:33:45,614 [INFO] OUT: 8=FIX.4.4|9=276|35=8|49=EXCHANGE|56=MY_COMPANY|34=20|11=f1206174-02e6-48d6-ae4e-9f58eaff36af|37=f1206174-02e6-48d6-ae4e-9f58eaff36af|17=3240b2e2-8a7c-4ce6-a0fa-c1fc2282f74d|39=2|150=F|55=ASML.AS|54=2|38=2|32=2|31=659.34000000|151=0|14=2|44=659.34000000|6007=momentum|52=20250521-09:33:45.613|10=030|
2025-05-21 10:33:45,618 [INFO] OUT: 8=FIX.4.4|9=142|35=D|49=MY_COMPANY|56=EXCHANGE|34=70|11=momentum-1747820025.618321|55=INGA.AS|54=2|44=19.09254900|38=5|52=20250521-09:33:45.618|6007=momentum|10=242|
2025-05-21 10:33:45,618 [INFO] IN: 8=FIX.4.4|9=142|35=D|49=MY_COMPANY|56=EXCHANGE|34=70|11=momentum-1747820025.618321|55=INGA.AS|54=2|44=19.09254900|38=5|52=20250521-09:33:45.618|6007=momentum|10=242|
2025-05-21 10:33:45,618 [INFO] OUT: 8=FIX.4.4|9=274|35=8|49=EXCHANGE|56=MY_COMPANY|34=71|11=b8085ecf-172b-449d-9e7b-37250a9a0cfa|37=b8085ecf-172b-449d-9e7b-37250a9a0cfa|17=ed015ed9-f1aa-4fff-ae16-9d07af4aef8e|39=2|150=F|55=INGA.AS|54=2|38=5|32=5|31=19.09254900|151=0|14=5|44=19.09254900|6007=momentum|52=20250521-09:33:45.618|10=206|
2025-05-21 10:33:50,630 [INFO] OUT: 8=FIX.4.4|9=141|35=D|49=MY_COMPANY|56=EXCHANGE|34=72|11=momentum-1747820030.63033|55=INGA.AS|54=1|44=18.92052514|38=2|52=20250521-09:33:50.630|6007=momentum|10=169|
2025-05-21 10:33:50,630 [INFO] IN: 8=FIX.4.4|9=141|35=D|49=MY_COMPANY|56=EXCHANGE|34=72|11=momentum-1747820030.63033|55=INGA.AS|54=1|44=18.92052514|38=2|52=20250521-09:33:50.630|6007=momentum|10=169|
2025-05-21 10:33:50,630 [INFO] OUT: 8=FIX.4.4|9=274|35=8|49=EXCHANGE|56=MY_COMPANY|34=73|11=2e83b8fc-4047-485d-9eff-cf4669bd5af6|37=2e83b8fc-4047-485d-9eff-cf4669bd5af6|17=c358ec66-02c4-4f9f-98c1-e81c1837cdde|39=2|150=F|55=INGA.AS|54=1|38=2|32=2|31=19.09254900|151=0|14=2|44=19.09254900|6007=momentum|52=20250521-09:33:50.630|10=061|
2025-05-21 10:33:55,647 [INFO] OUT: 8=FIX.4.4|9=142|35=D|49=MY_COMPANY|56=EXCHANGE|34=74|11=momentum-1747820035.647236|55=INGA.AS|54=2|44=19.09254900|38=1|52=20250521-09:33:55.647|6007=momentum|10=253|
2025-05-21 10:33:55,647 [INFO] IN: 8=FIX.4.4|9=142|35=D|49=MY_COMPANY|56=EXCHANGE|34=74|11=momentum-1747820035.647236|55=INGA.AS|54=2|44=19.09254900|38=1|52=20250521-09:33:55.647|6007=momentum|10=253|
2025-05-21 10:33:55,648 [INFO] OUT: 8=FIX.4.4|9=274|35=8|49=EXCHANGE|56=MY_COMPANY|34=75|11=bfcfe000-5eea-42f6-a64c-9eef17ed6c11|37=bfcfe000-5eea-42f6-a64c-9eef17ed6c11|17=2d13f84a-a3df-4cca-b668-0221efbdf361|39=2|150=F|55=INGA.AS|54=2|38=1|32=1|31=19.07339900|151=0|14=1|44=19.07339900|6007=momentum|52=20250521-09:33:55.648|10=107|
2025-05-21 10:34:00,663 [INFO] HEARBEAT SENT: 8=FIX.4.4|9=62|35=0|49=MY_COMPANY|56=EXCHANGE|34=21|52=20250521-09:34:00.662|10=100|
2025-05-21 10:34:00,665 [INFO] OUT: 8=FIX.4.4|9=274|35=8|49=EXCHANGE|56=MY_COMPANY|34=44|11=cb14ba30-68d4-4b26-a22a-ae863ccc59e3|37=cb14ba30-68d4-4b26-a22a-ae863ccc59e3|17=f5dcf9da-340f-4170-bd9a-13855345e124|39=2|150=F|55=PHIA.AS|54=1|38=8|32=8|31=21.30866900|151=0|14=8|44=21.30866900|6007=momentum|52=20250521-09:34:00.665|10=125|
2025-05-21 10:34:00,665 [INFO] HEARBEAT SENT: 8=FIX.4.4|9=62|35=0|49=MY_COMPANY|56=EXCHANGE|34=45|52=20250521-09:34:00.665|10=109|
2025-05-21 10:34:00,667 [INFO] OUT: 8=FIX.4.4|9=141|35=D|49=MY_COMPANY|56=EXCHANGE|34=76|11=momentum-1747820040.66769|55=INGA.AS|54=1|44=18.92052514|38=6|52=20250521-09:34:00.667|6007=momentum|10=203|
2025-05-21 10:34:00,668 [INFO] IN: 8=FIX.4.4|9=141|35=D|49=MY_COMPANY|56=EXCHANGE|34=76|11=momentum-1747820040.66769|55=INGA.AS|54=1|44=18.92052514|38=6|52=20250521-09:34:00.667|6007=momentum|10=203|
2025-05-21 10:34:00,668 [INFO] OUT: 8=FIX.4.4|9=274|35=8|49=EXCHANGE|56=MY_COMPANY|34=77|11=cb87d3bf-36b4-49d5-a905-8f813ebb55cf|37=cb87d3bf-36b4-49d5-a905-8f813ebb55cf|17=b0fdab99-aff1-4c0c-8162-93dac6e32880|39=2|150=F|55=INGA.AS|54=1|38=6|32=6|31=19.07339900|151=0|14=6|44=19.07339900|6007=momentum|52=20250521-09:34:00.668|10=084|
2025-05-21 10:34:00,668 [INFO] HEARBEAT SENT: 8=FIX.4.4|9=62|35=0|49=MY_COMPANY|56=EXCHANGE|34=78|52=20250521-09:34:00.668|10=118|
2025-05-21 10:34:00,669 [INFO] HEARBEAT SENT: 8=FIX.4.4|9=62|35=0|49=MY_COMPANY|56=EXCHANGE|34=36|52=20250521-09:34:00.669|10=113|
2025-05-21 10:34:00,670 [INFO] HEARBEAT SENT: 8=FIX.4.4|9=62|35=0|49=MY_COMPANY|56=EXCHANGE|34=31|52=20250521-09:34:00.670|10=100|
2025-05-21 10:34:00,671 [INFO] HEARBEAT SENT: 8=FIX.4.4|9=62|35=0|49=MY_COMPANY|56=EXCHANGE|34=35|52=20250521-09:34:00.671|10=105|
2025-05-21 10:34:05,674 [INFO] OUT: 8=FIX.4.4|9=274|35=8|49=EXCHANGE|56=MY_COMPANY|34=46|11=77460b07-7ae8-4c7c-94c8-0fffe4690507|37=77460b07-7ae8-4c7c-94c8-0fffe4690507|17=4d610065-274d-4ae4-9fe6-4254d8ef9599|39=2|150=F|55=PHIA.AS|54=1|38=5|32=5|31=21.30866900|151=0|14=5|44=21.30866900|6007=momentum|52=20250521-09:34:05.674|10=001|
2025-05-21 10:34:05,674 [INFO] OUT: 8=FIX.4.4|9=274|35=8|49=EXCHANGE|56=MY_COMPANY|34=47|11=77460b07-7ae8-4c7c-94c8-0fffe4690507|37=77460b07-7ae8-4c7c-94c8-0fffe4690507|17=77b57015-a596-4310-9193-581684e828ad|39=2|150=F|55=PHIA.AS|54=1|38=4|32=4|31=21.28733900|151=0|14=4|44=21.28733900|6007=momentum|52=20250521-09:34:05.674|10=055|
2025-05-21 10:34:05,675 [INFO] OUT: 8=FIX.4.4|9=142|35=D|49=MY_COMPANY|56=EXCHANGE|34=79|11=momentum-1747820045.675622|55=INGA.AS|54=1|44=18.92052514|38=4|52=20250521-09:34:05.675|6007=momentum|10=000|
2025-05-21 10:34:05,675 [INFO] IN: 8=FIX.4.4|9=142|35=D|49=MY_COMPANY|56=EXCHANGE|34=79|11=momentum-1747820045.675622|55=INGA.AS|54=1|44=18.92052514|38=4|52=20250521-09:34:05.675|6007=momentum|10=000|
2025-05-21 10:34:05,675 [INFO] OUT: 8=FIX.4.4|9=274|35=8|49=EXCHANGE|56=MY_COMPANY|34=80|11=4b1816c2-8497-4037-8d7d-21bba859fbdc|37=4b1816c2-8497-4037-8d7d-21bba859fbdc|17=b739db16-79be-485a-a77d-a137739c4d32|39=2|150=F|55=INGA.AS|54=1|38=4|32=4|31=19.07339900|151=0|14=4|44=19.07339900|6007=momentum|52=20250521-09:34:05.675|10=162|
2025-05-21 10:34:10,687 [INFO] OUT: 8=FIX.4.4|9=274|35=8|49=EXCHANGE|56=MY_COMPANY|34=48|11=fca46974-eb7f-4702-8a85-e4b8c8f72394|37=fca46974-eb7f-4702-8a85-e4b8c8f72394|17=8a384334-6815-4198-b7e1-c3581bcad5ad|39=2|150=F|55=PHIA.AS|54=2|38=1|32=1|31=21.28733900|151=0|14=1|44=21.28733900|6007=momentum|52=20250521-09:34:10.687|10=128|
2025-05-21 10:34:10,688 [INFO] OUT: 8=FIX.4.4|9=142|35=D|49=MY_COMPANY|56=EXCHANGE|34=81|11=momentum-1747820050.688929|55=INGA.AS|54=2|44=19.07339900|38=8|52=20250521-09:34:10.688|6007=momentum|10=012|
2025-05-21 10:34:10,689 [INFO] IN: 8=FIX.4.4|9=142|35=D|49=MY_COMPANY|56=EXCHANGE|34=81|11=momentum-1747820050.688929|55=INGA.AS|54=2|44=19.07339900|38=8|52=20250521-09:34:10.688|6007=momentum|10=012|
2025-05-21 10:34:10,689 [INFO] OUT: 8=FIX.4.4|9=274|35=8|49=EXCHANGE|56=MY_COMPANY|34=82|11=239f0762-33c9-41f6-87cf-bc2b349937e9|37=239f0762-33c9-41f6-87cf-bc2b349937e9|17=1b6c49cb-c574-4fcd-90a0-0b7bb2269842|39=2|150=F|55=INGA.AS|54=2|38=8|32=8|31=19.05424901|151=0|14=8|44=19.05424901|6007=momentum|52=20250521-09:34:10.689|10=033|
2025-05-21 10:34:15,705 [INFO] OUT: 8=FIX.4.4|9=274|35=8|49=EXCHANGE|56=MY_COMPANY|34=49|11=7ced82ad-fc96-4a6f-b57a-b87d30108aeb|37=7ced82ad-fc96-4a6f-b57a-b87d30108aeb|17=bec3e95c-553e-493c-95cd-46e5981f2f15|39=2|150=F|55=PHIA.AS|54=2|38=3|32=3|31=21.28733900|151=0|14=3|44=21.28733900|6007=momentum|52=20250521-09:34:15.705|10=165|
2025-05-21 10:34:15,707 [INFO] OUT: 8=FIX.4.4|9=143|35=D|49=MY_COMPANY|56=EXCHANGE|34=83|11=momentum-1747820055.7077188|55=INGA.AS|54=2|44=19.05424901|38=8|52=20250521-09:34:15.707|6007=momentum|10=055|
2025-05-21 10:34:15,708 [INFO] IN: 8=FIX.4.4|9=143|35=D|49=MY_COMPANY|56=EXCHANGE|34=83|11=momentum-1747820055.7077188|55=INGA.AS|54=2|44=19.05424901|38=8|52=20250521-09:34:15.707|6007=momentum|10=055|
2025-05-21 10:34:15,708 [INFO] OUT: 8=FIX.4.4|9=274|35=8|49=EXCHANGE|56=MY_COMPANY|34=84|11=733a5eb3-49d3-4fd8-a2e7-069a6e14de07|37=733a5eb3-49d3-4fd8-a2e7-069a6e14de07|17=7b7807a3-55dc-4019-a1a0-5cd2ab8aa255|39=2|150=F|55=INGA.AS|54=2|38=8|32=8|31=19.05424901|151=0|14=8|44=19.05424901|6007=momentum|52=20250521-09:34:15.708|10=014|
2025-05-21 10:34:15,712 [INFO] OUT: 8=FIX.4.4|9=273|35=8|49=EXCHANGE|56=MY_COMPANY|34=36|11=80a8da12-1e8d-4a53-a7af-6b7a91c6684a|37=80a8da12-1e8d-4a53-a7af-6b7a91c6684a|17=07c2d9fa-01ac-4d45-a26d-2e1be1843d05|39=2|150=F|55=SAN.PA|54=1|38=1|32=1|31=93.23943601|151=0|14=1|44=93.23943601|6007=momentum|52=20250521-09:34:15.712|10=054|
2025-05-21 10:34:20,723 [INFO] OUT: 8=FIX.4.4|9=277|35=8|49=EXCHANGE|56=MY_COMPANY|34=50|11=cb5e5b95-abb9-4cbd-acf6-1d414c1b02a4|37=cb5e5b95-abb9-4cbd-acf6-1d414c1b02a4|17=44a56153-d0dc-40be-a626-7c7b15bf8eb3|39=2|150=F|55=PHIA.AS|54=2|38=10|32=10|31=21.28733900|151=0|14=10|44=21.28733900|6007=momentum|52=20250521-09:34:20.723|10=098|
2025-05-21 10:34:20,725 [INFO] OUT: 8=FIX.4.4|9=142|35=D|49=MY_COMPANY|56=EXCHANGE|34=85|11=momentum-1747820060.725648|55=INGA.AS|54=2|44=19.05424901|38=2|52=20250521-09:34:20.725|6007=momentum|10=244|
2025-05-21 10:34:20,725 [INFO] IN: 8=FIX.4.4|9=142|35=D|49=MY_COMPANY|56=EXCHANGE|34=85|11=momentum-1747820060.725648|55=INGA.AS|54=2|44=19.05424901|38=2|52=20250521-09:34:20.725|6007=momentum|10=244|
2025-05-21 10:34:20,725 [INFO] OUT: 8=FIX.4.4|9=274|35=8|49=EXCHANGE|56=MY_COMPANY|34=86|11=d2341ae1-72b9-46a8-8fb4-918e64691fe2|37=d2341ae1-72b9-46a8-8fb4-918e64691fe2|17=02925460-756f-4dfa-ba12-8f304895a371|39=2|150=F|55=INGA.AS|54=2|38=2|32=2|31=19.03509901|151=0|14=2|44=19.03509901|6007=momentum|52=20250521-09:34:20.725|10=161|
2025-05-21 10:34:25,739 [INFO] OUT: 8=FIX.4.4|9=274|35=8|49=EXCHANGE|56=MY_COMPANY|34=51|11=cc27c29c-aa07-488a-9130-af85bf98eebd|37=cc27c29c-aa07-488a-9130-af85bf98eebd|17=f263f8ef-80fd-4a91-921f-d06a0705e547|39=2|150=F|55=PHIA.AS|54=2|38=3|32=3|31=21.28733900|151=0|14=3|44=21.28733900|6007=momentum|52=20250521-09:34:25.739|10=018|
2025-05-21 10:34:25,744 [INFO] OUT: 8=FIX.4.4|9=274|35=8|49=EXCHANGE|56=MY_COMPANY|34=87|11=05be388b-b257-4879-a278-45565889961c|37=05be388b-b257-4879-a278-45565889961c|17=66430833-4834-4f48-aae6-bc4c87c074a4|39=2|150=F|55=INGA.AS|54=2|38=5|32=5|31=19.01594901|151=0|14=5|44=19.01594901|6007=momentum|52=20250521-09:34:25.744|10=150|
2025-05-21 10:34:30,761 [INFO] HEARBEAT SENT: 8=FIX.4.4|9=62|35=0|49=MY_COMPANY|56=EXCHANGE|34=22|52=20250521-09:34:30.761|10=104|
2025-05-21 10:34:30,762 [INFO] OUT: 8=FIX.4.4|9=274|35=8|49=EXCHANGE|56=MY_COMPANY|34=52|11=cbf14683-0a9f-4187-b073-224824b98e40|37=cbf14683-0a9f-4187-b073-224824b98e40|17=55504004-0ef4-4bec-84af-34e74a141299|39=2|150=F|55=PHIA.AS|54=1|38=9|32=9|31=21.28733900|151=0|14=9|44=21.28733900|6007=momentum|52=20250521-09:34:30.762|10=002|
2025-05-21 10:34:30,762 [INFO] HEARBEAT SENT: 8=FIX.4.4|9=62|35=0|49=MY_COMPANY|56=EXCHANGE|34=53|52=20250521-09:34:30.762|10=109|
2025-05-21 10:34:30,763 [INFO] OUT: 8=FIX.4.4|9=142|35=D|49=MY_COMPANY|56=EXCHANGE|34=88|11=momentum-1747820070.763424|55=INGA.AS|54=2|44=19.01594901|38=1|52=20250521-09:34:30.763|6007=momentum|10=248|
2025-05-21 10:34:30,763 [INFO] IN: 8=FIX.4.4|9=142|35=D|49=MY_COMPANY|56=EXCHANGE|34=88|11=momentum-1747820070.763424|55=INGA.AS|54=2|44=19.01594901|38=1|52=20250521-09:34:30.763|6007=momentum|10=248|
2025-05-21 10:34:30,763 [INFO] OUT: 8=FIX.4.4|9=274|35=8|49=EXCHANGE|56=MY_COMPANY|34=89|11=2b1ba9ec-f14e-4424-a7d6-82c803281b65|37=2b1ba9ec-f14e-4424-a7d6-82c803281b65|17=37c4b361-859b-485c-9c6d-2e5bd5916bc2|39=2|150=F|55=INGA.AS|54=2|38=1|32=1|31=18.99679901|151=0|14=1|44=18.99679901|6007=momentum|52=20250521-09:34:30.763|10=163|
2025-05-21 10:34:30,763 [INFO] HEARBEAT SENT: 8=FIX.4.4|9=62|35=0|49=MY_COMPANY|56=EXCHANGE|34=90|52=20250521-09:34:30.763|10=111|
2025-05-21 10:34:30,764 [INFO] HEARBEAT SENT: 8=FIX.4.4|9=62|35=0|49=MY_COMPANY|56=EXCHANGE|34=37|52=20250521-09:34:30.764|10=113|
2025-05-21 10:34:30,764 [INFO] OUT: 8=FIX.4.4|9=274|35=8|49=EXCHANGE|56=MY_COMPANY|34=32|11=ddcba47b-2011-46a6-b461-b7e4ab0bbbc9|37=ddcba47b-2011-46a6-b461-b7e4ab0bbbc9|17=5a6ebdc2-f407-430d-9940-2c0070a25381|39=2|150=F|55=OR.PA|54=1|38=5|32=5|31=380.66893701|151=0|14=5|44=380.66893701|6007=momentum|52=20250521-09:34:30.764|10=169|
2025-05-21 10:34:30,765 [INFO] HEARBEAT SENT: 8=FIX.4.4|9=62|35=0|49=MY_COMPANY|56=EXCHANGE|34=33|52=20250521-09:34:30.765|10=110|
2025-05-21 10:34:30,766 [INFO] HEARBEAT SENT: 8=FIX.4.4|9=62|35=0|49=MY_COMPANY|56=EXCHANGE|34=37|52=20250521-09:34:30.766|10=115|
2025-05-21 10:34:35,775 [INFO] OUT: 8=FIX.4.4|9=274|35=8|49=EXCHANGE|56=MY_COMPANY|34=54|11=0a10f8b9-fa43-43c4-b0ff-c94bfe9a639c|37=0a10f8b9-fa43-43c4-b0ff-c94bfe9a639c|17=3f31a3b2-bea0-407d-9787-235e856f25b5|39=2|150=F|55=PHIA.AS|54=1|38=9|32=9|31=21.28733900|151=0|14=9|44=21.28733900|6007=momentum|52=20250521-09:34:35.775|10=225|
2025-05-21 10:34:35,777 [INFO] OUT: 8=FIX.4.4|9=142|35=D|49=MY_COMPANY|56=EXCHANGE|34=91|11=momentum-1747820075.777462|55=INGA.AS|54=2|44=18.99679901|38=4|52=20250521-09:34:35.777|6007=momentum|10=031|
2025-05-21 10:34:35,777 [INFO] IN: 8=FIX.4.4|9=142|35=D|49=MY_COMPANY|56=EXCHANGE|34=91|11=momentum-1747820075.777462|55=INGA.AS|54=2|44=18.99679901|38=4|52=20250521-09:34:35.777|6007=momentum|10=031|
2025-05-21 10:34:35,777 [INFO] OUT: 8=FIX.4.4|9=274|35=8|49=EXCHANGE|56=MY_COMPANY|34=92|11=639500d6-34e0-483a-93f0-e93dc2921e3c|37=639500d6-34e0-483a-93f0-e93dc2921e3c|17=d22103fa-1914-4ad6-ae0c-cec2b56a804a|39=2|150=F|55=INGA.AS|54=2|38=2|32=2|31=18.99679901|151=0|14=2|44=18.99679901|6007=momentum|52=20250521-09:34:35.777|10=093|
2025-05-21 10:34:35,778 [INFO] OUT: 8=FIX.4.4|9=274|35=8|49=EXCHANGE|56=MY_COMPANY|34=93|11=639500d6-34e0-483a-93f0-e93dc2921e3c|37=639500d6-34e0-483a-93f0-e93dc2921e3c|17=187e26eb-bd0f-464e-9054-21d57af8df89|39=2|150=F|55=INGA.AS|54=2|38=2|32=2|31=18.97764901|151=0|14=2|44=18.97764901|6007=momentum|52=20250521-09:34:35.778|10=033|
2025-05-21 10:34:35,778 [INFO] OUT: 8=FIX.4.4|9=272|35=8|49=EXCHANGE|56=MY_COMPANY|34=38|11=240770ab-b1fd-4375-8002-35d8d9030976|37=240770ab-b1fd-4375-8002-35d8d9030976|17=3804bdef-3997-47de-a55a-9dcda1c14278|39=2|150=F|55=AD.AS|54=2|38=9|32=9|31=37.79425800|151=0|14=9|44=37.79425800|6007=momentum|52=20250521-09:34:35.778|10=234|
2025-05-21 10:34:40,798 [INFO] OUT: 8=FIX.4.4|9=274|35=8|49=EXCHANGE|56=MY_COMPANY|34=94|11=b218fc67-81e2-4121-a2fd-7b26295cb002|37=b218fc67-81e2-4121-a2fd-7b26295cb002|17=14006aa6-3e80-4447-bead-1d0f2b87a4a8|39=2|150=F|55=INGA.AS|54=2|38=6|32=6|31=18.95849901|151=0|14=6|44=18.95849901|6007=momentum|52=20250521-09:34:40.798|10=076|
2025-05-21 10:34:40,799 [INFO] OUT: 8=FIX.4.4|9=272|35=8|49=EXCHANGE|56=MY_COMPANY|34=39|11=57eeafb4-aa70-46f1-a5d6-912de907f60b|37=57eeafb4-aa70-46f1-a5d6-912de907f60b|17=b6b15915-cfce-4156-b165-a737f7d036e6|39=2|150=F|55=AD.AS|54=1|38=5|32=5|31=37.79425800|151=0|14=5|44=37.79425800|6007=momentum|52=20250521-09:34:40.799|10=033|
2025-05-21 10:34:45,813 [INFO] OUT: 8=FIX.4.4|9=276|35=8|49=EXCHANGE|56=MY_COMPANY|34=23|11=32638ad8-81c8-4882-8280-9249e67ac175|37=32638ad8-81c8-4882-8280-9249e67ac175|17=35270570-3ac1-4f8d-a2fe-9b280fce8f90|39=2|150=F|55=ASML.AS|54=1|38=5|32=5|31=658.02000000|151=0|14=5|44=658.02000000|6007=momentum|52=20250521-09:34:45.813|10=080|
2025-05-21 10:34:45,816 [INFO] OUT: 8=FIX.4.4|9=252|35=8|49=EXCHANGE|56=MY_COMPANY|34=95|11=momentum-1747820030.63033|37=momentum-1747820030.63033|17=0edfb8af-c724-432d-bd45-3e6e18ffff42|39=2|150=F|55=INGA.AS|54=1|38=2|32=2|31=18.92052514|151=0|14=2|44=18.92052514|6007=momentum|52=20250521-09:34:45.816|10=126|
2025-05-21 10:34:45,817 [INFO] OUT: 8=FIX.4.4|9=252|35=8|49=EXCHANGE|56=MY_COMPANY|34=96|11=momentum-1747820040.66769|37=momentum-1747820040.66769|17=92b9565b-f4b4-46b0-874a-bf1c1ac96f62|39=2|150=F|55=INGA.AS|54=1|38=3|32=3|31=18.92052514|151=0|14=3|44=18.92052514|6007=momentum|52=20250521-09:34:45.817|10=235|
2025-05-21 10:34:45,817 [INFO] OUT: 8=FIX.4.4|9=252|35=8|49=EXCHANGE|56=MY_COMPANY|34=97|11=momentum-1747820040.66769|37=momentum-1747820040.66769|17=959cd7f8-120b-4974-8fbe-c2cfbaaebae6|39=2|150=F|55=INGA.AS|54=2|38=3|32=3|31=18.92052514|151=0|14=3|44=18.92052514|6007=momentum|52=20250521-09:34:45.817|10=225|
2025-05-21 10:34:45,818 [INFO] OUT: 8=FIX.4.4|9=254|35=8|49=EXCHANGE|56=MY_COMPANY|34=98|11=momentum-1747820045.675622|37=momentum-1747820045.675622|17=0f7ce959-e840-43e3-a5b3-0eb9d2a78c62|39=2|150=F|55=INGA.AS|54=2|38=2|32=2|31=18.92052514|151=0|14=2|44=18.92052514|6007=momentum|52=20250521-09:34:45.818|10=078|
2025-05-21 10:34:45,818 [INFO] OUT: 8=FIX.4.4|9=254|35=8|49=EXCHANGE|56=MY_COMPANY|34=99|11=momentum-1747820045.675622|37=momentum-1747820045.675622|17=261fb684-2cfa-4eb5-89dd-5a79e557e130|39=2|150=F|55=INGA.AS|54=2|38=2|32=2|31=18.92052514|151=0|14=2|44=18.92052514|6007=momentum|52=20250521-09:34:45.818|10=084|
2025-05-21 10:34:45,818 [INFO] OUT: 8=FIX.4.4|9=275|35=8|49=EXCHANGE|56=MY_COMPANY|34=100|11=1049033c-281a-4019-a1d7-f9c1e1568f7a|37=1049033c-281a-4019-a1d7-f9c1e1568f7a|17=4deb4793-3014-4aff-9984-ad4de915c1e8|39=2|150=F|55=INGA.AS|54=2|38=2|32=2|31=18.92052514|151=0|14=2|44=18.92052514|6007=momentum|52=20250521-09:34:45.818|10=018|
2025-05-21 10:34:45,819 [INFO] OUT: 8=FIX.4.4|9=275|35=8|49=EXCHANGE|56=MY_COMPANY|34=101|11=1049033c-281a-4019-a1d7-f9c1e1568f7a|37=1049033c-281a-4019-a1d7-f9c1e1568f7a|17=f19dcd46-b9fa-45c9-b5fe-7a42fe24b936|39=2|150=F|55=INGA.AS|54=2|38=4|32=4|31=18.90162351|151=0|14=4|44=18.90162351|6007=momentum|52=20250521-09:34:45.819|10=170|
2025-05-21 10:34:50,830 [INFO] OUT: 8=FIX.4.4|9=276|35=8|49=EXCHANGE|56=MY_COMPANY|34=24|11=a4e65c83-070e-4174-a59d-8e58e20ee02f|37=a4e65c83-070e-4174-a59d-8e58e20ee02f|17=15258db3-2670-4942-bcf7-2e22b6a5422e|39=2|150=F|55=ASML.AS|54=2|38=4|32=4|31=657.36000000|151=0|14=4|44=657.36000000|6007=momentum|52=20250521-09:34:50.830|10=113|
2025-05-21 10:34:50,833 [INFO] OUT: 8=FIX.4.4|9=275|35=8|49=EXCHANGE|56=MY_COMPANY|34=102|11=ce4b13a1-2afc-4706-93d3-fe1cccfb801b|37=ce4b13a1-2afc-4706-93d3-fe1cccfb801b|17=563cc883-ea34-4fc0-908b-b5819392875a|39=2|150=F|55=INGA.AS|54=2|38=1|32=1|31=18.88266501|151=0|14=1|44=18.88266501|6007=momentum|52=20250521-09:34:50.833|10=019|
2025-05-21 10:34:50,833 [INFO] OUT: 8=FIX.4.4|9=275|35=8|49=EXCHANGE|56=MY_COMPANY|34=103|11=ce4b13a1-2afc-4706-93d3-fe1cccfb801b|37=ce4b13a1-2afc-4706-93d3-fe1cccfb801b|17=0925e26b-4c2f-4bdc-8509-c0fff3cfc23e|39=2|150=F|55=INGA.AS|54=2|38=2|32=2|31=18.88266501|151=0|14=2|44=18.88266501|6007=momentum|52=20250521-09:34:50.833|10=038|
2025-05-21 10:34:55,845 [INFO] OUT: 8=FIX.4.4|9=276|35=8|49=EXCHANGE|56=MY_COMPANY|34=25|11=3a6c5811-04cb-4726-a400-212e62dae5c2|37=3a6c5811-04cb-4726-a400-212e62dae5c2|17=e2dae84f-8910-4044-94af-db7d0c001b45|39=2|150=F|55=ASML.AS|54=1|38=4|32=4|31=657.36000000|151=0|14=4|44=657.36000000|6007=momentum|52=20250521-09:34:55.845|10=101|
2025-05-21 10:34:55,845 [INFO] OUT: 8=FIX.4.4|9=276|35=8|49=EXCHANGE|56=MY_COMPANY|34=26|11=3a6c5811-04cb-4726-a400-212e62dae5c2|37=3a6c5811-04cb-4726-a400-212e62dae5c2|17=bbfa9154-95cf-44a0-b14b-8879210034c0|39=2|150=F|55=ASML.AS|54=1|38=2|32=2|31=656.70000000|151=0|14=2|44=656.70000000|6007=momentum|52=20250521-09:34:55.845|10=249|
2025-05-21 10:34:55,851 [INFO] OUT: 8=FIX.4.4|9=275|35=8|49=EXCHANGE|56=MY_COMPANY|34=104|11=8061abf8-e555-4cef-be7e-e670553a3c15|37=8061abf8-e555-4cef-be7e-e670553a3c15|17=be723fa5-3f4d-4cb8-b5e7-6d3f95e582e3|39=2|150=F|55=INGA.AS|54=1|38=4|32=4|31=19.13084900|151=0|14=4|44=19.13084900|6007=momentum|52=20250521-09:34:55.851|10=017|
2025-05-21 10:35:00,860 [INFO] OUT: 8=FIX.4.4|9=276|35=8|49=EXCHANGE|56=MY_COMPANY|34=27|11=b7f54f90-f405-46d0-bc8b-d8deae5a28e5|37=b7f54f90-f405-46d0-bc8b-d8deae5a28e5|17=d7b3d11d-8dbd-42c8-b302-0034bce5b4f8|39=2|150=F|55=ASML.AS|54=2|38=6|32=6|31=656.70000000|151=0|14=6|44=656.70000000|6007=momentum|52=20250521-09:35:00.860|10=223|
2025-05-21 10:35:00,861 [INFO] HEARBEAT SENT: 8=FIX.4.4|9=62|35=0|49=MY_COMPANY|56=EXCHANGE|34=28|52=20250521-09:35:00.861|10=109|
2025-05-21 10:35:00,867 [INFO] HEARBEAT SENT: 8=FIX.4.4|9=62|35=0|49=MY_COMPANY|56=EXCHANGE|34=55|52=20250521-09:35:00.867|10=115|
2025-05-21 10:35:00,872 [INFO] OUT: 8=FIX.4.4|9=278|35=8|49=EXCHANGE|56=MY_COMPANY|34=105|11=f84ada7d-ff3a-45f9-8b3f-f4e63f3f3c1e|37=f84ada7d-ff3a-45f9-8b3f-f4e63f3f3c1e|17=da9b420e-7375-4139-83c9-8b24eaf7e06e|39=2|150=F|55=INGA.AS|54=1|38=10|32=10|31=19.13084900|151=0|14=10|44=19.13084900|6007=momentum|52=20250521-09:35:00.872|10=153|
2025-05-21 10:35:00,873 [INFO] HEARBEAT SENT: 8=FIX.4.4|9=63|35=0|49=MY_COMPANY|56=EXCHANGE|34=106|52=20250521-09:35:00.873|10=158|
2025-05-21 10:35:00,877 [INFO] HEARBEAT SENT: 8=FIX.4.4|9=62|35=0|49=MY_COMPANY|56=EXCHANGE|34=40|52=20250521-09:35:00.877|10=110|
2025-05-21 10:35:00,878 [INFO] HEARBEAT SENT: 8=FIX.4.4|9=62|35=0|49=MY_COMPANY|56=EXCHANGE|34=34|52=20250521-09:35:00.878|10=114|
2025-05-21 10:35:00,881 [INFO] HEARBEAT SENT: 8=FIX.4.4|9=62|35=0|49=MY_COMPANY|56=EXCHANGE|34=38|52=20250521-09:35:00.881|10=112|
2025-05-21 10:35:05,893 [INFO] OUT: 8=FIX.4.4|9=276|35=8|49=EXCHANGE|56=MY_COMPANY|34=29|11=47fa43f7-231f-425c-8588-dba86e1b096a|37=47fa43f7-231f-425c-8588-dba86e1b096a|17=a1cb22b0-9bc2-4920-be88-c105271e2aeb|39=2|150=F|55=ASML.AS|54=2|38=3|32=3|31=656.04000000|151=0|14=3|44=656.04000000|6007=momentum|52=20250521-09:35:05.893|10=040|
2025-05-21 10:35:05,898 [INFO] OUT: 8=FIX.4.4|9=275|35=8|49=EXCHANGE|56=MY_COMPANY|34=107|11=035c8c12-24de-4e71-8234-5c3df9a7bf94|37=035c8c12-24de-4e71-8234-5c3df9a7bf94|17=0aab631e-0156-4ca9-a526-ca95da28b76c|39=2|150=F|55=INGA.AS|54=1|38=9|32=9|31=19.13084900|151=0|14=9|44=19.13084900|6007=momentum|52=20250521-09:35:05.898|10=026|
2025-05-21 10:35:10,916 [INFO] OUT: 8=FIX.4.4|9=275|35=8|49=EXCHANGE|56=MY_COMPANY|34=108|11=f66f8a7d-27e7-4b2f-bf13-0a14dead77c8|37=f66f8a7d-27e7-4b2f-bf13-0a14dead77c8|17=046bc439-f62b-49f8-9dcc-46b327c570cd|39=2|150=F|55=INGA.AS|54=1|38=6|32=6|31=19.13084900|151=0|14=6|44=19.13084900|6007=momentum|52=20250521-09:35:10.916|10=117|
2025-05-21 10:35:15,936 [INFO] OUT: 8=FIX.4.4|9=275|35=8|49=EXCHANGE|56=MY_COMPANY|34=109|11=711698b1-d3cd-4410-8041-97b55db476a1|37=711698b1-d3cd-4410-8041-97b55db476a1|17=8d2e0200-3ac0-4362-aab1-af8eb9cc70da|39=2|150=F|55=INGA.AS|54=2|38=9|32=9|31=19.11169900|151=0|14=9|44=19.11169900|6007=momentum|52=20250521-09:35:15.936|10=057|
2025-05-21 10:35:20,960 [INFO] OUT: 8=FIX.4.4|9=275|35=8|49=EXCHANGE|56=MY_COMPANY|34=110|11=f0261100-f800-4ce2-acc4-c0c4aedd762e|37=f0261100-f800-4ce2-acc4-c0c4aedd762e|17=79238e5c-9a04-460c-a1f3-4c6111a6045f|39=2|150=F|55=INGA.AS|54=2|38=3|32=3|31=19.11169900|151=0|14=3|44=19.11169900|6007=momentum|52=20250521-09:35:20.960|10=027|
2025-05-21 10:35:20,968 [INFO] OUT: 8=FIX.4.4|9=273|35=8|49=EXCHANGE|56=MY_COMPANY|34=39|11=02079292-4eb7-4aaa-a1d5-41984da1cd07|37=02079292-4eb7-4aaa-a1d5-41984da1cd07|17=d2d7e1bd-30e3-4c6c-944a-2e206f788506|39=2|150=F|55=SAN.PA|54=1|38=2|32=2|31=93.42647600|151=0|14=2|44=93.42647600|6007=momentum|52=20250521-09:35:20.968|10=038|
2025-05-21 10:35:25,975 [INFO] OUT: 8=FIX.4.4|9=275|35=8|49=EXCHANGE|56=MY_COMPANY|34=111|11=cf8f207c-038f-432a-af08-848da3e2465c|37=cf8f207c-038f-432a-af08-848da3e2465c|17=07c290ab-3046-4cff-b806-b33eefc125b7|39=2|150=F|55=INGA.AS|54=1|38=7|32=7|31=19.11169900|151=0|14=7|44=19.11169900|6007=momentum|52=20250521-09:35:25.975|10=110|
2025-05-21 10:35:30,993 [INFO] HEARBEAT SENT: 8=FIX.4.4|9=62|35=0|49=MY_COMPANY|56=EXCHANGE|34=30|52=20250521-09:35:30.993|10=111|
2025-05-21 10:35:30,994 [INFO] HEARBEAT SENT: 8=FIX.4.4|9=62|35=0|49=MY_COMPANY|56=EXCHANGE|34=56|52=20250521-09:35:30.994|10=120|
2025-05-21 10:35:30,995 [INFO] HEARBEAT SENT: 8=FIX.4.4|9=63|35=0|49=MY_COMPANY|56=EXCHANGE|34=112|52=20250521-09:35:30.995|10=163|
2025-05-21 10:35:30,996 [INFO] HEARBEAT SENT: 8=FIX.4.4|9=62|35=0|49=MY_COMPANY|56=EXCHANGE|34=41|52=20250521-09:35:30.996|10=116|
2025-05-21 10:35:30,998 [INFO] OUT: 8=FIX.4.4|9=274|35=8|49=EXCHANGE|56=MY_COMPANY|34=35|11=00239ee7-5364-4033-b032-56ddd30b2aef|37=00239ee7-5364-4033-b032-56ddd30b2aef|17=d4f28477-e155-456b-9c45-b7271991b840|39=2|150=F|55=OR.PA|54=1|38=6|32=6|31=380.66893701|151=0|14=6|44=380.66893701|6007=momentum|52=20250521-09:35:30.998|10=079|
2025-05-21 10:35:30,998 [INFO] HEARBEAT SENT: 8=FIX.4.4|9=62|35=0|49=MY_COMPANY|56=EXCHANGE|34=36|52=20250521-09:35:30.998|10=122|
2025-05-21 10:35:30,999 [INFO] HEARBEAT SENT: 8=FIX.4.4|9=62|35=0|49=MY_COMPANY|56=EXCHANGE|34=40|52=20250521-09:35:30.999|10=118|
2025-05-21 10:35:36,004 [INFO] OUT: 8=FIX.4.4|9=274|35=8|49=EXCHANGE|56=MY_COMPANY|34=57|11=69c885c4-96bf-4db8-8d1a-9937e187f85b|37=69c885c4-96bf-4db8-8d1a-9937e187f85b|17=d56b98d2-d6a3-45ff-a6e3-d63741500790|39=2|150=F|55=PHIA.AS|54=2|38=7|32=7|31=21.30866900|151=0|14=7|44=21.30866900|6007=momentum|52=20250521-09:35:36.004|10=173|
2025-05-21 10:35:36,010 [INFO] OUT: 8=FIX.4.4|9=274|35=8|49=EXCHANGE|56=MY_COMPANY|34=37|11=8ea4ff86-7fe9-48b4-af13-2d13f7957c8d|37=8ea4ff86-7fe9-48b4-af13-2d13f7957c8d|17=bc65e39d-c4c0-42b9-8493-297967652a8e|39=2|150=F|55=OR.PA|54=1|38=8|32=8|31=380.66893701|151=0|14=8|44=380.66893701|6007=momentum|52=20250521-09:35:36.010|10=049|
2025-05-21 10:35:41,031 [INFO] OUT: 8=FIX.4.4|9=274|35=8|49=EXCHANGE|56=MY_COMPANY|34=58|11=d5a323af-59ea-4231-8b26-b45f56aff906|37=d5a323af-59ea-4231-8b26-b45f56aff906|17=8318affd-60d1-479e-a983-2823b68c8b1e|39=2|150=F|55=PHIA.AS|54=1|38=8|32=8|31=21.30866900|151=0|14=8|44=21.30866900|6007=momentum|52=20250521-09:35:41.031|10=240|
2025-05-21 10:35:41,037 [INFO] OUT: 8=FIX.4.4|9=272|35=8|49=EXCHANGE|56=MY_COMPANY|34=42|11=538d77b5-808e-4148-b186-bf54d8361ec5|37=538d77b5-808e-4148-b186-bf54d8361ec5|17=0bcb270d-4f24-473a-b879-d2a84aba5108|39=2|150=F|55=AD.AS|54=1|38=7|32=7|31=37.83212800|151=0|14=7|44=37.83212800|6007=momentum|52=20250521-09:35:41.037|10=099|
2025-05-21 10:35:41,043 [INFO] OUT: 8=FIX.4.4|9=274|35=8|49=EXCHANGE|56=MY_COMPANY|34=38|11=bcf3de99-0a8b-45f8-95d2-0e59f9b5c3fc|37=bcf3de99-0a8b-45f8-95d2-0e59f9b5c3fc|17=d68a0a26-5a6d-4f5b-a564-94f3f951765b|39=2|150=F|55=OR.PA|54=1|38=3|32=3|31=380.66893701|151=0|14=3|44=380.66893701|6007=momentum|52=20250521-09:35:41.043|10=038|
2025-05-21 10:35:41,049 [INFO] OUT: 8=FIX.4.4|9=273|35=8|49=EXCHANGE|56=MY_COMPANY|34=41|11=708cfa6c-af86-45ee-b3fa-acf94b9689f6|37=708cfa6c-af86-45ee-b3fa-acf94b9689f6|17=cf45a82e-7f5c-46d3-9131-a706548b938a|39=2|150=F|55=SAN.PA|54=2|38=7|32=7|31=93.33295601|151=0|14=7|44=93.33295601|6007=momentum|52=20250521-09:35:41.049|10=055|
2025-05-21 10:35:46,062 [INFO] OUT: 8=FIX.4.4|9=274|35=8|49=EXCHANGE|56=MY_COMPANY|34=59|11=9fec53e6-c015-4906-88b2-800c1f78fc21|37=9fec53e6-c015-4906-88b2-800c1f78fc21|17=ab69291b-1f73-4d8c-a033-a6ca5544be50|39=2|150=F|55=PHIA.AS|54=1|38=3|32=3|31=21.30866900|151=0|14=3|44=21.30866900|6007=momentum|52=20250521-09:35:46.062|10=075|
2025-05-21 10:35:46,064 [INFO] OUT: 8=FIX.4.4|9=272|35=8|49=EXCHANGE|56=MY_COMPANY|34=43|11=23f2ac68-9cd2-4437-83d0-c2a407a051e8|37=23f2ac68-9cd2-4437-83d0-c2a407a051e8|17=718b2d68-1d2b-47f6-a832-420b4f18feb9|39=2|150=F|55=AD.AS|54=1|38=4|32=4|31=37.83212800|151=0|14=4|44=37.83212800|6007=momentum|52=20250521-09:35:46.064|10=105|
2025-05-21 10:35:46,066 [INFO] OUT: 8=FIX.4.4|9=274|35=8|49=EXCHANGE|56=MY_COMPANY|34=39|11=4a56fff8-c617-4698-859e-7dd6fab487d3|37=4a56fff8-c617-4698-859e-7dd6fab487d3|17=c5d8b108-f0ae-41b4-8e4f-6ef36bf421e8|39=2|150=F|55=OR.PA|54=1|38=1|32=1|31=380.66893701|151=0|14=1|44=380.66893701|6007=momentum|52=20250521-09:35:46.066|10=182|
2025-05-21 10:35:46,071 [INFO] OUT: 8=FIX.4.4|9=273|35=8|49=EXCHANGE|56=MY_COMPANY|34=42|11=db7e9c4f-2f2b-4d68-9cae-b1d1c8ad113e|37=db7e9c4f-2f2b-4d68-9cae-b1d1c8ad113e|17=4702715e-05f7-440e-83de-45cce687103a|39=2|150=F|55=SAN.PA|54=1|38=7|32=7|31=93.33295601|151=0|14=7|44=93.33295601|6007=momentum|52=20250521-09:35:46.071|10=033|
2025-05-21 10:35:51,096 [INFO] OUT: 8=FIX.4.4|9=274|35=8|49=EXCHANGE|56=MY_COMPANY|34=40|11=ab4c37e8-410e-40be-95b4-8157b564134e|37=ab4c37e8-410e-40be-95b4-8157b564134e|17=da5e945a-7d2f-43e9-8c2e-74cb1671d2b3|39=2|150=F|55=OR.PA|54=1|38=7|32=7|31=380.66893701|151=0|14=7|44=380.66893701|6007=momentum|52=20250521-09:35:51.096|10=122|
2025-05-21 10:35:56,120 [INFO] OUT: 8=FIX.4.4|9=274|35=8|49=EXCHANGE|56=MY_COMPANY|34=41|11=b5a39509-efda-4350-aa5d-6521a7029891|37=b5a39509-efda-4350-aa5d-6521a7029891|17=a55b1992-8b6d-4fdb-95e1-0d9c6bad3290|39=2|150=F|55=OR.PA|54=2|38=8|32=8|31=380.28788703|151=0|14=8|44=380.28788703|6007=momentum|52=20250521-09:35:56.119|10=131|
2025-05-21 10:36:00,985 [INFO] OUT: 8=FIX.4.4|9=142|35=D|49=MY_COMPANY|56=EXCHANGE|34=1|11=momentum-1747820160.985709|55=ASML.AS|54=2|44=659.34000000|38=4|52=20250521-09:36:00.985|6007=momentum|10=255|
2025-05-21 10:36:00,985 [INFO] IN: 8=FIX.4.4|9=142|35=D|49=MY_COMPANY|56=EXCHANGE|34=1|11=momentum-1747820160.985709|55=ASML.AS|54=2|44=659.34000000|38=4|52=20250521-09:36:00.985|6007=momentum|10=255|
2025-05-21 10:36:00,985 [INFO] OUT: 8=FIX.4.4|9=275|35=8|49=EXCHANGE|56=MY_COMPANY|34=2|11=652c43c5-f413-4f9d-9a37-7e25d5d1b4cd|37=652c43c5-f413-4f9d-9a37-7e25d5d1b4cd|17=7bf0d418-9dff-4664-87e5-572b4a79b91d|39=2|150=F|55=ASML.AS|54=2|38=4|32=4|31=659.34000000|151=0|14=4|44=659.34000000|6007=momentum|52=20250521-09:36:00.985|10=041|
2025-05-21 10:36:00,986 [INFO] ===== FIX ENGINE INITIALISED FOR SYMBOL momentum =====
2025-05-21 10:36:00,988 [INFO] OUT: 8=FIX.4.4|9=141|35=D|49=MY_COMPANY|56=EXCHANGE|34=1|11=momentum-1747820160.988445|55=PHIA.AS|54=1|44=21.35132900|38=8|52=20250521-09:36:00.988|6007=momentum|10=200|
2025-05-21 10:36:00,988 [INFO] IN: 8=FIX.4.4|9=141|35=D|49=MY_COMPANY|56=EXCHANGE|34=1|11=momentum-1747820160.988445|55=PHIA.AS|54=1|44=21.35132900|38=8|52=20250521-09:36:00.988|6007=momentum|10=200|
