2025-05-21 10:27:55,400 [INFO] ===== FIX ENGINE INITIALISED =====
2025-05-21 10:27:55,400 [INFO] ===== FIX ENGINE INITIALISED =====
2025-05-21 10:27:55,400 [INFO] ===== FIX ENGINE INITIALISED =====
2025-05-21 10:27:55,400 [INFO] ===== FIX ENGINE INITIALISED =====
2025-05-21 10:27:55,400 [INFO] ===== FIX ENGINE INITIALISED =====
2025-05-21 10:27:55,400 [INFO] ===== FIX ENGINE INITIALISED =====
2025-05-21 10:27:55,400 [INFO] ===== FIX ENGINE INITIALISED =====
2025-05-21 10:27:55,400 [INFO] ===== FIX ENGINE INITIALISED =====
2025-05-21 10:27:55,400 [INFO] ===== FIX ENGINE INITIALISED =====
2025-05-21 10:27:55,400 [INFO] ===== FIX ENGINE INITIALISED =====
2025-05-21 10:27:55,415 [INFO] ===== FIX ENGINE INITIALISED =====
2025-05-21 10:27:55,415 [INFO] ===== FIX ENGINE INITIALISED =====
2025-05-21 10:27:55,415 [INFO] ===== FIX ENGINE INITIALISED =====
2025-05-21 10:27:55,416 [INFO] ===== FIX ENGINE INITIALISED =====
2025-05-21 10:28:41,448 [INFO] ===== FIX ENGINE INITIALISED =====
2025-05-21 10:28:41,448 [INFO] ===== FIX ENGINE INITIALISED =====
2025-05-21 10:28:41,448 [INFO] ===== FIX ENGINE INITIALISED =====
2025-05-21 10:28:41,448 [INFO] ===== FIX ENGINE INITIALISED =====
2025-05-21 10:28:41,448 [INFO] ===== FIX ENGINE INITIALISED =====
2025-05-21 10:28:41,448 [INFO] ===== FIX ENGINE INITIALISED =====
2025-05-21 10:28:41,449 [INFO] ===== FIX ENGINE INITIALISED =====
2025-05-21 10:28:41,449 [INFO] ===== FIX ENGINE INITIALISED =====
2025-05-21 10:28:41,449 [INFO] ===== FIX ENGINE INITIALISED =====
2025-05-21 10:28:41,449 [INFO] ===== FIX ENGINE INITIALISED =====
2025-05-21 10:29:29,051 [INFO] ===== FIX ENGINE INITIALISED =====
2025-05-21 10:29:29,051 [INFO] ===== FIX ENGINE INITIALISED =====
2025-05-21 10:29:29,051 [INFO] ===== FIX ENGINE INITIALISED =====
2025-05-21 10:29:29,051 [INFO] ===== FIX ENGINE INITIALISED =====
2025-05-21 10:29:29,051 [INFO] ===== FIX ENGINE INITIALISED =====
2025-05-21 10:29:29,051 [INFO] ===== FIX ENGINE INITIALISED =====
2025-05-21 10:29:29,052 [INFO] ===== FIX ENGINE INITIALISED =====
2025-05-21 10:29:29,052 [INFO] ===== FIX ENGINE INITIALISED =====
2025-05-21 10:29:29,052 [INFO] ===== FIX ENGINE INITIALISED =====
2025-05-21 10:29:29,052 [INFO] ===== FIX ENGINE INITIALISED =====
2025-05-21 10:29:29,065 [INFO] ===== FIX ENGINE INITIALISED =====
2025-05-21 10:29:29,065 [INFO] ===== FIX ENGINE INITIALISED =====
2025-05-21 10:29:29,066 [INFO] ===== FIX ENGINE INITIALISED =====
2025-05-21 10:29:29,066 [INFO] ===== FIX ENGINE INITIALISED =====
2025-05-21 10:29:29,077 [INFO] ===== FIX ENGINE INITIALISED =====
2025-05-21 10:29:29,077 [INFO] ===== FIX ENGINE INITIALISED =====
2025-05-21 10:29:29,077 [INFO] ===== FIX ENGINE INITIALISED =====
2025-05-21 10:29:29,077 [INFO] ===== FIX ENGINE INITIALISED =====
2025-05-21 10:29:29,085 [INFO] ===== FIX ENGINE INITIALISED =====
2025-05-21 10:29:29,085 [INFO] ===== FIX ENGINE INITIALISED =====
2025-05-21 10:29:29,085 [INFO] ===== FIX ENGINE INITIALISED =====
2025-05-21 10:29:29,086 [INFO] ===== FIX ENGINE INITIALISED =====
2025-05-21 10:29:29,090 [INFO] ===== FIX ENGINE INITIALISED =====
2025-05-21 10:29:29,090 [INFO] ===== FIX ENGINE INITIALISED =====
2025-05-21 10:29:29,090 [INFO] ===== FIX ENGINE INITIALISED =====
2025-05-21 10:29:29,090 [INFO] ===== FIX ENGINE INITIALISED =====
2025-05-21 10:29:29,093 [INFO] ===== FIX ENGINE INITIALISED =====
2025-05-21 10:29:29,093 [INFO] ===== FIX ENGINE INITIALISED =====
2025-05-21 10:29:29,093 [INFO] ===== FIX ENGINE INITIALISED =====
2025-05-21 10:29:29,093 [INFO] ===== FIX ENGINE INITIALISED =====
2025-05-21 10:29:59,343 [INFO] HEARBEAT SENT: 8=FIX.4.4|9=61|35=0|49=MY_COMPANY|56=EXCHANGE|34=7|52=20250521-09:29:59.343|10=069|
2025-05-21 10:29:59,344 [INFO] HEARBEAT SENT: 8=FIX.4.4|9=61|35=0|49=MY_COMPANY|56=EXCHANGE|34=7|52=20250521-09:29:59.344|10=070|
2025-05-21 10:29:59,345 [INFO] HEARBEAT SENT: 8=FIX.4.4|9=61|35=0|49=MY_COMPANY|56=EXCHANGE|34=7|52=20250521-09:29:59.345|10=071|
2025-05-21 10:29:59,346 [INFO] HEARBEAT SENT: 8=FIX.4.4|9=61|35=0|49=MY_COMPANY|56=EXCHANGE|34=5|52=20250521-09:29:59.346|10=070|
2025-05-21 10:29:59,358 [INFO] HEARBEAT SENT: 8=FIX.4.4|9=62|35=0|49=MY_COMPANY|56=EXCHANGE|34=24|52=20250521-09:29:59.358|10=123|
2025-05-21 10:29:59,359 [INFO] HEARBEAT SENT: 8=FIX.4.4|9=62|35=0|49=MY_COMPANY|56=EXCHANGE|34=37|52=20250521-09:29:59.359|10=128|
2025-05-21 10:29:59,360 [INFO] HEARBEAT SENT: 8=FIX.4.4|9=62|35=0|49=MY_COMPANY|56=EXCHANGE|34=35|52=20250521-09:29:59.360|10=118|
2025-05-21 10:29:59,361 [INFO] HEARBEAT SENT: 8=FIX.4.4|9=62|35=0|49=MY_COMPANY|56=EXCHANGE|34=20|52=20250521-09:29:59.361|10=113|
2025-05-21 10:29:59,374 [INFO] HEARBEAT SENT: 8=FIX.4.4|9=62|35=0|49=MY_COMPANY|56=EXCHANGE|34=25|52=20250521-09:29:59.374|10=122|
2025-05-21 10:29:59,374 [INFO] HEARBEAT SENT: 8=FIX.4.4|9=62|35=0|49=MY_COMPANY|56=EXCHANGE|34=36|52=20250521-09:29:59.374|10=124|
2025-05-21 10:29:59,374 [INFO] HEARBEAT SENT: 8=FIX.4.4|9=62|35=0|49=MY_COMPANY|56=EXCHANGE|34=37|52=20250521-09:29:59.374|10=125|
2025-05-21 10:29:59,374 [INFO] HEARBEAT SENT: 8=FIX.4.4|9=62|35=0|49=MY_COMPANY|56=EXCHANGE|34=21|52=20250521-09:29:59.374|10=118|
2025-05-21 10:29:59,378 [INFO] HEARBEAT SENT: 8=FIX.4.4|9=62|35=0|49=MY_COMPANY|56=EXCHANGE|34=14|52=20250521-09:29:59.378|10=124|
2025-05-21 10:29:59,378 [INFO] HEARBEAT SENT: 8=FIX.4.4|9=62|35=0|49=MY_COMPANY|56=EXCHANGE|34=39|52=20250521-09:29:59.378|10=131|
2025-05-21 10:29:59,378 [INFO] HEARBEAT SENT: 8=FIX.4.4|9=62|35=0|49=MY_COMPANY|56=EXCHANGE|34=38|52=20250521-09:29:59.378|10=130|
2025-05-21 10:29:59,378 [INFO] HEARBEAT SENT: 8=FIX.4.4|9=62|35=0|49=MY_COMPANY|56=EXCHANGE|34=17|52=20250521-09:29:59.378|10=127|
2025-05-21 10:29:59,379 [INFO] HEARBEAT SENT: 8=FIX.4.4|9=61|35=0|49=MY_COMPANY|56=EXCHANGE|34=6|52=20250521-09:29:59.379|10=077|
2025-05-21 10:29:59,379 [INFO] HEARBEAT SENT: 8=FIX.4.4|9=61|35=0|49=MY_COMPANY|56=EXCHANGE|34=7|52=20250521-09:29:59.379|10=078|
2025-05-21 10:29:59,379 [INFO] HEARBEAT SENT: 8=FIX.4.4|9=61|35=0|49=MY_COMPANY|56=EXCHANGE|34=8|52=20250521-09:29:59.379|10=079|
2025-05-21 10:29:59,379 [INFO] HEARBEAT SENT: 8=FIX.4.4|9=62|35=0|49=MY_COMPANY|56=EXCHANGE|34=12|52=20250521-09:29:59.379|10=123|
2025-05-21 10:29:59,381 [INFO] HEARBEAT SENT: 8=FIX.4.4|9=62|35=0|49=MY_COMPANY|56=EXCHANGE|34=13|52=20250521-09:29:59.381|10=117|
2025-05-21 10:29:59,381 [INFO] HEARBEAT SENT: 8=FIX.4.4|9=62|35=0|49=MY_COMPANY|56=EXCHANGE|34=18|52=20250521-09:29:59.381|10=122|
2025-05-21 10:29:59,381 [INFO] HEARBEAT SENT: 8=FIX.4.4|9=62|35=0|49=MY_COMPANY|56=EXCHANGE|34=40|52=20250521-09:29:59.381|10=117|
2025-05-21 10:29:59,381 [INFO] HEARBEAT SENT: 8=FIX.4.4|9=62|35=0|49=MY_COMPANY|56=EXCHANGE|34=18|52=20250521-09:29:59.381|10=122|
2025-05-21 10:30:29,552 [INFO] HEARBEAT SENT: 8=FIX.4.4|9=61|35=0|49=MY_COMPANY|56=EXCHANGE|34=8|52=20250521-09:30:29.552|10=061|
2025-05-21 10:30:29,552 [INFO] HEARBEAT SENT: 8=FIX.4.4|9=61|35=0|49=MY_COMPANY|56=EXCHANGE|34=8|52=20250521-09:30:29.552|10=061|
2025-05-21 10:30:29,553 [INFO] HEARBEAT SENT: 8=FIX.4.4|9=61|35=0|49=MY_COMPANY|56=EXCHANGE|34=8|52=20250521-09:30:29.553|10=062|
2025-05-21 10:30:29,553 [INFO] HEARBEAT SENT: 8=FIX.4.4|9=61|35=0|49=MY_COMPANY|56=EXCHANGE|34=6|52=20250521-09:30:29.553|10=060|
2025-05-21 10:30:29,560 [INFO] HEARBEAT SENT: 8=FIX.4.4|9=62|35=0|49=MY_COMPANY|56=EXCHANGE|34=34|52=20250521-09:30:29.560|10=108|
2025-05-21 10:30:29,560 [INFO] HEARBEAT SENT: 8=FIX.4.4|9=62|35=0|49=MY_COMPANY|56=EXCHANGE|34=70|52=20250521-09:30:29.560|10=108|
2025-05-21 10:30:29,560 [INFO] HEARBEAT SENT: 8=FIX.4.4|9=62|35=0|49=MY_COMPANY|56=EXCHANGE|34=59|52=20250521-09:30:29.560|10=115|
2025-05-21 10:30:29,560 [INFO] HEARBEAT SENT: 8=FIX.4.4|9=62|35=0|49=MY_COMPANY|56=EXCHANGE|34=21|52=20250521-09:30:29.560|10=104|
2025-05-21 10:30:29,562 [INFO] HEARBEAT SENT: 8=FIX.4.4|9=62|35=0|49=MY_COMPANY|56=EXCHANGE|34=47|52=20250521-09:30:29.562|10=114|
2025-05-21 10:30:29,562 [INFO] HEARBEAT SENT: 8=FIX.4.4|9=62|35=0|49=MY_COMPANY|56=EXCHANGE|34=62|52=20250521-09:30:29.562|10=111|
2025-05-21 10:30:29,562 [INFO] HEARBEAT SENT: 8=FIX.4.4|9=62|35=0|49=MY_COMPANY|56=EXCHANGE|34=61|52=20250521-09:30:29.562|10=110|
2025-05-21 10:30:29,562 [INFO] HEARBEAT SENT: 8=FIX.4.4|9=62|35=0|49=MY_COMPANY|56=EXCHANGE|34=25|52=20250521-09:30:29.562|10=110|
2025-05-21 10:30:29,563 [INFO] HEARBEAT SENT: 8=FIX.4.4|9=62|35=0|49=MY_COMPANY|56=EXCHANGE|34=15|52=20250521-09:30:29.563|10=110|
2025-05-21 10:30:29,563 [INFO] HEARBEAT SENT: 8=FIX.4.4|9=62|35=0|49=MY_COMPANY|56=EXCHANGE|34=52|52=20250521-09:30:29.563|10=111|
2025-05-21 10:30:29,563 [INFO] HEARBEAT SENT: 8=FIX.4.4|9=62|35=0|49=MY_COMPANY|56=EXCHANGE|34=45|52=20250521-09:30:29.563|10=113|
2025-05-21 10:30:29,563 [INFO] HEARBEAT SENT: 8=FIX.4.4|9=62|35=0|49=MY_COMPANY|56=EXCHANGE|34=18|52=20250521-09:30:29.563|10=113|
2025-05-21 10:30:29,564 [INFO] HEARBEAT SENT: 8=FIX.4.4|9=61|35=0|49=MY_COMPANY|56=EXCHANGE|34=7|52=20250521-09:30:29.564|10=063|
2025-05-21 10:30:29,564 [INFO] HEARBEAT SENT: 8=FIX.4.4|9=61|35=0|49=MY_COMPANY|56=EXCHANGE|34=8|52=20250521-09:30:29.564|10=064|
2025-05-21 10:30:29,564 [INFO] HEARBEAT SENT: 8=FIX.4.4|9=61|35=0|49=MY_COMPANY|56=EXCHANGE|34=9|52=20250521-09:30:29.564|10=065|
2025-05-21 10:30:29,564 [INFO] HEARBEAT SENT: 8=FIX.4.4|9=62|35=0|49=MY_COMPANY|56=EXCHANGE|34=13|52=20250521-09:30:29.564|10=109|
2025-05-21 10:30:29,566 [INFO] HEARBEAT SENT: 8=FIX.4.4|9=62|35=0|49=MY_COMPANY|56=EXCHANGE|34=14|52=20250521-09:30:29.566|10=112|
2025-05-21 10:30:29,566 [INFO] HEARBEAT SENT: 8=FIX.4.4|9=62|35=0|49=MY_COMPANY|56=EXCHANGE|34=19|52=20250521-09:30:29.566|10=117|
2025-05-21 10:30:29,566 [INFO] HEARBEAT SENT: 8=FIX.4.4|9=62|35=0|49=MY_COMPANY|56=EXCHANGE|34=61|52=20250521-09:30:29.566|10=114|
2025-05-21 10:30:29,566 [INFO] HEARBEAT SENT: 8=FIX.4.4|9=62|35=0|49=MY_COMPANY|56=EXCHANGE|34=19|52=20250521-09:30:29.566|10=117|
2025-05-21 10:30:59,688 [INFO] HEARBEAT SENT: 8=FIX.4.4|9=62|35=0|49=MY_COMPANY|56=EXCHANGE|34=21|52=20250521-09:30:59.688|10=118|
2025-05-21 10:30:59,689 [INFO] HEARBEAT SENT: 8=FIX.4.4|9=62|35=0|49=MY_COMPANY|56=EXCHANGE|34=23|52=20250521-09:30:59.688|10=120|
2025-05-21 10:30:59,689 [INFO] HEARBEAT SENT: 8=FIX.4.4|9=62|35=0|49=MY_COMPANY|56=EXCHANGE|34=15|52=20250521-09:30:59.689|10=122|
2025-05-21 10:30:59,689 [INFO] HEARBEAT SENT: 8=FIX.4.4|9=62|35=0|49=MY_COMPANY|56=EXCHANGE|34=10|52=20250521-09:30:59.689|10=117|
2025-05-21 10:30:59,691 [INFO] HEARBEAT SENT: 8=FIX.4.4|9=62|35=0|49=MY_COMPANY|56=EXCHANGE|34=35|52=20250521-09:30:59.691|10=117|
2025-05-21 10:30:59,691 [INFO] HEARBEAT SENT: 8=FIX.4.4|9=62|35=0|49=MY_COMPANY|56=EXCHANGE|34=83|52=20250521-09:30:59.691|10=120|
2025-05-21 10:30:59,691 [INFO] HEARBEAT SENT: 8=FIX.4.4|9=62|35=0|49=MY_COMPANY|56=EXCHANGE|34=60|52=20250521-09:30:59.691|10=115|
2025-05-21 10:30:59,691 [INFO] HEARBEAT SENT: 8=FIX.4.4|9=62|35=0|49=MY_COMPANY|56=EXCHANGE|34=23|52=20250521-09:30:59.691|10=114|
2025-05-21 10:30:59,693 [INFO] HEARBEAT SENT: 8=FIX.4.4|9=62|35=0|49=MY_COMPANY|56=EXCHANGE|34=69|52=20250521-09:30:59.693|10=126|
2025-05-21 10:30:59,693 [INFO] HEARBEAT SENT: 8=FIX.4.4|9=62|35=0|49=MY_COMPANY|56=EXCHANGE|34=63|52=20250521-09:30:59.693|10=120|
2025-05-21 10:30:59,693 [INFO] HEARBEAT SENT: 8=FIX.4.4|9=62|35=0|49=MY_COMPANY|56=EXCHANGE|34=62|52=20250521-09:30:59.693|10=119|
2025-05-21 10:30:59,693 [INFO] HEARBEAT SENT: 8=FIX.4.4|9=62|35=0|49=MY_COMPANY|56=EXCHANGE|34=26|52=20250521-09:30:59.693|10=119|
2025-05-21 10:30:59,694 [INFO] HEARBEAT SENT: 8=FIX.4.4|9=62|35=0|49=MY_COMPANY|56=EXCHANGE|34=26|52=20250521-09:30:59.694|10=120|
2025-05-21 10:30:59,694 [INFO] HEARBEAT SENT: 8=FIX.4.4|9=62|35=0|49=MY_COMPANY|56=EXCHANGE|34=53|52=20250521-09:30:59.694|10=120|
2025-05-21 10:30:59,694 [INFO] HEARBEAT SENT: 8=FIX.4.4|9=62|35=0|49=MY_COMPANY|56=EXCHANGE|34=52|52=20250521-09:30:59.694|10=119|
2025-05-21 10:30:59,694 [INFO] HEARBEAT SENT: 8=FIX.4.4|9=62|35=0|49=MY_COMPANY|56=EXCHANGE|34=21|52=20250521-09:30:59.694|10=115|
2025-05-21 10:30:59,696 [INFO] HEARBEAT SENT: 8=FIX.4.4|9=62|35=0|49=MY_COMPANY|56=EXCHANGE|34=15|52=20250521-09:30:59.696|10=120|
2025-05-21 10:30:59,696 [INFO] HEARBEAT SENT: 8=FIX.4.4|9=62|35=0|49=MY_COMPANY|56=EXCHANGE|34=11|52=20250521-09:30:59.696|10=116|
2025-05-21 10:30:59,696 [INFO] HEARBEAT SENT: 8=FIX.4.4|9=62|35=0|49=MY_COMPANY|56=EXCHANGE|34=20|52=20250521-09:30:59.696|10=116|
2025-05-21 10:30:59,696 [INFO] HEARBEAT SENT: 8=FIX.4.4|9=62|35=0|49=MY_COMPANY|56=EXCHANGE|34=17|52=20250521-09:30:59.696|10=122|
2025-05-21 10:30:59,698 [INFO] HEARBEAT SENT: 8=FIX.4.4|9=62|35=0|49=MY_COMPANY|56=EXCHANGE|34=21|52=20250521-09:30:59.698|10=119|
2025-05-21 10:30:59,698 [INFO] HEARBEAT SENT: 8=FIX.4.4|9=62|35=0|49=MY_COMPANY|56=EXCHANGE|34=30|52=20250521-09:30:59.698|10=119|
2025-05-21 10:30:59,698 [INFO] HEARBEAT SENT: 8=FIX.4.4|9=62|35=0|49=MY_COMPANY|56=EXCHANGE|34=94|52=20250521-09:30:59.698|10=129|
2025-05-21 10:30:59,698 [INFO] HEARBEAT SENT: 8=FIX.4.4|9=62|35=0|49=MY_COMPANY|56=EXCHANGE|34=23|52=20250521-09:30:59.698|10=121|
2025-05-21 10:31:29,856 [INFO] HEARBEAT SENT: 8=FIX.4.4|9=62|35=0|49=MY_COMPANY|56=EXCHANGE|34=35|52=20250521-09:31:29.856|10=118|
2025-05-21 10:31:29,856 [INFO] HEARBEAT SENT: 8=FIX.4.4|9=62|35=0|49=MY_COMPANY|56=EXCHANGE|34=24|52=20250521-09:31:29.856|10=116|
2025-05-21 10:31:29,857 [INFO] HEARBEAT SENT: 8=FIX.4.4|9=62|35=0|49=MY_COMPANY|56=EXCHANGE|34=16|52=20250521-09:31:29.857|10=118|
2025-05-21 10:31:29,857 [INFO] HEARBEAT SENT: 8=FIX.4.4|9=62|35=0|49=MY_COMPANY|56=EXCHANGE|34=11|52=20250521-09:31:29.857|10=113|
2025-05-21 10:31:29,866 [INFO] HEARBEAT SENT: 8=FIX.4.4|9=62|35=0|49=MY_COMPANY|56=EXCHANGE|34=41|52=20250521-09:31:29.866|10=116|
2025-05-21 10:31:29,867 [INFO] HEARBEAT SENT: 8=FIX.4.4|9=62|35=0|49=MY_COMPANY|56=EXCHANGE|34=84|52=20250521-09:31:29.867|10=124|
2025-05-21 10:31:29,867 [INFO] HEARBEAT SENT: 8=FIX.4.4|9=62|35=0|49=MY_COMPANY|56=EXCHANGE|34=65|52=20250521-09:31:29.867|10=123|
2025-05-21 10:31:29,867 [INFO] HEARBEAT SENT: 8=FIX.4.4|9=62|35=0|49=MY_COMPANY|56=EXCHANGE|34=32|52=20250521-09:31:29.867|10=117|
2025-05-21 10:31:29,878 [INFO] HEARBEAT SENT: 8=FIX.4.4|9=63|35=0|49=MY_COMPANY|56=EXCHANGE|34=111|52=20250521-09:31:29.878|10=166|
2025-05-21 10:31:29,878 [INFO] HEARBEAT SENT: 8=FIX.4.4|9=62|35=0|49=MY_COMPANY|56=EXCHANGE|34=70|52=20250521-09:31:29.878|10=121|
2025-05-21 10:31:29,878 [INFO] HEARBEAT SENT: 8=FIX.4.4|9=62|35=0|49=MY_COMPANY|56=EXCHANGE|34=68|52=20250521-09:31:29.878|10=128|
2025-05-21 10:31:29,878 [INFO] HEARBEAT SENT: 8=FIX.4.4|9=62|35=0|49=MY_COMPANY|56=EXCHANGE|34=39|52=20250521-09:31:29.878|10=126|
2025-05-21 10:31:29,881 [INFO] HEARBEAT SENT: 8=FIX.4.4|9=62|35=0|49=MY_COMPANY|56=EXCHANGE|34=27|52=20250521-09:31:29.881|10=117|
2025-05-21 10:31:29,881 [INFO] HEARBEAT SENT: 8=FIX.4.4|9=62|35=0|49=MY_COMPANY|56=EXCHANGE|34=58|52=20250521-09:31:29.881|10=121|
2025-05-21 10:31:29,882 [INFO] HEARBEAT SENT: 8=FIX.4.4|9=62|35=0|49=MY_COMPANY|56=EXCHANGE|34=66|52=20250521-09:31:29.882|10=121|
2025-05-21 10:31:29,882 [INFO] HEARBEAT SENT: 8=FIX.4.4|9=62|35=0|49=MY_COMPANY|56=EXCHANGE|34=22|52=20250521-09:31:29.882|10=113|
2025-05-21 10:31:29,885 [INFO] HEARBEAT SENT: 8=FIX.4.4|9=62|35=0|49=MY_COMPANY|56=EXCHANGE|34=16|52=20250521-09:31:29.885|10=119|
2025-05-21 10:31:29,885 [INFO] HEARBEAT SENT: 8=FIX.4.4|9=62|35=0|49=MY_COMPANY|56=EXCHANGE|34=12|52=20250521-09:31:29.885|10=115|
2025-05-21 10:31:29,885 [INFO] HEARBEAT SENT: 8=FIX.4.4|9=62|35=0|49=MY_COMPANY|56=EXCHANGE|34=21|52=20250521-09:31:29.885|10=115|
2025-05-21 10:31:29,886 [INFO] HEARBEAT SENT: 8=FIX.4.4|9=62|35=0|49=MY_COMPANY|56=EXCHANGE|34=24|52=20250521-09:31:29.885|10=118|
2025-05-21 10:31:29,890 [INFO] HEARBEAT SENT: 8=FIX.4.4|9=62|35=0|49=MY_COMPANY|56=EXCHANGE|34=22|52=20250521-09:31:29.890|10=112|
2025-05-21 10:31:29,890 [INFO] HEARBEAT SENT: 8=FIX.4.4|9=62|35=0|49=MY_COMPANY|56=EXCHANGE|34=31|52=20250521-09:31:29.890|10=112|
2025-05-21 10:31:29,891 [INFO] HEARBEAT SENT: 8=FIX.4.4|9=63|35=0|49=MY_COMPANY|56=EXCHANGE|34=108|52=20250521-09:31:29.891|10=167|
2025-05-21 10:31:29,891 [INFO] HEARBEAT SENT: 8=FIX.4.4|9=62|35=0|49=MY_COMPANY|56=EXCHANGE|34=26|52=20250521-09:31:29.891|10=117|
2025-05-21 10:32:00,075 [INFO] HEARBEAT SENT: 8=FIX.4.4|9=62|35=0|49=MY_COMPANY|56=EXCHANGE|34=49|52=20250521-09:32:00.075|10=106|
2025-05-21 10:32:00,077 [INFO] HEARBEAT SENT: 8=FIX.4.4|9=62|35=0|49=MY_COMPANY|56=EXCHANGE|34=27|52=20250521-09:32:00.076|10=103|
2025-05-21 10:32:00,077 [INFO] HEARBEAT SENT: 8=FIX.4.4|9=62|35=0|49=MY_COMPANY|56=EXCHANGE|34=25|52=20250521-09:32:00.077|10=102|
2025-05-21 10:32:00,077 [INFO] HEARBEAT SENT: 8=FIX.4.4|9=62|35=0|49=MY_COMPANY|56=EXCHANGE|34=13|52=20250521-09:32:00.077|10=099|
2025-05-21 10:32:00,079 [INFO] HEARBEAT SENT: 8=FIX.4.4|9=62|35=0|49=MY_COMPANY|56=EXCHANGE|34=42|52=20250521-09:32:00.079|10=103|
2025-05-21 10:32:00,079 [INFO] HEARBEAT SENT: 8=FIX.4.4|9=62|35=0|49=MY_COMPANY|56=EXCHANGE|34=89|52=20250521-09:32:00.079|10=114|
2025-05-21 10:32:00,079 [INFO] HEARBEAT SENT: 8=FIX.4.4|9=62|35=0|49=MY_COMPANY|56=EXCHANGE|34=66|52=20250521-09:32:00.079|10=109|
2025-05-21 10:32:00,080 [INFO] HEARBEAT SENT: 8=FIX.4.4|9=62|35=0|49=MY_COMPANY|56=EXCHANGE|34=35|52=20250521-09:32:00.080|10=097|
2025-05-21 10:32:00,087 [INFO] HEARBEAT SENT: 8=FIX.4.4|9=63|35=0|49=MY_COMPANY|56=EXCHANGE|34=128|52=20250521-09:32:00.086|10=155|
2025-05-21 10:32:00,087 [INFO] HEARBEAT SENT: 8=FIX.4.4|9=62|35=0|49=MY_COMPANY|56=EXCHANGE|34=94|52=20250521-09:32:00.087|10=109|
2025-05-21 10:32:00,087 [INFO] HEARBEAT SENT: 8=FIX.4.4|9=62|35=0|49=MY_COMPANY|56=EXCHANGE|34=77|52=20250521-09:32:00.087|10=110|
2025-05-21 10:32:00,087 [INFO] HEARBEAT SENT: 8=FIX.4.4|9=62|35=0|49=MY_COMPANY|56=EXCHANGE|34=53|52=20250521-09:32:00.087|10=104|
2025-05-21 10:32:00,092 [INFO] HEARBEAT SENT: 8=FIX.4.4|9=62|35=0|49=MY_COMPANY|56=EXCHANGE|34=30|52=20250521-09:32:00.091|10=094|
2025-05-21 10:32:00,092 [INFO] HEARBEAT SENT: 8=FIX.4.4|9=62|35=0|49=MY_COMPANY|56=EXCHANGE|34=59|52=20250521-09:32:00.092|10=106|
2025-05-21 10:32:00,092 [INFO] HEARBEAT SENT: 8=FIX.4.4|9=62|35=0|49=MY_COMPANY|56=EXCHANGE|34=80|52=20250521-09:32:00.092|10=100|
2025-05-21 10:32:00,092 [INFO] HEARBEAT SENT: 8=FIX.4.4|9=62|35=0|49=MY_COMPANY|56=EXCHANGE|34=24|52=20250521-09:32:00.092|10=098|
2025-05-21 10:32:00,093 [INFO] HEARBEAT SENT: 8=FIX.4.4|9=62|35=0|49=MY_COMPANY|56=EXCHANGE|34=19|52=20250521-09:32:00.093|10=103|
2025-05-21 10:32:00,093 [INFO] HEARBEAT SENT: 8=FIX.4.4|9=62|35=0|49=MY_COMPANY|56=EXCHANGE|34=15|52=20250521-09:32:00.093|10=099|
2025-05-21 10:32:00,093 [INFO] HEARBEAT SENT: 8=FIX.4.4|9=62|35=0|49=MY_COMPANY|56=EXCHANGE|34=24|52=20250521-09:32:00.093|10=099|
2025-05-21 10:32:00,094 [INFO] HEARBEAT SENT: 8=FIX.4.4|9=62|35=0|49=MY_COMPANY|56=EXCHANGE|34=25|52=20250521-09:32:00.093|10=100|
2025-05-21 10:32:00,097 [INFO] HEARBEAT SENT: 8=FIX.4.4|9=62|35=0|49=MY_COMPANY|56=EXCHANGE|34=25|52=20250521-09:32:00.097|10=104|
2025-05-21 10:32:00,098 [INFO] HEARBEAT SENT: 8=FIX.4.4|9=62|35=0|49=MY_COMPANY|56=EXCHANGE|34=40|52=20250521-09:32:00.098|10=102|
2025-05-21 10:32:00,098 [INFO] HEARBEAT SENT: 8=FIX.4.4|9=63|35=0|49=MY_COMPANY|56=EXCHANGE|34=122|52=20250521-09:32:00.098|10=152|
2025-05-21 10:32:00,098 [INFO] HEARBEAT SENT: 8=FIX.4.4|9=62|35=0|49=MY_COMPANY|56=EXCHANGE|34=27|52=20250521-09:32:00.098|10=107|
2025-05-21 10:32:30,226 [INFO] HEARBEAT SENT: 8=FIX.4.4|9=62|35=0|49=MY_COMPANY|56=EXCHANGE|34=64|52=20250521-09:32:30.226|10=104|
2025-05-21 10:32:30,227 [INFO] HEARBEAT SENT: 8=FIX.4.4|9=62|35=0|49=MY_COMPANY|56=EXCHANGE|34=28|52=20250521-09:32:30.227|10=105|
2025-05-21 10:32:30,227 [INFO] HEARBEAT SENT: 8=FIX.4.4|9=62|35=0|49=MY_COMPANY|56=EXCHANGE|34=26|52=20250521-09:32:30.227|10=103|
2025-05-21 10:32:30,228 [INFO] HEARBEAT SENT: 8=FIX.4.4|9=62|35=0|49=MY_COMPANY|56=EXCHANGE|34=14|52=20250521-09:32:30.228|10=101|
2025-05-21 10:32:30,231 [INFO] HEARBEAT SENT: 8=FIX.4.4|9=62|35=0|49=MY_COMPANY|56=EXCHANGE|34=47|52=20250521-09:32:30.231|10=101|
2025-05-21 10:32:30,231 [INFO] HEARBEAT SENT: 8=FIX.4.4|9=62|35=0|49=MY_COMPANY|56=EXCHANGE|34=90|52=20250521-09:32:30.231|10=099|
2025-05-21 10:32:30,231 [INFO] HEARBEAT SENT: 8=FIX.4.4|9=62|35=0|49=MY_COMPANY|56=EXCHANGE|34=69|52=20250521-09:32:30.231|10=105|
2025-05-21 10:32:30,231 [INFO] HEARBEAT SENT: 8=FIX.4.4|9=62|35=0|49=MY_COMPANY|56=EXCHANGE|34=36|52=20250521-09:32:30.231|10=099|
2025-05-21 10:32:30,235 [INFO] HEARBEAT SENT: 8=FIX.4.4|9=63|35=0|49=MY_COMPANY|56=EXCHANGE|34=149|52=20250521-09:32:30.235|10=157|
2025-05-21 10:32:30,235 [INFO] HEARBEAT SENT: 8=FIX.4.4|9=63|35=0|49=MY_COMPANY|56=EXCHANGE|34=121|52=20250521-09:32:30.235|10=147|
2025-05-21 10:32:30,236 [INFO] HEARBEAT SENT: 8=FIX.4.4|9=62|35=0|49=MY_COMPANY|56=EXCHANGE|34=78|52=20250521-09:32:30.236|10=110|
2025-05-21 10:32:30,236 [INFO] HEARBEAT SENT: 8=FIX.4.4|9=62|35=0|49=MY_COMPANY|56=EXCHANGE|34=54|52=20250521-09:32:30.236|10=104|
2025-05-21 10:32:30,238 [INFO] HEARBEAT SENT: 8=FIX.4.4|9=62|35=0|49=MY_COMPANY|56=EXCHANGE|34=31|52=20250521-09:32:30.238|10=101|
2025-05-21 10:32:30,238 [INFO] HEARBEAT SENT: 8=FIX.4.4|9=62|35=0|49=MY_COMPANY|56=EXCHANGE|34=65|52=20250521-09:32:30.238|10=108|
2025-05-21 10:32:30,239 [INFO] HEARBEAT SENT: 8=FIX.4.4|9=62|35=0|49=MY_COMPANY|56=EXCHANGE|34=94|52=20250521-09:32:30.239|10=111|
2025-05-21 10:32:30,239 [INFO] HEARBEAT SENT: 8=FIX.4.4|9=62|35=0|49=MY_COMPANY|56=EXCHANGE|34=29|52=20250521-09:32:30.239|10=109|
2025-05-21 10:32:30,241 [INFO] HEARBEAT SENT: 8=FIX.4.4|9=62|35=0|49=MY_COMPANY|56=EXCHANGE|34=20|52=20250521-09:32:30.241|10=093|
2025-05-21 10:32:30,241 [INFO] HEARBEAT SENT: 8=FIX.4.4|9=62|35=0|49=MY_COMPANY|56=EXCHANGE|34=16|52=20250521-09:32:30.241|10=098|
2025-05-21 10:32:30,241 [INFO] HEARBEAT SENT: 8=FIX.4.4|9=62|35=0|49=MY_COMPANY|56=EXCHANGE|34=25|52=20250521-09:32:30.241|10=098|
2025-05-21 10:32:30,241 [INFO] HEARBEAT SENT: 8=FIX.4.4|9=62|35=0|49=MY_COMPANY|56=EXCHANGE|34=27|52=20250521-09:32:30.241|10=100|
2025-05-21 10:32:30,244 [INFO] HEARBEAT SENT: 8=FIX.4.4|9=62|35=0|49=MY_COMPANY|56=EXCHANGE|34=26|52=20250521-09:32:30.244|10=102|
2025-05-21 10:32:30,244 [INFO] HEARBEAT SENT: 8=FIX.4.4|9=62|35=0|49=MY_COMPANY|56=EXCHANGE|34=41|52=20250521-09:32:30.244|10=099|
2025-05-21 10:32:30,245 [INFO] HEARBEAT SENT: 8=FIX.4.4|9=63|35=0|49=MY_COMPANY|56=EXCHANGE|34=137|52=20250521-09:32:30.245|10=155|
2025-05-21 10:32:30,245 [INFO] HEARBEAT SENT: 8=FIX.4.4|9=62|35=0|49=MY_COMPANY|56=EXCHANGE|34=30|52=20250521-09:32:30.245|10=098|
2025-05-21 10:33:00,419 [INFO] HEARBEAT SENT: 8=FIX.4.4|9=62|35=0|49=MY_COMPANY|56=EXCHANGE|34=78|52=20250521-09:33:00.419|10=111|
2025-05-21 10:33:00,420 [INFO] HEARBEAT SENT: 8=FIX.4.4|9=62|35=0|49=MY_COMPANY|56=EXCHANGE|34=32|52=20250521-09:33:00.420|10=093|
2025-05-21 10:33:00,420 [INFO] HEARBEAT SENT: 8=FIX.4.4|9=62|35=0|49=MY_COMPANY|56=EXCHANGE|34=29|52=20250521-09:33:00.420|10=099|
2025-05-21 10:33:00,420 [INFO] HEARBEAT SENT: 8=FIX.4.4|9=62|35=0|49=MY_COMPANY|56=EXCHANGE|34=16|52=20250521-09:33:00.420|10=095|
2025-05-21 10:33:00,422 [INFO] HEARBEAT SENT: 8=FIX.4.4|9=62|35=0|49=MY_COMPANY|56=EXCHANGE|34=48|52=20250521-09:33:00.422|10=102|
2025-05-21 10:33:00,422 [INFO] HEARBEAT SENT: 8=FIX.4.4|9=62|35=0|49=MY_COMPANY|56=EXCHANGE|34=96|52=20250521-09:33:00.422|10=105|
2025-05-21 10:33:00,422 [INFO] HEARBEAT SENT: 8=FIX.4.4|9=62|35=0|49=MY_COMPANY|56=EXCHANGE|34=76|52=20250521-09:33:00.422|10=103|
2025-05-21 10:33:00,422 [INFO] HEARBEAT SENT: 8=FIX.4.4|9=62|35=0|49=MY_COMPANY|56=EXCHANGE|34=42|52=20250521-09:33:00.422|10=096|
2025-05-21 10:33:00,425 [INFO] HEARBEAT SENT: 8=FIX.4.4|9=63|35=0|49=MY_COMPANY|56=EXCHANGE|34=178|52=20250521-09:33:00.425|10=158|
2025-05-21 10:33:00,425 [INFO] HEARBEAT SENT: 8=FIX.4.4|9=63|35=0|49=MY_COMPANY|56=EXCHANGE|34=122|52=20250521-09:33:00.425|10=147|
2025-05-21 10:33:00,425 [INFO] HEARBEAT SENT: 8=FIX.4.4|9=63|35=0|49=MY_COMPANY|56=EXCHANGE|34=102|52=20250521-09:33:00.425|10=145|
2025-05-21 10:33:00,425 [INFO] HEARBEAT SENT: 8=FIX.4.4|9=62|35=0|49=MY_COMPANY|56=EXCHANGE|34=58|52=20250521-09:33:00.425|10=106|
2025-05-21 10:33:00,426 [INFO] HEARBEAT SENT: 8=FIX.4.4|9=62|35=0|49=MY_COMPANY|56=EXCHANGE|34=35|52=20250521-09:33:00.426|10=102|
2025-05-21 10:33:00,426 [INFO] HEARBEAT SENT: 8=FIX.4.4|9=62|35=0|49=MY_COMPANY|56=EXCHANGE|34=66|52=20250521-09:33:00.426|10=106|
2025-05-21 10:33:00,426 [INFO] HEARBEAT SENT: 8=FIX.4.4|9=63|35=0|49=MY_COMPANY|56=EXCHANGE|34=110|52=20250521-09:33:00.426|10=145|
2025-05-21 10:33:00,426 [INFO] HEARBEAT SENT: 8=FIX.4.4|9=62|35=0|49=MY_COMPANY|56=EXCHANGE|34=30|52=20250521-09:33:00.426|10=097|
2025-05-21 10:33:00,427 [INFO] HEARBEAT SENT: 8=FIX.4.4|9=62|35=0|49=MY_COMPANY|56=EXCHANGE|34=29|52=20250521-09:33:00.427|10=106|
2025-05-21 10:33:00,427 [INFO] HEARBEAT SENT: 8=FIX.4.4|9=62|35=0|49=MY_COMPANY|56=EXCHANGE|34=19|52=20250521-09:33:00.427|10=105|
2025-05-21 10:33:00,427 [INFO] HEARBEAT SENT: 8=FIX.4.4|9=62|35=0|49=MY_COMPANY|56=EXCHANGE|34=29|52=20250521-09:33:00.427|10=106|
2025-05-21 10:33:00,427 [INFO] HEARBEAT SENT: 8=FIX.4.4|9=62|35=0|49=MY_COMPANY|56=EXCHANGE|34=28|52=20250521-09:33:00.427|10=105|
2025-05-21 10:33:00,428 [INFO] HEARBEAT SENT: 8=FIX.4.4|9=62|35=0|49=MY_COMPANY|56=EXCHANGE|34=30|52=20250521-09:33:00.428|10=099|
2025-05-21 10:33:00,428 [INFO] HEARBEAT SENT: 8=FIX.4.4|9=62|35=0|49=MY_COMPANY|56=EXCHANGE|34=44|52=20250521-09:33:00.428|10=104|
2025-05-21 10:33:00,428 [INFO] HEARBEAT SENT: 8=FIX.4.4|9=63|35=0|49=MY_COMPANY|56=EXCHANGE|34=151|52=20250521-09:33:00.428|10=152|
2025-05-21 10:33:00,428 [INFO] HEARBEAT SENT: 8=FIX.4.4|9=62|35=0|49=MY_COMPANY|56=EXCHANGE|34=31|52=20250521-09:33:00.428|10=100|
2025-05-21 10:33:30,546 [INFO] HEARBEAT SENT: 8=FIX.4.4|9=62|35=0|49=MY_COMPANY|56=EXCHANGE|34=94|52=20250521-09:33:30.546|10=113|
2025-05-21 10:33:30,546 [INFO] HEARBEAT SENT: 8=FIX.4.4|9=62|35=0|49=MY_COMPANY|56=EXCHANGE|34=33|52=20250521-09:33:30.546|10=106|
2025-05-21 10:33:30,546 [INFO] HEARBEAT SENT: 8=FIX.4.4|9=62|35=0|49=MY_COMPANY|56=EXCHANGE|34=30|52=20250521-09:33:30.546|10=103|
2025-05-21 10:33:30,546 [INFO] HEARBEAT SENT: 8=FIX.4.4|9=62|35=0|49=MY_COMPANY|56=EXCHANGE|34=17|52=20250521-09:33:30.546|10=108|
2025-05-21 10:33:30,548 [INFO] HEARBEAT SENT: 8=FIX.4.4|9=62|35=0|49=MY_COMPANY|56=EXCHANGE|34=55|52=20250521-09:33:30.548|10=112|
2025-05-21 10:33:30,548 [INFO] HEARBEAT SENT: 8=FIX.4.4|9=62|35=0|49=MY_COMPANY|56=EXCHANGE|34=97|52=20250521-09:33:30.548|10=118|
2025-05-21 10:33:30,548 [INFO] HEARBEAT SENT: 8=FIX.4.4|9=62|35=0|49=MY_COMPANY|56=EXCHANGE|34=77|52=20250521-09:33:30.548|10=116|
2025-05-21 10:33:30,548 [INFO] HEARBEAT SENT: 8=FIX.4.4|9=62|35=0|49=MY_COMPANY|56=EXCHANGE|34=43|52=20250521-09:33:30.548|10=109|
2025-05-21 10:33:30,551 [INFO] HEARBEAT SENT: 8=FIX.4.4|9=63|35=0|49=MY_COMPANY|56=EXCHANGE|34=211|52=20250521-09:33:30.551|10=149|
2025-05-21 10:33:30,551 [INFO] HEARBEAT SENT: 8=FIX.4.4|9=63|35=0|49=MY_COMPANY|56=EXCHANGE|34=125|52=20250521-09:33:30.551|10=153|
2025-05-21 10:33:30,551 [INFO] HEARBEAT SENT: 8=FIX.4.4|9=63|35=0|49=MY_COMPANY|56=EXCHANGE|34=118|52=20250521-09:33:30.551|10=155|
2025-05-21 10:33:30,551 [INFO] HEARBEAT SENT: 8=FIX.4.4|9=62|35=0|49=MY_COMPANY|56=EXCHANGE|34=66|52=20250521-09:33:30.551|10=108|
2025-05-21 10:33:30,552 [INFO] HEARBEAT SENT: 8=FIX.4.4|9=62|35=0|49=MY_COMPANY|56=EXCHANGE|34=36|52=20250521-09:33:30.552|10=106|
2025-05-21 10:33:30,552 [INFO] HEARBEAT SENT: 8=FIX.4.4|9=62|35=0|49=MY_COMPANY|56=EXCHANGE|34=69|52=20250521-09:33:30.552|10=112|
2025-05-21 10:33:30,552 [INFO] HEARBEAT SENT: 8=FIX.4.4|9=63|35=0|49=MY_COMPANY|56=EXCHANGE|34=125|52=20250521-09:33:30.552|10=154|
2025-05-21 10:33:30,552 [INFO] HEARBEAT SENT: 8=FIX.4.4|9=62|35=0|49=MY_COMPANY|56=EXCHANGE|34=34|52=20250521-09:33:30.552|10=104|
2025-05-21 10:33:30,554 [INFO] HEARBEAT SENT: 8=FIX.4.4|9=62|35=0|49=MY_COMPANY|56=EXCHANGE|34=43|52=20250521-09:33:30.554|10=106|
2025-05-21 10:33:30,554 [INFO] HEARBEAT SENT: 8=FIX.4.4|9=62|35=0|49=MY_COMPANY|56=EXCHANGE|34=20|52=20250521-09:33:30.554|10=101|
2025-05-21 10:33:30,554 [INFO] HEARBEAT SENT: 8=FIX.4.4|9=62|35=0|49=MY_COMPANY|56=EXCHANGE|34=30|52=20250521-09:33:30.554|10=102|
2025-05-21 10:33:30,554 [INFO] HEARBEAT SENT: 8=FIX.4.4|9=62|35=0|49=MY_COMPANY|56=EXCHANGE|34=30|52=20250521-09:33:30.554|10=102|
2025-05-21 10:33:30,555 [INFO] HEARBEAT SENT: 8=FIX.4.4|9=62|35=0|49=MY_COMPANY|56=EXCHANGE|34=31|52=20250521-09:33:30.555|10=104|
2025-05-21 10:33:30,555 [INFO] HEARBEAT SENT: 8=FIX.4.4|9=62|35=0|49=MY_COMPANY|56=EXCHANGE|34=53|52=20250521-09:33:30.555|10=108|
2025-05-21 10:33:30,555 [INFO] HEARBEAT SENT: 8=FIX.4.4|9=63|35=0|49=MY_COMPANY|56=EXCHANGE|34=167|52=20250521-09:33:30.555|10=163|
2025-05-21 10:33:30,555 [INFO] HEARBEAT SENT: 8=FIX.4.4|9=62|35=0|49=MY_COMPANY|56=EXCHANGE|34=34|52=20250521-09:33:30.555|10=107|
2025-05-21 10:34:00,661 [INFO] HEARBEAT SENT: 8=FIX.4.4|9=63|35=0|49=MY_COMPANY|56=EXCHANGE|34=107|52=20250521-09:34:00.661|10=153|
2025-05-21 10:34:00,662 [INFO] HEARBEAT SENT: 8=FIX.4.4|9=62|35=0|49=MY_COMPANY|56=EXCHANGE|34=36|52=20250521-09:34:00.662|10=106|
2025-05-21 10:34:00,662 [INFO] HEARBEAT SENT: 8=FIX.4.4|9=62|35=0|49=MY_COMPANY|56=EXCHANGE|34=33|52=20250521-09:34:00.662|10=103|
2025-05-21 10:34:00,663 [INFO] HEARBEAT SENT: 8=FIX.4.4|9=62|35=0|49=MY_COMPANY|56=EXCHANGE|34=21|52=20250521-09:34:00.662|10=100|
2025-05-21 10:34:00,665 [INFO] HEARBEAT SENT: 8=FIX.4.4|9=62|35=0|49=MY_COMPANY|56=EXCHANGE|34=56|52=20250521-09:34:00.665|10=111|
2025-05-21 10:34:00,665 [INFO] HEARBEAT SENT: 8=FIX.4.4|9=63|35=0|49=MY_COMPANY|56=EXCHANGE|34=102|52=20250521-09:34:00.665|10=152|
2025-05-21 10:34:00,665 [INFO] HEARBEAT SENT: 8=FIX.4.4|9=62|35=0|49=MY_COMPANY|56=EXCHANGE|34=82|52=20250521-09:34:00.665|10=110|
2025-05-21 10:34:00,665 [INFO] HEARBEAT SENT: 8=FIX.4.4|9=62|35=0|49=MY_COMPANY|56=EXCHANGE|34=45|52=20250521-09:34:00.665|10=109|
2025-05-21 10:34:00,668 [INFO] HEARBEAT SENT: 8=FIX.4.4|9=63|35=0|49=MY_COMPANY|56=EXCHANGE|34=229|52=20250521-09:34:00.668|10=165|
2025-05-21 10:34:00,668 [INFO] HEARBEAT SENT: 8=FIX.4.4|9=63|35=0|49=MY_COMPANY|56=EXCHANGE|34=131|52=20250521-09:34:00.668|10=157|
2025-05-21 10:34:00,668 [INFO] HEARBEAT SENT: 8=FIX.4.4|9=63|35=0|49=MY_COMPANY|56=EXCHANGE|34=119|52=20250521-09:34:00.668|10=163|
2025-05-21 10:34:00,668 [INFO] HEARBEAT SENT: 8=FIX.4.4|9=62|35=0|49=MY_COMPANY|56=EXCHANGE|34=78|52=20250521-09:34:00.668|10=118|
2025-05-21 10:34:00,669 [INFO] HEARBEAT SENT: 8=FIX.4.4|9=62|35=0|49=MY_COMPANY|56=EXCHANGE|34=41|52=20250521-09:34:00.669|10=109|
2025-05-21 10:34:00,669 [INFO] HEARBEAT SENT: 8=FIX.4.4|9=62|35=0|49=MY_COMPANY|56=EXCHANGE|34=70|52=20250521-09:34:00.669|10=111|
2025-05-21 10:34:00,669 [INFO] HEARBEAT SENT: 8=FIX.4.4|9=63|35=0|49=MY_COMPANY|56=EXCHANGE|34=126|52=20250521-09:34:00.669|10=162|
2025-05-21 10:34:00,669 [INFO] HEARBEAT SENT: 8=FIX.4.4|9=62|35=0|49=MY_COMPANY|56=EXCHANGE|34=36|52=20250521-09:34:00.669|10=113|
2025-05-21 10:34:00,669 [INFO] HEARBEAT SENT: 8=FIX.4.4|9=62|35=0|49=MY_COMPANY|56=EXCHANGE|34=46|52=20250521-09:34:00.669|10=114|
2025-05-21 10:34:00,670 [INFO] HEARBEAT SENT: 8=FIX.4.4|9=62|35=0|49=MY_COMPANY|56=EXCHANGE|34=23|52=20250521-09:34:00.670|10=101|
2025-05-21 10:34:00,670 [INFO] HEARBEAT SENT: 8=FIX.4.4|9=62|35=0|49=MY_COMPANY|56=EXCHANGE|34=33|52=20250521-09:34:00.670|10=102|
2025-05-21 10:34:00,670 [INFO] HEARBEAT SENT: 8=FIX.4.4|9=62|35=0|49=MY_COMPANY|56=EXCHANGE|34=31|52=20250521-09:34:00.670|10=100|
2025-05-21 10:34:00,671 [INFO] HEARBEAT SENT: 8=FIX.4.4|9=62|35=0|49=MY_COMPANY|56=EXCHANGE|34=39|52=20250521-09:34:00.671|10=109|
2025-05-21 10:34:00,671 [INFO] HEARBEAT SENT: 8=FIX.4.4|9=62|35=0|49=MY_COMPANY|56=EXCHANGE|34=54|52=20250521-09:34:00.671|10=106|
2025-05-21 10:34:00,671 [INFO] HEARBEAT SENT: 8=FIX.4.4|9=63|35=0|49=MY_COMPANY|56=EXCHANGE|34=180|52=20250521-09:34:00.671|10=155|
2025-05-21 10:34:00,671 [INFO] HEARBEAT SENT: 8=FIX.4.4|9=62|35=0|49=MY_COMPANY|56=EXCHANGE|34=35|52=20250521-09:34:00.671|10=105|
2025-05-21 10:34:30,760 [INFO] HEARBEAT SENT: 8=FIX.4.4|9=63|35=0|49=MY_COMPANY|56=EXCHANGE|34=121|52=20250521-09:34:30.760|10=152|
2025-05-21 10:34:30,760 [INFO] HEARBEAT SENT: 8=FIX.4.4|9=62|35=0|49=MY_COMPANY|56=EXCHANGE|34=37|52=20250521-09:34:30.760|10=109|
2025-05-21 10:34:30,760 [INFO] HEARBEAT SENT: 8=FIX.4.4|9=62|35=0|49=MY_COMPANY|56=EXCHANGE|34=34|52=20250521-09:34:30.760|10=106|
2025-05-21 10:34:30,761 [INFO] HEARBEAT SENT: 8=FIX.4.4|9=62|35=0|49=MY_COMPANY|56=EXCHANGE|34=22|52=20250521-09:34:30.761|10=104|
2025-05-21 10:34:30,762 [INFO] HEARBEAT SENT: 8=FIX.4.4|9=62|35=0|49=MY_COMPANY|56=EXCHANGE|34=59|52=20250521-09:34:30.762|10=115|
2025-05-21 10:34:30,762 [INFO] HEARBEAT SENT: 8=FIX.4.4|9=63|35=0|49=MY_COMPANY|56=EXCHANGE|34=103|52=20250521-09:34:30.762|10=154|
2025-05-21 10:34:30,762 [INFO] HEARBEAT SENT: 8=FIX.4.4|9=62|35=0|49=MY_COMPANY|56=EXCHANGE|34=83|52=20250521-09:34:30.762|10=112|
2025-05-21 10:34:30,762 [INFO] HEARBEAT SENT: 8=FIX.4.4|9=62|35=0|49=MY_COMPANY|56=EXCHANGE|34=53|52=20250521-09:34:30.762|10=109|
2025-05-21 10:34:30,763 [INFO] HEARBEAT SENT: 8=FIX.4.4|9=63|35=0|49=MY_COMPANY|56=EXCHANGE|34=247|52=20250521-09:34:30.763|10=164|
2025-05-21 10:34:30,763 [INFO] HEARBEAT SENT: 8=FIX.4.4|9=63|35=0|49=MY_COMPANY|56=EXCHANGE|34=132|52=20250521-09:34:30.763|10=157|
2025-05-21 10:34:30,763 [INFO] HEARBEAT SENT: 8=FIX.4.4|9=63|35=0|49=MY_COMPANY|56=EXCHANGE|34=127|52=20250521-09:34:30.763|10=161|
2025-05-21 10:34:30,763 [INFO] HEARBEAT SENT: 8=FIX.4.4|9=62|35=0|49=MY_COMPANY|56=EXCHANGE|34=90|52=20250521-09:34:30.763|10=111|
2025-05-21 10:34:30,764 [INFO] HEARBEAT SENT: 8=FIX.4.4|9=62|35=0|49=MY_COMPANY|56=EXCHANGE|34=42|52=20250521-09:34:30.764|10=109|
2025-05-21 10:34:30,764 [INFO] HEARBEAT SENT: 8=FIX.4.4|9=62|35=0|49=MY_COMPANY|56=EXCHANGE|34=73|52=20250521-09:34:30.764|10=113|
2025-05-21 10:34:30,764 [INFO] HEARBEAT SENT: 8=FIX.4.4|9=63|35=0|49=MY_COMPANY|56=EXCHANGE|34=132|52=20250521-09:34:30.764|10=158|
2025-05-21 10:34:30,764 [INFO] HEARBEAT SENT: 8=FIX.4.4|9=62|35=0|49=MY_COMPANY|56=EXCHANGE|34=37|52=20250521-09:34:30.764|10=113|
2025-05-21 10:34:30,764 [INFO] HEARBEAT SENT: 8=FIX.4.4|9=62|35=0|49=MY_COMPANY|56=EXCHANGE|34=47|52=20250521-09:34:30.764|10=114|
2025-05-21 10:34:30,764 [INFO] HEARBEAT SENT: 8=FIX.4.4|9=62|35=0|49=MY_COMPANY|56=EXCHANGE|34=24|52=20250521-09:34:30.764|10=109|
2025-05-21 10:34:30,764 [INFO] HEARBEAT SENT: 8=FIX.4.4|9=62|35=0|49=MY_COMPANY|56=EXCHANGE|34=34|52=20250521-09:34:30.764|10=110|
2025-05-21 10:34:30,765 [INFO] HEARBEAT SENT: 8=FIX.4.4|9=62|35=0|49=MY_COMPANY|56=EXCHANGE|34=33|52=20250521-09:34:30.765|10=110|
2025-05-21 10:34:30,765 [INFO] HEARBEAT SENT: 8=FIX.4.4|9=62|35=0|49=MY_COMPANY|56=EXCHANGE|34=42|52=20250521-09:34:30.765|10=110|
2025-05-21 10:34:30,766 [INFO] HEARBEAT SENT: 8=FIX.4.4|9=62|35=0|49=MY_COMPANY|56=EXCHANGE|34=76|52=20250521-09:34:30.766|10=118|
2025-05-21 10:34:30,766 [INFO] HEARBEAT SENT: 8=FIX.4.4|9=63|35=0|49=MY_COMPANY|56=EXCHANGE|34=195|52=20250521-09:34:30.766|10=169|
2025-05-21 10:34:30,766 [INFO] HEARBEAT SENT: 8=FIX.4.4|9=62|35=0|49=MY_COMPANY|56=EXCHANGE|34=37|52=20250521-09:34:30.766|10=115|
2025-05-21 10:35:00,860 [INFO] HEARBEAT SENT: 8=FIX.4.4|9=63|35=0|49=MY_COMPANY|56=EXCHANGE|34=134|52=20250521-09:35:00.860|10=155|
2025-05-21 10:35:00,860 [INFO] HEARBEAT SENT: 8=FIX.4.4|9=62|35=0|49=MY_COMPANY|56=EXCHANGE|34=40|52=20250521-09:35:00.860|10=102|
2025-05-21 10:35:00,861 [INFO] HEARBEAT SENT: 8=FIX.4.4|9=62|35=0|49=MY_COMPANY|56=EXCHANGE|34=37|52=20250521-09:35:00.860|10=108|
2025-05-21 10:35:00,861 [INFO] HEARBEAT SENT: 8=FIX.4.4|9=62|35=0|49=MY_COMPANY|56=EXCHANGE|34=28|52=20250521-09:35:00.861|10=109|
2025-05-21 10:35:00,865 [INFO] HEARBEAT SENT: 8=FIX.4.4|9=62|35=0|49=MY_COMPANY|56=EXCHANGE|34=67|52=20250521-09:35:00.865|10=116|
2025-05-21 10:35:00,866 [INFO] HEARBEAT SENT: 8=FIX.4.4|9=63|35=0|49=MY_COMPANY|56=EXCHANGE|34=109|52=20250521-09:35:00.866|10=163|
2025-05-21 10:35:00,866 [INFO] HEARBEAT SENT: 8=FIX.4.4|9=62|35=0|49=MY_COMPANY|56=EXCHANGE|34=90|52=20250521-09:35:00.866|10=113|
2025-05-21 10:35:00,867 [INFO] HEARBEAT SENT: 8=FIX.4.4|9=62|35=0|49=MY_COMPANY|56=EXCHANGE|34=55|52=20250521-09:35:00.867|10=115|
2025-05-21 10:35:00,873 [INFO] HEARBEAT SENT: 8=FIX.4.4|9=63|35=0|49=MY_COMPANY|56=EXCHANGE|34=253|52=20250521-09:35:00.873|10=161|
2025-05-21 10:35:00,873 [INFO] HEARBEAT SENT: 8=FIX.4.4|9=63|35=0|49=MY_COMPANY|56=EXCHANGE|34=149|52=20250521-09:35:00.873|10=165|
2025-05-21 10:35:00,873 [INFO] HEARBEAT SENT: 8=FIX.4.4|9=63|35=0|49=MY_COMPANY|56=EXCHANGE|34=130|52=20250521-09:35:00.873|10=155|
2025-05-21 10:35:00,873 [INFO] HEARBEAT SENT: 8=FIX.4.4|9=63|35=0|49=MY_COMPANY|56=EXCHANGE|34=106|52=20250521-09:35:00.873|10=158|
2025-05-21 10:35:00,876 [INFO] HEARBEAT SENT: 8=FIX.4.4|9=62|35=0|49=MY_COMPANY|56=EXCHANGE|34=45|52=20250521-09:35:00.876|10=114|
2025-05-21 10:35:00,876 [INFO] HEARBEAT SENT: 8=FIX.4.4|9=62|35=0|49=MY_COMPANY|56=EXCHANGE|34=74|52=20250521-09:35:00.876|10=116|
2025-05-21 10:35:00,876 [INFO] HEARBEAT SENT: 8=FIX.4.4|9=63|35=0|49=MY_COMPANY|56=EXCHANGE|34=133|52=20250521-09:35:00.876|10=161|
2025-05-21 10:35:00,877 [INFO] HEARBEAT SENT: 8=FIX.4.4|9=62|35=0|49=MY_COMPANY|56=EXCHANGE|34=40|52=20250521-09:35:00.877|10=110|
2025-05-21 10:35:00,878 [INFO] HEARBEAT SENT: 8=FIX.4.4|9=62|35=0|49=MY_COMPANY|56=EXCHANGE|34=51|52=20250521-09:35:00.878|10=113|
2025-05-21 10:35:00,878 [INFO] HEARBEAT SENT: 8=FIX.4.4|9=62|35=0|49=MY_COMPANY|56=EXCHANGE|34=27|52=20250521-09:35:00.878|10=116|
2025-05-21 10:35:00,878 [INFO] HEARBEAT SENT: 8=FIX.4.4|9=62|35=0|49=MY_COMPANY|56=EXCHANGE|34=37|52=20250521-09:35:00.878|10=117|
2025-05-21 10:35:00,878 [INFO] HEARBEAT SENT: 8=FIX.4.4|9=62|35=0|49=MY_COMPANY|56=EXCHANGE|34=34|52=20250521-09:35:00.878|10=114|
2025-05-21 10:35:00,880 [INFO] HEARBEAT SENT: 8=FIX.4.4|9=62|35=0|49=MY_COMPANY|56=EXCHANGE|34=43|52=20250521-09:35:00.880|10=107|
2025-05-21 10:35:00,881 [INFO] HEARBEAT SENT: 8=FIX.4.4|9=62|35=0|49=MY_COMPANY|56=EXCHANGE|34=85|52=20250521-09:35:00.881|10=114|
2025-05-21 10:35:00,881 [INFO] HEARBEAT SENT: 8=FIX.4.4|9=63|35=0|49=MY_COMPANY|56=EXCHANGE|34=213|52=20250521-09:35:00.881|10=156|
2025-05-21 10:35:00,881 [INFO] HEARBEAT SENT: 8=FIX.4.4|9=62|35=0|49=MY_COMPANY|56=EXCHANGE|34=38|52=20250521-09:35:00.881|10=112|
2025-05-21 10:35:30,993 [INFO] HEARBEAT SENT: 8=FIX.4.4|9=63|35=0|49=MY_COMPANY|56=EXCHANGE|34=150|52=20250521-09:35:30.993|10=163|
2025-05-21 10:35:30,993 [INFO] HEARBEAT SENT: 8=FIX.4.4|9=62|35=0|49=MY_COMPANY|56=EXCHANGE|34=41|52=20250521-09:35:30.993|10=113|
2025-05-21 10:35:30,993 [INFO] HEARBEAT SENT: 8=FIX.4.4|9=62|35=0|49=MY_COMPANY|56=EXCHANGE|34=38|52=20250521-09:35:30.993|10=119|
2025-05-21 10:35:30,993 [INFO] HEARBEAT SENT: 8=FIX.4.4|9=62|35=0|49=MY_COMPANY|56=EXCHANGE|34=30|52=20250521-09:35:30.993|10=111|
2025-05-21 10:35:30,994 [INFO] HEARBEAT SENT: 8=FIX.4.4|9=62|35=0|49=MY_COMPANY|56=EXCHANGE|34=68|52=20250521-09:35:30.994|10=123|
2025-05-21 10:35:30,994 [INFO] HEARBEAT SENT: 8=FIX.4.4|9=63|35=0|49=MY_COMPANY|56=EXCHANGE|34=110|52=20250521-09:35:30.994|10=160|
2025-05-21 10:35:30,994 [INFO] HEARBEAT SENT: 8=FIX.4.4|9=62|35=0|49=MY_COMPANY|56=EXCHANGE|34=93|52=20250521-09:35:30.994|10=121|
2025-05-21 10:35:30,994 [INFO] HEARBEAT SENT: 8=FIX.4.4|9=62|35=0|49=MY_COMPANY|56=EXCHANGE|34=56|52=20250521-09:35:30.994|10=120|
2025-05-21 10:35:30,995 [INFO] HEARBEAT SENT: 8=FIX.4.4|9=63|35=0|49=MY_COMPANY|56=EXCHANGE|34=258|52=20250521-09:35:30.995|10=174|
2025-05-21 10:35:30,995 [INFO] HEARBEAT SENT: 8=FIX.4.4|9=63|35=0|49=MY_COMPANY|56=EXCHANGE|34=162|52=20250521-09:35:30.995|10=168|
2025-05-21 10:35:30,995 [INFO] HEARBEAT SENT: 8=FIX.4.4|9=63|35=0|49=MY_COMPANY|56=EXCHANGE|34=131|52=20250521-09:35:30.995|10=164|
2025-05-21 10:35:30,995 [INFO] HEARBEAT SENT: 8=FIX.4.4|9=63|35=0|49=MY_COMPANY|56=EXCHANGE|34=112|52=20250521-09:35:30.995|10=163|
2025-05-21 10:35:30,996 [INFO] HEARBEAT SENT: 8=FIX.4.4|9=62|35=0|49=MY_COMPANY|56=EXCHANGE|34=48|52=20250521-09:35:30.996|10=123|
2025-05-21 10:35:30,996 [INFO] HEARBEAT SENT: 8=FIX.4.4|9=62|35=0|49=MY_COMPANY|56=EXCHANGE|34=77|52=20250521-09:35:30.996|10=125|
2025-05-21 10:35:30,996 [INFO] HEARBEAT SENT: 8=FIX.4.4|9=63|35=0|49=MY_COMPANY|56=EXCHANGE|34=136|52=20250521-09:35:30.996|10=170|
2025-05-21 10:35:30,996 [INFO] HEARBEAT SENT: 8=FIX.4.4|9=62|35=0|49=MY_COMPANY|56=EXCHANGE|34=41|52=20250521-09:35:30.996|10=116|
2025-05-21 10:35:30,998 [INFO] HEARBEAT SENT: 8=FIX.4.4|9=62|35=0|49=MY_COMPANY|56=EXCHANGE|34=52|52=20250521-09:35:30.998|10=120|
2025-05-21 10:35:30,998 [INFO] HEARBEAT SENT: 8=FIX.4.4|9=62|35=0|49=MY_COMPANY|56=EXCHANGE|34=28|52=20250521-09:35:30.998|10=123|
2025-05-21 10:35:30,998 [INFO] HEARBEAT SENT: 8=FIX.4.4|9=62|35=0|49=MY_COMPANY|56=EXCHANGE|34=38|52=20250521-09:35:30.998|10=124|
2025-05-21 10:35:30,998 [INFO] HEARBEAT SENT: 8=FIX.4.4|9=62|35=0|49=MY_COMPANY|56=EXCHANGE|34=36|52=20250521-09:35:30.998|10=122|
2025-05-21 10:35:30,999 [INFO] HEARBEAT SENT: 8=FIX.4.4|9=62|35=0|49=MY_COMPANY|56=EXCHANGE|34=49|52=20250521-09:35:30.999|10=127|
2025-05-21 10:35:30,999 [INFO] HEARBEAT SENT: 8=FIX.4.4|9=62|35=0|49=MY_COMPANY|56=EXCHANGE|34=86|52=20250521-09:35:30.999|10=128|
2025-05-21 10:35:30,999 [INFO] HEARBEAT SENT: 8=FIX.4.4|9=63|35=0|49=MY_COMPANY|56=EXCHANGE|34=226|52=20250521-09:35:30.999|10=173|
2025-05-21 10:35:30,999 [INFO] HEARBEAT SENT: 8=FIX.4.4|9=62|35=0|49=MY_COMPANY|56=EXCHANGE|34=40|52=20250521-09:35:30.999|10=118|
2025-05-21 10:36:00,979 [INFO] ===== FIX ENGINE INITIALISED =====
2025-05-21 10:36:00,979 [INFO] ===== FIX ENGINE INITIALISED =====
2025-05-21 10:36:00,979 [INFO] ===== FIX ENGINE INITIALISED =====
2025-05-21 10:36:00,979 [INFO] ===== FIX ENGINE INITIALISED =====
2025-05-21 10:36:00,979 [INFO] ===== FIX ENGINE INITIALISED =====
2025-05-21 10:36:00,979 [INFO] ===== FIX ENGINE INITIALISED =====
2025-05-21 10:36:00,979 [INFO] ===== FIX ENGINE INITIALISED =====
2025-05-21 10:36:00,980 [INFO] ===== FIX ENGINE INITIALISED =====
2025-05-21 10:36:00,980 [INFO] ===== FIX ENGINE INITIALISED =====
2025-05-21 10:36:00,980 [INFO] ===== FIX ENGINE INITIALISED =====
2025-05-21 10:36:00,986 [INFO] ===== FIX ENGINE INITIALISED =====
2025-05-21 10:36:00,986 [INFO] ===== FIX ENGINE INITIALISED =====
2025-05-21 10:36:00,986 [INFO] ===== FIX ENGINE INITIALISED =====
2025-05-21 10:36:00,986 [INFO] ===== FIX ENGINE INITIALISED =====
2025-05-21 10:36:00,989 [INFO] ===== FIX ENGINE INITIALISED =====
2025-05-21 10:36:00,989 [INFO] ===== FIX ENGINE INITIALISED =====
2025-05-21 10:36:00,989 [INFO] ===== FIX ENGINE INITIALISED =====
2025-05-21 10:36:00,989 [INFO] ===== FIX ENGINE INITIALISED =====
2025-05-21 10:36:00,991 [INFO] ===== FIX ENGINE INITIALISED =====
2025-05-21 10:36:00,992 [INFO] ===== FIX ENGINE INITIALISED =====
2025-05-21 10:36:00,992 [INFO] ===== FIX ENGINE INITIALISED =====
2025-05-21 10:36:00,992 [INFO] ===== FIX ENGINE INITIALISED =====
2025-05-21 10:36:00,995 [INFO] ===== FIX ENGINE INITIALISED =====
2025-05-21 10:36:00,995 [INFO] ===== FIX ENGINE INITIALISED =====
2025-05-21 10:36:00,995 [INFO] ===== FIX ENGINE INITIALISED =====
2025-05-21 10:36:00,995 [INFO] ===== FIX ENGINE INITIALISED =====
2025-05-21 10:36:00,997 [INFO] ===== FIX ENGINE INITIALISED =====
2025-05-21 10:36:00,997 [INFO] ===== FIX ENGINE INITIALISED =====
2025-05-21 10:36:00,997 [INFO] ===== FIX ENGINE INITIALISED =====
2025-05-21 10:36:00,997 [INFO] ===== FIX ENGINE INITIALISED =====
2025-05-21 10:36:31,264 [INFO] HEARBEAT SENT: 8=FIX.4.4|9=62|35=0|49=MY_COMPANY|56=EXCHANGE|34=13|52=20250521-09:36:31.264|10=105|
2025-05-21 10:36:31,266 [INFO] HEARBEAT SENT: 8=FIX.4.4|9=62|35=0|49=MY_COMPANY|56=EXCHANGE|34=23|52=20250521-09:36:31.265|10=107|
2025-05-21 10:36:31,266 [INFO] HEARBEAT SENT: 8=FIX.4.4|9=62|35=0|49=MY_COMPANY|56=EXCHANGE|34=15|52=20250521-09:36:31.266|10=109|
2025-05-21 10:36:31,267 [INFO] HEARBEAT SENT: 8=FIX.4.4|9=61|35=0|49=MY_COMPANY|56=EXCHANGE|34=5|52=20250521-09:36:31.267|10=060|
2025-05-21 10:36:31,283 [INFO] HEARBEAT SENT: 8=FIX.4.4|9=62|35=0|49=MY_COMPANY|56=EXCHANGE|34=26|52=20250521-09:36:31.283|10=110|
2025-05-21 10:36:31,283 [INFO] HEARBEAT SENT: 8=FIX.4.4|9=62|35=0|49=MY_COMPANY|56=EXCHANGE|34=34|52=20250521-09:36:31.283|10=109|
2025-05-21 10:36:31,284 [INFO] HEARBEAT SENT: 8=FIX.4.4|9=62|35=0|49=MY_COMPANY|56=EXCHANGE|34=37|52=20250521-09:36:31.284|10=113|
2025-05-21 10:36:31,284 [INFO] HEARBEAT SENT: 8=FIX.4.4|9=62|35=0|49=MY_COMPANY|56=EXCHANGE|34=20|52=20250521-09:36:31.284|10=105|
2025-05-21 10:36:31,293 [INFO] HEARBEAT SENT: 8=FIX.4.4|9=62|35=0|49=MY_COMPANY|56=EXCHANGE|34=24|52=20250521-09:36:31.293|10=109|
2025-05-21 10:36:31,293 [INFO] HEARBEAT SENT: 8=FIX.4.4|9=62|35=0|49=MY_COMPANY|56=EXCHANGE|34=32|52=20250521-09:36:31.293|10=108|
2025-05-21 10:36:31,293 [INFO] HEARBEAT SENT: 8=FIX.4.4|9=62|35=0|49=MY_COMPANY|56=EXCHANGE|34=32|52=20250521-09:36:31.293|10=108|
2025-05-21 10:36:31,293 [INFO] HEARBEAT SENT: 8=FIX.4.4|9=62|35=0|49=MY_COMPANY|56=EXCHANGE|34=19|52=20250521-09:36:31.293|10=113|
2025-05-21 10:36:31,296 [INFO] HEARBEAT SENT: 8=FIX.4.4|9=62|35=0|49=MY_COMPANY|56=EXCHANGE|34=13|52=20250521-09:36:31.296|10=110|
2025-05-21 10:36:31,296 [INFO] HEARBEAT SENT: 8=FIX.4.4|9=62|35=0|49=MY_COMPANY|56=EXCHANGE|34=35|52=20250521-09:36:31.296|10=114|
2025-05-21 10:36:31,296 [INFO] HEARBEAT SENT: 8=FIX.4.4|9=62|35=0|49=MY_COMPANY|56=EXCHANGE|34=30|52=20250521-09:36:31.296|10=109|
2025-05-21 10:36:31,296 [INFO] HEARBEAT SENT: 8=FIX.4.4|9=62|35=0|49=MY_COMPANY|56=EXCHANGE|34=22|52=20250521-09:36:31.296|10=110|
2025-05-21 10:36:31,297 [INFO] HEARBEAT SENT: 8=FIX.4.4|9=62|35=0|49=MY_COMPANY|56=EXCHANGE|34=11|52=20250521-09:36:31.297|10=109|
2025-05-21 10:36:31,297 [INFO] HEARBEAT SENT: 8=FIX.4.4|9=61|35=0|49=MY_COMPANY|56=EXCHANGE|34=7|52=20250521-09:36:31.297|10=065|
2025-05-21 10:36:31,297 [INFO] HEARBEAT SENT: 8=FIX.4.4|9=61|35=0|49=MY_COMPANY|56=EXCHANGE|34=9|52=20250521-09:36:31.297|10=067|
2025-05-21 10:36:31,297 [INFO] HEARBEAT SENT: 8=FIX.4.4|9=61|35=0|49=MY_COMPANY|56=EXCHANGE|34=8|52=20250521-09:36:31.297|10=066|
2025-05-21 10:36:31,297 [INFO] HEARBEAT SENT: 8=FIX.4.4|9=62|35=0|49=MY_COMPANY|56=EXCHANGE|34=10|52=20250521-09:36:31.297|10=108|
2025-05-21 10:36:31,298 [INFO] HEARBEAT SENT: 8=FIX.4.4|9=62|35=0|49=MY_COMPANY|56=EXCHANGE|34=25|52=20250521-09:36:31.298|10=115|
2025-05-21 10:36:31,298 [INFO] HEARBEAT SENT: 8=FIX.4.4|9=62|35=0|49=MY_COMPANY|56=EXCHANGE|34=25|52=20250521-09:36:31.298|10=115|
2025-05-21 10:36:31,298 [INFO] HEARBEAT SENT: 8=FIX.4.4|9=62|35=0|49=MY_COMPANY|56=EXCHANGE|34=13|52=20250521-09:36:31.298|10=112|
2025-05-21 10:37:01,454 [INFO] HEARBEAT SENT: 8=FIX.4.4|9=62|35=0|49=MY_COMPANY|56=EXCHANGE|34=14|52=20250521-09:37:01.454|10=105|
2025-05-21 10:37:01,455 [INFO] HEARBEAT SENT: 8=FIX.4.4|9=62|35=0|49=MY_COMPANY|56=EXCHANGE|34=24|52=20250521-09:37:01.455|10=107|
2025-05-21 10:37:01,455 [INFO] HEARBEAT SENT: 8=FIX.4.4|9=62|35=0|49=MY_COMPANY|56=EXCHANGE|34=16|52=20250521-09:37:01.455|10=108|
2025-05-21 10:37:01,456 [INFO] HEARBEAT SENT: 8=FIX.4.4|9=61|35=0|49=MY_COMPANY|56=EXCHANGE|34=6|52=20250521-09:37:01.456|10=059|
2025-05-21 10:37:01,460 [INFO] HEARBEAT SENT: 8=FIX.4.4|9=62|35=0|49=MY_COMPANY|56=EXCHANGE|34=48|52=20250521-09:37:01.460|10=109|
2025-05-21 10:37:01,460 [INFO] HEARBEAT SENT: 8=FIX.4.4|9=62|35=0|49=MY_COMPANY|56=EXCHANGE|34=63|52=20250521-09:37:01.460|10=106|
2025-05-21 10:37:01,460 [INFO] HEARBEAT SENT: 8=FIX.4.4|9=62|35=0|49=MY_COMPANY|56=EXCHANGE|34=66|52=20250521-09:37:01.460|10=109|
2025-05-21 10:37:01,460 [INFO] HEARBEAT SENT: 8=FIX.4.4|9=62|35=0|49=MY_COMPANY|56=EXCHANGE|34=21|52=20250521-09:37:01.460|10=100|
2025-05-21 10:37:01,465 [INFO] HEARBEAT SENT: 8=FIX.4.4|9=62|35=0|49=MY_COMPANY|56=EXCHANGE|34=44|52=20250521-09:37:01.465|10=110|
2025-05-21 10:37:01,465 [INFO] HEARBEAT SENT: 8=FIX.4.4|9=62|35=0|49=MY_COMPANY|56=EXCHANGE|34=62|52=20250521-09:37:01.465|10=110|
2025-05-21 10:37:01,465 [INFO] HEARBEAT SENT: 8=FIX.4.4|9=62|35=0|49=MY_COMPANY|56=EXCHANGE|34=59|52=20250521-09:37:01.465|10=116|
2025-05-21 10:37:01,465 [INFO] HEARBEAT SENT: 8=FIX.4.4|9=62|35=0|49=MY_COMPANY|56=EXCHANGE|34=25|52=20250521-09:37:01.465|10=109|
2025-05-21 10:37:01,467 [INFO] HEARBEAT SENT: 8=FIX.4.4|9=62|35=0|49=MY_COMPANY|56=EXCHANGE|34=14|52=20250521-09:37:01.467|10=109|
2025-05-21 10:37:01,467 [INFO] HEARBEAT SENT: 8=FIX.4.4|9=62|35=0|49=MY_COMPANY|56=EXCHANGE|34=37|52=20250521-09:37:01.467|10=114|
2025-05-21 10:37:01,467 [INFO] HEARBEAT SENT: 8=FIX.4.4|9=62|35=0|49=MY_COMPANY|56=EXCHANGE|34=58|52=20250521-09:37:01.467|10=117|
2025-05-21 10:37:01,468 [INFO] HEARBEAT SENT: 8=FIX.4.4|9=62|35=0|49=MY_COMPANY|56=EXCHANGE|34=34|52=20250521-09:37:01.468|10=112|
2025-05-21 10:37:01,468 [INFO] HEARBEAT SENT: 8=FIX.4.4|9=62|35=0|49=MY_COMPANY|56=EXCHANGE|34=12|52=20250521-09:37:01.468|10=108|
2025-05-21 10:37:01,468 [INFO] HEARBEAT SENT: 8=FIX.4.4|9=61|35=0|49=MY_COMPANY|56=EXCHANGE|34=8|52=20250521-09:37:01.468|10=064|
2025-05-21 10:37:01,468 [INFO] HEARBEAT SENT: 8=FIX.4.4|9=62|35=0|49=MY_COMPANY|56=EXCHANGE|34=10|52=20250521-09:37:01.468|10=106|
2025-05-21 10:37:01,469 [INFO] HEARBEAT SENT: 8=FIX.4.4|9=61|35=0|49=MY_COMPANY|56=EXCHANGE|34=9|52=20250521-09:37:01.468|10=065|
2025-05-21 10:37:01,470 [INFO] HEARBEAT SENT: 8=FIX.4.4|9=62|35=0|49=MY_COMPANY|56=EXCHANGE|34=11|52=20250521-09:37:01.470|10=100|
2025-05-21 10:37:01,470 [INFO] HEARBEAT SENT: 8=FIX.4.4|9=62|35=0|49=MY_COMPANY|56=EXCHANGE|34=26|52=20250521-09:37:01.470|10=106|
2025-05-21 10:37:01,470 [INFO] HEARBEAT SENT: 8=FIX.4.4|9=62|35=0|49=MY_COMPANY|56=EXCHANGE|34=26|52=20250521-09:37:01.470|10=106|
2025-05-21 10:37:01,470 [INFO] HEARBEAT SENT: 8=FIX.4.4|9=62|35=0|49=MY_COMPANY|56=EXCHANGE|34=14|52=20250521-09:37:01.470|10=103|
2025-05-21 10:37:31,639 [INFO] HEARBEAT SENT: 8=FIX.4.4|9=62|35=0|49=MY_COMPANY|56=EXCHANGE|34=17|52=20250521-09:37:31.639|10=116|
2025-05-21 10:37:31,640 [INFO] HEARBEAT SENT: 8=FIX.4.4|9=62|35=0|49=MY_COMPANY|56=EXCHANGE|34=28|52=20250521-09:37:31.640|10=110|
2025-05-21 10:37:31,640 [INFO] HEARBEAT SENT: 8=FIX.4.4|9=62|35=0|49=MY_COMPANY|56=EXCHANGE|34=19|52=20250521-09:37:31.640|10=110|
2025-05-21 10:37:31,641 [INFO] HEARBEAT SENT: 8=FIX.4.4|9=61|35=0|49=MY_COMPANY|56=EXCHANGE|34=8|52=20250521-09:37:31.641|10=060|
2025-05-21 10:37:32,663 [INFO] HEARBEAT SENT: 8=FIX.4.4|9=62|35=0|49=MY_COMPANY|56=EXCHANGE|34=65|52=20250521-09:37:32.663|10=117|
2025-05-21 10:37:32,663 [INFO] HEARBEAT SENT: 8=FIX.4.4|9=62|35=0|49=MY_COMPANY|56=EXCHANGE|34=64|52=20250521-09:37:32.663|10=116|
2025-05-21 10:37:32,664 [INFO] HEARBEAT SENT: 8=FIX.4.4|9=62|35=0|49=MY_COMPANY|56=EXCHANGE|34=88|52=20250521-09:37:32.664|10=123|
2025-05-21 10:37:32,664 [INFO] HEARBEAT SENT: 8=FIX.4.4|9=62|35=0|49=MY_COMPANY|56=EXCHANGE|34=23|52=20250521-09:37:32.664|10=112|
2025-05-21 10:37:32,668 [INFO] HEARBEAT SENT: 8=FIX.4.4|9=62|35=0|49=MY_COMPANY|56=EXCHANGE|34=60|52=20250521-09:37:32.667|10=116|
2025-05-21 10:37:32,669 [INFO] HEARBEAT SENT: 8=FIX.4.4|9=62|35=0|49=MY_COMPANY|56=EXCHANGE|34=80|52=20250521-09:37:32.668|10=119|
2025-05-21 10:37:32,669 [INFO] HEARBEAT SENT: 8=FIX.4.4|9=62|35=0|49=MY_COMPANY|56=EXCHANGE|34=64|52=20250521-09:37:32.669|10=122|
2025-05-21 10:37:32,669 [INFO] HEARBEAT SENT: 8=FIX.4.4|9=62|35=0|49=MY_COMPANY|56=EXCHANGE|34=26|52=20250521-09:37:32.669|10=120|
2025-05-21 10:37:32,674 [INFO] HEARBEAT SENT: 8=FIX.4.4|9=62|35=0|49=MY_COMPANY|56=EXCHANGE|34=19|52=20250521-09:37:32.674|10=118|
2025-05-21 10:37:32,674 [INFO] HEARBEAT SENT: 8=FIX.4.4|9=62|35=0|49=MY_COMPANY|56=EXCHANGE|34=43|52=20250521-09:37:32.674|10=115|
2025-05-21 10:37:32,674 [INFO] HEARBEAT SENT: 8=FIX.4.4|9=62|35=0|49=MY_COMPANY|56=EXCHANGE|34=77|52=20250521-09:37:32.674|10=122|
2025-05-21 10:37:32,674 [INFO] HEARBEAT SENT: 8=FIX.4.4|9=62|35=0|49=MY_COMPANY|56=EXCHANGE|34=35|52=20250521-09:37:32.674|10=116|
2025-05-21 10:37:32,677 [INFO] HEARBEAT SENT: 8=FIX.4.4|9=62|35=0|49=MY_COMPANY|56=EXCHANGE|34=22|52=20250521-09:37:32.677|10=115|
2025-05-21 10:37:32,677 [INFO] HEARBEAT SENT: 8=FIX.4.4|9=62|35=0|49=MY_COMPANY|56=EXCHANGE|34=13|52=20250521-09:37:32.677|10=115|
2025-05-21 10:37:32,677 [INFO] HEARBEAT SENT: 8=FIX.4.4|9=62|35=0|49=MY_COMPANY|56=EXCHANGE|34=19|52=20250521-09:37:32.677|10=121|
2025-05-21 10:37:32,677 [INFO] HEARBEAT SENT: 8=FIX.4.4|9=62|35=0|49=MY_COMPANY|56=EXCHANGE|34=13|52=20250521-09:37:32.677|10=115|
2025-05-21 10:37:32,679 [INFO] HEARBEAT SENT: 8=FIX.4.4|9=62|35=0|49=MY_COMPANY|56=EXCHANGE|34=14|52=20250521-09:37:32.679|10=118|
2025-05-21 10:37:32,679 [INFO] HEARBEAT SENT: 8=FIX.4.4|9=62|35=0|49=MY_COMPANY|56=EXCHANGE|34=30|52=20250521-09:37:32.679|10=116|
2025-05-21 10:37:32,679 [INFO] HEARBEAT SENT: 8=FIX.4.4|9=62|35=0|49=MY_COMPANY|56=EXCHANGE|34=35|52=20250521-09:37:32.679|10=121|
2025-05-21 10:37:32,680 [INFO] HEARBEAT SENT: 8=FIX.4.4|9=62|35=0|49=MY_COMPANY|56=EXCHANGE|34=16|52=20250521-09:37:32.680|10=112|
2025-05-21 10:38:04,476 [INFO] HEARBEAT SENT: 8=FIX.4.4|9=62|35=0|49=MY_COMPANY|56=EXCHANGE|34=18|52=20250521-09:38:04.476|10=117|
2025-05-21 10:38:04,477 [INFO] HEARBEAT SENT: 8=FIX.4.4|9=62|35=0|49=MY_COMPANY|56=EXCHANGE|34=29|52=20250521-09:38:04.477|10=120|
2025-05-21 10:38:04,477 [INFO] HEARBEAT SENT: 8=FIX.4.4|9=62|35=0|49=MY_COMPANY|56=EXCHANGE|34=20|52=20250521-09:38:04.477|10=111|
2025-05-21 10:38:04,477 [INFO] HEARBEAT SENT: 8=FIX.4.4|9=61|35=0|49=MY_COMPANY|56=EXCHANGE|34=9|52=20250521-09:38:04.477|10=069|
2025-05-21 10:38:04,488 [INFO] HEARBEAT SENT: 8=FIX.4.4|9=62|35=0|49=MY_COMPANY|56=EXCHANGE|34=66|52=20250521-09:38:04.488|10=123|
2025-05-21 10:38:04,488 [INFO] HEARBEAT SENT: 8=FIX.4.4|9=62|35=0|49=MY_COMPANY|56=EXCHANGE|34=71|52=20250521-09:38:04.488|10=119|
2025-05-21 10:38:04,489 [INFO] HEARBEAT SENT: 8=FIX.4.4|9=63|35=0|49=MY_COMPANY|56=EXCHANGE|34=116|52=20250521-09:38:04.489|10=169|
2025-05-21 10:38:04,489 [INFO] HEARBEAT SENT: 8=FIX.4.4|9=62|35=0|49=MY_COMPANY|56=EXCHANGE|34=28|52=20250521-09:38:04.489|10=122|
2025-05-21 10:38:04,489 [INFO] HEARBEAT SENT: 8=FIX.4.4|9=62|35=0|49=MY_COMPANY|56=EXCHANGE|34=61|52=20250521-09:38:04.489|10=119|
2025-05-21 10:38:04,490 [INFO] HEARBEAT SENT: 8=FIX.4.4|9=62|35=0|49=MY_COMPANY|56=EXCHANGE|34=81|52=20250521-09:38:04.489|10=121|
2025-05-21 10:38:04,490 [INFO] HEARBEAT SENT: 8=FIX.4.4|9=62|35=0|49=MY_COMPANY|56=EXCHANGE|34=65|52=20250521-09:38:04.490|10=115|
2025-05-21 10:38:04,490 [INFO] HEARBEAT SENT: 8=FIX.4.4|9=62|35=0|49=MY_COMPANY|56=EXCHANGE|34=31|52=20250521-09:38:04.490|10=108|
2025-05-21 10:38:05,318 [INFO] HEARBEAT SENT: 8=FIX.4.4|9=62|35=0|49=MY_COMPANY|56=EXCHANGE|34=20|52=20250521-09:38:05.318|10=106|
2025-05-21 10:38:05,319 [INFO] HEARBEAT SENT: 8=FIX.4.4|9=62|35=0|49=MY_COMPANY|56=EXCHANGE|34=44|52=20250521-09:38:05.318|10=112|
2025-05-21 10:38:05,319 [INFO] HEARBEAT SENT: 8=FIX.4.4|9=62|35=0|49=MY_COMPANY|56=EXCHANGE|34=93|52=20250521-09:38:05.319|10=117|
2025-05-21 10:38:05,319 [INFO] HEARBEAT SENT: 8=FIX.4.4|9=62|35=0|49=MY_COMPANY|56=EXCHANGE|34=39|52=20250521-09:38:05.319|10=117|
2025-05-21 10:38:06,148 [INFO] HEARBEAT SENT: 8=FIX.4.4|9=62|35=0|49=MY_COMPANY|56=EXCHANGE|34=26|52=20250521-09:38:06.147|10=113|
2025-05-21 10:38:06,148 [INFO] HEARBEAT SENT: 8=FIX.4.4|9=62|35=0|49=MY_COMPANY|56=EXCHANGE|34=14|52=20250521-09:38:06.148|10=111|
2025-05-21 10:38:06,148 [INFO] HEARBEAT SENT: 8=FIX.4.4|9=62|35=0|49=MY_COMPANY|56=EXCHANGE|34=20|52=20250521-09:38:06.148|10=108|
2025-05-21 10:38:06,148 [INFO] HEARBEAT SENT: 8=FIX.4.4|9=62|35=0|49=MY_COMPANY|56=EXCHANGE|34=14|52=20250521-09:38:06.148|10=111|
2025-05-21 10:38:06,979 [INFO] HEARBEAT SENT: 8=FIX.4.4|9=62|35=0|49=MY_COMPANY|56=EXCHANGE|34=15|52=20250521-09:38:06.979|10=124|
2025-05-21 10:38:06,979 [INFO] HEARBEAT SENT: 8=FIX.4.4|9=62|35=0|49=MY_COMPANY|56=EXCHANGE|34=31|52=20250521-09:38:06.979|10=122|
2025-05-21 10:38:06,979 [INFO] HEARBEAT SENT: 8=FIX.4.4|9=62|35=0|49=MY_COMPANY|56=EXCHANGE|34=49|52=20250521-09:38:06.979|10=131|
2025-05-21 10:38:06,980 [INFO] HEARBEAT SENT: 8=FIX.4.4|9=62|35=0|49=MY_COMPANY|56=EXCHANGE|34=17|52=20250521-09:38:06.980|10=118|
2025-05-21 10:38:37,138 [INFO] HEARBEAT SENT: 8=FIX.4.4|9=62|35=0|49=MY_COMPANY|56=EXCHANGE|34=21|52=20250521-09:38:37.137|10=111|
2025-05-21 10:38:37,138 [INFO] HEARBEAT SENT: 8=FIX.4.4|9=62|35=0|49=MY_COMPANY|56=EXCHANGE|34=32|52=20250521-09:38:37.138|10=114|
2025-05-21 10:38:37,138 [INFO] HEARBEAT SENT: 8=FIX.4.4|9=62|35=0|49=MY_COMPANY|56=EXCHANGE|34=23|52=20250521-09:38:37.138|10=114|
2025-05-21 10:38:37,138 [INFO] HEARBEAT SENT: 8=FIX.4.4|9=62|35=0|49=MY_COMPANY|56=EXCHANGE|34=11|52=20250521-09:38:37.138|10=111|
2025-05-21 10:38:37,143 [INFO] HEARBEAT SENT: 8=FIX.4.4|9=62|35=0|49=MY_COMPANY|56=EXCHANGE|34=80|52=20250521-09:38:37.143|10=113|
2025-05-21 10:38:37,143 [INFO] HEARBEAT SENT: 8=FIX.4.4|9=62|35=0|49=MY_COMPANY|56=EXCHANGE|34=74|52=20250521-09:38:37.143|10=116|
2025-05-21 10:38:37,143 [INFO] HEARBEAT SENT: 8=FIX.4.4|9=63|35=0|49=MY_COMPANY|56=EXCHANGE|34=141|52=20250521-09:38:37.143|10=160|
2025-05-21 10:38:37,143 [INFO] HEARBEAT SENT: 8=FIX.4.4|9=62|35=0|49=MY_COMPANY|56=EXCHANGE|34=29|52=20250521-09:38:37.143|10=116|
2025-05-21 10:38:37,143 [INFO] HEARBEAT SENT: 8=FIX.4.4|9=62|35=0|49=MY_COMPANY|56=EXCHANGE|34=73|52=20250521-09:38:37.143|10=115|
2025-05-21 10:38:37,143 [INFO] HEARBEAT SENT: 8=FIX.4.4|9=62|35=0|49=MY_COMPANY|56=EXCHANGE|34=91|52=20250521-09:38:37.143|10=115|
2025-05-21 10:38:37,144 [INFO] HEARBEAT SENT: 8=FIX.4.4|9=62|35=0|49=MY_COMPANY|56=EXCHANGE|34=72|52=20250521-09:38:37.144|10=115|
2025-05-21 10:38:37,144 [INFO] HEARBEAT SENT: 8=FIX.4.4|9=62|35=0|49=MY_COMPANY|56=EXCHANGE|34=33|52=20250521-09:38:37.144|10=112|
2025-05-21 10:38:37,146 [INFO] HEARBEAT SENT: 8=FIX.4.4|9=62|35=0|49=MY_COMPANY|56=EXCHANGE|34=23|52=20250521-09:38:37.146|10=113|
2025-05-21 10:38:37,146 [INFO] HEARBEAT SENT: 8=FIX.4.4|9=62|35=0|49=MY_COMPANY|56=EXCHANGE|34=47|52=20250521-09:38:37.146|10=119|
2025-05-21 10:38:37,146 [INFO] HEARBEAT SENT: 8=FIX.4.4|9=63|35=0|49=MY_COMPANY|56=EXCHANGE|34=107|52=20250521-09:38:37.146|10=165|
2025-05-21 10:38:37,146 [INFO] HEARBEAT SENT: 8=FIX.4.4|9=62|35=0|49=MY_COMPANY|56=EXCHANGE|34=40|52=20250521-09:38:37.146|10=112|
2025-05-21 10:38:37,146 [INFO] HEARBEAT SENT: 8=FIX.4.4|9=62|35=0|49=MY_COMPANY|56=EXCHANGE|34=27|52=20250521-09:38:37.146|10=117|
2025-05-21 10:38:37,146 [INFO] HEARBEAT SENT: 8=FIX.4.4|9=62|35=0|49=MY_COMPANY|56=EXCHANGE|34=17|52=20250521-09:38:37.146|10=116|
2025-05-21 10:38:37,146 [INFO] HEARBEAT SENT: 8=FIX.4.4|9=62|35=0|49=MY_COMPANY|56=EXCHANGE|34=25|52=20250521-09:38:37.146|10=115|
2025-05-21 10:38:37,146 [INFO] HEARBEAT SENT: 8=FIX.4.4|9=62|35=0|49=MY_COMPANY|56=EXCHANGE|34=17|52=20250521-09:38:37.146|10=116|
2025-05-21 10:38:37,147 [INFO] HEARBEAT SENT: 8=FIX.4.4|9=62|35=0|49=MY_COMPANY|56=EXCHANGE|34=18|52=20250521-09:38:37.147|10=118|
2025-05-21 10:38:37,148 [INFO] HEARBEAT SENT: 8=FIX.4.4|9=62|35=0|49=MY_COMPANY|56=EXCHANGE|34=34|52=20250521-09:38:37.148|10=117|
2025-05-21 10:38:37,148 [INFO] HEARBEAT SENT: 8=FIX.4.4|9=62|35=0|49=MY_COMPANY|56=EXCHANGE|34=62|52=20250521-09:38:37.148|10=118|
2025-05-21 10:38:37,148 [INFO] HEARBEAT SENT: 8=FIX.4.4|9=62|35=0|49=MY_COMPANY|56=EXCHANGE|34=24|52=20250521-09:38:37.148|10=116|
2025-05-21 10:39:07,238 [INFO] HEARBEAT SENT: 8=FIX.4.4|9=62|35=0|49=MY_COMPANY|56=EXCHANGE|34=22|52=20250521-09:39:07.238|10=112|
2025-05-21 10:39:07,238 [INFO] HEARBEAT SENT: 8=FIX.4.4|9=62|35=0|49=MY_COMPANY|56=EXCHANGE|34=33|52=20250521-09:39:07.238|10=114|
2025-05-21 10:39:07,238 [INFO] HEARBEAT SENT: 8=FIX.4.4|9=62|35=0|49=MY_COMPANY|56=EXCHANGE|34=24|52=20250521-09:39:07.238|10=114|
2025-05-21 10:39:07,239 [INFO] HEARBEAT SENT: 8=FIX.4.4|9=62|35=0|49=MY_COMPANY|56=EXCHANGE|34=12|52=20250521-09:39:07.239|10=112|
2025-05-21 10:39:07,240 [INFO] HEARBEAT SENT: 8=FIX.4.4|9=62|35=0|49=MY_COMPANY|56=EXCHANGE|34=84|52=20250521-09:39:07.240|10=113|
2025-05-21 10:39:07,240 [INFO] HEARBEAT SENT: 8=FIX.4.4|9=62|35=0|49=MY_COMPANY|56=EXCHANGE|34=75|52=20250521-09:39:07.240|10=113|
2025-05-21 10:39:07,240 [INFO] HEARBEAT SENT: 8=FIX.4.4|9=63|35=0|49=MY_COMPANY|56=EXCHANGE|34=155|52=20250521-09:39:07.240|10=161|
2025-05-21 10:39:07,240 [INFO] HEARBEAT SENT: 8=FIX.4.4|9=62|35=0|49=MY_COMPANY|56=EXCHANGE|34=31|52=20250521-09:39:07.240|10=105|
2025-05-21 10:39:07,240 [INFO] HEARBEAT SENT: 8=FIX.4.4|9=62|35=0|49=MY_COMPANY|56=EXCHANGE|34=74|52=20250521-09:39:07.240|10=112|
2025-05-21 10:39:07,240 [INFO] HEARBEAT SENT: 8=FIX.4.4|9=62|35=0|49=MY_COMPANY|56=EXCHANGE|34=92|52=20250521-09:39:07.240|10=112|
2025-05-21 10:39:07,240 [INFO] HEARBEAT SENT: 8=FIX.4.4|9=62|35=0|49=MY_COMPANY|56=EXCHANGE|34=73|52=20250521-09:39:07.240|10=111|
2025-05-21 10:39:07,240 [INFO] HEARBEAT SENT: 8=FIX.4.4|9=62|35=0|49=MY_COMPANY|56=EXCHANGE|34=34|52=20250521-09:39:07.240|10=108|
2025-05-21 10:39:07,241 [INFO] HEARBEAT SENT: 8=FIX.4.4|9=62|35=0|49=MY_COMPANY|56=EXCHANGE|34=24|52=20250521-09:39:07.241|10=108|
2025-05-21 10:39:07,242 [INFO] HEARBEAT SENT: 8=FIX.4.4|9=62|35=0|49=MY_COMPANY|56=EXCHANGE|34=61|52=20250521-09:39:07.242|10=110|
2025-05-21 10:39:07,242 [INFO] HEARBEAT SENT: 8=FIX.4.4|9=63|35=0|49=MY_COMPANY|56=EXCHANGE|34=108|52=20250521-09:39:07.242|10=161|
2025-05-21 10:39:07,242 [INFO] HEARBEAT SENT: 8=FIX.4.4|9=62|35=0|49=MY_COMPANY|56=EXCHANGE|34=46|52=20250521-09:39:07.242|10=113|
2025-05-21 10:39:07,242 [INFO] HEARBEAT SENT: 8=FIX.4.4|9=62|35=0|49=MY_COMPANY|56=EXCHANGE|34=30|52=20250521-09:39:07.242|10=106|
2025-05-21 10:39:07,242 [INFO] HEARBEAT SENT: 8=FIX.4.4|9=62|35=0|49=MY_COMPANY|56=EXCHANGE|34=18|52=20250521-09:39:07.242|10=112|
2025-05-21 10:39:07,242 [INFO] HEARBEAT SENT: 8=FIX.4.4|9=62|35=0|49=MY_COMPANY|56=EXCHANGE|34=26|52=20250521-09:39:07.242|10=111|
2025-05-21 10:39:07,242 [INFO] HEARBEAT SENT: 8=FIX.4.4|9=62|35=0|49=MY_COMPANY|56=EXCHANGE|34=18|52=20250521-09:39:07.242|10=112|
2025-05-21 10:39:07,242 [INFO] HEARBEAT SENT: 8=FIX.4.4|9=62|35=0|49=MY_COMPANY|56=EXCHANGE|34=19|52=20250521-09:39:07.242|10=113|
2025-05-21 10:39:07,242 [INFO] HEARBEAT SENT: 8=FIX.4.4|9=62|35=0|49=MY_COMPANY|56=EXCHANGE|34=35|52=20250521-09:39:07.242|10=111|
2025-05-21 10:39:07,242 [INFO] HEARBEAT SENT: 8=FIX.4.4|9=62|35=0|49=MY_COMPANY|56=EXCHANGE|34=63|52=20250521-09:39:07.242|10=112|
2025-05-21 10:39:07,242 [INFO] HEARBEAT SENT: 8=FIX.4.4|9=62|35=0|49=MY_COMPANY|56=EXCHANGE|34=25|52=20250521-09:39:07.242|10=110|
2025-05-21 10:39:37,467 [INFO] HEARBEAT SENT: 8=FIX.4.4|9=62|35=0|49=MY_COMPANY|56=EXCHANGE|34=27|52=20250521-09:39:37.467|10=124|
2025-05-21 10:39:37,469 [INFO] HEARBEAT SENT: 8=FIX.4.4|9=62|35=0|49=MY_COMPANY|56=EXCHANGE|34=36|52=20250521-09:39:37.469|10=126|
2025-05-21 10:39:37,469 [INFO] HEARBEAT SENT: 8=FIX.4.4|9=62|35=0|49=MY_COMPANY|56=EXCHANGE|34=27|52=20250521-09:39:37.469|10=126|
2025-05-21 10:39:37,469 [INFO] HEARBEAT SENT: 8=FIX.4.4|9=62|35=0|49=MY_COMPANY|56=EXCHANGE|34=14|52=20250521-09:39:37.469|10=122|
2025-05-21 10:39:37,470 [INFO] HEARBEAT SENT: 8=FIX.4.4|9=62|35=0|49=MY_COMPANY|56=EXCHANGE|34=85|52=20250521-09:39:37.470|10=122|
2025-05-21 10:39:37,471 [INFO] HEARBEAT SENT: 8=FIX.4.4|9=62|35=0|49=MY_COMPANY|56=EXCHANGE|34=80|52=20250521-09:39:37.471|10=118|
2025-05-21 10:39:37,471 [INFO] HEARBEAT SENT: 8=FIX.4.4|9=63|35=0|49=MY_COMPANY|56=EXCHANGE|34=156|52=20250521-09:39:37.471|10=171|
2025-05-21 10:39:37,471 [INFO] HEARBEAT SENT: 8=FIX.4.4|9=62|35=0|49=MY_COMPANY|56=EXCHANGE|34=35|52=20250521-09:39:37.471|10=118|
2025-05-21 10:39:37,476 [INFO] HEARBEAT SENT: 8=FIX.4.4|9=62|35=0|49=MY_COMPANY|56=EXCHANGE|34=81|52=20250521-09:39:37.476|10=124|
2025-05-21 10:39:37,477 [INFO] HEARBEAT SENT: 8=FIX.4.4|9=62|35=0|49=MY_COMPANY|56=EXCHANGE|34=97|52=20250521-09:39:37.477|10=132|
2025-05-21 10:39:37,477 [INFO] HEARBEAT SENT: 8=FIX.4.4|9=62|35=0|49=MY_COMPANY|56=EXCHANGE|34=79|52=20250521-09:39:37.477|10=132|
2025-05-21 10:39:37,477 [INFO] HEARBEAT SENT: 8=FIX.4.4|9=62|35=0|49=MY_COMPANY|56=EXCHANGE|34=43|52=20250521-09:39:37.477|10=123|
2025-05-21 10:39:37,481 [INFO] HEARBEAT SENT: 8=FIX.4.4|9=62|35=0|49=MY_COMPANY|56=EXCHANGE|34=29|52=20250521-09:39:37.481|10=122|
2025-05-21 10:39:37,481 [INFO] HEARBEAT SENT: 8=FIX.4.4|9=62|35=0|49=MY_COMPANY|56=EXCHANGE|34=74|52=20250521-09:39:37.481|10=122|
2025-05-21 10:39:37,481 [INFO] HEARBEAT SENT: 8=FIX.4.4|9=63|35=0|49=MY_COMPANY|56=EXCHANGE|34=111|52=20250521-09:39:37.481|10=163|
2025-05-21 10:39:37,481 [INFO] HEARBEAT SENT: 8=FIX.4.4|9=62|35=0|49=MY_COMPANY|56=EXCHANGE|34=62|52=20250521-09:39:37.481|10=119|
2025-05-21 10:39:37,482 [INFO] HEARBEAT SENT: 8=FIX.4.4|9=62|35=0|49=MY_COMPANY|56=EXCHANGE|34=31|52=20250521-09:39:37.482|10=116|
2025-05-21 10:39:37,482 [INFO] HEARBEAT SENT: 8=FIX.4.4|9=62|35=0|49=MY_COMPANY|56=EXCHANGE|34=21|52=20250521-09:39:37.482|10=115|
2025-05-21 10:39:37,482 [INFO] HEARBEAT SENT: 8=FIX.4.4|9=62|35=0|49=MY_COMPANY|56=EXCHANGE|34=30|52=20250521-09:39:37.482|10=115|
2025-05-21 10:39:37,482 [INFO] HEARBEAT SENT: 8=FIX.4.4|9=62|35=0|49=MY_COMPANY|56=EXCHANGE|34=20|52=20250521-09:39:37.482|10=114|
2025-05-21 10:39:37,485 [INFO] HEARBEAT SENT: 8=FIX.4.4|9=62|35=0|49=MY_COMPANY|56=EXCHANGE|34=22|52=20250521-09:39:37.485|10=119|
2025-05-21 10:39:37,485 [INFO] HEARBEAT SENT: 8=FIX.4.4|9=62|35=0|49=MY_COMPANY|56=EXCHANGE|34=40|52=20250521-09:39:37.485|10=119|
2025-05-21 10:39:37,485 [INFO] HEARBEAT SENT: 8=FIX.4.4|9=62|35=0|49=MY_COMPANY|56=EXCHANGE|34=66|52=20250521-09:39:37.485|10=127|
2025-05-21 10:39:37,485 [INFO] HEARBEAT SENT: 8=FIX.4.4|9=62|35=0|49=MY_COMPANY|56=EXCHANGE|34=27|52=20250521-09:39:37.485|10=124|
2025-05-21 10:40:07,625 [INFO] HEARBEAT SENT: 8=FIX.4.4|9=62|35=0|49=MY_COMPANY|56=EXCHANGE|34=28|52=20250521-09:40:07.625|10=110|
2025-05-21 10:40:07,626 [INFO] HEARBEAT SENT: 8=FIX.4.4|9=62|35=0|49=MY_COMPANY|56=EXCHANGE|34=37|52=20250521-09:40:07.626|10=111|
2025-05-21 10:40:07,627 [INFO] HEARBEAT SENT: 8=FIX.4.4|9=62|35=0|49=MY_COMPANY|56=EXCHANGE|34=28|52=20250521-09:40:07.627|10=112|
2025-05-21 10:40:07,627 [INFO] HEARBEAT SENT: 8=FIX.4.4|9=62|35=0|49=MY_COMPANY|56=EXCHANGE|34=15|52=20250521-09:40:07.627|10=108|
2025-05-21 10:40:07,631 [INFO] HEARBEAT SENT: 8=FIX.4.4|9=62|35=0|49=MY_COMPANY|56=EXCHANGE|34=98|52=20250521-09:40:07.631|10=114|
2025-05-21 10:40:07,631 [INFO] HEARBEAT SENT: 8=FIX.4.4|9=62|35=0|49=MY_COMPANY|56=EXCHANGE|34=81|52=20250521-09:40:07.631|10=106|
2025-05-21 10:40:07,631 [INFO] HEARBEAT SENT: 8=FIX.4.4|9=63|35=0|49=MY_COMPANY|56=EXCHANGE|34=164|52=20250521-09:40:07.631|10=157|
2025-05-21 10:40:07,631 [INFO] HEARBEAT SENT: 8=FIX.4.4|9=62|35=0|49=MY_COMPANY|56=EXCHANGE|34=36|52=20250521-09:40:07.631|10=106|
2025-05-21 10:40:07,635 [INFO] HEARBEAT SENT: 8=FIX.4.4|9=62|35=0|49=MY_COMPANY|56=EXCHANGE|34=98|52=20250521-09:40:07.635|10=118|
2025-05-21 10:40:07,635 [INFO] HEARBEAT SENT: 8=FIX.4.4|9=63|35=0|49=MY_COMPANY|56=EXCHANGE|34=100|52=20250521-09:40:07.635|10=151|
2025-05-21 10:40:07,635 [INFO] HEARBEAT SENT: 8=FIX.4.4|9=62|35=0|49=MY_COMPANY|56=EXCHANGE|34=80|52=20250521-09:40:07.635|10=109|
2025-05-21 10:40:07,636 [INFO] HEARBEAT SENT: 8=FIX.4.4|9=62|35=0|49=MY_COMPANY|56=EXCHANGE|34=44|52=20250521-09:40:07.636|10=110|
2025-05-21 10:40:07,638 [INFO] HEARBEAT SENT: 8=FIX.4.4|9=62|35=0|49=MY_COMPANY|56=EXCHANGE|34=30|52=20250521-09:40:07.638|10=107|
2025-05-21 10:40:07,639 [INFO] HEARBEAT SENT: 8=FIX.4.4|9=62|35=0|49=MY_COMPANY|56=EXCHANGE|34=75|52=20250521-09:40:07.639|10=117|
2025-05-21 10:40:07,639 [INFO] HEARBEAT SENT: 8=FIX.4.4|9=63|35=0|49=MY_COMPANY|56=EXCHANGE|34=127|52=20250521-09:40:07.639|10=164|
2025-05-21 10:40:07,639 [INFO] HEARBEAT SENT: 8=FIX.4.4|9=62|35=0|49=MY_COMPANY|56=EXCHANGE|34=63|52=20250521-09:40:07.639|10=114|
2025-05-21 10:40:07,640 [INFO] HEARBEAT SENT: 8=FIX.4.4|9=62|35=0|49=MY_COMPANY|56=EXCHANGE|34=34|52=20250521-09:40:07.640|10=104|
2025-05-21 10:40:07,640 [INFO] HEARBEAT SENT: 8=FIX.4.4|9=62|35=0|49=MY_COMPANY|56=EXCHANGE|34=22|52=20250521-09:40:07.640|10=101|
2025-05-21 10:40:07,640 [INFO] HEARBEAT SENT: 8=FIX.4.4|9=62|35=0|49=MY_COMPANY|56=EXCHANGE|34=31|52=20250521-09:40:07.640|10=101|
2025-05-21 10:40:07,640 [INFO] HEARBEAT SENT: 8=FIX.4.4|9=62|35=0|49=MY_COMPANY|56=EXCHANGE|34=21|52=20250521-09:40:07.640|10=100|
2025-05-21 10:40:07,641 [INFO] HEARBEAT SENT: 8=FIX.4.4|9=62|35=0|49=MY_COMPANY|56=EXCHANGE|34=23|52=20250521-09:40:07.641|10=103|
2025-05-21 10:40:07,641 [INFO] HEARBEAT SENT: 8=FIX.4.4|9=62|35=0|49=MY_COMPANY|56=EXCHANGE|34=41|52=20250521-09:40:07.641|10=103|
2025-05-21 10:40:07,641 [INFO] HEARBEAT SENT: 8=FIX.4.4|9=62|35=0|49=MY_COMPANY|56=EXCHANGE|34=71|52=20250521-09:40:07.641|10=106|
2025-05-21 10:40:07,642 [INFO] HEARBEAT SENT: 8=FIX.4.4|9=62|35=0|49=MY_COMPANY|56=EXCHANGE|34=28|52=20250521-09:40:07.642|10=109|
2025-05-21 10:40:37,785 [INFO] HEARBEAT SENT: 8=FIX.4.4|9=62|35=0|49=MY_COMPANY|56=EXCHANGE|34=33|52=20250521-09:40:37.785|10=116|
2025-05-21 10:40:37,786 [INFO] HEARBEAT SENT: 8=FIX.4.4|9=62|35=0|49=MY_COMPANY|56=EXCHANGE|34=40|52=20250521-09:40:37.786|10=115|
2025-05-21 10:40:37,787 [INFO] HEARBEAT SENT: 8=FIX.4.4|9=62|35=0|49=MY_COMPANY|56=EXCHANGE|34=31|52=20250521-09:40:37.787|10=116|
2025-05-21 10:40:37,788 [INFO] HEARBEAT SENT: 8=FIX.4.4|9=62|35=0|49=MY_COMPANY|56=EXCHANGE|34=19|52=20250521-09:40:37.788|10=123|
2025-05-21 10:40:37,789 [INFO] HEARBEAT SENT: 8=FIX.4.4|9=63|35=0|49=MY_COMPANY|56=EXCHANGE|34=107|52=20250521-09:40:37.789|10=171|
2025-05-21 10:40:37,789 [INFO] HEARBEAT SENT: 8=FIX.4.4|9=62|35=0|49=MY_COMPANY|56=EXCHANGE|34=89|52=20250521-09:40:37.789|10=131|
2025-05-21 10:40:37,790 [INFO] HEARBEAT SENT: 8=FIX.4.4|9=63|35=0|49=MY_COMPANY|56=EXCHANGE|34=165|52=20250521-09:40:37.790|10=167|
2025-05-21 10:40:37,790 [INFO] HEARBEAT SENT: 8=FIX.4.4|9=62|35=0|49=MY_COMPANY|56=EXCHANGE|34=41|52=20250521-09:40:37.790|10=111|
2025-05-21 10:40:37,796 [INFO] HEARBEAT SENT: 8=FIX.4.4|9=63|35=0|49=MY_COMPANY|56=EXCHANGE|34=117|52=20250521-09:40:37.796|10=170|
2025-05-21 10:40:37,797 [INFO] HEARBEAT SENT: 8=FIX.4.4|9=63|35=0|49=MY_COMPANY|56=EXCHANGE|34=101|52=20250521-09:40:37.797|10=164|
2025-05-21 10:40:37,797 [INFO] HEARBEAT SENT: 8=FIX.4.4|9=62|35=0|49=MY_COMPANY|56=EXCHANGE|34=88|52=20250521-09:40:37.797|10=129|
2025-05-21 10:40:37,797 [INFO] HEARBEAT SENT: 8=FIX.4.4|9=62|35=0|49=MY_COMPANY|56=EXCHANGE|34=46|52=20250521-09:40:37.797|10=123|
2025-05-21 10:40:37,805 [INFO] HEARBEAT SENT: 8=FIX.4.4|9=62|35=0|49=MY_COMPANY|56=EXCHANGE|34=33|52=20250521-09:40:37.805|10=109|
2025-05-21 10:40:37,805 [INFO] HEARBEAT SENT: 8=FIX.4.4|9=62|35=0|49=MY_COMPANY|56=EXCHANGE|34=81|52=20250521-09:40:37.805|10=112|
2025-05-21 10:40:37,805 [INFO] HEARBEAT SENT: 8=FIX.4.4|9=63|35=0|49=MY_COMPANY|56=EXCHANGE|34=134|52=20250521-09:40:37.805|10=160|
2025-05-21 10:40:37,805 [INFO] HEARBEAT SENT: 8=FIX.4.4|9=62|35=0|49=MY_COMPANY|56=EXCHANGE|34=65|52=20250521-09:40:37.805|10=114|
2025-05-21 10:40:37,807 [INFO] HEARBEAT SENT: 8=FIX.4.4|9=62|35=0|49=MY_COMPANY|56=EXCHANGE|34=35|52=20250521-09:40:37.807|10=113|
2025-05-21 10:40:37,807 [INFO] HEARBEAT SENT: 8=FIX.4.4|9=62|35=0|49=MY_COMPANY|56=EXCHANGE|34=25|52=20250521-09:40:37.807|10=112|
2025-05-21 10:40:37,808 [INFO] HEARBEAT SENT: 8=FIX.4.4|9=62|35=0|49=MY_COMPANY|56=EXCHANGE|34=34|52=20250521-09:40:37.808|10=113|
2025-05-21 10:40:37,808 [INFO] HEARBEAT SENT: 8=FIX.4.4|9=62|35=0|49=MY_COMPANY|56=EXCHANGE|34=24|52=20250521-09:40:37.808|10=112|
2025-05-21 10:40:37,809 [INFO] HEARBEAT SENT: 8=FIX.4.4|9=62|35=0|49=MY_COMPANY|56=EXCHANGE|34=32|52=20250521-09:40:37.809|10=112|
2025-05-21 10:40:37,810 [INFO] HEARBEAT SENT: 8=FIX.4.4|9=62|35=0|49=MY_COMPANY|56=EXCHANGE|34=44|52=20250521-09:40:37.810|10=107|
2025-05-21 10:40:37,810 [INFO] HEARBEAT SENT: 8=FIX.4.4|9=62|35=0|49=MY_COMPANY|56=EXCHANGE|34=72|52=20250521-09:40:37.810|10=108|
2025-05-21 10:40:37,810 [INFO] HEARBEAT SENT: 8=FIX.4.4|9=62|35=0|49=MY_COMPANY|56=EXCHANGE|34=30|52=20250521-09:40:37.810|10=102|
2025-05-21 10:41:07,912 [INFO] HEARBEAT SENT: 8=FIX.4.4|9=62|35=0|49=MY_COMPANY|56=EXCHANGE|34=34|52=20250521-09:41:07.912|10=107|
2025-05-21 10:41:07,913 [INFO] HEARBEAT SENT: 8=FIX.4.4|9=62|35=0|49=MY_COMPANY|56=EXCHANGE|34=41|52=20250521-09:41:07.913|10=106|
2025-05-21 10:41:07,914 [INFO] HEARBEAT SENT: 8=FIX.4.4|9=62|35=0|49=MY_COMPANY|56=EXCHANGE|34=32|52=20250521-09:41:07.914|10=107|
2025-05-21 10:41:07,914 [INFO] HEARBEAT SENT: 8=FIX.4.4|9=62|35=0|49=MY_COMPANY|56=EXCHANGE|34=20|52=20250521-09:41:07.914|10=104|
2025-05-21 10:41:07,919 [INFO] HEARBEAT SENT: 8=FIX.4.4|9=63|35=0|49=MY_COMPANY|56=EXCHANGE|34=108|52=20250521-09:41:07.919|10=165|
2025-05-21 10:41:07,919 [INFO] HEARBEAT SENT: 8=FIX.4.4|9=62|35=0|49=MY_COMPANY|56=EXCHANGE|34=90|52=20250521-09:41:07.919|10=116|
2025-05-21 10:41:07,919 [INFO] HEARBEAT SENT: 8=FIX.4.4|9=63|35=0|49=MY_COMPANY|56=EXCHANGE|34=171|52=20250521-09:41:07.919|10=165|
2025-05-21 10:41:07,919 [INFO] HEARBEAT SENT: 8=FIX.4.4|9=62|35=0|49=MY_COMPANY|56=EXCHANGE|34=42|52=20250521-09:41:07.919|10=113|
2025-05-21 10:41:07,922 [INFO] HEARBEAT SENT: 8=FIX.4.4|9=63|35=0|49=MY_COMPANY|56=EXCHANGE|34=134|52=20250521-09:41:07.922|10=158|
2025-05-21 10:41:07,922 [INFO] HEARBEAT SENT: 8=FIX.4.4|9=63|35=0|49=MY_COMPANY|56=EXCHANGE|34=108|52=20250521-09:41:07.922|10=159|
2025-05-21 10:41:07,922 [INFO] HEARBEAT SENT: 8=FIX.4.4|9=62|35=0|49=MY_COMPANY|56=EXCHANGE|34=89|52=20250521-09:41:07.922|10=118|
2025-05-21 10:41:07,922 [INFO] HEARBEAT SENT: 8=FIX.4.4|9=62|35=0|49=MY_COMPANY|56=EXCHANGE|34=51|52=20250521-09:41:07.922|10=107|
2025-05-21 10:41:07,923 [INFO] HEARBEAT SENT: 8=FIX.4.4|9=62|35=0|49=MY_COMPANY|56=EXCHANGE|34=34|52=20250521-09:41:07.922|10=108|
2025-05-21 10:41:07,923 [INFO] HEARBEAT SENT: 8=FIX.4.4|9=62|35=0|49=MY_COMPANY|56=EXCHANGE|34=84|52=20250521-09:41:07.923|10=114|
2025-05-21 10:41:07,923 [INFO] HEARBEAT SENT: 8=FIX.4.4|9=63|35=0|49=MY_COMPANY|56=EXCHANGE|34=135|52=20250521-09:41:07.923|10=160|
2025-05-21 10:41:07,923 [INFO] HEARBEAT SENT: 8=FIX.4.4|9=62|35=0|49=MY_COMPANY|56=EXCHANGE|34=67|52=20250521-09:41:07.923|10=115|
2025-05-21 10:41:07,924 [INFO] HEARBEAT SENT: 8=FIX.4.4|9=62|35=0|49=MY_COMPANY|56=EXCHANGE|34=38|52=20250521-09:41:07.924|10=114|
2025-05-21 10:41:07,924 [INFO] HEARBEAT SENT: 8=FIX.4.4|9=62|35=0|49=MY_COMPANY|56=EXCHANGE|34=26|52=20250521-09:41:07.924|10=111|
2025-05-21 10:41:07,924 [INFO] HEARBEAT SENT: 8=FIX.4.4|9=62|35=0|49=MY_COMPANY|56=EXCHANGE|34=35|52=20250521-09:41:07.924|10=111|
2025-05-21 10:41:07,924 [INFO] HEARBEAT SENT: 8=FIX.4.4|9=62|35=0|49=MY_COMPANY|56=EXCHANGE|34=25|52=20250521-09:41:07.924|10=110|
2025-05-21 10:41:07,925 [INFO] HEARBEAT SENT: 8=FIX.4.4|9=62|35=0|49=MY_COMPANY|56=EXCHANGE|34=33|52=20250521-09:41:07.925|10=110|
2025-05-21 10:41:07,925 [INFO] HEARBEAT SENT: 8=FIX.4.4|9=62|35=0|49=MY_COMPANY|56=EXCHANGE|34=45|52=20250521-09:41:07.925|10=113|
2025-05-21 10:41:07,925 [INFO] HEARBEAT SENT: 8=FIX.4.4|9=62|35=0|49=MY_COMPANY|56=EXCHANGE|34=76|52=20250521-09:41:07.925|10=117|
2025-05-21 10:41:07,925 [INFO] HEARBEAT SENT: 8=FIX.4.4|9=62|35=0|49=MY_COMPANY|56=EXCHANGE|34=31|52=20250521-09:41:07.925|10=108|
2025-05-21 10:41:38,037 [INFO] HEARBEAT SENT: 8=FIX.4.4|9=62|35=0|49=MY_COMPANY|56=EXCHANGE|34=37|52=20250521-09:41:38.037|10=112|
2025-05-21 10:41:38,039 [INFO] HEARBEAT SENT: 8=FIX.4.4|9=62|35=0|49=MY_COMPANY|56=EXCHANGE|34=44|52=20250521-09:41:38.038|10=111|
2025-05-21 10:41:38,039 [INFO] HEARBEAT SENT: 8=FIX.4.4|9=62|35=0|49=MY_COMPANY|56=EXCHANGE|34=36|52=20250521-09:41:38.039|10=113|
2025-05-21 10:41:38,039 [INFO] HEARBEAT SENT: 8=FIX.4.4|9=62|35=0|49=MY_COMPANY|56=EXCHANGE|34=22|52=20250521-09:41:38.039|10=108|
2025-05-21 10:41:38,049 [INFO] HEARBEAT SENT: 8=FIX.4.4|9=63|35=0|49=MY_COMPANY|56=EXCHANGE|34=115|52=20250521-09:41:38.049|10=161|
2025-05-21 10:41:38,049 [INFO] HEARBEAT SENT: 8=FIX.4.4|9=62|35=0|49=MY_COMPANY|56=EXCHANGE|34=97|52=20250521-09:41:38.049|10=121|
2025-05-21 10:41:38,049 [INFO] HEARBEAT SENT: 8=FIX.4.4|9=63|35=0|49=MY_COMPANY|56=EXCHANGE|34=172|52=20250521-09:41:38.049|10=164|
2025-05-21 10:41:38,050 [INFO] HEARBEAT SENT: 8=FIX.4.4|9=62|35=0|49=MY_COMPANY|56=EXCHANGE|34=44|52=20250521-09:41:38.050|10=105|
2025-05-21 10:41:38,055 [INFO] HEARBEAT SENT: 8=FIX.4.4|9=63|35=0|49=MY_COMPANY|56=EXCHANGE|34=148|52=20250521-09:41:38.055|10=164|
2025-05-21 10:41:38,056 [INFO] HEARBEAT SENT: 8=FIX.4.4|9=63|35=0|49=MY_COMPANY|56=EXCHANGE|34=109|52=20250521-09:41:38.056|10=162|
2025-05-21 10:41:38,056 [INFO] HEARBEAT SENT: 8=FIX.4.4|9=62|35=0|49=MY_COMPANY|56=EXCHANGE|34=92|52=20250521-09:41:38.056|10=114|
2025-05-21 10:41:38,056 [INFO] HEARBEAT SENT: 8=FIX.4.4|9=62|35=0|49=MY_COMPANY|56=EXCHANGE|34=52|52=20250521-09:41:38.056|10=110|
2025-05-21 10:41:38,058 [INFO] HEARBEAT SENT: 8=FIX.4.4|9=62|35=0|49=MY_COMPANY|56=EXCHANGE|34=39|52=20250521-09:41:38.058|10=117|
2025-05-21 10:41:38,058 [INFO] HEARBEAT SENT: 8=FIX.4.4|9=62|35=0|49=MY_COMPANY|56=EXCHANGE|34=85|52=20250521-09:41:38.058|10=118|
2025-05-21 10:41:38,058 [INFO] HEARBEAT SENT: 8=FIX.4.4|9=63|35=0|49=MY_COMPANY|56=EXCHANGE|34=145|52=20250521-09:41:38.058|10=164|
2025-05-21 10:41:38,058 [INFO] HEARBEAT SENT: 8=FIX.4.4|9=62|35=0|49=MY_COMPANY|56=EXCHANGE|34=68|52=20250521-09:41:38.058|10=119|
2025-05-21 10:41:38,071 [INFO] HEARBEAT SENT: 8=FIX.4.4|9=62|35=0|49=MY_COMPANY|56=EXCHANGE|34=39|52=20250521-09:41:38.071|10=112|
2025-05-21 10:41:38,072 [INFO] HEARBEAT SENT: 8=FIX.4.4|9=62|35=0|49=MY_COMPANY|56=EXCHANGE|34=29|52=20250521-09:41:38.072|10=112|
2025-05-21 10:41:38,072 [INFO] HEARBEAT SENT: 8=FIX.4.4|9=62|35=0|49=MY_COMPANY|56=EXCHANGE|34=38|52=20250521-09:41:38.072|10=112|
2025-05-21 10:41:38,072 [INFO] HEARBEAT SENT: 8=FIX.4.4|9=62|35=0|49=MY_COMPANY|56=EXCHANGE|34=27|52=20250521-09:41:38.072|10=110|
2025-05-21 10:41:38,074 [INFO] HEARBEAT SENT: 8=FIX.4.4|9=62|35=0|49=MY_COMPANY|56=EXCHANGE|34=40|52=20250521-09:41:38.074|10=107|
2025-05-21 10:41:38,074 [INFO] HEARBEAT SENT: 8=FIX.4.4|9=62|35=0|49=MY_COMPANY|56=EXCHANGE|34=48|52=20250521-09:41:38.074|10=115|
2025-05-21 10:41:38,074 [INFO] HEARBEAT SENT: 8=FIX.4.4|9=62|35=0|49=MY_COMPANY|56=EXCHANGE|34=77|52=20250521-09:41:38.074|10=117|
2025-05-21 10:41:38,074 [INFO] HEARBEAT SENT: 8=FIX.4.4|9=62|35=0|49=MY_COMPANY|56=EXCHANGE|34=33|52=20250521-09:41:38.074|10=109|
2025-05-21 10:42:08,202 [INFO] HEARBEAT SENT: 8=FIX.4.4|9=62|35=0|49=MY_COMPANY|56=EXCHANGE|34=38|52=20250521-09:42:08.202|10=105|
2025-05-21 10:42:08,203 [INFO] HEARBEAT SENT: 8=FIX.4.4|9=62|35=0|49=MY_COMPANY|56=EXCHANGE|34=45|52=20250521-09:42:08.203|10=104|
2025-05-21 10:42:08,203 [INFO] HEARBEAT SENT: 8=FIX.4.4|9=62|35=0|49=MY_COMPANY|56=EXCHANGE|34=37|52=20250521-09:42:08.203|10=105|
2025-05-21 10:42:08,203 [INFO] HEARBEAT SENT: 8=FIX.4.4|9=62|35=0|49=MY_COMPANY|56=EXCHANGE|34=23|52=20250521-09:42:08.203|10=100|
2025-05-21 10:42:08,207 [INFO] HEARBEAT SENT: 8=FIX.4.4|9=63|35=0|49=MY_COMPANY|56=EXCHANGE|34=124|52=20250521-09:42:08.207|10=155|
2025-05-21 10:42:08,207 [INFO] HEARBEAT SENT: 8=FIX.4.4|9=63|35=0|49=MY_COMPANY|56=EXCHANGE|34=111|52=20250521-09:42:08.207|10=151|
2025-05-21 10:42:08,207 [INFO] HEARBEAT SENT: 8=FIX.4.4|9=63|35=0|49=MY_COMPANY|56=EXCHANGE|34=175|52=20250521-09:42:08.207|10=161|
2025-05-21 10:42:08,207 [INFO] HEARBEAT SENT: 8=FIX.4.4|9=62|35=0|49=MY_COMPANY|56=EXCHANGE|34=51|52=20250521-09:42:08.207|10=105|
2025-05-21 10:42:08,209 [INFO] HEARBEAT SENT: 8=FIX.4.4|9=63|35=0|49=MY_COMPANY|56=EXCHANGE|34=164|52=20250521-09:42:08.209|10=161|
2025-05-21 10:42:08,209 [INFO] HEARBEAT SENT: 8=FIX.4.4|9=63|35=0|49=MY_COMPANY|56=EXCHANGE|34=112|52=20250521-09:42:08.209|10=154|
2025-05-21 10:42:08,209 [INFO] HEARBEAT SENT: 8=FIX.4.4|9=63|35=0|49=MY_COMPANY|56=EXCHANGE|34=100|52=20250521-09:42:08.209|10=151|
2025-05-21 10:42:08,209 [INFO] HEARBEAT SENT: 8=FIX.4.4|9=62|35=0|49=MY_COMPANY|56=EXCHANGE|34=56|52=20250521-09:42:08.209|10=112|
2025-05-21 10:42:08,211 [INFO] HEARBEAT SENT: 8=FIX.4.4|9=62|35=0|49=MY_COMPANY|56=EXCHANGE|34=40|52=20250521-09:42:08.211|10=098|
2025-05-21 10:42:08,212 [INFO] HEARBEAT SENT: 8=FIX.4.4|9=62|35=0|49=MY_COMPANY|56=EXCHANGE|34=91|52=20250521-09:42:08.211|10=104|
2025-05-21 10:42:08,212 [INFO] HEARBEAT SENT: 8=FIX.4.4|9=63|35=0|49=MY_COMPANY|56=EXCHANGE|34=158|52=20250521-09:42:08.212|10=158|
2025-05-21 10:42:08,212 [INFO] HEARBEAT SENT: 8=FIX.4.4|9=62|35=0|49=MY_COMPANY|56=EXCHANGE|34=77|52=20250521-09:42:08.212|10=109|
2025-05-21 10:42:08,212 [INFO] HEARBEAT SENT: 8=FIX.4.4|9=62|35=0|49=MY_COMPANY|56=EXCHANGE|34=42|52=20250521-09:42:08.212|10=101|
2025-05-21 10:42:08,213 [INFO] HEARBEAT SENT: 8=FIX.4.4|9=62|35=0|49=MY_COMPANY|56=EXCHANGE|34=30|52=20250521-09:42:08.212|10=098|
2025-05-21 10:42:08,213 [INFO] HEARBEAT SENT: 8=FIX.4.4|9=62|35=0|49=MY_COMPANY|56=EXCHANGE|34=39|52=20250521-09:42:08.213|10=108|
2025-05-21 10:42:08,213 [INFO] HEARBEAT SENT: 8=FIX.4.4|9=62|35=0|49=MY_COMPANY|56=EXCHANGE|34=28|52=20250521-09:42:08.213|10=106|
2025-05-21 10:42:08,214 [INFO] HEARBEAT SENT: 8=FIX.4.4|9=62|35=0|49=MY_COMPANY|56=EXCHANGE|34=44|52=20250521-09:42:08.214|10=105|
2025-05-21 10:42:08,214 [INFO] HEARBEAT SENT: 8=FIX.4.4|9=62|35=0|49=MY_COMPANY|56=EXCHANGE|34=49|52=20250521-09:42:08.214|10=110|
2025-05-21 10:42:08,214 [INFO] HEARBEAT SENT: 8=FIX.4.4|9=62|35=0|49=MY_COMPANY|56=EXCHANGE|34=82|52=20250521-09:42:08.214|10=107|
2025-05-21 10:42:08,214 [INFO] HEARBEAT SENT: 8=FIX.4.4|9=62|35=0|49=MY_COMPANY|56=EXCHANGE|34=36|52=20250521-09:42:08.214|10=106|
2025-05-21 10:42:38,320 [INFO] HEARBEAT SENT: 8=FIX.4.4|9=62|35=0|49=MY_COMPANY|56=EXCHANGE|34=43|52=20250521-09:42:38.320|10=105|
2025-05-21 10:42:38,321 [INFO] HEARBEAT SENT: 8=FIX.4.4|9=62|35=0|49=MY_COMPANY|56=EXCHANGE|34=48|52=20250521-09:42:38.321|10=111|
2025-05-21 10:42:38,321 [INFO] HEARBEAT SENT: 8=FIX.4.4|9=62|35=0|49=MY_COMPANY|56=EXCHANGE|34=40|52=20250521-09:42:38.321|10=103|
2025-05-21 10:42:38,321 [INFO] HEARBEAT SENT: 8=FIX.4.4|9=62|35=0|49=MY_COMPANY|56=EXCHANGE|34=26|52=20250521-09:42:38.321|10=107|
2025-05-21 10:42:38,321 [INFO] HEARBEAT SENT: 8=FIX.4.4|9=63|35=0|49=MY_COMPANY|56=EXCHANGE|34=125|52=20250521-09:42:38.321|10=156|
2025-05-21 10:42:38,321 [INFO] HEARBEAT SENT: 8=FIX.4.4|9=63|35=0|49=MY_COMPANY|56=EXCHANGE|34=112|52=20250521-09:42:38.321|10=152|
2025-05-21 10:42:38,321 [INFO] HEARBEAT SENT: 8=FIX.4.4|9=63|35=0|49=MY_COMPANY|56=EXCHANGE|34=182|52=20250521-09:42:38.321|10=159|
2025-05-21 10:42:38,322 [INFO] HEARBEAT SENT: 8=FIX.4.4|9=62|35=0|49=MY_COMPANY|56=EXCHANGE|34=52|52=20250521-09:42:38.322|10=107|
2025-05-21 10:42:38,323 [INFO] HEARBEAT SENT: 8=FIX.4.4|9=63|35=0|49=MY_COMPANY|56=EXCHANGE|34=178|52=20250521-09:42:38.323|10=166|
2025-05-21 10:42:38,323 [INFO] HEARBEAT SENT: 8=FIX.4.4|9=63|35=0|49=MY_COMPANY|56=EXCHANGE|34=113|52=20250521-09:42:38.323|10=155|
2025-05-21 10:42:38,323 [INFO] HEARBEAT SENT: 8=FIX.4.4|9=63|35=0|49=MY_COMPANY|56=EXCHANGE|34=101|52=20250521-09:42:38.323|10=152|
2025-05-21 10:42:38,323 [INFO] HEARBEAT SENT: 8=FIX.4.4|9=62|35=0|49=MY_COMPANY|56=EXCHANGE|34=57|52=20250521-09:42:38.323|10=113|
2025-05-21 10:42:38,325 [INFO] HEARBEAT SENT: 8=FIX.4.4|9=62|35=0|49=MY_COMPANY|56=EXCHANGE|34=45|52=20250521-09:42:38.325|10=112|
2025-05-21 10:42:38,325 [INFO] HEARBEAT SENT: 8=FIX.4.4|9=62|35=0|49=MY_COMPANY|56=EXCHANGE|34=92|52=20250521-09:42:38.325|10=114|
2025-05-21 10:42:38,325 [INFO] HEARBEAT SENT: 8=FIX.4.4|9=63|35=0|49=MY_COMPANY|56=EXCHANGE|34=159|52=20250521-09:42:38.325|10=167|
2025-05-21 10:42:38,325 [INFO] HEARBEAT SENT: 8=FIX.4.4|9=62|35=0|49=MY_COMPANY|56=EXCHANGE|34=84|52=20250521-09:42:38.325|10=115|
2025-05-21 10:42:38,326 [INFO] HEARBEAT SENT: 8=FIX.4.4|9=62|35=0|49=MY_COMPANY|56=EXCHANGE|34=43|52=20250521-09:42:38.326|10=111|
2025-05-21 10:42:38,326 [INFO] HEARBEAT SENT: 8=FIX.4.4|9=62|35=0|49=MY_COMPANY|56=EXCHANGE|34=34|52=20250521-09:42:38.326|10=111|
2025-05-21 10:42:38,326 [INFO] HEARBEAT SENT: 8=FIX.4.4|9=62|35=0|49=MY_COMPANY|56=EXCHANGE|34=44|52=20250521-09:42:38.326|10=112|
2025-05-21 10:42:38,326 [INFO] HEARBEAT SENT: 8=FIX.4.4|9=62|35=0|49=MY_COMPANY|56=EXCHANGE|34=30|52=20250521-09:42:38.326|10=107|
2025-05-21 10:42:38,327 [INFO] HEARBEAT SENT: 8=FIX.4.4|9=62|35=0|49=MY_COMPANY|56=EXCHANGE|34=45|52=20250521-09:42:38.327|10=114|
2025-05-21 10:42:38,327 [INFO] HEARBEAT SENT: 8=FIX.4.4|9=62|35=0|49=MY_COMPANY|56=EXCHANGE|34=52|52=20250521-09:42:38.327|10=112|
2025-05-21 10:42:38,327 [INFO] HEARBEAT SENT: 8=FIX.4.4|9=62|35=0|49=MY_COMPANY|56=EXCHANGE|34=83|52=20250521-09:42:38.327|10=116|
2025-05-21 10:42:38,327 [INFO] HEARBEAT SENT: 8=FIX.4.4|9=62|35=0|49=MY_COMPANY|56=EXCHANGE|34=37|52=20250521-09:42:38.327|10=115|
2025-05-21 10:43:08,451 [INFO] HEARBEAT SENT: 8=FIX.4.4|9=62|35=0|49=MY_COMPANY|56=EXCHANGE|34=44|52=20250521-09:43:08.451|10=109|
2025-05-21 10:43:08,452 [INFO] HEARBEAT SENT: 8=FIX.4.4|9=62|35=0|49=MY_COMPANY|56=EXCHANGE|34=49|52=20250521-09:43:08.452|10=115|
2025-05-21 10:43:08,452 [INFO] HEARBEAT SENT: 8=FIX.4.4|9=62|35=0|49=MY_COMPANY|56=EXCHANGE|34=41|52=20250521-09:43:08.452|10=107|
2025-05-21 10:43:08,452 [INFO] HEARBEAT SENT: 8=FIX.4.4|9=62|35=0|49=MY_COMPANY|56=EXCHANGE|34=27|52=20250521-09:43:08.452|10=111|
2025-05-21 10:43:08,455 [INFO] HEARBEAT SENT: 8=FIX.4.4|9=63|35=0|49=MY_COMPANY|56=EXCHANGE|34=132|52=20250521-09:43:08.455|10=160|
2025-05-21 10:43:08,455 [INFO] HEARBEAT SENT: 8=FIX.4.4|9=63|35=0|49=MY_COMPANY|56=EXCHANGE|34=115|52=20250521-09:43:08.455|10=161|
2025-05-21 10:43:08,455 [INFO] HEARBEAT SENT: 8=FIX.4.4|9=63|35=0|49=MY_COMPANY|56=EXCHANGE|34=183|52=20250521-09:43:08.455|10=166|
2025-05-21 10:43:08,456 [INFO] HEARBEAT SENT: 8=FIX.4.4|9=62|35=0|49=MY_COMPANY|56=EXCHANGE|34=54|52=20250521-09:43:08.456|10=115|
2025-05-21 10:43:08,458 [INFO] HEARBEAT SENT: 8=FIX.4.4|9=63|35=0|49=MY_COMPANY|56=EXCHANGE|34=192|52=20250521-09:43:08.458|10=169|
2025-05-21 10:43:08,458 [INFO] HEARBEAT SENT: 8=FIX.4.4|9=63|35=0|49=MY_COMPANY|56=EXCHANGE|34=119|52=20250521-09:43:08.458|10=168|
2025-05-21 10:43:08,458 [INFO] HEARBEAT SENT: 8=FIX.4.4|9=63|35=0|49=MY_COMPANY|56=EXCHANGE|34=104|52=20250521-09:43:08.458|10=162|
2025-05-21 10:43:08,458 [INFO] HEARBEAT SENT: 8=FIX.4.4|9=62|35=0|49=MY_COMPANY|56=EXCHANGE|34=60|52=20250521-09:43:08.458|10=114|
2025-05-21 10:43:08,460 [INFO] HEARBEAT SENT: 8=FIX.4.4|9=62|35=0|49=MY_COMPANY|56=EXCHANGE|34=48|52=20250521-09:43:08.460|10=113|
2025-05-21 10:43:08,460 [INFO] HEARBEAT SENT: 8=FIX.4.4|9=62|35=0|49=MY_COMPANY|56=EXCHANGE|34=95|52=20250521-09:43:08.460|10=115|
2025-05-21 10:43:08,460 [INFO] HEARBEAT SENT: 8=FIX.4.4|9=63|35=0|49=MY_COMPANY|56=EXCHANGE|34=162|52=20250521-09:43:08.460|10=159|
2025-05-21 10:43:08,460 [INFO] HEARBEAT SENT: 8=FIX.4.4|9=62|35=0|49=MY_COMPANY|56=EXCHANGE|34=88|52=20250521-09:43:08.460|10=117|
2025-05-21 10:43:08,461 [INFO] HEARBEAT SENT: 8=FIX.4.4|9=62|35=0|49=MY_COMPANY|56=EXCHANGE|34=52|52=20250521-09:43:08.461|10=109|
2025-05-21 10:43:08,461 [INFO] HEARBEAT SENT: 8=FIX.4.4|9=62|35=0|49=MY_COMPANY|56=EXCHANGE|34=35|52=20250521-09:43:08.461|10=110|
2025-05-21 10:43:08,461 [INFO] HEARBEAT SENT: 8=FIX.4.4|9=62|35=0|49=MY_COMPANY|56=EXCHANGE|34=45|52=20250521-09:43:08.461|10=111|
2025-05-21 10:43:08,461 [INFO] HEARBEAT SENT: 8=FIX.4.4|9=62|35=0|49=MY_COMPANY|56=EXCHANGE|34=31|52=20250521-09:43:08.461|10=106|
2025-05-21 10:43:08,463 [INFO] HEARBEAT SENT: 8=FIX.4.4|9=62|35=0|49=MY_COMPANY|56=EXCHANGE|34=55|52=20250521-09:43:08.463|10=114|
2025-05-21 10:43:08,464 [INFO] HEARBEAT SENT: 8=FIX.4.4|9=62|35=0|49=MY_COMPANY|56=EXCHANGE|34=53|52=20250521-09:43:08.464|10=113|
2025-05-21 10:43:08,464 [INFO] HEARBEAT SENT: 8=FIX.4.4|9=62|35=0|49=MY_COMPANY|56=EXCHANGE|34=92|52=20250521-09:43:08.464|10=116|
2025-05-21 10:43:08,464 [INFO] HEARBEAT SENT: 8=FIX.4.4|9=62|35=0|49=MY_COMPANY|56=EXCHANGE|34=39|52=20250521-09:43:08.464|10=117|
2025-05-21 10:43:38,565 [INFO] HEARBEAT SENT: 8=FIX.4.4|9=62|35=0|49=MY_COMPANY|56=EXCHANGE|34=47|52=20250521-09:43:38.565|10=121|
2025-05-21 10:43:38,566 [INFO] HEARBEAT SENT: 8=FIX.4.4|9=62|35=0|49=MY_COMPANY|56=EXCHANGE|34=52|52=20250521-09:43:38.566|10=118|
2025-05-21 10:43:38,567 [INFO] HEARBEAT SENT: 8=FIX.4.4|9=62|35=0|49=MY_COMPANY|56=EXCHANGE|34=47|52=20250521-09:43:38.567|10=123|
2025-05-21 10:43:38,567 [INFO] HEARBEAT SENT: 8=FIX.4.4|9=62|35=0|49=MY_COMPANY|56=EXCHANGE|34=29|52=20250521-09:43:38.567|10=123|
2025-05-21 10:43:38,569 [INFO] HEARBEAT SENT: 8=FIX.4.4|9=63|35=0|49=MY_COMPANY|56=EXCHANGE|34=133|52=20250521-09:43:38.569|10=170|
2025-05-21 10:43:38,569 [INFO] HEARBEAT SENT: 8=FIX.4.4|9=63|35=0|49=MY_COMPANY|56=EXCHANGE|34=119|52=20250521-09:43:38.569|10=174|
2025-05-21 10:43:38,569 [INFO] HEARBEAT SENT: 8=FIX.4.4|9=63|35=0|49=MY_COMPANY|56=EXCHANGE|34=193|52=20250521-09:43:38.569|10=176|
2025-05-21 10:43:38,569 [INFO] HEARBEAT SENT: 8=FIX.4.4|9=62|35=0|49=MY_COMPANY|56=EXCHANGE|34=56|52=20250521-09:43:38.569|10=125|
2025-05-21 10:43:38,571 [INFO] HEARBEAT SENT: 8=FIX.4.4|9=63|35=0|49=MY_COMPANY|56=EXCHANGE|34=208|52=20250521-09:43:38.571|10=166|
2025-05-21 10:43:38,571 [INFO] HEARBEAT SENT: 8=FIX.4.4|9=63|35=0|49=MY_COMPANY|56=EXCHANGE|34=120|52=20250521-09:43:38.571|10=159|
2025-05-21 10:43:38,571 [INFO] HEARBEAT SENT: 8=FIX.4.4|9=63|35=0|49=MY_COMPANY|56=EXCHANGE|34=105|52=20250521-09:43:38.571|10=162|
2025-05-21 10:43:38,572 [INFO] HEARBEAT SENT: 8=FIX.4.4|9=62|35=0|49=MY_COMPANY|56=EXCHANGE|34=66|52=20250521-09:43:38.572|10=120|
2025-05-21 10:43:38,572 [INFO] HEARBEAT SENT: 8=FIX.4.4|9=62|35=0|49=MY_COMPANY|56=EXCHANGE|34=49|52=20250521-09:43:38.572|10=121|
2025-05-21 10:43:38,572 [INFO] HEARBEAT SENT: 8=FIX.4.4|9=62|35=0|49=MY_COMPANY|56=EXCHANGE|34=96|52=20250521-09:43:38.572|10=123|
2025-05-21 10:43:38,572 [INFO] HEARBEAT SENT: 8=FIX.4.4|9=63|35=0|49=MY_COMPANY|56=EXCHANGE|34=165|52=20250521-09:43:38.572|10=169|
2025-05-21 10:43:38,573 [INFO] HEARBEAT SENT: 8=FIX.4.4|9=62|35=0|49=MY_COMPANY|56=EXCHANGE|34=89|52=20250521-09:43:38.573|10=126|
2025-05-21 10:43:38,576 [INFO] HEARBEAT SENT: 8=FIX.4.4|9=62|35=0|49=MY_COMPANY|56=EXCHANGE|34=53|52=20250521-09:43:38.576|10=120|
2025-05-21 10:43:38,576 [INFO] HEARBEAT SENT: 8=FIX.4.4|9=62|35=0|49=MY_COMPANY|56=EXCHANGE|34=38|52=20250521-09:43:38.576|10=123|
2025-05-21 10:43:38,576 [INFO] HEARBEAT SENT: 8=FIX.4.4|9=62|35=0|49=MY_COMPANY|56=EXCHANGE|34=54|52=20250521-09:43:38.576|10=121|
2025-05-21 10:43:38,576 [INFO] HEARBEAT SENT: 8=FIX.4.4|9=62|35=0|49=MY_COMPANY|56=EXCHANGE|34=33|52=20250521-09:43:38.576|10=118|
2025-05-21 10:43:38,577 [INFO] HEARBEAT SENT: 8=FIX.4.4|9=62|35=0|49=MY_COMPANY|56=EXCHANGE|34=56|52=20250521-09:43:38.577|10=124|
2025-05-21 10:43:38,577 [INFO] HEARBEAT SENT: 8=FIX.4.4|9=62|35=0|49=MY_COMPANY|56=EXCHANGE|34=56|52=20250521-09:43:38.577|10=124|
2025-05-21 10:43:38,578 [INFO] HEARBEAT SENT: 8=FIX.4.4|9=62|35=0|49=MY_COMPANY|56=EXCHANGE|34=95|52=20250521-09:43:38.578|10=128|
2025-05-21 10:43:38,578 [INFO] HEARBEAT SENT: 8=FIX.4.4|9=62|35=0|49=MY_COMPANY|56=EXCHANGE|34=40|52=20250521-09:43:38.578|10=118|
2025-05-21 10:44:08,701 [INFO] HEARBEAT SENT: 8=FIX.4.4|9=62|35=0|49=MY_COMPANY|56=EXCHANGE|34=48|52=20250521-09:44:08.700|10=111|
2025-05-21 10:44:08,701 [INFO] HEARBEAT SENT: 8=FIX.4.4|9=62|35=0|49=MY_COMPANY|56=EXCHANGE|34=53|52=20250521-09:44:08.701|10=108|
2025-05-21 10:44:08,701 [INFO] HEARBEAT SENT: 8=FIX.4.4|9=62|35=0|49=MY_COMPANY|56=EXCHANGE|34=48|52=20250521-09:44:08.701|10=112|
2025-05-21 10:44:08,701 [INFO] HEARBEAT SENT: 8=FIX.4.4|9=62|35=0|49=MY_COMPANY|56=EXCHANGE|34=30|52=20250521-09:44:08.701|10=103|
2025-05-21 10:44:08,705 [INFO] HEARBEAT SENT: 8=FIX.4.4|9=63|35=0|49=MY_COMPANY|56=EXCHANGE|34=138|52=20250521-09:44:08.705|10=165|
2025-05-21 10:44:08,705 [INFO] HEARBEAT SENT: 8=FIX.4.4|9=63|35=0|49=MY_COMPANY|56=EXCHANGE|34=120|52=20250521-09:44:08.705|10=156|
2025-05-21 10:44:08,705 [INFO] HEARBEAT SENT: 8=FIX.4.4|9=63|35=0|49=MY_COMPANY|56=EXCHANGE|34=207|52=20250521-09:44:08.705|10=162|
2025-05-21 10:44:08,706 [INFO] HEARBEAT SENT: 8=FIX.4.4|9=62|35=0|49=MY_COMPANY|56=EXCHANGE|34=57|52=20250521-09:44:08.706|10=117|
2025-05-21 10:44:08,708 [INFO] HEARBEAT SENT: 8=FIX.4.4|9=63|35=0|49=MY_COMPANY|56=EXCHANGE|34=222|52=20250521-09:44:08.708|10=162|
2025-05-21 10:44:08,708 [INFO] HEARBEAT SENT: 8=FIX.4.4|9=63|35=0|49=MY_COMPANY|56=EXCHANGE|34=125|52=20250521-09:44:08.708|10=164|
2025-05-21 10:44:08,709 [INFO] HEARBEAT SENT: 8=FIX.4.4|9=63|35=0|49=MY_COMPANY|56=EXCHANGE|34=114|52=20250521-09:44:08.709|10=163|
2025-05-21 10:44:08,709 [INFO] HEARBEAT SENT: 8=FIX.4.4|9=62|35=0|49=MY_COMPANY|56=EXCHANGE|34=67|52=20250521-09:44:08.709|10=121|
2025-05-21 10:44:08,709 [INFO] HEARBEAT SENT: 8=FIX.4.4|9=62|35=0|49=MY_COMPANY|56=EXCHANGE|34=53|52=20250521-09:44:08.709|10=116|
2025-05-21 10:44:08,710 [INFO] HEARBEAT SENT: 8=FIX.4.4|9=62|35=0|49=MY_COMPANY|56=EXCHANGE|34=99|52=20250521-09:44:08.710|10=118|
2025-05-21 10:44:08,710 [INFO] HEARBEAT SENT: 8=FIX.4.4|9=63|35=0|49=MY_COMPANY|56=EXCHANGE|34=166|52=20250521-09:44:08.710|10=162|
2025-05-21 10:44:08,710 [INFO] HEARBEAT SENT: 8=FIX.4.4|9=62|35=0|49=MY_COMPANY|56=EXCHANGE|34=91|52=20250521-09:44:08.710|10=110|
2025-05-21 10:44:08,711 [INFO] HEARBEAT SENT: 8=FIX.4.4|9=62|35=0|49=MY_COMPANY|56=EXCHANGE|34=59|52=20250521-09:44:08.711|10=115|
2025-05-21 10:44:08,711 [INFO] HEARBEAT SENT: 8=FIX.4.4|9=62|35=0|49=MY_COMPANY|56=EXCHANGE|34=39|52=20250521-09:44:08.711|10=113|
2025-05-21 10:44:08,711 [INFO] HEARBEAT SENT: 8=FIX.4.4|9=62|35=0|49=MY_COMPANY|56=EXCHANGE|34=55|52=20250521-09:44:08.711|10=111|
2025-05-21 10:44:08,711 [INFO] HEARBEAT SENT: 8=FIX.4.4|9=62|35=0|49=MY_COMPANY|56=EXCHANGE|34=36|52=20250521-09:44:08.711|10=110|
2025-05-21 10:44:08,714 [INFO] HEARBEAT SENT: 8=FIX.4.4|9=62|35=0|49=MY_COMPANY|56=EXCHANGE|34=63|52=20250521-09:44:08.714|10=113|
2025-05-21 10:44:08,714 [INFO] HEARBEAT SENT: 8=FIX.4.4|9=62|35=0|49=MY_COMPANY|56=EXCHANGE|34=57|52=20250521-09:44:08.714|10=116|
2025-05-21 10:44:08,714 [INFO] HEARBEAT SENT: 8=FIX.4.4|9=62|35=0|49=MY_COMPANY|56=EXCHANGE|34=96|52=20250521-09:44:08.714|10=119|
2025-05-21 10:44:08,714 [INFO] HEARBEAT SENT: 8=FIX.4.4|9=62|35=0|49=MY_COMPANY|56=EXCHANGE|34=42|52=20250521-09:44:08.714|10=110|
2025-05-21 10:44:38,839 [INFO] HEARBEAT SENT: 8=FIX.4.4|9=62|35=0|49=MY_COMPANY|56=EXCHANGE|34=51|52=20250521-09:44:38.839|10=121|
2025-05-21 10:44:38,848 [INFO] HEARBEAT SENT: 8=FIX.4.4|9=62|35=0|49=MY_COMPANY|56=EXCHANGE|34=56|52=20250521-09:44:38.848|10=126|
2025-05-21 10:44:38,849 [INFO] HEARBEAT SENT: 8=FIX.4.4|9=62|35=0|49=MY_COMPANY|56=EXCHANGE|34=51|52=20250521-09:44:38.849|10=122|
2025-05-21 10:44:38,851 [INFO] HEARBEAT SENT: 8=FIX.4.4|9=62|35=0|49=MY_COMPANY|56=EXCHANGE|34=32|52=20250521-09:44:38.851|10=114|
2025-05-21 10:44:38,857 [INFO] HEARBEAT SENT: 8=FIX.4.4|9=63|35=0|49=MY_COMPANY|56=EXCHANGE|34=139|52=20250521-09:44:38.857|10=177|
2025-05-21 10:44:38,857 [INFO] HEARBEAT SENT: 8=FIX.4.4|9=63|35=0|49=MY_COMPANY|56=EXCHANGE|34=134|52=20250521-09:44:38.857|10=172|
2025-05-21 10:44:38,857 [INFO] HEARBEAT SENT: 8=FIX.4.4|9=63|35=0|49=MY_COMPANY|56=EXCHANGE|34=222|52=20250521-09:44:38.857|10=170|
2025-05-21 10:44:38,857 [INFO] HEARBEAT SENT: 8=FIX.4.4|9=62|35=0|49=MY_COMPANY|56=EXCHANGE|34=59|52=20250521-09:44:38.857|10=129|
2025-05-21 10:44:38,858 [INFO] HEARBEAT SENT: 8=FIX.4.4|9=63|35=0|49=MY_COMPANY|56=EXCHANGE|34=235|52=20250521-09:44:38.858|10=175|
2025-05-21 10:44:38,858 [INFO] HEARBEAT SENT: 8=FIX.4.4|9=63|35=0|49=MY_COMPANY|56=EXCHANGE|34=126|52=20250521-09:44:38.858|10=174|
2025-05-21 10:44:38,858 [INFO] HEARBEAT SENT: 8=FIX.4.4|9=63|35=0|49=MY_COMPANY|56=EXCHANGE|34=115|52=20250521-09:44:38.858|10=172|
2025-05-21 10:44:38,858 [INFO] HEARBEAT SENT: 8=FIX.4.4|9=62|35=0|49=MY_COMPANY|56=EXCHANGE|34=72|52=20250521-09:44:38.858|10=125|
2025-05-21 10:44:38,858 [INFO] HEARBEAT SENT: 8=FIX.4.4|9=62|35=0|49=MY_COMPANY|56=EXCHANGE|34=54|52=20250521-09:44:38.858|10=125|
2025-05-21 10:44:38,858 [INFO] HEARBEAT SENT: 8=FIX.4.4|9=63|35=0|49=MY_COMPANY|56=EXCHANGE|34=100|52=20250521-09:44:38.858|10=166|
2025-05-21 10:44:38,858 [INFO] HEARBEAT SENT: 8=FIX.4.4|9=63|35=0|49=MY_COMPANY|56=EXCHANGE|34=175|52=20250521-09:44:38.858|10=178|
2025-05-21 10:44:38,858 [INFO] HEARBEAT SENT: 8=FIX.4.4|9=62|35=0|49=MY_COMPANY|56=EXCHANGE|34=92|52=20250521-09:44:38.858|10=127|
2025-05-21 10:44:38,859 [INFO] HEARBEAT SENT: 8=FIX.4.4|9=62|35=0|49=MY_COMPANY|56=EXCHANGE|34=60|52=20250521-09:44:38.859|10=123|
2025-05-21 10:44:38,859 [INFO] HEARBEAT SENT: 8=FIX.4.4|9=62|35=0|49=MY_COMPANY|56=EXCHANGE|34=42|52=20250521-09:44:38.859|10=123|
2025-05-21 10:44:38,859 [INFO] HEARBEAT SENT: 8=FIX.4.4|9=62|35=0|49=MY_COMPANY|56=EXCHANGE|34=58|52=20250521-09:44:38.859|10=130|
2025-05-21 10:44:38,859 [INFO] HEARBEAT SENT: 8=FIX.4.4|9=62|35=0|49=MY_COMPANY|56=EXCHANGE|34=37|52=20250521-09:44:38.859|10=127|
2025-05-21 10:44:38,859 [INFO] HEARBEAT SENT: 8=FIX.4.4|9=62|35=0|49=MY_COMPANY|56=EXCHANGE|34=68|52=20250521-09:44:38.859|10=131|
2025-05-21 10:44:38,860 [INFO] HEARBEAT SENT: 8=FIX.4.4|9=62|35=0|49=MY_COMPANY|56=EXCHANGE|34=60|52=20250521-09:44:38.860|10=115|
2025-05-21 10:44:38,860 [INFO] HEARBEAT SENT: 8=FIX.4.4|9=62|35=0|49=MY_COMPANY|56=EXCHANGE|34=99|52=20250521-09:44:38.860|10=127|
2025-05-21 10:44:38,860 [INFO] HEARBEAT SENT: 8=FIX.4.4|9=62|35=0|49=MY_COMPANY|56=EXCHANGE|34=43|52=20250521-09:44:38.860|10=116|
2025-05-21 10:44:46,853 [INFO] ===== FIX ENGINE INITIALISED =====
2025-05-21 10:44:46,853 [INFO] ===== FIX ENGINE INITIALISED =====
2025-05-21 10:44:46,853 [INFO] ===== FIX ENGINE INITIALISED =====
2025-05-21 10:44:46,853 [INFO] ===== FIX ENGINE INITIALISED =====
2025-05-21 10:44:46,854 [INFO] ===== FIX ENGINE INITIALISED =====
2025-05-21 10:44:46,854 [INFO] ===== FIX ENGINE INITIALISED =====
2025-05-21 10:44:46,854 [INFO] ===== FIX ENGINE INITIALISED =====
2025-05-21 10:44:46,854 [INFO] ===== FIX ENGINE INITIALISED =====
2025-05-21 10:44:46,854 [INFO] ===== FIX ENGINE INITIALISED =====
2025-05-21 10:44:46,854 [INFO] ===== FIX ENGINE INITIALISED =====
2025-05-21 10:44:46,862 [INFO] ===== FIX ENGINE INITIALISED =====
2025-05-21 10:44:46,862 [INFO] ===== FIX ENGINE INITIALISED =====
2025-05-21 10:44:46,862 [INFO] ===== FIX ENGINE INITIALISED =====
2025-05-21 10:44:46,862 [INFO] ===== FIX ENGINE INITIALISED =====
2025-05-21 10:44:46,865 [INFO] ===== FIX ENGINE INITIALISED =====
2025-05-21 10:44:46,865 [INFO] ===== FIX ENGINE INITIALISED =====
2025-05-21 10:44:46,865 [INFO] ===== FIX ENGINE INITIALISED =====
2025-05-21 10:44:46,865 [INFO] ===== FIX ENGINE INITIALISED =====
2025-05-21 10:44:46,869 [INFO] ===== FIX ENGINE INITIALISED =====
2025-05-21 10:44:46,869 [INFO] ===== FIX ENGINE INITIALISED =====
2025-05-21 10:44:46,869 [INFO] ===== FIX ENGINE INITIALISED =====
2025-05-21 10:44:46,869 [INFO] ===== FIX ENGINE INITIALISED =====
2025-05-21 10:44:46,871 [INFO] ===== FIX ENGINE INITIALISED =====
2025-05-21 10:44:46,871 [INFO] ===== FIX ENGINE INITIALISED =====
2025-05-21 10:44:46,871 [INFO] ===== FIX ENGINE INITIALISED =====
2025-05-21 10:44:46,871 [INFO] ===== FIX ENGINE INITIALISED =====
2025-05-21 10:44:46,873 [INFO] ===== FIX ENGINE INITIALISED =====
2025-05-21 10:44:46,874 [INFO] ===== FIX ENGINE INITIALISED =====
2025-05-21 10:44:46,874 [INFO] ===== FIX ENGINE INITIALISED =====
2025-05-21 10:44:46,874 [INFO] ===== FIX ENGINE INITIALISED =====
2025-05-21 10:45:17,095 [INFO] HEARBEAT SENT: 8=FIX.4.4|9=61|35=0|49=MY_COMPANY|56=EXCHANGE|34=7|52=20250521-09:45:17.095|10=065|
2025-05-21 10:45:17,098 [INFO] HEARBEAT SENT: 8=FIX.4.4|9=61|35=0|49=MY_COMPANY|56=EXCHANGE|34=7|52=20250521-09:45:17.098|10=068|
2025-05-21 10:45:17,100 [INFO] HEARBEAT SENT: 8=FIX.4.4|9=62|35=0|49=MY_COMPANY|56=EXCHANGE|34=10|52=20250521-09:45:17.099|10=112|
2025-05-21 10:45:17,100 [INFO] HEARBEAT SENT: 8=FIX.4.4|9=61|35=0|49=MY_COMPANY|56=EXCHANGE|34=5|52=20250521-09:45:17.100|10=050|
2025-05-21 10:45:17,111 [INFO] HEARBEAT SENT: 8=FIX.4.4|9=62|35=0|49=MY_COMPANY|56=EXCHANGE|34=25|52=20250521-09:45:17.111|10=103|
2025-05-21 10:45:17,112 [INFO] HEARBEAT SENT: 8=FIX.4.4|9=62|35=0|49=MY_COMPANY|56=EXCHANGE|34=24|52=20250521-09:45:17.111|10=102|
2025-05-21 10:45:17,112 [INFO] HEARBEAT SENT: 8=FIX.4.4|9=62|35=0|49=MY_COMPANY|56=EXCHANGE|34=33|52=20250521-09:45:17.112|10=103|
2025-05-21 10:45:17,112 [INFO] HEARBEAT SENT: 8=FIX.4.4|9=62|35=0|49=MY_COMPANY|56=EXCHANGE|34=19|52=20250521-09:45:17.112|10=107|
2025-05-21 10:45:17,119 [INFO] HEARBEAT SENT: 8=FIX.4.4|9=62|35=0|49=MY_COMPANY|56=EXCHANGE|34=26|52=20250521-09:45:17.119|10=112|
